:020000040800F2
:10000000000005245D3C00084D3A00085B3A0008FA
:10001000633A00086B3A0008733A000800000000D9
:10002000000000000000000000000000D19C030858
:100030007B3A000800000000219F0308518F03084D
:10004000AD3C0008AD3C0008AD3C0008AD3C0008EC
:10005000AD3C0008AD3C0008AD3C0008AD3C0008DC
:10006000AD3C0008AD3C0008AD3C0008893A0008F2
:10007000AD3C0008AD3C0008AD3C0008AD3C0008BC
:10008000AD3C0008AD3C00089D3A0008AD3C0008BE
:10009000AD3C0008AD3C0008AD3C0008AD3C00089C
:1000A000AD3C0008AD3C0008AD3C0008AD3C00088C
:1000B000AD3C0008AD3C0008AD3C0008AD3C00087C
:1000C000AD3C0008AD3C0008AD3C0008AD3C00086C
:1000D000AD3C0008AD3C0008AD3C0008AD3C00085C
:1000E000AD3C0008AD3C000800000000AD3C00083D
:1000F000AD3C0008AD3C0008AD3C0008AD3C00083C
:10010000AD3C0008AD3C0008AD3C0008AD3C00082B
:10011000AD3C0008AD3C0008B93A0008AD3C000811
:10012000AD3C0008AD3C0008AD3C0008AD3C00080B
:10013000AD3C0008AD3C0008AD3C0008AD3C0008FB
:1001400000000000000000000000000000000000AF
:10015000AD3C0008AD3C0008AD3C0008AD3C0008DB
:10016000AD3C0008AD3C0008AD3C0008AD3C0008CB
:10017000AD3C0008AD3C0008AD3C0008AD3C0008BB
:10018000AD3C0008AD3C0008AD3C0008AD3C0008AB
:10019000AD3C0008AD3C0008AD3C0008AD3C00089B
:1001A000CD3A0008AD3C0008E13A0008000000002C
:1001B000AD3C0008AD3C0008AD3C0008AD3C00087B
:1001C000AD3C0008AD3C000800000000000000004D
:1001D0000000000000000000AD3C0008000000002E
:1001E000000000000000000000000000000000000F
:1001F0000000000000000000AD3C0008AD3C00081D
:10020000AD3C0008AD3C000800000000AD3C00081B
:10021000AD3C0008AD3C0008AD3C0008AD3C00081A
:10022000AD3C000800000000AD3C000800000000EC
:10023000AD3C0008AD3C000800000000AD3C0008EB
:10024000AD3C0008AD3C0008AD3C0008AD3C0008EA
:10025000AD3C0008AD3C0008AD3C0008AD3C0008DA
:10026000AD3C0008AD3C0008AD3C0008AD3C0008CA
:10027000AD3C0008AD3C0008AD3C000800000000AB
:10028000AD3C0008AD3C0008AD3C0008AD3C0008AA
:1002900000000000AD3C0008AD3C0008AD3C00088B
:1002A000AD3C0008AD3C0008AD3C0008AD3C00088A
:1002B000AD3C0008AD3C0008AD3C0008AD3C00087A
:0C02C000AD3C0008F53A0008AD3C000819
:1002D00010B5054C237833B9044B13B10448AFF380
:1002E00000800123237010BD3401002400000000B1
:1002F000EC49050808B5034B1BB103490348AFF3AC
:10030000008008BD0000000038010024EC49050809
:1003100001F0FF01102A2BDB10F0070F08D010F8B6
:10032000013B013A8B422DD010F0070F42B3F6D1BA
:10033000F0B441EA012141EA014122F007047FF0D3
:1003400000070023F0E80256083C85EA010586EA2A
:10035000010685FA47F5A3FA87F586FA47F6A5FA66
:1003600087F68EB9EED1F0BC01F0FF0102F0070272
:1003700032B110F8013B013A83EA010313B1F8D11D
:100380000020704701387047002D06BF35460338FE
:10039000073815F0010F07D1013015F4807F02BF37
:1003A000013015F4C03F0130F0BC0138704700BF88
:1003B00081F0004102E000BF83F0004330B54FEA16
:1003C00041044FEA430594EA050F08BF90EA020F83
:1003D0001FBF54EA000C55EA020C7FEA645C7FEA16
:1003E000655C00F0E2804FEA5454D4EB5555B8BF39
:1003F0006D420CDD2C4480EA020281EA030382EAAA
:10040000000083EA010180EA020281EA0303362D3B
:1004100088BF30BD11F0004F4FEA01314FF4801C0E
:100420004CEA113102D0404261EB410113F0004F20
:100430004FEA03334CEA133302D0524263EB4303D7
:1004400094EA050F00F0A780A4F10104D5F1200E75
:100450000DDB02FA0EFC22FA05F2801841F10001D0
:1004600003FA0EF2801843FA05F359410EE0A5F1A4
:1004700020050EF1200E012A03FA0EFC28BF4CF0D5
:10048000020C43FA05F3C01851EBE37101F000458B
:1004900007D54FF0000EDCF1000C7EEB00006EEB98
:1004A0000101B1F5801F1BD3B1F5001F0CD3490822
:1004B0005FEA30004FEA3C0C04F101044FEA445279
:1004C00012F5800F80F09A80BCF1004F08BF5FEA00
:1004D000500C50F1000041EB045141EA050130BDE0
:1004E0005FEA4C0C404141EB0101013C28BFB1F5F2
:1004F000801FE9D291F0000F04BF01460020B1FA3D
:1005000081F308BF2033A3F10B03B3F120020CDA0F
:100510000C3208DD02F1140CC2F10C0201FA0CF0ED
:1005200021FA02F10CE002F11402D8BFC2F1200C52
:1005300001FA02F120FA0CFCDCBF41EA0C01904008
:10054000E41AA2BF01EB0451294330BD6FEA040451
:100550001F3C1CDA0C340EDC04F11404C4F120023C
:1005600020FA04F001FA02F340EA030021FA04F34E
:1005700045EA030130BDC4F10C04C4F1200220FAA5
:1005800002F001FA04F340EA0300294630BD21FAE3
:1005900004F0294630BD94F0000F83F4801306BFA9
:1005A00081F480110134013D4EE77FEA645C18BF9D
:1005B0007FEA655C29D094EA050F08BF90EA020F34
:1005C00005D054EA000C04BF1946104630BD91EA2C
:1005D000030F1EBF0021002030BD5FEA545C05D12F
:1005E0004000494128BF41F0004130BD14F580046E
:1005F0003CBF01F5801130BD01F0004545F0FE41E2
:1006000041F470014FF0000030BD7FEA645C1ABF16
:10061000194610467FEA655C1CBF0B46024650EA4D
:10062000013406BF52EA033591EA030F41F4002179
:1006300030BD00BF90F0000F04BF0021704730B5FF
:100640004FF4806404F132044FF000054FF00001D4
:1006500050E700BF90F0000F04BF0021704730B595
:100660004FF4806404F1320410F0004548BF40426A
:100670004FF000013EE700BF42004FEAE2014FEABF
:1006800031014FEA02701FBF12F07F4393F07F4F9A
:1006900081F06051704732F07F4208BF704793F09D
:1006A0007F4F04BF41F40021704730B54FF46074B0
:1006B00001F0004521F000411CE700BF50EA0102B3
:1006C00008BF704730B54FF000050AE050EA01025C
:1006D00008BF704730B511F0004502D5404261EBCC
:1006E00041014FF4806404F132045FEA915C3FF40D
:1006F000D8AE4FF003025FEADC0C18BF03325FEAAA
:10070000DC0C18BF033202EBDC02C2F1200300FA5A
:1007100003FC20FA02F001FA03FE40EA0E0021FA7F
:1007200002F11444BDE600BF80B500AF02490020CD
:100730003BF008F900BF80BD1148000880B483B0C9
:1007400000AF78604FF06043D3F8803E03F00103C0
:10075000002B13D04FF06043D3F8003E03F00103A9
:10076000002B0BD000E000BF4FF060431B68002B54
:10077000F9D04FF060437A68D2B21A707B6818469D
:100780000C37BD465DF8047B7047000080B400AFB5
:100790008F4B1B88B3F57A7F59D18E4B1B78502B2A
:1007A00007D0502B00F30E81142B36D0282B1AD0F3
:1007B00008E1894B1B68894AA2FB03239B094FF47C
:1007C0007A7202FB03F3844A1360834B1B6807EEC3
:1007D000903AB8EE677ADFED826AC7EE267A814BEF
:1007E000C3ED007AEEE0804B1B687C4AA2FB03233A
:1007F0009B094FF47A7202FB03F37B4A13607A4B36
:100800001B6807EE903AB8EE677ADFED756AC7EEBF
:10081000267A764BC3ED007AD4E0754B1B686F4A9D
:10082000A2FB03239B094FF47A7202FB03F3704A85
:1008300013606F4B1B6807EE903AB8EE677ADFEDF6
:10084000686AC7EE267A6B4BC3ED007ABAE0604B5C
:100850001B88642B56D15F4B1B78502B07D0502B35
:1008600000F3B080142B34D0282B19D0AAE05A4BB7
:100870001B68614AA2FB03235B09642202FB03F3AA
:10088000554A1360544B1B6807EE903AB8EE677AEE
:10089000DFED536AC7EE267A524BC3ED007A91E042
:1008A000514B1B68544AA2FB03235B09642202FBE1
:1008B00003F34D4A13604C4B1B6807EE903AB8EEB9
:1008C000677ADFED476AC7EE267A484BC3ED007AB8
:1008D00078E0474B1B68484AA2FB03235B0964226C
:1008E00002FB03F3424A1360414B1B6807EE903A48
:1008F000B8EE677ADFED3A6AC7EE267A3D4BC3ED74
:10090000007A5FE0324B1B880A2B5BD1314B1B789E
:10091000502B06D0502B55DC142B38D0282B1BD055
:1009200050E02D4B1B68354AA2FB0323DA0813461F
:100930009B0013445B001A46274B1A60264B1B682A
:1009400007EE903AB8EE677ADFED256AC7EE267AB1
:10095000244BC3ED007A35E0234B1B68274AA2FBEA
:100960000323DA0813469B0013445B001A461E4B10
:100970001A601D4B1B6807EE903AB8EE677ADFED00
:10098000186AC7EE267A194BC3ED007A1AE0184BA5
:100990001B681A4AA2FB0323DA0813469B00134480
:1009A0005B001A46124B1A60114B1B6807EE903A17
:1009B000B8EE677ADFED0A6AC7EE267A0D4BC3ED13
:1009C000007A00BF00BFBD465DF8047B704700BFE2
:1009D000200000241C00002410000024D34D6210CD
:1009E00000007A45040000241400002408000024BC
:1009F000180000240C0000241F85EB51CDCCCCCC7A
:100A000080B582B000AF78607B685A4A934240F06C
:100A1000AD80594B1B780133DAB2574B1A70564BE5
:100A20001B78022B40F0A280544B01221A70514BCC
:100A30001B681B6803F01003102B2ED1504B1B7842
:100A4000502B06D0502B1FDC142B14D0282B09D090
:100A50001AE04C4B1B684C4A128892009B1A494A78
:100A6000136011E0494B1B68474A128892009B1A99
:100A7000464A136008E0464B1B68434A12889200BE
:100A80009B1A434A136000BF424B01221A70424B2B
:100A900001221A7000F08AF830E0394B1B78502B95
:100AA00006D0502B22DC142B16D0282B0AD01DE0A8
:100AB000354B1B889B001A46324B1B681344314A46
:100AC000136013E0304B1B889B001A462F4B1B68AA
:100AD00013442E4A136009E02B4B1B889B001A46D7
:100AE0002B4B1B6813442A4A136000BF294B012279
:100AF0001A70294B01221A7000F058F8204B1B780D
:100B0000502B06D0502B2EDC142B1ED0282B0ED0B1
:100B100029E01C4B1B6807EE903AB8EE677ADFEDD0
:100B20001F6AC7EE267A1E4BC3ED007A1BE0174BF7
:100B30001B6807EE903AB8EE677ADFED186AC7EEE9
:100B4000267A184BC3ED007A0DE0114B1B6807EEB7
:100B5000903AB8EE677ADFED116AC7EE267A124B4B
:100B6000C3ED007A00BF044B00221A7000BF0837A3
:100B7000BD4680BDF80500248B06002486060024AF
:100B80001C00002410000024200000241400002475
:100B900018000024850600248406002400007A45FD
:100BA00004000024080000240C00002480B582B05A
:100BB00002AF1C4B1B78012B31D11B4B1B78502BE8
:100BC00006D0502B1CDC142B12D0282B08D017E099
:100BD000164B1B68164A1749184601F025FE0FE010
:100BE000154B1B68124A1349184601F01DFE07E019
:100BF000124B1B680E4A0F49184601F015FE00BF44
:100C0000002300930A4B02220021002001F05EFD28
:100C10000849002001F01FFD024B00221A7000BF9E
:100C2000BD4680BD850600241C0000241000002461
:100C30007006002464060024140000241800002418
:100C400080B485B000AF78607B681A4A93422BD19C
:100C50000023FB810023BB811FE0BB8903F001035C
:100C60009BB2002B09D1FB89134A52F82320BB8980
:100C700091B2124A22F813100CE0FB890E4A52F886
:100C800023301A0CBB8991B20C4A22F81310FB894D
:100C90000133FB81BB890133BB81BB89B3F5805F25
:100CA000DBD3074B00221A7000BF1437BD465DF836
:100CB000047B7047500100248C0600248C260024FD
:100CC00090E600240000000080B586B002AF01F07D
:100CD000C7FBAF4B5B6903F40033002B1BD1BFF3A1
:100CE0004F8F00BFBFF36F8F00BFA94B0022C3F827
:100CF0005022BFF34F8F00BFBFF36F8F00BFA44BD5
:100D00005B69A34A43F400335361BFF34F8F00BFC5
:100D1000BFF36F8F00E000BF9D4B5B6903F480332E
:100D2000002B38D19A4B0022C3F88420BFF34F8F99
:100D300000BF974BD3F88030BB60BB685B0BC3F33D
:100D40000E037B60BB68DB08C3F309033B607B6871
:100D50005A0143F6E07313403A6892078C491343F3
:100D6000C1F860323B685A1E3A60002BEFD17B68B5
:100D70005A1E7A60002BE5D1BFF34F8F00BF844B22
:100D80005B69834A43F480335361BFF34F8F00BFE5
:100D9000BFF36F8F00E000BF2BF01CFD00F044F9A3
:100DA00000F0B4F900F07AFE00F058FE00F052FBBB
:100DB00000F070FC00F0F0FC00F0FAFD00F0A8FB81
:100DC00000F0E6FB00F0D2F900F022FB00F09CFD01
:100DD00000F05EFB00F04EFA00F0ACFA02F06EFF9D
:100DE00002F065FF3C216B4837F092FB40F2FF7246
:100DF000002169482DF0DAFC40F2FF7200216748BB
:100E00002DF0D4FC664837F0D9F94FF400626549FB
:100E100061482DF02FFD0023FB8125E0FB8907EEC3
:100E2000903AB8EEE77B9FED566B27EE067B9FED81
:100E3000565B87EE056BB0EE460B51F041FCB0EE11
:100E4000407BB6EE006B27EE067BB6EE006B36EE0F
:100E5000477BFB89F7EEC77B534A9B001344C3EDE6
:100E6000007AFB890133FB81FB89B3F5006FD5D391
:100E70004E4B28221A704D4B1A784D4B1A704D4B21
:100E80004D4A1A6001224FF480514C4830F03AFE2E
:100E900000224FF40051494830F034FE00224FF454
:100EA0008051474830F02EFE01222021454830F085
:100EB00029FE00224FF48051434830F023FE0023E6
:100EC000184601F051FB3B4B1B68404A404918460D
:100ED00001F0AAFC002300933C4B022200210020D9
:100EE00001F0F4FB3A49002001F076FB012001F00B
:100EF00059FD38F047F8374A0221012038F058FAF6
:100F00000346354A1360354A0421012038F050FA6F
:100F10000346334A1360334A40F25451012038F0FB
:100F200047FA0346304A1360304A0021304838F00F
:100F300073F803462F4A13602F4A00212F4838F0D8
:100F40006BF803462E4A13602E4A00212E4838F0D3
:100F500063F803462D4A13602D4A00212D4838F0CE
:100F60005BF803462C4A13602C4A00212C4838F0C9
:100F700053F803462B4A136038F028F800BFFDE70A
:100F800000000060FB2119400000000000FC9F40B1
:100F900000ED00E0F805002450010024C001002409
:100FA000AC0500248C0600248CC600241C00002400
:100FB0001D0000241400002440C3AF0100040258A7
:100FC0000000025800180258001C02587006002445
:100FD00064060024685B050858060024805B050849
:100FE0005C060024985B050860060024B45A0508D6
:100FF000511D000844060024D85A0508CD3C0008BD
:1010000048060024FC5A0508611D00084C0600240F
:10101000205B0508BD1E000850060024445B05083F
:10102000792000085406002480B59CB000AF07F179
:1010300024034C220021184652F069FE3B1D202259
:101040000021184652F063FE042033F077FC0023A1
:101050003B602D4B9B692C4A23F4404393612A4B00
:101060009B6903F440433B603B6800BF264B9B6990
:1010700003F40053B3F5005FF8D103237B624FF410
:101080008033BB6201233B6340237B630223BB6449
:101090000223FB6402233B652C237B650123BB6594
:1010A0000223FB6502233B660C237B660023BB66A1
:1010B0000023FB6607F12403184633F099FC03462E
:1010C000002B01D001F048FA3F237B600323BB6073
:1010D0000023FB6008233B6140237B614023BB610D
:1010E0004FF48063FB6140233B623B1D03211846A4
:1010F00034F058F80346002B01D001F02DFA00BF60
:101100007037BD4680BD00BF0048025880B5AEB004
:1011100000AF3B46B8220021184652F0F8FD4FF0D0
:1011200002424FF00003C7E900230523BB605023B0
:10113000FB6002233B6102237B610223BB618023AE
:10114000FB6100233B6200237B622023FB640023BE
:101150007B653B46184634F0F3FB0346002B01D079
:1011600001F0FAF900BFB837BD4680BD80B58CB03C
:1011700000AF07F1240300221A605A609A603B46D0
:1011800024220021184652F0C2FD374B374A1A601C
:10119000354B00225A60344B08229A60324B0022B1
:1011A0001A61314B04225A612F4B00221A762E4BC2
:1011B00000225A762C4B0122DA612B4B002283F855
:1011C0002020294B4FF4A4629A62274B4FF480628F
:1011D000DA62254B01221A63234B4FF48052DA6303
:1011E000214B00221A64204B002283F844201E4B1E
:1011F00001229A641C482BF0CBFE0346002B01D041
:1012000001F0AAF906237B624FF40043BB624FF45E
:101210004073FB6207F12403194613482DF03CFC90
:101220000346002B01D001F097F9114B3B600623D8
:101230007B600223BB6040F2FF73FB6004233B61D1
:1012400000237B61002387F821303B46194606487E
:101250002CF0FEFA0346002B01D001F07DF900BF0F
:101260003037BD4680BD00BF500100240020024041
:101270000200300480B58AB000AF3B1D242200215B
:10128000184652F044FD294B294A1A60274B002288
:101290005A60264B08229A60244B00221A61234B85
:1012A00004225A61214B00221A76204B00225A76E2
:1012B0001E4B0122DA611D4B002283F820201B4BBC
:1012C00000221A63194B4FF48052DA63174B002245
:1012D0001A64164B002283F84420144B01229A64AE
:1012E00012482BF055FE0346002B01D001F034F9D3
:1012F00001237B600623BB600223FB6040F2FF7387
:101300003B6104237B610023BB61002387F8253008
:101310003B1D194605482CF09BFA0346002B01D0D3
:1013200001F01AF900BF2837BD4680BDC001002476
:101330000021024080B58AB000AF3B1D242200216D
:10134000184652F0E4FC304B304A1A602E4B002213
:101350005A602D4B08229A602B4B0022DA602A4BF0
:1013600000221A61284B04225A61274B00221A7668
:10137000254B00225A76244B0122DA61224B0022AF
:1013800083F82020204B00229A621F4B0022DA6251
:101390001D4B002283F838201B4B00225A631A4B46
:1013A00000221A63184B0022DA63174B00221A64DA
:1013B000154B002283F84420134B00229A641248F4
:1013C0002BF0E6FD0346002B01D001F0C5F8012308
:1013D0007B600623BB600023FB6040F2FF733B6130
:1013E00004237B610023BB6100233B623B1D194644
:1013F00005482CF02DFA0346002B01D001F0ACF883
:1014000000BF2837BD4680BD30020024006002586E
:1014100080B500AF0D4B0E4A1A600C4B00221A71BA
:101420000A4B00225A71094B00225A61074B0022D5
:101430009A61064B01221A6204482DF067FD0346AB
:10144000002B01D001F088F800BF80BD18030024F4
:10145000004C025880B500AF0B4B0C4A1A600A4B87
:101460004FF440325A60084B01229A60064B00222A
:10147000DA6005482FF010FF0346002B01D001F081
:101480006BF800BF80BD00BF3C0300240010005279
:1014900080B500AF1B4B1C4A1A601A4B1B4A5A609E
:1014A000184B00229A60174B0122DA60154B00227C
:1014B0001A61144B00225A61124B00229A61114B9F
:1014C0000022DA610F4B00221A620E4830F04EFB08
:1014D0000346002B01D001F03FF80021094831F00C
:1014E00021FA0346002B01D001F036F8002105480F
:1014F00031F063FA0346002B01D001F02DF800BF54
:1015000080BD00BFA4030024005C0040724E406018
:1015100080B500AF1B4B1C4A1A601A4B1B4A5A601D
:10152000184B00229A60174B0122DA60154B0022FB
:101530001A61144B00225A61124B00229A61114B1E
:101540000022DA610F4B00221A620E4830F00EFBC7
:101550000346002B01D000F0FFFF4FF480510948F3
:1015600031F0E0F90346002B01D000F0F5FF002137
:10157000044831F022FA0346002B01D000F0ECFFC2
:1015800000BF80BDF8030024001C0058FFC8B02035
:1015900080B58EB000AF3B1D34220021184652F0BA
:1015A000B6FB3A4B3A4A1A60384B00225A60374B26
:1015B00000229A60354B0022DA60344B00221A6117
:1015C000324B07225A61314B03229A612F4B0E2274
:1015D000DA612E4B05221A622C4B40F28E225A629F
:1015E0002A4B40F2E5129A62284B4FF42572DA62D8
:1015F000264B40F2E7121A63244B002283F8342072
:10160000224B002283F83520204B002283F836201D
:101610001E4831F01EFA0346002B01D000F09CFF5B
:1016200000237B604FF4F073BB600023FB604FF43A
:1016300088733B6101237B61FF23BB610023FB6156
:101640004FF480633B6205237B624FF0E043BB6253
:101650004FF4F073FB624FF488733B63002387F809
:101660003430002387F83530002387F836303B1DAF
:1016700000221946054831F041FB0346002B01D0FA
:1016800000F06AFF00BF3837BD4680BD4C0400241F
:101690000010005080B588B000AF3B1D00221A60DA
:1016A0005A609A60DA601A615A61384B384A1A6097
:1016B000364B04225A60354B00229A60334B4FF070
:1016C0008072DA60314B20221A61304B02225A615B
:1016D0002E4B00229A612D4B0022DA612B4B002207
:1016E0001A622A4B02225A62284B00229A62274B26
:1016F0000022DA62254B00221A63244B08225A6327
:10170000224B00229A63214B0022DA631F4831F0FA
:101710003DFD0346002B01D000F01EFF01237B603E
:101720000123BB600123FB604FF001133B61194BA8
:101730007B613B1D41F288321946144832F0A6F90C
:101740000346002B01D000F007FF104831F0DAFD0E
:1017500001233B7701237B77002029F00FFF07F15E
:101760001C031946002029F06BFE0346002B01D014
:1017700000F0F2FE002029F095FF0346002B01D077
:1017800000F0EAFE00BF2037BD4680BDF40400240F
:10179000005000520100000180B592B000AF07F187
:1017A000300300221A605A609A60DA601A615A6146
:1017B00007F1200300221A605A609A60DA6007F18C
:1017C0000C0300221A605A609A60DA601A613B1DAD
:1017D00000221A605A60484B484A1A60464B04225D
:1017E0005A60454B00229A60434B4FF08062DA60AA
:1017F000414B18221A61404B04225A613E4B002291
:101800009A613D4B0022DA613B4B00221A623A4B4F
:1018100002225A62384B00229A62374B4FF08052B4
:10182000DA62354B17221A63334B00225A63324B6C
:1018300000229A63304B4FF4C872DA632E4831F0BD
:10184000A5FC0346002B01D000F086FE02233B637B
:1018500002237B630223BB63294BFB63294B3B645D
:1018600007F1300341F288321946234832F00EF96D
:101870000346002B01D000F06FFE03233B620623DA
:101880007B620023BB620123FB6207F1200341F26C
:1018900088321946184831F0E9FD0346002B01D083
:1018A00000F05AFE0023FB604FF440537B614FF081
:1018B0000053FB6100233B610123BB6107F10C0373
:1018C00041F2883219460C4831F00FFE0346002BD6
:1018D00001D000F041FE00237B603B1D1946064805
:1018E00032F002F80346002B01D000F035FE00BFB5
:1018F0004837BD4680BD00BF5005002400A00052FF
:10190000020001000200000180B588B000AF07F1BD
:10191000100300221A605A609A60DA603B1D0022B0
:101920001A605A609A60204B204A1A601E4B4FF48E
:1019300089725A601C4B00229A601B4B0922DA60A4
:10194000194B00221A61184B00225A61164B802253
:101950009A61154836F0DAFB0346002B01D000F0FF
:10196000FBFD4FF480533B6107F1100319460E480D
:1019700036F084FF0346002B01D000F0EDFD20235C
:101980007B600023BB600023FB603B1D19460648BB
:1019900037F0FAF90346002B01D000F0DDFD00BF5F
:1019A0002037BD4680BD00BFAC05002400000140CB
:1019B00080B58CB000AF07F10C032422002118463B
:1019C00052F0A5F93B4600221A605A609A60204BFB
:1019D000204A1A601E4B00225A601D4B00229A605A
:1019E0001B4B1D4ADA601A4B00221A61184B002269
:1019F0009A610323FB6000233B6101237B61002389
:101A0000BB610A23FB6100233B6201237B6200234D
:101A1000BB620A23FB6207F10C0319460C4836F03F
:101A2000D1FC0346002B01D000F096FD00233B6063
:101A30000023BB603B461946054837F0A5F903462D
:101A4000002B01D000F088FD00BF3037BD4680BDBF
:101A5000F805002400E00040801A060080B582B03E
:101A600000AF0D4BD3F8D8300B4A43F00103C2F856
:101A7000D830094BD3F8D83003F001037B607B6882
:101A8000002205210B202DF0A1F90B202DF0B8F933
:101A900000BF0837BD4680BD0044025880B58EB0F7
:101AA00000AF07F1240300221A605A609A60DA60DE
:101AB0001A61924BD3F8E030904A43F00203C2F827
:101AC000E0308E4BD3F8E03003F002033B623B6A18
:101AD0008A4BD3F8E030894A43F04003C2F8E03043
:101AE000864BD3F8E03003F04003FB61FB69834B86
:101AF000D3F8E030814A43F00803C2F8E0307F4B6E
:101B0000D3F8E03003F00803BB61BB697B4BD3F82B
:101B1000E0307A4A43F01003C2F8E030774BD3F854
:101B2000E03003F010037B617B69744BD3F8E03045
:101B3000724A43F00103C2F8E030704BD3F8E03052
:101B400003F001033B613B696C4BD3F8E0306B4A17
:101B500043F08003C2F8E030684BD3F8E03003F084
:101B60008003FB60FB68654BD3F8E030634A43F0C9
:101B70000403C2F8E030614BD3F8E03003F0040313
:101B8000BB60BB685D4BD3F8E0305C4A43F0200398
:101B9000C2F8E030594BD3F8E03003F020037B600B
:101BA0007B68002244F2080155482FF0ABFF002269
:101BB00041F2010153482FF0A5FF002248F23801FD
:101BC00051482FF09FFF00224FF404414F482FF05F
:101BD00099FF00224FF470414D482FF093FF0122EE
:101BE0004FF480514B482FF08DFF44F208037B6285
:101BF0000123BB620023FB6200233B6307F1240344
:101C000019463F482FF0BCFC4FF480537B62012300
:101C1000BB620023FB6200233B6307F124031946E8
:101C200038482FF0ADFC48F230037B620123BB62E1
:101C30000023FB6200233B6307F12403194632486B
:101C40002FF09EFC08237B620123BB620023FB6212
:101C500003233B6307F1240319462B482FF090FC24
:101C60004FF404437B620123BB620023FB62002329
:101C70003B6307F12403194624482FF081FC4FF4FD
:101C800040437B620123BB620023FB6203233B636F
:101C900007F1240319461E482FF072FC4FF44053FD
:101CA0007B620123BB620023FB6200233B6307F1DD
:101CB0002403194616482FF063FC4FF480537B62CF
:101CC0000123BB620023FB6200233B6307F1240373
:101CD000194610482FF054FC01237B620123BB629C
:101CE0000023FB6203233B6307F1240319460548E5
:101CF0002FF046FC00BF3837BD4680BD0044025877
:101D0000001002580000025800180258000C025837
:101D100000040258001C025880B586B000AFF8607D
:101D2000B9607A6000237B6109E0BB685A1CBA6025
:101D30001B781846FEF702FD7B6901337B617A69E7
:101D40007B689A42F1DB7B6818461837BD4680BD38
:101D500080B582B000AF7860322037F0EFF9FBE752
:101D600080B584B000AF7860484B00221A80484BA1
:101D70001B78002B1FD10023FB730FE0FB7BC3F10B
:101D8000A803444A52F823309AB2404B1B881344AC
:101D90009AB23E4B1A80FB7B0133FB73FB7B0E2B0D
:101DA000ECD93A4B1B883C4AA2FB0323DB089AB2CE
:101DB000364B1A801DE00023BB730EE0BB7BAB33B8
:101DC000344A52F823309AB2304B1B8813449AB2EB
:101DD0002E4B1A80BB7B0133BB73BB7B0E2BEDD923
:101DE0002A4B1B882C4AA2FB0323DB089AB2274B01
:101DF0001A80264B1A88294B1B889A4212D0284BEE
:101E00001B68184637F006FC0346002B06D1244B0E
:101E10001868002300221D4937F03EFB1B4B1A882F
:101E20001E4B1A801F4B1B78012B2BD11E4B1B689E
:101E3000184637F0EFFB0346002B20D11B4B1B78D5
:101E4000502B06D1184B186800230022184937F090
:101E500023FB164B1B78282B06D1134B1868002345
:101E60000022144937F018FB104B1B78142B06D1B5
:101E70000D4B1868002300220F4937F00DFB094B6A
:101E800000221A70642037F059F96DE78CE60024BF
:101E90008806002494E60024898888888EE6002439
:101EA00058060024860600245C0600241C0000243A
:101EB00004000024080000240C00002480B582B037
:101EC00000AF78605E4B1B78002B0BD101222021E4
:101ED0005C482FF017FE00224FF480515A482FF033
:101EE00011FE0AE00022202156482FF00BFE0122AD
:101EF0004FF4805154482FF005FE544B1A78544B40
:101F00001B789A4214D0514B1B78002B06D100222B
:101F10004FF480514F482FF0F5FD05E001224FF4BA
:101F200080514C482FF0EEFD484B1A78484B1A7000
:101F3000494B1A78494B1B789A421ED0474B1B7865
:101F4000142B1AD100224FF4805145482FF0DAFDAE
:101F500001224FF4005142482FF0D4FD414B0122A1
:101F60001A70414B01221A70404B01221A703B4BF0
:101F70001A78394B1A70FEF719FE374B1A78374B1F
:101F80001B789A421ED0354B1B78282B1AD1012280
:101F90004FF4805132482FF0B5FD00224FF400512C
:101FA0002F482FF0AFFD2F4B01221A702E4B01222C
:101FB0001A702E4B01221A70284B1A78264B1A7071
:101FC000FEF7F4FD244B1A78244B1B789A421ED05E
:101FD000224B1B78502B1AD100224FF480512048FD
:101FE0002FF090FD00224FF400511D482FF08AFD84
:101FF0001C4B01221A701C4B01221A701B4B012230
:102000001A70164B1A78144B1A70FEF7CFFD184B46
:102010001A88184B1B889A420ED0FEF7B7FB114B5B
:1020200001221A70104B01221A70104B01221A70F3
:10203000104B1A880E4B1A80642037F07FF841E766
:102040008706002400180258001C02588806002445
:1020500089060024000002581D0000241C000024F2
:102060000004025886060024840600248506002405
:10207000220000242000002480B588B000AF7860E2
:10208000A14B1B78002B40F0D481A04B1B78012B77
:1020900040F0CF810023FB830023BB832CE0BB8B6C
:1020A00003F001039BB2002B05D1BB8B002B02D0A8
:1020B000FB8B0133FB83BB8B954A32F8133007EE61
:1020C000903AB8EEE77B9FED8E6B27EE066BFB8BAD
:1020D000904A9B001344D3ED007AB7EEE77A26EEE0
:1020E000077BBB8BF7EEC77B8B4A9B001344C3ED8A
:1020F000007ABB8B0133BB83BB8BB3F5805FCED340
:1021000001230022844985484FF028FE4FF40062E5
:10211000834981484FF0C0FE814B4FF000025A6066
:102120007F4B03F5805303F6FC734FF000021A60F7
:102130007B4B03F5805303F6F8734FF000021A60EF
:1021400000237B830EE07B8B03F580627B8B7449DD
:1021500092000A44126873499B000B441A607B8BFF
:1021600001337B837B8BB3F5806FECD34FF48063BB
:102170003B830EE03B8BA3F580623B8B684992006A
:102180000A44126867499B000B441A603B8B013379
:102190003B833B8BB3F5006FECD30023FB82624B98
:1021A0001B78002B56D10023BB824FE0BB8A5D4ACF
:1021B0009B00134493ED007ABB8A0133594A9B007C
:1021C0001344D3ED007A37EE277ABB8A0233554A9F
:1021D0009B001344D3ED007A37EE277ABB8A033392
:1021E000504A9B001344D3ED007A37EE277ABB8A1E
:1021F00004334C4A9B001344D3ED007A37EE277A20
:10220000BB8A0533474A9B001344D3ED007A37EE6F
:10221000277AF1EE086AC7EE267AFB8AFDEEE77AA6
:1022200017EE901A414A42F82310FB8A3F4A52F8AF
:102230002330322B04DDFB8A3C4A322142F8231042
:10224000FB8A0133FB82BB8A0633BB82BB8AB3F5B0
:10225000006FABD3344B1B78012B46D14FF4AB73DB
:102260007B823DE07B8A2F4A9B00134493ED007AEA
:102270007B8A01332B4A9B001344D3ED007A37EE5F
:10228000277A7B8A0233274A9B001344D3ED007AD6
:1022900037EE277A7B8A0333224A9B001344D3ED1F
:1022A000007A37EE277AF1EE006AC7EE267AFB8ACB
:1022B000FDEEE77A17EE901A1C4A42F82310FB8ACB
:1022C0001A4A52F82330322B04DDFB8A174A322196
:1022D00042F82310FB8A0133FB827B8A04337B8222
:1022E0007B8A40F2AA629342BCD90F4B1B78022B27
:1022F0004FD140F2AB233B8246E000BFAFF30080FA
:10230000FCA9F1D24D62503F90E600241E0000244B
:102310008C2600248CC600248C460024D07B050823
:102320008C8600248CA600248A06002494E60024CF
:102330003B8A424A9B00134493ED007A3B8A013367
:102340003E4A9B001344D3ED007A37EE277AF0EE35
:10235000006AC7EE267AFB8AFDEEE77A17EE901A3E
:10236000374A42F82310FB8A354A52F82330322B81
:1023700004DDFB8A324A322142F82310FB8A013302
:10238000FB823B8A02333B823B8A40F255529342A6
:10239000CED92C4B1B78032B27D140F25633FB812F
:1023A0001EE0FB89254A9B001344D3ED007AFB8A8B
:1023B000FDEEE77A17EE901A214A42F82310FB8AC5
:1023C0001F4A52F82330322B04DDFB8A1C4A32218B
:1023D00042F82310FB8A0133FB82FB890133FB8126
:1023E000FB8940F2AB429342DBD9174A144B1046AB
:1023F000194640F254531A4651F0AFFD134B1B6877
:10240000184637F007F90346002B06D10F4B186822
:10241000002300220C4937F03FF84FF400620C49CA
:102420000C482CF027FA0C4B01221A700B4B00229F
:102430001A70142036F082FE22E600BF8CA600241B
:1024400094E600248A060024E8EB002460060024B9
:102450008C0600245001002490E600241E00002475
:1024600080B584B000AF3B4600221A605A609A6083
:10247000DA602CF0D3FC01233B7000237B704FF01B
:1024800010537B6012233B7200237B720023BB72CC
:102490000323FB7201233B7300237B730123BB7374
:1024A0000123FB733B4618462CF0F0FC01237B70A4
:1024B0004FF0E0437B601C233B720023FB72002340
:1024C000BB730023FB733B4618462CF0DFFC022352
:1024D0007B7016233B720323FB720123BB73012322
:1024E000FB733B4618462CF0D1FC03237B704FF066
:1024F00010437B601C233B720023FB720023BB73E1
:102500000023FB733B4618462CF0C0FC04237B7071
:1025100019233B720323FB720123BB733B4618460E
:102520002CF0B4FC04202CF091FC00BF1037BD4609
:1025300080BD000080B582B000AF78607B681B680A
:10254000044A934201D12AF081F900BF0837BD4601
:1025500080BD00BF0010004080B400AF00BFBD468A
:102560005DF8047B7047000080B584B000AF7860F0
:10257000184A7B681360FF21032000F023FA8021B2
:10258000102000F01FFA8021112000F01BFA80219A
:10259000122000F017FA8021132000F013FA802196
:1025A000142000F00FFA8021152000F00BFA802192
:1025B000162000F007FA8021172000F003FA80238C
:1025C000FB73FB7B1946B72000F0FCF900BF103706
:1025D000BD4680BD44F1002480B58CB002AF0346F7
:1025E0003960FB713B681B687B623B685B683B62E0
:1025F0003B689B68FB617B6ADA013B6AD901FB6936
:1026000091FBF3F31344A3F50073BB613B6ADB0159
:10261000FA6993FBF2F2F96901FB02F29B1A7B6102
:10262000FB693B61FB79002B01D11A2300E02223D7
:10263000FB73F87B00230193002300933B697A69C5
:10264000B96900F0E5F9A021B12000F0BBF900BFA5
:102650002837BD4680BD80B58CB002AF03463960D7
:10266000FB713B681B687B623B685B683B623B6855
:102670009B68FB617B6ADA013B6AD901FB6991FBCC
:10268000F3F31344A3F50073BB613B6ADB01FA6902
:1026900093FBF2F2F96901FB02F29B1A7B61FB6981
:1026A0003B61FB79002B01D11A2300E02223FB734D
:1026B000F87B00230193002300933B697A69B96991
:1026C00000F0A6F900BF2837BD4680BD80B58CB0AC
:1026D00002AF3B600346FB710B46BB7113467B7137
:1026E0003B685B683B613B689B68FB603B68DB6801
:1026F000BB60002387F82730FB79022B01D9012327
:102700008DE03B681B78002B0AD13B69072B05DD68
:102710003B69082B04D1FB68002B01D102237EE02A
:102720003B69042B09D100233B620023FB61012399
:10273000BB61032387F8273016E03B69DA01FB68A9
:10274000D901BB6891FBF3F31344A3F500733B621B
:10275000FB68DB01BA6893FBF2F2B96801FB02F295
:102760009B1AFB61BB68BB610023FB750023BB7533
:1027700000237B75FB79022B14D0022B19DC002B74
:1027800002D0012B07D014E02A23FB75A523BB75CB
:1027900010237B750DE03223FB75A623BB75112337
:1027A0007B7506E03A23FB75A723BB7512237B7567
:1027B00000BF7B7943F00C033B75BB79012B03D140
:1027C0003B7D43F020033B753B681B78002B09D011
:1027D000FB68002B02D03B69042B03D13B7D43F007
:1027E00040033B753A7D7B7D1146184600F0EAF8C0
:1027F0003B681B7CF87D019397F827300093BB69F9
:10280000FA69396A00F004F997F8303003F07F0371
:10281000DAB2BB7D1146184600F0D4F80023184602
:102820002837BD4680BD000080B48FB000AFF8608F
:10283000B9607A60FB68B3F5FA5F03D24FF4FA53DC
:10284000FB6005E0FB684D4A934201D94B4BFB60AE
:102850007B6801221A70FB68494A934206D8FB68DC
:102860009B01FB607B6806221A7402E07B680022F1
:102870001A74FB68434AA2FB03239B0C424A12686A
:1028800002FB03F3414AA2FB03235B09FA68D31A54
:10289000FB603F4BFB61FB683E4A934222D82423F6
:1028A0007B6300233B630123FB623B4B3B613A6943
:1028B000FB68B2FBF3F3BB62FB681B0D01337B616A
:1028C0003B69FA68B3FBF2F2F96801FB02F29A1A6B
:1028D0007B69B2FBF3F37B627B69FA68B2FBF3F3CB
:1028E0003B6232E0FB682D4A934202D90423BB626B
:1028F00008E0FB682A4A934202D90623BB6201E042
:102900000823BB6200237B6201233B62BB6AFA6837
:1029100002FB03F3BB61BA69FB6992FBF3F37B63D0
:10292000FB691B1501337B61BB69FA6993FBF2F20A
:10293000F96901FB02F29A1A7B6992FBF3F33B639C
:10294000FA697B6992FBF3F3FB62BB687A6B1A60EE
:10295000BB683A6B5A60BB68FA6A9A607B68BA6A6D
:102960005A607B687A6A9A607B683A6ADA6000BF6C
:102970003C37BD465DF8047B704700BF006889099D
:102980003F420F0083DE1B4344F100241F85EB51BF
:1029900040787D013FF6D30400E9A4357FD1F008EB
:1029A000FFE0F50580B582B000AF0346FB71FB790F
:1029B000DB43DBB21946032000F004F800BF083700
:1029C000BD4680BD80B586B004AF03460A46FB71A4
:1029D0001346BB7100BF25230322C0210B482FF0F3
:1029E000BFFB0346002BF6D1FB799AB22523029355
:1029F00001230193BB1D00930123C02103482FF045
:102A000081F900BF0837BD4680BD00BFA403002484
:102A100080B588B004AFB9607A603B600346FB7351
:102A20003B681B12DAB2294B1A703B68DAB2274BAB
:102A30005A70BB681B145BB203F003035AB23B7EAF
:102A40009B005BB203F00C035BB213435AB23B7FB3
:102A50001B015BB203F070035BB213435BB2DAB2EB
:102A60001A4B9A70BB681B12DAB2184BDA70BB684B
:102A7000DAB2164B1A713B681B135BB223F00F03DB
:102A80005AB27B681B145BB203F00F035BB21343B3
:102A90005BB2DAB20D4B5A717B681B12DAB20B4B88
:102AA0009A717B68DAB2094BDA71FB7B9AB2252303
:102AB000029308230193054B00930123C02104488E
:102AC0002FF020F900BF1037BD4680BD3CF1002437
:102AD000A403002480B582B000AF184BD3F8F430C3
:102AE000164A43F00203C2F8F430144BD3F8F43022
:102AF00003F002037B607B6800220F216FF001006E
:102B00002CF064F90D4BD3F8F4300C4A43F4004335
:102B1000C2F8F430094BD3F8F43003F400433B60BF
:102B20003B68002029F0D6FE29F0FCFE002029F0A9
:102B3000E5FE00BF0837BD4680BD00BF0044025817
:102B400080B5B6B000AF786007F12003B82200214D
:102B5000184651F0DCF87B681B68864A934278D1AE
:102B60004FF400224FF00003C7E908234FF400336D
:102B7000C7F8C03007F12003184632F0E1FE0346E3
:102B8000002B01D0FFF7E8FC7B4B1B6801337A4A2E
:102B90001360794B1B68012B0ED1784BD3F8D830DA
:102BA000764A43F02003C2F8D830744BD3F8D830BB
:102BB00003F02003FB61FB69704BD3F8E0306F4AF0
:102BC00043F00103C2F8E0306C4BD3F8E03003F07F
:102BD0000103BB61BB694FF000714FF0007029F039
:102BE000C5FE674B674A1A60654B09225A60644B01
:102BF00000229A60624B0022DA60614B4FF48062DF
:102C00001A615F4B4FF480525A615D4B4FF4804222
:102C10009A615B4B0022DA61594B00221A62584BD1
:102C200000225A6256482CF063FA0346002B01D06A
:102C3000FFF792FC7B68524A9A65514A7B6893631E
:102C40000022052112202CF0C1F812202CF0D8F817
:102C50008BE07B681B684C4A934249D14FF40022B9
:102C60004FF00003C7E908234FF40033C7F8C03022
:102C700007F12003184632F063FE0346002B01D013
:102C8000FFF76AFC3C4B1B6801333B4A13603A4B2D
:102C90001B68012B0ED1394BD3F8D830374A43F09B
:102CA0002003C2F8D830354BD3F8D83003F02003D6
:102CB0007B617B69314BD3F8E030304A43F001034C
:102CC000C2F8E0302D4BD3F8E03003F001033B6154
:102CD0003B694FF080714FF0807029F047FE002271
:102CE000052112202CF072F812202CF089F83CE01B
:102CF0007B681B68254A934237D14FF400224FF07E
:102D00000003C7E908234FF40033C7F8C03007F1C8
:102D10002003184632F014FE0346002B01D0FFF7C3
:102D20001BFC164BD3F8E030144A43F08073C2F812
:102D3000E030124BD3F8E03003F08073FB60FB68A7
:102D40000E4BD3F8E0300D4A43F00403C2F8E030F4
:102D50000A4BD3F8E03003F00403BB60BB684FF0CC
:102D600080614FF0806029F001FE00BFD837BD467A
:102D700080BD00BF0020024048F1002400440258FA
:102D8000A00200241000024000210240006002580E
:102D900080B485B000AF78607B681B680B4A9342B3
:102DA0000ED10B4BD3F8E030094A43F40023C2F8AC
:102DB000E030074BD3F8E03003F40023FB60FB68FE
:102DC00000BF1437BD465DF8047B7047004C0258C5
:102DD0000044025880B584B000AF78607B681B68FF
:102DE0000E4A934216D10E4BD3F8D4300C4A43F01E
:102DF0001003C2F8D4300A4BD3F8D43003F01003D8
:102E0000FB60FB68002205215A202BF0DFFF5A20CF
:102E10002BF0F6FF00BF1037BD4680BD00100052FA
:102E20000044025880B5BCB000AF786007F1DC0305
:102E300000221A605A609A60DA601A6107F1200372
:102E4000B8220021184650F062FF7B681B685F4A79
:102E500093426BD14FF008024FF00003C7E90823FB
:102E60000023C7F8A03007F12003184632F068FDB0
:102E70000346002B01D0FFF76FFB554BD3F8E03032
:102E8000534A43F00403C2F8E030514BD3F8E0302A
:102E900003F00403FB61FB694D4BD3F8E0304C4A6F
:102EA00043F08003C2F8E030494BD3F8E03003F040
:102EB0008003BB61BB694FF40073C7F8DC30122399
:102EC000C7F8E0300023C7F8E4300023C7F8E83043
:102ED0000423C7F8EC3007F1DC0319463D482EF017
:102EE0004FFB8023C7F8DC301223C7F8E030002303
:102EF000C7F8E4300023C7F8E8300423C7F8EC3003
:102F000007F1DC03194634482EF03AFB304BD3F876
:102F1000E8302F4A43F40003C2F8E8302C4BD3F8D2
:102F2000E83003F400037B617B694BE07B681B683E
:102F30002A4A934246D14FF010024FF00003C7E9EE
:102F400008230023C7F8B43007F12003184632F0F5
:102F5000F7FC0346002B01D0FFF7FEFA1C4BD3F819
:102F6000E0301B4A43F02003C2F8E030184BD3F89E
:102F7000E03003F020033B613B694FF44043C7F866
:102F8000DC301223C7F8E0300023C7F8E430002318
:102F9000C7F8E8300423C7F8EC3007F1DC03194622
:102FA0000F482EF0EDFA0A4BD3F8F430084A43F0FC
:102FB0008003C2F8F430064BD3F8F43003F08003FA
:102FC000FB60FB6800BFF037BD4680BD005C004081
:102FD0000044025800080258001C0258001C005807
:102FE0000014025880B582B000AF78607B681B681F
:102FF000174A934211D1174BD3F8E830154A23F4FE
:103000000003C2F8E8304FF4007113482EF060FC62
:10301000802112482EF05CFC16E07B681B68104A89
:10302000934211D10B4BD3F8F4300A4A23F08003BA
:10303000C2F8F4304FF400410A482EF049FC4FF436
:10304000804108482EF044FC00BF0837BD4680BDD3
:10305000005C00400044025800080258001C02585E
:10306000001C00580014025880B5BEB000AF786054
:1030700007F1E40300221A605A609A60DA601A616C
:1030800007F12803B8220021184650F040FE7B6863
:103090001B68DE4A934240F0CE814FF000524FF061
:1030A0000003C7E90A2319233B654FF490737B653E
:1030B0000223BB650223FB651E233B6600237B6660
:1030C0004FF40073BB660023FB6607F12803184624
:1030D00032F036FC0346002B01D0FFF73DFACC4B13
:1030E000D3F8E430CA4A43F00803C2F8E430C84BCE
:1030F000D3F8E43003F008037B627B6AC44BD3F857
:10310000E030C34A43F00203C2F8E030C04BD3F8CA
:10311000E03003F002033B623B6ABD4BD3F8E03082
:10312000BB4A43F00803C2F8E030B94BD3F8E030B3
:1031300003F00803FB61FB69B54BD3F8E030B44AF8
:1031400043F00103C2F8E030B14BD3F8E03003F0B4
:103150000103BB61BB69AE4BD3F8E030AC4A43F02E
:103160001003C2F8E030AA4BD3F8E03003F01003AC
:103170007B617B69A64BD3F8E030A54A43F040035E
:10318000C2F8E030A24BD3F8E03003F040033B61DB
:103190003B699F4BD3F8E0309D4A43F08003C2F86F
:1031A000E0309B4BD3F8E03003F08003FB60FB681A
:1031B000974BD3F8E030964A43F00403C2F8E0306E
:1031C000934BD3F8E03003F00403BB60BB684FF4CB
:1031D0008073C7F8E4300223C7F8E8300023C7F84B
:1031E000EC300023C7F8F0300E23C7F8F43007F1B5
:1031F000E403194687482EF0C3F90923C7F8E430E1
:103200000223C7F8E8300023C7F8EC300023C7F8E2
:10321000F0300E23C7F8F43007F1E40319467E4876
:103220002EF0AEF940F20323C7F8E4300223C7F8CA
:10323000E8300023C7F8EC300323C7F8F0300E2342
:10324000C7F8F43007F1E403194672482EF098F9F4
:103250004FF48073C7F8E4300223C7F8E830002346
:10326000C7F8EC300323C7F8F0300D23C7F8F4306B
:1032700007F1E403194669482EF082F94BF6020380
:10328000C7F8E4300223C7F8E8300023C7F8EC3071
:103290000323C7F8F0300E23C7F8F43007F1E40336
:1032A00019465F482EF06CF94FF48043C7F8E430BC
:1032B0000223C7F8E8300023C7F8EC300323C7F82F
:1032C000F0300E23C7F8F43007F1E40319465548EF
:1032D0002EF056F94023C7F8E4300223C7F8E8304F
:1032E0000023C7F8EC300323C7F8F0300E23C7F8EB
:1032F000F43007F1E403194647482EF041F948F24B
:103300000403C7F8E4300223C7F8E8300023C7F805
:10331000EC300023C7F8F0300E23C7F8F43007F183
:10332000E403194640482EF02BF9C023C7F8E430D7
:103330000223C7F8E8300023C7F8EC300023C7F8B1
:10334000F0300E23C7F8F43007F1E403194637488C
:103350002EF016F98023C7F8E4300223C7F8E830CE
:103360000023C7F8EC300023C7F8F0300E23C7F86D
:10337000F43007F1E40319462A482EF001F940F62B
:103380000873C7F8E4300223C7F8E8300023C7F811
:10339000EC300323C7F8F0300E23C7F8F43007F100
:1033A000E403194620482EF0EBF85823C7F8E43020
:1033B0000223C7F8E8300023C7F8EC300323C7F82E
:1033C000F0300E23C7F8F43007F1E4031946134830
:1033D0002EF0D6F81023C7F8E4300223C7F8E830FF
:1033E0000023C7F8EC300323C7F8F0300923C7F8EF
:1033F000F43007F1E40319460B482EF0C1F800221F
:10340000052158202BF0E2FC12E000BF0010005014
:103410000044025800040258000C025800000258F0
:103420000010025800180258001C025800080258E8
:1034300058202BF0E5FC00BFF837BD4680BD00BF2B
:1034400080B592B000AF786007F1340300221A60B3
:103450005A609A60DA601A617B681B68B54A9342C9
:1034600040F0E680B44B1B680133B34A1360B24BA3
:103470001B68012B0ED1B14BD3F8D430AF4A43F4C3
:103480000013C2F8D430AD4BD3F8D43003F400139A
:103490003B633B6BA94BD3F8D430A84A43F4804339
:1034A000C2F8D430A54BD3F8D43003F48043FB6288
:1034B000FB6AA24BD3F8E030A04A43F04003C2F8C5
:1034C000E0309E4BD3F8E03003F04003BB62BB6AB0
:1034D0009A4BD3F8E030994A43F00803C2F8E03041
:1034E000964BD3F8E03003F008037B627B6A934B82
:1034F000D3F8E030914A43F01003C2F8E0308F4B2C
:10350000D3F8E03003F010033B623B6A8B4BD3F8F7
:10351000E0308A4A43F02003C2F8E030874BD3F80A
:10352000E03003F02003FB61FB69844BD3F8E0300B
:10353000824A43F00203C2F8E030804BD3F8E03017
:1035400003F00203BB61BB694FF400737B6302238A
:10355000BB630023FB6303233B6409237B6407F104
:103560003403194676482EF00BF8B0237B63022310
:10357000BB630023FB6303233B640A237B6407F1E3
:10358000340319466F482DF0FBFF04237B630223AD
:10359000BB630023FB6303233B6409237B6407F1C4
:1035A0003403194668482DF0EBFF40237B63022368
:1035B000BB630023FB6303233B640A237B6407F1A3
:1035C000340319465E482DF0DBFF4FF460537B63F4
:1035D0000223BB630023FB6303233B6409237B6457
:1035E00007F13403194657482DF0CAFF4FF48063A2
:1035F0007B630223BB630023FB6303233B64092338
:103600007B6407F13403194650482DF0B9FF0423B9
:103610007B630223BB630023FB6303233B640A2316
:103620007B6407F13403194649482DF0A9FF7CE07B
:103630007B681B68474A934277D13F4B1B68013335
:103640003D4A13603C4B1B68012B0ED13B4BD3F81A
:10365000D4303A4A43F40013C2F8D430374BD3F88D
:10366000D43003F400137B617B69344BD3F8D4303E
:10367000324A43F40023C2F8D430304BD3F8D4306C
:1036800003F400233B613B692C4BD3F8E0302B4A19
:1036900043F04003C2F8E030284BD3F8E03003F0A9
:1036A0004003FB60FB68254BD3F8E030234A43F02E
:1036B0002003C2F8E030214BD3F8E03003F02003C0
:1036C000BB60BB6840F603037B630223BB6300233C
:1036D000FB6303233B6409237B6407F1340319462E
:1036E00017482DF04DFF4FF4A0537B630223BB63BB
:1036F0000023FB6303233B6403237B6407F1340350
:1037000019460F482DF03CFF41F21F037B63022353
:10371000BB630023FB6303233B6409237B6407F142
:103720003403194609482DF02BFF00BF4837BD462A
:1037300080BD00BF005000524CF1002400440258EC
:1037400000180258000C02580010025800140258C9
:103750000004025800A0005280B582B000AF78602B
:103760007B681B682F4A934230D12F4B1B68013B6B
:103770002D4A13602C4B1B68002B07D12B4BD3F821
:10378000D4302A4A23F40013C2F8D430274BD3F89C
:10379000D430264A23F48043C2F8D4304FF4107159
:1037A00023482EF095F843F6B00122482EF090F809
:1037B000042121482EF08CF84FF480611F482EF030
:1037C00087F804211E482EF083F827E07B681B68E9
:1037D0001C4A934222D1144B1B68013B124A1360CE
:1037E000114B1B68002B07D1104BD3F8D4300F4A74
:1037F00023F40013C2F8D4300C4BD3F8D4300B4A66
:1038000023F40023C2F8D43041F6034108482EF0D7
:103810005FF841F21F0109482EF05AF800BF08373F
:10382000BD4680BD005000524CF1002400440258B7
:1038300000180258000C02580010025800140258D8
:103840000004025800A0005280B485B000AF786038
:103850007B681B680B4A93420ED10B4BD3F8F030B8
:10386000094A43F00103C2F8F030074BD3F8F030B7
:1038700003F00103FB60FB6800BF1437BD465DF831
:10388000047B7047000001400044025880B58AB0B4
:1038900000AF786007F1140300221A605A609A6042
:1038A000DA601A617B681B682E4A934255D12E4B11
:1038B000D3F8EC302C4A43F08073C2F8EC302A4B3A
:1038C000D3F8EC3003F080733B613B69264BD3F8AF
:1038D000E030254A43F04003C2F8E030224BD3F8F1
:1038E000E03003F04003FB60FB681F4BD3F8E0308F
:1038F0001D4A43F02003C2F8E0301B4BD3F8E03000
:1039000003F02003BB60BB684FF400537B610223CC
:10391000BB610023FB6102233B620D237B6207F145
:103920001403194611482DF02BFE40237B6102231E
:10393000BB610023FB6100233B620D237B6207F127
:10394000140319460A482DF01BFE00220521A12070
:103950002BF03CFAA1202BF053FA00BF2837BD46CC
:1039600080BD00BF00E0004000440258001802582B
:103970000014025880B590B000AF78607B680F2BC0
:1039800027D80022796836202BF020FA36202BF039
:1039900037FA294A7B681360284BD3F8E830274A66
:1039A00043F01003C2F8E830244BD3F8E83003F0BA
:1039B0001003FB60FB6807F1100207F114031146C6
:1039C000184631F07BFFBB6ABB63BB6B002B06D193
:1039D00001E001232BE031F045FFF86304E031F012
:1039E00041FF03465B00FB63FB6B154AA2FB03230D
:1039F0009B0C013B7B63134B134A1A60114B40F243
:103A0000E732DA600F4A7B6B53600E4B00221A617B
:103A10000C4B00229A600B4834F078FB0346002BD5
:103A200004D1084834F048FC034600E0012318465E
:103A30004037BD4680BD00BF6800002400440258E6
:103A400083DE1B4350F100240010004080B400AF1F
:103A500000BFBD465DF8047B704780B400AF00BF77
:103A6000FDE780B400AF00BFFDE780B400AF00BF4A
:103A7000FDE780B400AF00BFFDE780B400AF00BF3A
:103A8000BD465DF8047B704780B500AF02482CF05E
:103A9000F1F800BF80BD00BFA002002480B500AFD8
:103AA000034829F07DFC034829F07AFC00BF80BD63
:103AB00050010024C001002480B500AF024834F05A
:103AC000D5FD00BF80BD00BF50F1002480B500AF20
:103AD00002482FF05BF800BF80BD00BF4C040024FB
:103AE00080B500AF02482DF03BFC00BF80BD00BF99
:103AF0003C03002480B500AF024834F0B7FD00BF9E
:103B000080BD00BFF805002480B400AF0123184633
:103B1000BD465DF8047B704780B582B000AF786029
:103B2000396050F0EDF9034616221A604FF0FF336A
:103B300018460837BD4680BD80B582B000AF7860BA
:103B40004FF0FF317868FFF7E7FF00BFFDE780B572
:103B500086B000AFF860B9607A6000237B610AE04C
:103B6000AFF300800146BB685A1CBA60CAB21A7033
:103B70007B6901337B617A697B689A42F0DB7B6801
:103B800018461837BD4680BD80B483B000AF78605A
:103B90004FF0FF3318460C37BD465DF8047B704785
:103BA00080B483B000AF786039603B684FF4005256
:103BB0005A60002318460C37BD465DF8047B7047F9
:103BC00080B483B000AF7860012318460C37BD463F
:103BD0005DF8047B704780B485B000AFF860B960D1
:103BE0007A60002318461437BD465DF8047B7047A1
:103BF00080B586B000AF7860144A154BD31A7B614C
:103C00007B693B61134B1B68002B02D1114B124A9D
:103C10001A60104B1A687B6813443A699A4207D2BB
:103C200050F06EF903460C221A604FF0FF3309E0A2
:103C3000084B1B68FB60074B1A687B681344054AF6
:103C40001360FB6818461837BD4680BD0000052488
:103C5000001000009CF1002488BA0324DFF834D05F
:103C600028F03CFD002103E00B4B5B58435004312E
:103C70000A480B4B42189A42F6D30A4A02E0002344
:103C800042F8043B084B9A42F9D350F03FF9FDF754
:103C90001BF870470000052428FC050800000024DC
:103CA000340100243401002488BA0324FEE780B4E0
:103CB00000AF00BFBD465DF8047B704780B500AF24
:103CC00002F012F801F0DEFF00BF80BD80B582B0C7
:103CD00000AF786002F010F800BF0837BD4680BD25
:103CE00080B483B000AF7860044A7B681A607B6858
:103CF00018460C37BD465DF8047B7047E05B05084D
:103D000080B582B000AF78607868FFF7E9FF0C21DA
:103D100078684EF0ACFC7B6818460837BD4680BD1D
:103D200080B584B000AF78600B46FB70FB78002B49
:103D300011D07B681B6810331B687868984702466F
:103D40007B689B68D31AFB607B685A68FB681A44DF
:103D50007B685A6008E07B681B6810331B687868D2
:103D6000984702467B689A6000BF1037BD4680BD09
:103D700080B483B000AF78607B685B6818460C370E
:103D8000BD465DF8047B704780B483B000AF7860B7
:103D900039607B683A685A6000BF0C37BD465DF8F1
:103DA000047B704780B483B000AF78600B4B1B6816
:103DB0000A4A43F080731360094B1A680849094B9B
:103DC00013430B60084B1B68074A43F00103136061
:103DD00000BF0C37BD465DF8047B7047FCED00E08A
:103DE000B01F00E055CEACC5001000E080B485B037
:103DF00000AFF860B9607A603B607A68BB68D21A3D
:103E00003B685B081A443B68B2FBF3F3184614376F
:103E1000BD465DF8047B704780B483B000AF786026
:103E2000034B1B6818460C37BD465DF8047B704792
:103E3000041000E080B584B000AF78600B46FB70E2
:103E4000FB78002B11D07B681B6810331B687868E7
:103E5000984702467B689B68D31AFB607B685A6868
:103E6000FB681A447B685A6008E07B681B68103363
:103E70001B687868984702467B689A6000BF1037D5
:103E8000BD4680BD80B582B000AF7860054A7B68D2
:103E90001A607B681846FFF723FF7B6818460837CF
:103EA000BD4680BDB85B050880B582B000AF7860C4
:103EB0007868FFF7E7FF0C2178684EF0D8FB7B6845
:103EC00018460837BD4680BD80B483B000AF786027
:103ED000044A7B681A607B6818460C37BD465DF85B
:103EE000047B7047205C050880B582B000AF786025
:103EF0007868FFF7E9FF042178684EF0B8FB7B682B
:103F000018460837BD4680BD80B586B000AF7860E2
:103F100008233B6100237B61074B1B88BB60074B79
:103F20001B88FB6007F108031946002028F05EF9A2
:103F300000BF1837BD4680BD6AAE03246CAE0324B3
:103F400080B588B000AFF860B9607A6007F11003FF
:103F500000221A605A609A6007F110031946002087
:103F600028F000FA0346002B14BF01230023DBB224
:103F7000002B0BD04FF0500383F31188BFF36F8FEA
:103F8000BFF34F8FFB6100BF00BFFDE73B69002B14
:103F900009D07B691A46BB681A60BB691A467B6800
:103FA0001A60012300E0002318462037BD4680BD7B
:103FB00080B582B000AF7860054A7B681A607B6884
:103FC0001846FFF781FF7B6818460837BD4680BD5D
:103FD000085C050880B582B000AF78607868FFF7AC
:103FE000E7FF042178684EF042FB7B6818460837EB
:103FF000BD4680BD80B582B000AF00237B6015E078
:104000007B68DBB2184600F00BF90346002B0AD0A0
:104010000A4A7B6852F82330012B04D0074A7B6898
:10402000012142F823107B6801337B607B68042BFD
:10403000E6DD00BF00BF0837BD4680BDA0F100240B
:1040400080B582B000AF0346FB71FB79032B49D8E2
:1040500001A252F823F000BF694000088740000821
:10406000A5400008C5400008FB79204A52F82330DB
:10407000002B0CBF01230023DBB21A4601211C4890
:104080002DF040FD2EE0FB79184A52F82330002B2A
:104090000CBF01230023DBB21A46082115482DF07E
:1040A00031FD1FE0FB79114A52F82330002B0CBF81
:1040B00001230023DBB21A464FF480410E482DF055
:1040C00021FD0FE0FB79094A52F82330002B0CBF89
:1040D00001230023DBB21A464FF4004106482DF0BD
:1040E00011FD00BF00BF0837BD4680BDA0F1002410
:1040F00000000258001802580004025880B582B02F
:1041000000AF0346FB71FB79032B49D801A252F89B
:1041100023F000BF25410008434100086141000829
:1041200081410008FB79204A52F82330002B01D04E
:10413000012300E000231A4601211C482DF0E2FC77
:104140002EE0FB79184A52F82330002B01D00123CE
:1041500000E000231A46082115482DF0D3FC1FE08B
:10416000FB79114A52F82330002B01D0012300E0E3
:1041700000231A464FF480410E482DF0C3FC0FE097
:10418000FB79094A52F82330002B01D0012300E0CB
:1041900000231A464FF4004106482DF0B3FC00BF3F
:1041A00000BF0837BD4680BDA0F1002400000258C2
:1041B000001802580004025880B582B000AF0346D0
:1041C000FB71FB79032B21D801A252F823F000BF29
:1041D000E1410008EB410008F541000801420008F8
:1041E00001210C482DF0A7FC10E008210A482DF011
:1041F000A2FC0BE04FF4804108482DF09CFC05E048
:104200004FF4004105482DF096FC00BF00BF083771
:10421000BD4680BD00000258001802580004025834
:1042200080B584B000AF0346FB710023FB73FB79BC
:10423000032B29D801A252F823F000BF4D420008F9
:104240005B420008694200087942000801211348D6
:104250002DF040FC0346FB7316E0082110482DF0BA
:1042600039FC0346FB730FE04FF480410D482DF0FD
:1042700031FC0346FB7307E04FF4004109482DF081
:1042800029FC0346FB7300BFFB7B012B0CBF012302
:104290000023DBB218461037BD4680BD000002582F
:1042A000001802580004025880B483B000AF786050
:1042B000044A7B681A607B6818460C37BD465DF877
:1042C000047B7047EC6C050880B582B000AF786065
:1042D0007868FFF7E9FF7C2178684EF0C8F97B68C1
:1042E00018460837BD4680BD80B400AF034B1B683D
:1042F0001846BD465DF8047B704700BF70AE0324CE
:1043000080B483B000AF78600B46FB707B68FA78AE
:1043100083F878207B68012283F8792000BF0C376E
:10432000BD465DF8047B704780B582B000AF786011
:104330000B467B8013463B800C4B1B887A889A4245
:1043400004D30B4B1B883A889A4205D2094B0A4A80
:104350009E210A484FF0D4FA094A7B881380094A03
:104360003B88138000BF0837BD4680BD64AE032480
:1043700066AE0324744A0508D84A05081C4B050894
:104380006AAE03246CAE032480B582B000AF7860BF
:104390007B6893F87A30002B09D07B685A687B6879
:1043A0005B681B681B6810469847034600E00023C3
:1043B00018460837BD4680BD80B582B000AF786032
:1043C000786839F0E3FD7B681B68AC331B6878685C
:1043D000984700BF0837BD4680BD80B483B000AFAA
:1043E00078603960002318460C37BD465DF8047BC1
:1043F0007047000080B584B000AFF860B9607A60A3
:104400003B60BB68002B06D10F4B104A40F2D22113
:104410000F484FF075FAFB68BA68DA63FB687A6890
:104420001A647B68002B14BF01230023DAB2094B06
:104430001A70FB681B688C331B683968F8689847EA
:1044400000BF1037BD4680BD644B05089C4B050876
:104450001C4B05086EAE032480B483B000AF7860B7
:1044600039607B683A685A643B68002B14BF0123AB
:104470000023DAB2034B1A7000BF0C37BD465DF85B
:10448000047B70476FAE032480B483B000AF7860C4
:1044900039607B683A681A6100BF0C37BD465DF829
:1044A000047B704780B483B000AF78600B46FB702C
:1044B0007B68FA7883F8702000BF0C37BD465DF842
:1044C000047B704780B483B000AF78600023184647
:1044D0000C37BD465DF8047B704780B582B000AFF5
:1044E00078600B467B807B689B6B002B04D07B68DD
:1044F0009B6B7A881046984700BF0837BD4680BD41
:1045000080B483B000AF78604FF6FF7318460C3765
:10451000BD465DF8047B704780B582B000AF78601F
:104520007B685A687B685B681B6818331B68104699
:104530009847034618460837BD4680BD80B485B00D
:1045400000AF78607B6893F878207B6893F834300C
:104550009A4211D0144B1B78002B1ED1134B1B8891
:10456000BB81134B1A88114B1A80114ABB891380E7
:104570000D4B01221A7010E00B4B1B78002B0CD056
:104580000A4B1B88FB810A4B1A88084B1A80084A81
:10459000FB891380044B00221A7000BF1437BD46FC
:1045A0005DF8047B704700BF68AE032466AE032449
:1045B00064AE032480B582B000AF78607B68184693
:1045C00038F042FF00BF0837BD4680BD80B582B0DD
:1045D00000AF7860054A7B681A607B681846FFF771
:1045E00063FE7B6818460837BD4680BD0C61050830
:1045F00080B582B000AF78607868FFF7E7FF7C2174
:1046000078684EF034F87B6818460837BD4680BDA0
:1046100080B582B000AF78607B681846FFF7CAFFAC
:1046200000BF0837BD4680BD80B582B000AF78605E
:104630007B68184602F0B0FB7A687B681B688C3395
:104640001B680C49104698477B687C331846FFF777
:10465000A9FB7A687B687C3319461046FFF714FF84
:104660007B6801211846FFF71DFF00BF0837BD46D4
:1046700080BD00BF0000007080B582B000AF7860E0
:104680007B681B6880331B68786898477B681B6869
:1046900078331B687868984700F074F97A687B680B
:1046A0001B6870331B681046984701224FF48061E5
:1046B00009482DF027FA01224FF4004107482DF058
:1046C00021FA00F05FF97A687B681B6870331B6819
:1046D0001046984700BFF4E7000C02580018025833
:1046E00080B582B000AF78607B68184602F0ECFBC2
:1046F000034618460837BD4680BD80B582B000AF7E
:10470000786039607B683968184602F0EBFB00BFBF
:104710000837BD4680BD000080B586B000AF786028
:1047200039607B683968184602F0F2FB1F4B0022A3
:10473000C3F88420BFF34F8F00BF1C4BD3F88030E9
:104740007B617B695B0BC3F30E033B617B69DB0819
:10475000C3F30903FB603B695A0143F6E07313405E
:10476000FA68920711491343C1F87432FB685A1E64
:10477000FA60002B14BF01230023DBB2002BEAD127
:104780003B695A1E3A61002B14BF01230023DBB2A0
:10479000002BDBD1BFF34F8F00BFBFF36F8F00BF84
:1047A00000BF00BF1837BD4680BD00BF00ED00E070
:1047B00080B582B000AF78607B68184602F010FBCD
:1047C00000BF0837BD4680BD80B582B000AF7860BD
:1047D0007B68184602F014FB00BF0837BD4680BD59
:1047E00080B582B000AF78607B68184602F016FB97
:1047F00000BF0837BD4680BD80B582B000AF78608D
:104800007B68184602F018FB00BF0837BD4680BD24
:1048100080B582B000AF78607B68002B07D0FFF7CF
:1048200063FD03460121184639F0CAFB06E0FFF795
:104830005BFD03460021184639F0C2FB01231846F0
:104840000837BD4680BD000080B582B000AF7860FB
:10485000084A7B681A607B687C331846FFF712FBB6
:104860007B681846FFF7B2FE7B6818460837BD46DE
:1048700080BD00BF385C050880B582B000AF7860AD
:104880007868FFF7E1FF882178684DF0F0FE7B68DB
:1048900018460837BD4680BD80B500AF0022012113
:1048A000012034F066FC03460F4A13600E4B1B6870
:1048B000002B05D10D4B0E4A28210E484FF020F851
:1048C00000220421012034F073FD03460A4A1360DC
:1048D000094B1B68002B05D1084B054A2C210548C4
:1048E0004FF00EF800BF80BDB0F10024EC4B05087E
:1048F000384C0508684C0508B4F10024C04C050884
:1049000080B500AF044B1B684FF0FF31184634F000
:10491000B9FC00BF80BD00BFB0F1002480B500AF7E
:10492000034B1B68184634F0FFFC00BF80BD00BF7E
:10493000B0F1002480B500AF034B1B68002118467E
:1049400034F0A0FC00BF80BDB0F1002480B500AF02
:10495000034B1B68184634F0E7FC00BF80BD00BF66
:10496000B0F1002480B500AF044B1868002300228A
:10497000034934F091FD00BF80BD00BFB4F10024B5
:104980002400002480B582B000AF094B1868391D9F
:104990000023002234F0E0FD054B1868391D4FF06C
:1049A000FF33002234F0D8FD00BF0837BD4680BD7C
:1049B000B4F1002480B483B000AF0346FB80B7F9A4
:1049C0000630002B0BDBFB8803F01F020749B7F909
:1049D00006305B09012000FA02F241F8232000BFF3
:1049E0000C37BD465DF8047B704700BF00E100E076
:1049F00080B483B000AF0346FB80B7F90630002BCC
:104A000012DBFB8803F01F020A49B7F906305B0985
:104A1000012000FA02F2203341F82320BFF34F8F28
:104A200000BFBFF36F8F00BF00BF0C37BD465DF8FE
:104A3000047B704700E100E080B483B000AF786091
:104A40007B6800221A607B6818460C37BD465DF80B
:104A5000047B704780B483B000AF78607B681B68CC
:104A600018460C37BD465DF8047B704780B483B0B0
:104A700000AF7860044A7B681A607B6818460C3780
:104A8000BD465DF8047B7047605D050880B582B067
:104A900000AF78607868FFF7E9FF042178684DF08F
:104AA000E6FD7B6818460837BD4680BD80B582B0FC
:104AB00000AF78607B681B6844331B687868984750
:104AC00000BF0837BD4680BD80B483B000AF7860BA
:104AD000044A7B681A607B6818460C37BD465DF84F
:104AE000047B7047C46D050880B582B000AF786064
:104AF0007868FFF7E9FF0C2178684DF0B8FD7B6816
:104B000018460837BD4680BD80B483B000AF7860DA
:104B10003960094A7B681A607B683A685A607B682A
:104B200000221A727B6800225A727B6818460C3782
:104B3000BD465DF8047B7047C46D050880B483B042
:104B400000AF7860012318460C37BD465DF8047B42
:104B5000704780B582B000AF78607A687B681B6868
:104B600028331B681046984700BF0837BD4680BDF4
:104B700080B582B000AF78607B685A687B685B68FC
:104B80001B6814331B681046984700BF0837BD46A2
:104B900080BD80B582B000AF7860FFF7A5FB03460B
:104BA0001846FFF7E5FF00BF0837BD4680BD80B55A
:104BB00082B000AF78607B680C331846FFF73CFF8B
:104BC0007B6818460837BD4680BD0000B0B582B08E
:104BD00000AF78607A687B680C3319461046FFF79F
:104BE00093FF0E4A7B681A607B6803F10C007B68B8
:104BF00020336022194639F035FB7B6820335F246F
:104C00001D4604E02846FFF7D2FF013C2435002C66
:104C1000F8DA7B6818460837BD46B0BD105D050858
:104C200080B582B000AF7860094A7B681A605A206C
:104C3000FFF7DEFE7B680C33184600F017FB7B683D
:104C40001846FFF741FF7B6818460837BD4680BD10
:104C5000105D050880B582B000AF78607868FFF716
:104C6000DFFF4FF45A6178684DF001FD7B6818460C
:104C70000837BD4680BD000080B584B000AF7860C5
:104C8000124BD3F8D430114A43F01003C2F8D43099
:104C90000E4BD3F8D43003F01003FB60FB680B4BD2
:104CA000DB6F0A4A43F01003D367084BDB6F074AF8
:104CB00023F01003D367064B064A1A625A20FFF707
:104CC00079FE00BF1037BD4680BD00BF00440258CA
:104CD0003C030024934B000880B584B000AF78609B
:104CE0000B46FB700023FB60FB780B2B26D801A240
:104CF00052F823F0314D00082B4D0008254D0008D7
:104D00003D4D00083D4D00083D4D00083D4D00085B
:104D1000374D0008374D0008374D0008374D000863
:104D2000374D00080023FB600EE00123FB600BE021
:104D30000223FB6008E00523FB6005E0054B064A03
:104D4000652106484EF0DCFDFB6818461037BD466D
:104D500080BD00BF044D0508204D05086C4D0508B9
:104D600080B584B000AF78600B46FB700023FB6019
:104D7000FB780A2B21D801A252F823F0B54D000888
:104D8000AF4D0008A94D0008BB4D0008BB4D000801
:104D9000BB4D0008BB4D0008AF4D0008AF4D0008EB
:104DA000AF4D0008AF4D00080023FB600BE001236E
:104DB000FB6008E00223FB6005E0054B054A862105
:104DC00005484EF09DFDFB6818461037BD4680BD76
:104DD000044D0508C04D05086C4D050880B483B02E
:104DE00000AF786040F2EF3318460C37BD465DF8EF
:104DF000047B704790B589B000AF786039603B683C
:104E00005B7F19467868FFF767FFB8613B689B7F57
:104E100019467868FFF760FF78613B689B7F194609
:104E20007868FFF79DFF38613B685B8B1A463B68EB
:104E30009B8AD21A944B1A643B685B8B1A463B6878
:104E40009B8AD21A904B9A613B681B8B1A463B682F
:104E50009B8AD21A8C4B1A618B4A3B6953633B681D
:104E6000DB8A1A463B689B8A1B041A43864B5A64AA
:104E70003B681A69844BDA633B685A68824BDA6094
:104E80003B681B68B3F5007F36D0B3F5007F00F2B6
:104E9000DE80B3F5807F15D0B3F5807F00F2D78038
:104EA000802B43D0802B00F2D280402B00F0BB80BF
:104EB000402B00F2CC80042B00F0A180202B00F0CE
:104EC000B280C4E03B681B7F1A066F496F4B1343E7
:104ED000CB613B680C336C4C1846FFF7BBFD0346B7
:104EE0002362694A7B6953623B681A69664B5A615F
:104EF000654B674A1A60C2E03B681B7F1A0662492D
:104F0000644B1343CB613B680C335F4C1846FFF78F
:104F1000A1FD034623625C4A7B6953623B681A69C0
:104F2000594B5A61584B5A4A1A60A8E03B689B6833
:104F3000FB600123FB773B681B7F1A06BB691343A9
:104F4000514A43F40033D3614F4A7B6953623B6853
:104F50001A694D4B5A61FB681A1D4B4BDA62FB68AC
:104F60001B88DBB2002B02D0012B0DD020E0464B7A
:104F7000DA69494B1340FA685288013A1202114625
:104F8000414A0B43D3611AE03B681B7FFF2B01D1E1
:104F90000023FB773C4BDA693F4B1340FA68528899
:104FA000013A12021343384A43F01003D36106E07A
:104FB0003A4B3B4A4FF480713A484EF0A1FC324BD9
:104FC000DB69314A43F02003D36100BF2E4BDB691C
:104FD00003F02003002B14BF01230023DBB2002BBE
:104FE000F4D1294B10229A60FB7F002B03D0264B73
:104FF000274A1A6043E0244B2B4A1A603FE03B6883
:105000001B7F1A06BB6913431F4A43F40033D36165
:105010001D4A7B6953623B681A691B4B5A611A4BE4
:105020001B4A1A602BE03B681B7F1A06BB691343BF
:10503000154A43F40033D361134A7B6953623B68DA
:105040001A69114B5A61104B114A1A6017E03B68FC
:105050001B7F1A06BB6913430B4A43F40033D36129
:105060003B685A7F3B689B7F9A4203D0064B0E4AAF
:105070001A6003E0044B40F201221A6000BF00BF37
:105080002437BD4690BD00BF001000520A00020048
:105090000102020009000200EF00FFFF0C4E0508AC
:1050A000284E05086C4D05080102010090B585B039
:1050B00000AF786039603B689B7F19467868FFF7DE
:1050C0004FFEF8602F4AFB6853633B68DB8A1A4641
:1050D0003B689B8A1B041A432A4B5A643B681A6933
:1050E000284BDA633B685B8B1A463B689B8AD21A73
:1050F000244B1A643B681B68082B2DD13B685B8BE3
:105100001A463B689B8AD21A1E4B9A613B685B8B9E
:105110001A463B689B8AD21A1A4B1A61194AFB68D5
:1051200053623B681B7F1A061649174B1343CB612A
:105130003B680C33134C1846FFF78CFC0346236284
:105140003B681A690F4B5A613B681A690D4BDA606C
:105150000C4B0E4A1A6010E00A4AFB68D361094BF7
:1051600000221A613B680C33064C1846FFF772FCAC
:105170000346A363034B064A1A6000BF1437BD46BB
:1051800090BD00BF001000520900010001020200A2
:105190000102030080B400AF00BF094B1B6803F09D
:1051A0000103002B14BF01230023DBB2002BF4D139
:1051B000034B23229A6000BFBD465DF8047B704715
:1051C0000010005280B485B000AFF860B9607A601A
:1051D000FB7000BF214B1B6803F00103002B14BFC1
:1051E00001230023DBB2002BF4D11C4B23229A6055
:1051F0001A4B01225A63BB681B04184A43F001038F
:105200005364164AFB68D363FB78FF2B17D0134B0C
:1052100001225A62FB781A061049114B1343CB61E5
:105220000E4A7B6823F07F4313620C4AFB6853618C
:105230000A4AFB68D360094B0A4A1A6008E0074B28
:105240000122DA61054A7B689363044B064A1A60BF
:1052500000BF1437BD465DF8047B70470010005254
:1052600009000100010002000100030080B582B0C6
:1052700000AF7860054A7B681A607B681846FFF7C4
:10528000F5FB7B6818460837BD4680BD146E0508DF
:1052900080B582B000AF78607868FFF7E7FF14212F
:1052A00078684DF0E4F97B6818460837BD4680BD44
:1052B00080B483B000AF78607B6800221A807B687E
:1052C00000225A807B6800229A807B680022DA8064
:1052D0007B6818460C37BD465DF8047B70470000BC
:1052E00080B483B000AF7860044A7B68136000BF6D
:1052F0000C37BD465DF8047B704700BFD4AE032475
:1053000080B483B000AF7860044A7B681A607B6821
:1053100018460C37BD465DF8047B7047C05F050832
:1053200080B582B000AF78607868FFF7E9FF0421AC
:1053300078684DF09CF97B6818460837BD4680BDFB
:1053400080B485B000AFF860B9607A603B600B4A0A
:10535000FB681A60FB68BA685A60FB687A689A60F2
:10536000FB683A68DA60FB68BA691A61FB6818463C
:105370001437BD465DF8047B704700BFB05F050879
:1053800080B483B000AF7860044A7B681A607B68A1
:1053900018460C37BD465DF8047B7047B05F0508C2
:1053A00080B582B000AF78607868FFF7E9FF14211C
:1053B00078684DF05CF97B6818460837BD4680BDBB
:1053C00080B483B000AF7860396000BF0C37BD4651
:1053D0005DF8047B704780B483B000AF78603960BB
:1053E00000BF0C37BD465DF8047B704780B483B0C6
:1053F00000AF7860396000BF0C37BD465DF8047BB4
:10540000704780B483B000AF78600B46FB7000BF7C
:105410000C37BD465DF8047B704780B483B000AFA5
:10542000786000BF0C37BD465DF8047B704780B4E0
:1054300083B000AF786000BF0C37BD465DF8047BD9
:105440007047000080B483B000AF7860044A7B6886
:105450001A607B6818460C37BD465DF8047B7047C0
:10546000885F050880B582B000AF78607868FFF784
:10547000E9FF042178684DF0FAF87B681846083790
:10548000BD4680BD80B483B000AF7860044A7B68BD
:105490001A607B6818460C37BD465DF8047B704780
:1054A000745F050880B582B000AF78607868FFF758
:1054B000E9FF042178684DF0DAF87B681846083770
:1054C000BD4680BD80B483B000AF7860044A7B687D
:1054D0001A607B6818460C37BD465DF8047B704740
:1054E0009477050880B582B000AF78607868FFF7E0
:1054F000E9FF0C2178684DF0BAF87B681846083748
:10550000BD4680BD80B483B000AF786039607B68F1
:105510003A689A6000BF0C37BD465DF8047B70475F
:1055200080B483B000AF786000BF0C37BD465DF833
:10553000047B704780B483B000AF78600B46FB708B
:1055400000BF0C37BD465DF8047B704780B483B064
:1055500000AF786039607B683A6803F5987310682B
:10556000516803C300BF0C37BD465DF8047B70472C
:1055700080B483B000AF7860044A7B681A607B68AF
:1055800018460C37BD465DF8047B70475C5F050824
:1055900080B582B000AF78607868FFF7E9FF04213A
:1055A00078684DF064F87B6818460837BD4680BDC2
:1055B00080B483B000AF7860074A7B681A607B686C
:1055C00000225A607B6800229A607B6818460C377C
:1055D000BD465DF8047B7047E05B050880B483B08E
:1055E00000AF78607B6800221A807B6800225A80B6
:1055F0007B6800229A807B680022DA807B68002228
:105600001A817B6800225A817B6800229A817B681C
:1056100000229A737B6818460C37BD465DF8047B00
:10562000704780B582B000AF78607B681846FFF79E
:10563000D5FF7B6800221A617B6800229A827B6812
:1056400018460837BD4680BD80B584B000AFF8600D
:10565000B9607A603B60554AFB681A60FB68BA68BB
:105660005A60FB687A689A60FB683A68DA60FB689F
:1056700000221A61FB6800225A61FB6800229A61CD
:10568000FB681C331846FFF7CCFFFB68002283F849
:105690003420FB6800229A63FB680022DA63FB680F
:1056A00000221A64FB6800225A64FB68002283F817
:1056B0004820FB68012283F84920FB68002283F818
:1056C0004A20FB68002283F84B20FB680022DA6442
:1056D000FB6850331846FFF7EBFDFB68002283F8A8
:1056E0005820FB680022DA65FB6800221A66FB6816
:1056F00000225A66FB68012283F86820FB680022BA
:1057000083F86920FB68002283F86A20FB68012285
:1057100083F86B20FB68002283F86C20FB68002272
:1057200083F86D20FB68002283F86E20FB6800225E
:1057300083F86F20FB68002283F87020FB6800224A
:105740005A67FB68002283F87820FB68002283F800
:105750007920FB68012283F87A20FB68012283F814
:105760007B20134AFB681360124A3B8B1380114B5A
:105770001A88114B1A80114ABB8B13800F4B1A8861
:105780000F4B1A800F4B00221A703A8BBB8B9A4238
:1057900034BF01230023DBB21A46FB6883F83420B0
:1057A000FB6818461037BD4680BD00BFEC6C05088D
:1057B00070AE032464AE03246AAE032466AE0324F1
:1057C0006CAE032468AE032480B582B000AF78606D
:1057D000054A7B681A607B681846FFF733FE7B68D2
:1057E00018460837BD4680BDEC77050880B582B005
:1057F00000AF78607868FFF7E7FF4FF49E71786834
:105800004CF035FF7B6818460837BD4680BD80B533
:1058100082B000AF7860786800F004F800BF083705
:10582000BD4680BD80B582B000AF78607B68D3F89C
:105830004031002B0FD07B68D3F840217B68D3F830
:1058400040311B680C331B68104698470346002BF9
:1058500001D0012300E00023002B0ED07B68D3F899
:1058600040217B68D3F840311B6808331B68104621
:1058700098477B680022C3F8402100BF0837BD4627
:1058800080BD000080B582B000AF7860054A7B68BB
:105890001A607B681846FFF797FF7B681846083741
:1058A000BD4680BD085F050880B582B000AF786056
:1058B0007868FFF7E7FF4FF4A27178684CF0D7FEE5
:1058C0007B6818460837BD4680BD000080B582B0B1
:1058D00000AF7860084A7B681A607B6803F5A273A2
:1058E000184600F06DFB7B681846FFF7CBFF7B681E
:1058F00018460837BD4680BD9C5E050880B582B05D
:1059000000AF78607868FFF7E1FF4FF4AE71786818
:105910004CF0ADFE7B6818460837BD4680BD80B5AB
:1059200082B000AF7860786801F030FF00BF0837C0
:10593000BD4680BD80B582B000AF7860054A7B6807
:105940001A607B681846FFF7C1FF7B681846083766
:10595000BD4680BD485E050880B582B000AF786066
:105960007868FFF7E7FF4FF4AE7178684CF07FFE80
:105970007B6818460837BD4680BD80B582B000AF51
:1059800078607B68D3F85831184623F02DF87B688F
:1059900018463EF04DF800BF0837BD4680BD80B5C3
:1059A00082B000AF786039603B68184601F0EEFEC7
:1059B00000BF0837BD4680BD80B586B002AFF86035
:1059C000B9607A603B60F868BB6900933B687A68AD
:1059D000B968FFF7B5FC044AFB681A60FB68184613
:1059E0001037BD4680BD00BF345E050880B500AFEE
:1059F000014800F08BF980BDB8F1002480B500AFFC
:105A0000114B1B68BFF35B8F03F00103002B0CBF2E
:105A100001230023DBB2002B13D00B484CF029FEEE
:105A20000346002B14BF01230023DBB2002B08D058
:105A3000064800F067F806484DF080FF02484CF039
:105A400024FE024B184680BD20200124B8F100241A
:105A5000ED59000880B582B000AF7860054A7B68D8
:105A60001A607B681846FFF78BFC7B68184608377E
:105A7000BD4680BD345E050880B582B000AF786059
:105A80007868FFF7E7FF142178684CF0F0FD7B6839
:105A900018460837BD4680BD80B582B000AF78603B
:105AA0007B68184636F076FF034A7B681A607B688D
:105AB00018460837BD4680BD005E050880B582B037
:105AC00000AF78607B68184636F064FF034A7B6855
:105AD0001A607B6818460837BD4680BDCC5D050856
