:020000040800F2
:1000000000000524E1390008D1370008DF37000877
:10001000E7370008EF370008F73700080000000056
:10002000000000000000000000000000919C030898
:10003000FF37000800000000E19E03080D8F030851
:10004000313A0008313A0008313A0008313A0008E4
:10005000313A0008313A0008313A0008313A0008D4
:10006000313A0008313A0008313A00080D380008EA
:10007000313A0008313A0008313A0008313A0008B4
:10008000313A0008313A000821380008313A0008B6
:10009000313A0008313A0008313A0008313A000894
:1000A000313A0008313A0008313A0008313A000884
:1000B000313A0008313A0008313A0008313A000874
:1000C000313A0008313A0008313A0008313A000864
:1000D000313A0008313A0008313A0008313A000854
:1000E000313A0008313A000800000000313A0008B7
:1000F000313A0008313A0008313A0008313A000834
:10010000313A0008313A0008313A0008313A000823
:10011000313A0008313A00083D380008313A000809
:10012000313A0008313A0008313A0008313A000803
:10013000313A0008313A0008313A0008313A0008F3
:1001400000000000000000000000000000000000AF
:10015000313A0008313A0008313A0008313A0008D3
:10016000313A0008313A0008313A0008313A0008C3
:10017000313A0008313A0008313A0008313A0008B3
:10018000313A0008313A0008313A0008313A0008A3
:10019000313A0008313A0008313A0008313A000893
:1001A00051380008313A00086538000800000000A6
:1001B000313A0008313A0008313A0008313A000873
:1001C000313A0008313A0008000000000000000049
:1001D0000000000000000000313A000800000000AC
:1001E000000000000000000000000000000000000F
:1001F0000000000000000000313A0008313A000819
:10020000313A0008313A000800000000313A000895
:10021000313A0008313A0008313A0008313A000812
:10022000313A000800000000313A000800000000E8
:10023000313A0008313A000800000000313A000865
:10024000313A0008313A0008313A0008313A0008E2
:10025000313A0008313A0008313A0008313A0008D2
:10026000313A0008313A0008313A0008313A0008C2
:10027000313A0008313A0008313A00080000000025
:10028000313A0008313A0008313A0008313A0008A2
:1002900000000000313A0008313A0008313A000805
:1002A000313A0008313A0008313A0008313A000882
:1002B000313A0008313A0008313A0008313A000872
:0C02C000313A000879380008313A000893
:1002D00010B5054C237833B9044B13B10448AFF380
:1002E00000800123237010BD3801002400000000AD
:1002F000AC49050808B5034B1BB103490348AFF3EC
:10030000008008BD000000003C010024AC49050845
:1003100001F0FF01102A2BDB10F0070F08D010F8B6
:10032000013B013A8B422DD010F0070F42B3F6D1BA
:10033000F0B441EA012141EA014122F007047FF0D3
:1003400000070023F0E80256083C85EA010586EA2A
:10035000010685FA47F5A3FA87F586FA47F6A5FA66
:1003600087F68EB9EED1F0BC01F0FF0102F0070272
:1003700032B110F8013B013A83EA010313B1F8D11D
:100380000020704701387047002D06BF35460338FE
:10039000073815F0010F07D1013015F4807F02BF37
:1003A000013015F4C03F0130F0BC0138704700BF88
:1003B00081F0004102E000BF83F0004330B54FEA16
:1003C00041044FEA430594EA050F08BF90EA020F83
:1003D0001FBF54EA000C55EA020C7FEA645C7FEA16
:1003E000655C00F0E2804FEA5454D4EB5555B8BF39
:1003F0006D420CDD2C4480EA020281EA030382EAAA
:10040000000083EA010180EA020281EA0303362D3B
:1004100088BF30BD11F0004F4FEA01314FF4801C0E
:100420004CEA113102D0404261EB410113F0004F20
:100430004FEA03334CEA133302D0524263EB4303D7
:1004400094EA050F00F0A780A4F10104D5F1200E75
:100450000DDB02FA0EFC22FA05F2801841F10001D0
:1004600003FA0EF2801843FA05F359410EE0A5F1A4
:1004700020050EF1200E012A03FA0EFC28BF4CF0D5
:10048000020C43FA05F3C01851EBE37101F000458B
:1004900007D54FF0000EDCF1000C7EEB00006EEB98
:1004A0000101B1F5801F1BD3B1F5001F0CD3490822
:1004B0005FEA30004FEA3C0C04F101044FEA445279
:1004C00012F5800F80F09A80BCF1004F08BF5FEA00
:1004D000500C50F1000041EB045141EA050130BDE0
:1004E0005FEA4C0C404141EB0101013C28BFB1F5F2
:1004F000801FE9D291F0000F04BF01460020B1FA3D
:1005000081F308BF2033A3F10B03B3F120020CDA0F
:100510000C3208DD02F1140CC2F10C0201FA0CF0ED
:1005200021FA02F10CE002F11402D8BFC2F1200C52
:1005300001FA02F120FA0CFCDCBF41EA0C01904008
:10054000E41AA2BF01EB0451294330BD6FEA040451
:100550001F3C1CDA0C340EDC04F11404C4F120023C
:1005600020FA04F001FA02F340EA030021FA04F34E
:1005700045EA030130BDC4F10C04C4F1200220FAA5
:1005800002F001FA04F340EA0300294630BD21FAE3
:1005900004F0294630BD94F0000F83F4801306BFA9
:1005A00081F480110134013D4EE77FEA645C18BF9D
:1005B0007FEA655C29D094EA050F08BF90EA020F34
:1005C00005D054EA000C04BF1946104630BD91EA2C
:1005D000030F1EBF0021002030BD5FEA545C05D12F
:1005E0004000494128BF41F0004130BD14F580046E
:1005F0003CBF01F5801130BD01F0004545F0FE41E2
:1006000041F470014FF0000030BD7FEA645C1ABF16
:10061000194610467FEA655C1CBF0B46024650EA4D
:10062000013406BF52EA033591EA030F41F4002179
:1006300030BD00BF90F0000F04BF0021704730B5FF
:100640004FF4806404F132044FF000054FF00001D4
:1006500050E700BF90F0000F04BF0021704730B595
:100660004FF4806404F1320410F0004548BF40426A
:100670004FF000013EE700BF42004FEAE2014FEABF
:1006800031014FEA02701FBF12F07F4393F07F4F9A
:1006900081F06051704732F07F4208BF704793F09D
:1006A0007F4F04BF41F40021704730B54FF46074B0
:1006B00001F0004521F000411CE700BF50EA0102B3
:1006C00008BF704730B54FF000050AE050EA01025C
:1006D00008BF704730B511F0004502D5404261EBCC
:1006E00041014FF4806404F132045FEA915C3FF40D
:1006F000D8AE4FF003025FEADC0C18BF03325FEAAA
:10070000DC0C18BF033202EBDC02C2F1200300FA5A
:1007100003FC20FA02F001FA03FE40EA0E0021FA7F
:1007200002F11444BDE600BF80B500AF02490020CD
:100730003BF0E8F800BF80BD9545000880B483B069
:1007400000AF78604FF06043D3F8803E03F00103C0
:10075000002B13D04FF06043D3F8003E03F00103A9
:10076000002B0BD000E000BF4FF060431B68002B54
:10077000F9D04FF060437A68D2B21A707B6818469D
:100780000C37BD465DF8047B7047000080B400AFB5
:100790008F4B1B88B3F57A7F59D18E4B1B78502B2A
:1007A00007D0502B00F30E81142B36D0282B1AD0F3
:1007B00008E1894B1B68894AA2FB03239B094FF47C
:1007C0007A7202FB03F3844A1360834B1B6807EEC3
:1007D000903AB8EE677ADFED826AC7EE267A814BEF
:1007E000C3ED007AEEE0804B1B687C4AA2FB03233A
:1007F0009B094FF47A7202FB03F37B4A13607A4B36
:100800001B6807EE903AB8EE677ADFED756AC7EEBF
:10081000267A764BC3ED007AD4E0754B1B686F4A9D
:10082000A2FB03239B094FF47A7202FB03F3704A85
:1008300013606F4B1B6807EE903AB8EE677ADFEDF6
:10084000686AC7EE267A6B4BC3ED007ABAE0604B5C
:100850001B88642B56D15F4B1B78502B07D0502B35
:1008600000F3B080142B34D0282B19D0AAE05A4BB7
:100870001B68614AA2FB03235B09642202FB03F3AA
:10088000554A1360544B1B6807EE903AB8EE677AEE
:10089000DFED536AC7EE267A524BC3ED007A91E042
:1008A000514B1B68544AA2FB03235B09642202FBE1
:1008B00003F34D4A13604C4B1B6807EE903AB8EEB9
:1008C000677ADFED476AC7EE267A484BC3ED007AB8
:1008D00078E0474B1B68484AA2FB03235B0964226C
:1008E00002FB03F3424A1360414B1B6807EE903A48
:1008F000B8EE677ADFED3A6AC7EE267A3D4BC3ED74
:10090000007A5FE0324B1B880A2B5BD1314B1B789E
:10091000502B06D0502B55DC142B38D0282B1BD055
:1009200050E02D4B1B68354AA2FB0323DA0813461F
:100930009B0013445B001A46274B1A60264B1B682A
:1009400007EE903AB8EE677ADFED256AC7EE267AB1
:10095000244BC3ED007A35E0234B1B68274AA2FBEA
:100960000323DA0813469B0013445B001A461E4B10
:100970001A601D4B1B6807EE903AB8EE677ADFED00
:10098000186AC7EE267A194BC3ED007A1AE0184BA5
:100990001B681A4AA2FB0323DA0813469B00134480
:1009A0005B001A46124B1A60114B1B6807EE903A17
:1009B000B8EE677ADFED0A6AC7EE267A0D4BC3ED13
:1009C000007A00BF00BFBD465DF8047B704700BFE2
:1009D000220000241E00002410000024D34D6210C9
:1009E00000007A44040000241400002408000024BD
:1009F000180000240C0000241F85EB51CDCCCCCC7A
:100A000080B582B000AF78607B68574A934240F06F
:100A1000A780564B1B780133DAB2544B1A70534BF4
:100A20001B78022B40F09C80514B01221A704E4BD8
:100A30001B681B6803F01003102B2BD14D4B1B7848
:100A4000502B06D0502B1CDC142B12D0282B08D096
:100A500017E0494B1B68494A12889B1A464A1360A3
:100A60000FE0474B1B68454A12889B1A444A1360A3
:100A700007E0444B1B68414A12889B1A414A1360A5
:100A800000BF414B01221A70404B01221A7000F046
:100A900087F82DE0374B1B78502B06D0502B1FDCEE
:100AA000142B14D0282B09D01AE0344B1B881A467B
:100AB000314B1B681344304A136011E02F4B1B88E5
:100AC0001A462F4B1B6813442D4A136008E02B4B2A
:100AD0001B881A462B4B1B6813442A4A136000BF1D
:100AE000294B01221A70294B01221A7000F058F884
:100AF000204B1B78502B06D0502B2EDC142B1ED0F5
:100B0000282B0ED029E01C4B1B6807EE903AB8EE5C
:100B1000677ADFED1F6AC7EE267A1E4BC3ED007AB7
:100B20001BE0174B1B6807EE903AB8EE677ADFEDD3
:100B3000186AC7EE267A184BC3ED007A0DE0114B08
:100B40001B6807EE903AB8EE677ADFED116AC7EEE0
:100B5000267A124BC3ED007A00BF044B00221A70B4
:100B600000BF0837BD4680BD8C0500242106002447
:100B70001D0000241E000024100000242200002478
:100B800014000024180000241C0000241C0600246B
:100B900000007A4404000024080000240C00002413
:100BA00080B582B002AF234B1B78012B3FD1224B83
:100BB0001B78502B06D0502B1CDC142B12D0282B6A
:100BC00008D017E01D4B1B681D4A1E49184601F04E
:100BD00061FD0FE01C4B1B68194A1A49184601F0C9
:100BE00059FD07E0194B1B68154A1649184601F0D4
:100BF00051FD00BF124B5B68DAB2154B1A7000232F
:100C000000930F4B03220021002001F096FC104BB3
:100C10001B7800930A4B03220021022001F08DFC77
:100C20000849002001F04AFC024B00221A7000BF64
:100C3000BD4680BD1C0000241E00002410000024BE
:100C400008060024FC0500241400002418000024D9
:100C5000F805002480B485B000AF78600023FB81E4
:100C60000023BB811FE0BB8903F001039BB2002B73
:100C700009D1FB89124A52F82320BB8991B2114A4B
:100C800022F813100CE0FB890D4A52F823301A0C9D
:100C9000BB8991B20B4A22F81310FB890133FB8107
:100CA000BB890133BB81BB89B3F5805FDBD3064BC6
:100CB00000221A7000BF1437BD465DF8047B7047F0
:100CC000240600242426002428E600240000000036
:100CD00080B586B002AF01F035FBB74B5B6903F41A
:100CE0000033002B1BD1BFF34F8F00BFBFF36F8FBB
:100CF00000BFB14B0022C3F85022BFF34F8F00BF9B
:100D0000BFF36F8F00BFAC4B5B69AB4A43F400335A
:100D10005361BFF34F8F00BFBFF36F8F00E000BF81
:100D2000A54B5B6903F48033002B38D1A24B002222
:100D3000C3F88420BFF34F8F00BF9F4BD3F88030A0
:100D4000BB60BB685B0BC3F30E037B60BB68DB0857
:100D5000C3F309033B607B685A0143F6E073134019
:100D60003A68920794491343C1F860323B685A1EAF
:100D70003A60002BEFD17B685A1E7A60002BE5D1D8
:100D8000BFF34F8F00BF8C4B5B698B4A43F48033BA
:100D90005361BFF34F8F00BFBFF36F8F00E000BF01
:100DA0002BF0DEFB00F054F900F0C4F900F01AFE5D
:100DB00000F0F8FD00F0F2FA00F010FC00F090FCFA
:100DC00000F09AFD00F048FB00F086FB00F0E2F92D
:100DD00000F0C2FA00F03CFD00F0FEFA00F05AFA12
:100DE00002F02EFE02F025FE3C21744837F068FB2D
:100DF000734837F0BBF940F2FF72002171482DF0C3
:100E000073FC40F2FF7200216F482DF06DFC6E48BC
:100E10002CF03EF94FF400626C496A482DF0C8FC92
:100E20000023FB8129E0FB8907EE903AB8EEE77BCF
:100E30009FED5B6B27EE067B9FED5B5B87EE056BA3
:100E4000B0EE460B51F01CFCB0EE407BB6EE006BF2
:100E500027EE067BB6EE006B36EE477B9FED546BBC
:100E600027EE067BFB89F7EEC77B594A9B001344AC
:100E7000C3ED007AFB890133FB81FB89B3F5006F79
:100E8000D1D3544B28221A70524B1A78524B1A70F5
:100E9000524B534A1A6001224FF48051514830F0AE
:100EA000CFFD00224FF400514E4830F0C9FD002222
:100EB0004FF480514C4830F0C3FD4C4B184601F0C4
:100EC000C5FA464B1B684A4A4A49184601F0E2FBFC
:100ED000474B5B68DAB2484B1A7000230093444BCF
:100EE00003220021002001F028FB434B1B780093D4
:100EF0003F4B03220021022001F01FFB3D4900204F
:100F000001F0DCFA052001F053FCFFF749FE38F050
:100F100017F83A4A0221012038F028FA0346384AE5
:100F20001360384A0421012038F020FA0346364A7B
:100F30001360364A40F25451012038F017FA034644
:100F4000334A1360334A0021334838F043F80346EC
:100F5000324A1360324A0021324838F03BF80346E7
:100F6000314A1360314A0021314838F033F80346E2
:100F7000304A1360304A0021304838F02BF80346DD
:100F80002F4A13602F4A00212F4838F023F80346D8
:100F90002E4A136037F0F8FF00BFFDE7AFF3008083
:100FA00000000060FB2119400000000000FC9F4091
:100FB0002D431CEBE2361A3F00ED00E08C050024C7
:100FC0004005002454010024C40100242406002408
:100FD00024C600241E0000241F0000241400002446
:100FE000D0F06B00000402580000025898C00100C5
:100FF00008060024FC050024F8050024285B0508E9
:10100000EC050024405B0508F0050024585B05084A
:10101000F4050024745A05086D1C0008D805002446
:10102000985A0508513A0008DC050024BC5A050806
:101030007D1C0008E0050024E05A0508D91D0008C1
:10104000E4050024045B05086D1F0008E805002482
:1010500080B59CB000AF07F124034C220021184654
:1010600052F035FE3B1D20220021184652F02FFE83
:10107000042033F03BFC00233B602D4B9B692C4A42
:1010800023F4404393612A4B9B6903F440433B6044
:101090003B6800BF264B9B6903F40053B3F5005F28
:1010A000F8D103237B624FF48033BB6201233B639F
:1010B00040237B630223BB640223FB6402233B6562
:1010C0002C237B650123BB650223FB6502233B6662
:1010D0000C237B660023BB660023FB6607F1240319
:1010E000184633F05DFC0346002B01D001F0A6F951
:1010F0003F237B600323BB600023FB6008233B612D
:1011000040237B614023BB614FF48063FB6140233C
:101110003B623B1D0321184634F01CF80346002BAC
:1011200001D001F08BF900BF7037BD4680BD00BF14
:101130000048025880B5AEB000AF3B46B82200214F
:10114000184652F0C4FD4FF002424FF00003C7E9C9
:1011500000230523BB605023FB6002233B61022375
:101160007B610223BB618023FB6100233B62002380
:101170007B622023FB6400237B653B46184634F0EA
:10118000B7FB0346002B01D001F058F900BFB83778
:10119000BD4680BD80B58CB000AF07F124030022AE
:1011A0001A605A609A603B4624220021184652F089
:1011B0008EFD364B364A1A60344B00225A60334B50
:1011C00004229A60314B00221A61304B08225A6186
:1011D0002E4B00221A762D4B00225A762B4B0122E1
:1011E000DA612A4B002283F82020284B4FF4A462B6
:1011F0009A62264B4FF48062DA62244B01221A6312
:10120000224B0022DA63214B00221A641F4B00227A
:1012100083F844201D4B01229A641C482BF030FDBA
:101220000346002B01D001F009F906237B624FF43D
:101230000043BB620023FB6207F1240319461348F5
:101240002DF0C8FB0346002B01D001F0F7F8012375
:101250003B6006237B600323BB6040F2FF73FB60AF
:1012600004233B6100237B61002387F821303B4648
:10127000194606482CF02EFA0346002B01D001F047
:10128000DDF800BF3037BD4680BD00BF54010024EB
:101290000020024080B58AB000AF3B1D242200210F
:1012A000184652F014FD294B294A1A60274B002298
:1012B0005A60264B04229A60244B00221A61234B69
:1012C00008225A61214B00221A76204B00225A76BE
:1012D0001E4B0122DA611D4B002283F820201B4B9C
:1012E00000221A63194B0022DA63184B00221A6499
:1012F000164B002283F84420144B01229A641348B1
:101300002BF0BEFC0346002B01D001F097F8114BE7
:101310007B600623BB600023FB6040F2FF733B61F0
:1013200004237B610023BB61002387F825303B1D2C
:10133000194606482CF0CEF90346002B01D001F0E7
:101340007DF800BF2837BD4680BD00BFC401002422
:10135000002102400200300480B500AF0D4B0E4A60
:101360001A600C4B00221A710A4B00225A71094B69
:1013700000225A61074B00229A61064B01221A6231
:1013800004482DF061FD0346002B01D001F056F812
:1013900000BF80BDAC020024004C025880B500AFF5
:1013A0000B4B0C4A1A600A4B4FF440325A60084B00
:1013B00001229A60064B0022DA6005482FF00AFFEE
:1013C0000346002B01D001F039F800BF80BD00BFFB
:1013D000D00200240010005280B500AF1B4B1C4A05
:1013E0001A601A4B1B4A5A60184B00229A60174B1E
:1013F0000122DA60154B00221A61144B00225A6157
:10140000124B00229A61114B0022DA610F4B00222D
:101410001A620E4830F048FB0346002B01D001F061
:101420000DF80021094831F001FA0346002B01D0E4
:1014300001F004F80021054831F043FA0346002B7F
:1014400001D000F0FBFF00BF80BD00BF38030024C7
:10145000005C0040724E406080B500AF1B4B1C4AE0
:101460001A601A4B1B4A5A60184B00229A60174B9D
:101470000122DA60154B00221A61144B00225A61D6
:10148000124B00229A61114B0022DA610F4B0022AD
:101490001A620E4830F008FB0346002B01D000F022
:1014A000CDFF4FF48051094831F0C0F90346002BBD
:1014B00001D000F0C3FF0021044831F002FA0346D6
:1014C000002B01D000F0BAFF00BF80BD8C030024C8
:1014D000001C0058FFC8B02080B58EB000AF3B1D87
:1014E00034220021184652F0F2FB3A4B3A4A1A6075
:1014F000384B00225A60374B00229A60354B00224D
:10150000DA60344B00221A61324B07225A61314BA8
:1015100003229A612F4B0E22DA612E4B05221A62AA
:101520002C4B40F28E225A622A4B40F2E5129A620C
:10153000284B4FF42572DA62264B40F2E7121A6309
:10154000244B002283F83420224B002283F83520DC
:10155000204B002283F836201E4831F0FFF9034665
:10156000002B01D000F06AFF00237B604FF4F07382
:10157000BB600023FB604FF488733B6101237B61F8
:10158000FF23BB610023FB614FF480633B620523B3
:101590007B624FF0E043BB624FF4F073FB624FF4A9
:1015A00088733B63002387F83430002387F8353095
:1015B000002387F836303B1D00221946054831F0DC
:1015C00055FB0346002B01D000F038FF00BF383731
:1015D000BD4680BDE00300240010005080B588B0F7
:1015E00000AF3B1D00221A605A609A60DA601A61EF
:1015F0005A61384B384A1A60364B04225A60354BD0
:1016000000229A60334B4FF08072DA60314B202217
:101610001A61304B02225A612E4B00229A612D4BE7
:101620000022DA612B4B00221A622A4B02225A62F4
:10163000284B00229A62274B0022DA62254B0022B7
:101640001A63244B08225A63224B00229A63214BCF
:101650000022DA631F4831F075FD0346002B01D0EC
:1016600000F0ECFE01237B600123BB600123FB60E3
:101670004FF001133B61194B7B613B1D41F28832F6
:101680001946144832F0DEF90346002B01D000F071
:10169000D5FE104831F012FE01233B7701237B7702
:1016A000002029F031FE07F11C031946002029F023
:1016B0008DFD0346002B01D000F0C0FE002029F074
:1016C000B7FE0346002B01D000F0B8FE00BF203764
:1016D000BD4680BD88040024005000520100000176
:1016E00080B592B000AF07F1300300221A605A6053
:1016F0009A60DA601A615A6107F1200300221A60C9
:101700005A609A60DA6007F10C0300221A605A608E
:101710009A60DA601A613B1D00221A605A60484BD9
:10172000484A1A60464B04225A60454B00229A6090
:10173000434B4FF08062DA60414B18221A61404BF4
:1017400004225A613E4B00229A613D4B0022DA612D
:101750003B4B00221A623A4B02225A62384B00225B
:101760009A62374B4FF08052DA62354B17221A6378
:10177000334B00225A63324B00229A63304B4FF4B2
:10178000C872DA632E4831F0DDFC0346002B01D02D
:1017900000F054FE02233B6302237B630223BB63FE
:1017A000294BFB63294B3B6407F1300341F288323C
:1017B0001946234832F046F90346002B01D000F0C9
:1017C0003DFE03233B6206237B620023BB620123B1
:1017D000FB6207F1200341F288321946184831F0C4
:1017E00021FE0346002B01D000F028FE0023FB6001
:1017F0004FF440537B614FF00053FB6100233B618A
:101800000123BB6107F10C0341F2883219460C48F1
:1018100031F047FE0346002B01D000F00FFE0023FD
:101820007B603B1D1946064832F03AF80346002B10
:1018300001D000F003FE00BF4837BD4680BD00BFA9
:10184000E404002400A00052020001000200000194
:1018500080B588B000AF07F1100300221A605A600B
:101860009A60DA603B1D00221A605A609A60204B31
:10187000204A1A601E4B4FF489725A601C4B00229A
:101880009A601B4B0922DA60194B00221A61184B2F
:1018900000225A61164B80229A61154836F00EFCE0
:1018A0000346002B01D000F0C9FD4FF480533B618B
:1018B00007F1100319460E4836F0B8FF0346002B17
:1018C00001D000F0BBFD20237B600023BB60002320
:1018D000FB603B1D1946064837F034FA0346002BDF
:1018E00001D000F0ABFD00BF2037BD4680BD00BF7A
:1018F000400500240000014080B58CB000AF07F126
:101900000C0324220021184652F0E1F93B46002244
:101910001A605A609A60204B204A1A601E4B0022BF
:101920005A601D4B00229A601B4B1D4ADA601A4B0D
:1019300000221A61184B00229A610323FB600023E6
:101940003B6101237B610023BB610A23FB61002310
:101950003B6201237B620023BB620A23FB6207F127
:101960000C0319460C4836F005FD0346002B01D048
:1019700000F064FD00233B600023BB603B4619463A
:10198000054837F0DFF90346002B01D000F056FD83
:1019900000BF3037BD4680BD8C05002400E000400C
:1019A000801A060080B582B000AF0D4BD3F8D83056
:1019B0000B4A43F00103C2F8D830094BD3F8D830B2
:1019C00003F001037B607B68002205210B202DF0D2
:1019D0009BF90B202DF0B2F900BF0837BD4680BD42
:1019E0000044025880B58EB000AF07F124030022F6
:1019F0001A605A609A60DA601A61884BD3F8E03056
:101A0000864A43F00203C2F8E030844BD3F8E0305A
:101A100003F002033B623B6A804BD3F8E0307F4A1D
:101A200043F04003C2F8E0307C4BD3F8E03003F0E1
:101A30004003FB61FB69794BD3F8E030774A43F010
:101A40000803C2F8E030754BD3F8E03003F0080328
:101A5000BB61BB69714BD3F8E030704A43F01003AF
:101A6000C2F8E0306D4BD3F8E03003F010037B6137
:101A70007B696A4BD3F8E030684A43F00103C2F84F
:101A8000E030664BD3F8E03003F001033B613B6983
:101A9000624BD3F8E030614A43F08003C2F8E03093
:101AA0005E4BD3F8E03003F08003FB60FB685B4BD8
:101AB000D3F8E030594A43F00403C2F8E030574B02
:101AC000D3F8E03003F00403BB60BB68534BD3F89A
:101AD000E030524A43F02003C2F8E0304F4BD3F8D5
:101AE000E03003F020037B607B68002244F20801B1
:101AF0004B482FF0A5FF002241F2010149482FF089
:101B00009FFF002248F2380147482FF099FF00223A
:101B10004FF4044145482FF093FF00224FF47041E9
:101B200043482FF08DFF44F208037B620123BB6220
:101B30000023FB6200233B6307F124031946384866
:101B40002FF0BCFC4FF480537B620123BB62002367
:101B5000FB6200233B6307F12403194631482FF051
:101B6000ADFC48F230037B620123BB620023FB62C1
:101B700000233B6307F1240319462B482FF09EFCFA
:101B800008237B620123BB620023FB6203233B63C8
:101B900007F12403194624482FF090FC4FF4044326
:101BA0007B620123BB620023FB6200233B6307F1DE
:101BB000240319461D482FF081FC4FF440437B62FB
:101BC0000123BB620023FB6203233B6307F1240371
:101BD000194617482FF072FC4FF440537B620123E3
:101BE000BB620023FB6200233B6307F12403194619
:101BF0000F482FF063FC01237B620123BB620023AB
:101C0000FB6203233B6307F12403194605482FF0C9
:101C100055FC00BF3837BD4680BD00BF00440258A8
:101C2000001002580000025800180258000C025818
:101C30000004025880B586B000AFF860B9607A60E1
:101C400000237B6109E0BB685A1CBA601B78184608
:101C5000FEF774FD7B6901337B617A697B689A4288
:101C6000F1DB7B6818461837BD4680BD80B582B071
:101C700000AF7860322037F03FFAFBE780B584B0E0
:101C800000AF7860484B00221A80484B1B78012B2C
:101C90001FD10023FB730FE0FB7BC3F1A803444A71
:101CA00052F823309AB2404B1B8813449AB23E4BF1
:101CB0001A80FB7B0133FB73FB7B0E2BECD93A4B79
:101CC0001B883C4AA2FB0323DB089AB2364B1A80DE
:101CD0001DE00023BB730EE0BB7BAB33344A52F8EC
:101CE00023309AB2304B1B8813449AB22E4B1A8081
:101CF000BB7B0133BB73BB7B0E2BEDD92A4B1B88FF
:101D00002C4AA2FB0323DB089AB2274B1A80264BEE
:101D10001A88294B1B889A4212D0284B1B681846F8
:101D200037F056FC0346002B06D1244B18680023DD
:101D300000221D4937F08EFB1B4B1A881E4B1A8060
:101D40001F4B1B78012B2BD11E4B1B68184637F0FD
:101D50003FFC0346002B20D11B4B1B78502B06D198
:101D6000184B186800230022184937F073FB164BF4
:101D70001B78282B06D1134B186800230022144926
:101D800037F068FB104B1B78142B06D10D4B1868ED
:101D9000002300220F4937F05DFB094B00221A7027
:101DA000642037F0A9F96DE724E600241E0600241C
:101DB0002CE600248988888826E60024EC05002487
:101DC0001D000024F00500241E000024040000244F
:101DD000080000240C00002480B582B000AF7860B9
:101DE000554B1B78002B05D10122202153482FF0A1
:101DF00027FE04E00022202150482FF021FE504B06
:101E00001A78504B1B789A4214D04D4B1B78012BFB
:101E100006D101224FF480514B482FF011FE05E00E
:101E200000224FF4805148482FF00AFE444B1A78A4
:101E3000444B1A70454B1A78454B1B789A421CD07C
:101E4000434B1B78142B18D100224FF4805141488A
:101E50002FF0F6FD01224FF400513E482FF0F0FD27
:101E60003D4B01221A703D4B01221A703C4B01225E
:101E70001A70374B1A78354B1A70344B1A78344B2A
:101E80001B789A421CD0324B1B78282B18D1012288
:101E90004FF480512F482FF0D3FD00224FF4005112
:101EA0002C482FF0CDFD2C4B01221A702B4B012218
:101EB0001A702B4B01221A70254B1A78234B1A707B
:101EC000224B1A78224B1B789A421CD0204B1B784D
:101ED000502B18D100224FF480511E482FF0B0FD36
:101EE00000224FF400511B482FF0AAFD1A4B01228B
:101EF0001A701A4B01221A70194B01221A70144BD6
:101F00001A78124B1A70174B1A88174B1B889A4273
:101F10000ED0FEF73BFC104B01221A700F4B012232
:101F20001A700F4B01221A700F4B1A880D4B1A8032
:101F3000642037F0E1F853E71D060024001802582A
:101F40001E0600241F060024000002581F00002463
:101F50001E000024000402581D0000241C0600245A
:101F60001C000024240000242200002480B588B036
:101F700000AF78609C4B1B78002B40F0CC819B4BD2
:101F80001B78012B40F0C7810023FB830023BB8318
:101F900024E0BB8B03F001039BB2002B05D1BB8B6C
:101FA000002B02D0FB8B0133FB83BB8B904A32F8B2
:101FB000133007EE903AB8EE677AFB8B8D4A9B00A0
:101FC0001344D3ED007ABB8B67EE277A8A4A9B00D5
:101FD0001344C3ED007ABB8B0133BB83BB8BB3F5DA
:101FE000805FD6D301230022834984484FF096FEB8
:101FF0004FF40062824980484FF02EFF804B4FF033
:1020000000025A607E4B03F5805303F6FC734FF0D9
:1020100000021A607A4B03F5805303F6F8734FF011
:1020200000021A6000237B830EE07B8B03F5806245
:102030007B8B734992000A44126872499B000B44DF
:102040001A607B8B01337B837B8BB3F5806FECD382
:102050004FF480633B830EE03B8BA3F580623B8BA8
:10206000674992000A44126866499B000B441A6053
:102070003B8B01333B833B8BB3F5006FECD30023E9
:10208000FB82614B1B78002B58D10023BB8251E0AF
:10209000BB8A5C4A9B00134493ED007ABB8A0133F0
:1020A000584A9B001344D3ED007A37EE277ABB8A57
:1020B0000233544A9B001344D3ED007A37EE277A5B
:1020C000BB8A03334F4A9B001344D3ED007A37EEAB
:1020D000277ABB8A04334B4A9B001344D3ED007A22
:1020E00037EE277ABB8A0533464A9B001344D3ED6B
:1020F000007A77EE277AB7EEE76AB1EE085B86EEF4
:10210000057BFB8AFDEEC77B17EE901A3F4A42F82B
:102110002310FB8A3D4A52F82330322B04DDFB8A20
:102120003A4A322142F82310FB8A0133FB82BB8AF0
:102130000633BB82BB8AB3F5006FA9D3324B1B7841
:10214000012B48D14FF4AB737B823FE07B8A2D4A51
:102150009B00134493ED007A7B8A0133294A9B004C
:102160001344D3ED007A37EE277A7B8A0233254A6F
:102170009B001344D3ED007A37EE277A7B8A033332
:10218000204A9B001344D3ED007A77EE277AB7EE0E
:10219000E76AB1EE005B86EE057BFB8AFDEEC77B4E
:1021A00017EE901A194A42F82310FB8A174A52F880
:1021B0002330322B04DDFB8A144A322142F82310EB
:1021C000FB8A0133FB827B8A04337B827B8A40F269
:1021D000AA629342BAD90C4B1B78022B4BD140F226
:1021E000AB233B8242E000BF28E60024200000240D
:1021F0002426002424C6002424460024907B0508BD
:102200002486002424A60024200600242CE6002492
:102210003B8A434A9B00134493ED007A3B8A013387
:102220003F4A9B001344D3ED007A77EE277AB7EE4E
:10223000E76AB0EE005B86EE057BFB8AFDEEC77BAE
:1022400017EE901A374A42F82310FB8A354A52F8A3
:102250002330322B04DDFB8A324A322142F823102C
:10226000FB8A0133FB823B8A02333B823B8A40F28A
:1022700055529342CCD92C4B1B78032B27D140F2DB
:102280005633FB811EE0FB89254A9B001344D3EDA6
:10229000007AFB8AFDEEE77A17EE901A214A42F89F
:1022A0002310FB8A1F4A52F82330322B04DDFB8AAD
:1022B0001C4A322142F82310FB8A0133FB82FB893E
:1022C0000133FB81FB8940F2AB429342DBD9174AD1
:1022D000144B1046194640F254531A4651F01DFE55
:1022E000134B1B68184637F073F90346002B06D1D1
:1022F0000F4B1868002300220C4937F0ABF84FF45D
:1023000000620C490C482CF053FA0C4B01221A7055
:102310000B4B00221A70142036F0EEFE2AE600BFA6
:1023200024A600242CE600242006002480EB0024B0
:10233000F4050024240600245401002428E6002487
:102340002000002480B584B000AF3B4600221A6014
:102350005A609A60DA602CF0FFFC01233B70002386
:102360007B704FF010537B6012233B7200237B7213
:102370000023BB720323FB7201233B7300237B7397
:102380000123BB730123FB733B4618462CF01CFD55
:1023900001237B704FF0E0437B601C233B720023E2
:1023A000FB720023BB730023FB733B4618462CF0E3
:1023B0000BFD02237B7016233B720323FB72012368
:1023C000BB730123FB733B4618462CF0FDFC032333
:1023D0007B704FF010437B601C233B720023FB7229
:1023E0000023BB730023FB733B4618462CF0ECFC28
:1023F00004237B7019233B720323FB720123BB73FD
:102400003B4618462CF0E0FC04202CF0BDFC00BF3D
:102410001037BD4680BD000080B582B000AF786047
:102420007B681B68044A934201D12AF0D5F800BFAB
:102430000837BD4680BD00BF0010004080B400AF2B
:1024400000BFBD465DF8047B7047000080B584B0D6
:1024500000AF7860184A7B681360FF21032000F00A
:10246000B7F98021102000F0B3F98021112000F08D
:10247000AFF98021122000F0ABF98021132000F089
:10248000A7F98021142000F0A3F98021152000F085
:102490009FF98021162000F09BF98021172000F081
:1024A00097F98023FB73FB7B1946B72000F090F966
:1024B00000BF1037BD4680BDDCF0002480B58CB075
:1024C00002AF03463960FB713B681B687B623B6867
:1024D0005B683B623B689B68FB617B6ADA013B6A35
:1024E000D901FB6991FBF3F31344A3F50073BB61BE
:1024F0003B6ADB01FA6993FBF2F2F96901FB02F234
:102500009B1A7B61FB693B61FB79002B01D11A238C
:1025100000E02223FB73F87B002301930023009348
:102520003B697A69B96900F079F9A021B12000F01E
:102530004FF900BF2837BD4680BD80B58CB002AFD3
:102540003B600346FB710B46BB7113467B713B68D6
:102550005B683B613B689B68FB603B68DB68BB601A
:10256000002387F82730FB79022B01D901238DE066
:102570003B681B78002B0AD13B69072B05DD3B69C3
:10258000082B04D1FB68002B01D102237EE03B69BC
:10259000042B09D100233B620023FB610123BB61B3
:1025A000032387F8273016E03B69DA01FB68D9017D
:1025B000BB6891FBF3F31344A3F500733B62FB6824
:1025C000DB01BA6893FBF2F2B96801FB02F29B1AD5
:1025D000FB61BB68BB610023FB750023BB75002357
:1025E0007B75FB79022B14D0022B19DC002B02D057
:1025F000012B07D014E02A23FB75A523BB751023FC
:102600007B750DE03223FB75A623BB7511237B750B
:1026100006E03A23FB75A723BB7512237B7500BF29
:102620007B7943F00C033B75BB79012B03D13B7DD8
:1026300043F020033B753B681B78002B09D0FB68F7
:10264000002B02D03B69042B03D13B7D43F04003B8
:102650003B753A7D7B7D1146184600F0B9F83B6822
:102660001B7CF87D019397F827300093BB69FA69CA
:10267000396A00F0D3F897F8303003F07F03DAB20C
:10268000BB7D1146184600F0A3F8002318462837F2
:10269000BD4680BD80B487B000AFF860B9607A6095
:1026A000384B7B61FB68384A934202D2364BFB6061
:1026B00005E0FB68354A934201D9344BFB60FB6867
:1026C000334AA2FB03239B0C324A126802FB03F33A
:1026D000314AA2FB03235B09FA68D31AFB607B68CB
:1026E00000221A707B6800221A74FB682B4A9342FE
:1026F00003D87B687F225A6012E0FB68284A934225
:1027000007D2284AFB68B2FBF3F31A467B685A608B
:1027100006E0254AFB68B2FBF3F31A467B685A6071
:102720007B6800229A607B680122DA607B685B68C4
:102730001A46FB6802FB03F33B613A697B6992FB33
:10274000F3F2BB681A603B697A6993FBF2F279692C
:1027500001FB02F29B1A154A82FB03129210DB174F
:10276000D21ABB685A607B69104A82FB031292102E
:10277000DB17D21ABB689A6000BF1C37BD465DF8F4
:10278000047B704740787D01C05C150000E1F505D1
:1027900083DE1B43DCF000241F85EB519FC44A00FD
:1027A00000127A0040BE402500E9A435ABAAAA2A4F
:1027B00080B582B000AF0346FB71FB79DB43DBB22F
:1027C0001946032000F004F800BF0837BD4680BD5D
:1027D00080B586B004AF03460A46FB711346BB7151
:1027E00000BF25230322C0210B482FF057FC0346CE
:1027F000002BF6D1FB799AB2252302930123019392
:10280000BB1D00930123C02103482FF019FA00BF1C
:102810000837BD4680BD00BF3803002480B588B0AE
:1028200004AFB9607A603B600346FB733B681B12E0
:10283000DAB2294B1A703B68DAB2274B5A70BB6880
:102840001B145BB203F003035AB23B7E9B005BB2E6
:1028500003F00C035BB213435AB23B7F1B015BB224
:1028600003F070035BB213435BB2DAB21A4B9A7097
:10287000BB681B12DAB2184BDA70BB68DAB2164BBF
:102880001A713B681B135BB223F00F035AB27B68CB
:102890001B145BB203F00F035BB213435BB2DAB2FB
:1028A0000D4B5A717B681B12DAB20B4B9A717B6825
:1028B000DAB2094BDA71FB7B9AB225230293082323
:1028C0000193054B00930123C02104482FF0B8F970
:1028D00000BF1037BD4680BDD4F00024380300246B
:1028E00080B582B000AF164BD3F8F430144A43F0F1
:1028F0000203C2F8F430124BD3F8F43003F00203B1
:102900007B607B6800220F216FF001002CF0FCF946
:102910000B4BD3F8F4300A4A43F40043C2F8F430C6
:10292000074BD3F8F43003F400433B603B6829F0D5
:10293000ABFE022029F094FE00BF0837BD4680BDE3
:102940000044025880B5B4B000AF786007F11803B6
:10295000B8220021184651F0BAF97B681B68674A13
:10296000934278D14FF400224FF00003C7E90623C9
:102970004FF40033C7F8B83007F11803184632F0A7
:10298000B7FF0346002B01D0FFF758FD5C4B1B68D7
:1029900001335B4A13605A4B1B68012B0ED1594B14
:1029A000D3F8D830574A43F02003C2F8D830554BFB
:1029B000D3F8D83003F020037B617B69514BD3F807
:1029C000E030504A43F00103C2F8E0304D4BD3F8F9
:1029D000E03003F001033B613B694FF080714FF041
:1029E000807029F061FE484B484A1A60464B092224
:1029F0005A60454B00229A60434B0022DA60424BFA
:102A00004FF480621A61404B4FF480525A613E4B42
:102A10004FF480429A613C4B0022DA613A4B00222B
:102A20001A62394B00225A6237482CF0FFFA0346EB
:102A3000002B01D0FFF702FD7B68334A9A65324ACA
:102A40007B6893630022052112202CF05DF912208F
:102A50002CF074F94DE07B681B682D4A934248D1F5
:102A60004FF400224FF00003C7E906234FF4003370
:102A7000C7F8B83007F11803184632F039FF03469B
:102A8000002B01D0FFF7DAFC1D4B1B6801331C4AF9
:102A900013601B4B1B68012B0ED11A4BD3F8D83097
:102AA000184A43F02003C2F8D830164BD3F8D83078
:102AB00003F02003FB60FB68124BD3F8E030114AAF
:102AC00043F00103C2F8E0300E4BD3F8E03003F0DE
:102AD0000103BB60BB684FF000714FF0007029F03C
:102AE000E3FD0022052112202CF00EF912202CF01B
:102AF00025F900BFD037BD4680BD00BF0020024091
:102B0000E0F0002400440258340200241000024087
:102B10000021024080B485B000AF78607B681B68FC
:102B20000B4A93420ED10B4BD3F8E030094A43F4E1
:102B30000023C2F8E030074BD3F8E03003F4002361
:102B4000FB60FB6800BF1437BD465DF8047B70472F
:102B5000004C02580044025880B584B000AF786041
:102B60007B681B680E4A934216D10E4BD3F8D430C3
:102B70000C4A43F01003C2F8D4300A4BD3F8D430D7
:102B800003F01003FB60FB68002205215A202CF0A3
:102B9000BBF85A202CF0D2F800BF1037BD4680BDDC
:102BA000001000520044025880B5BCB000AF7860FD
:102BB00007F1DC0300221A605A609A60DA601A6139
:102BC00007F12003B8220021184651F080F87B68F5
:102BD0001B685F4A93426BD14FF008024FF000032D
:102BE000C7E908230023C7F8A03007F120031846DF
:102BF00032F07EFE0346002B01D0FFF71FFC554B41
:102C0000D3F8E030534A43F00403C2F8E030514BAC
:102C1000D3F8E03003F00403FB61FB694D4BD3F8BC
:102C2000E0304C4A43F08003C2F8E030494BD3F81F
:102C3000E03003F08003BB61BB694FF40073C7F859
:102C4000DC301223C7F8E0300023C7F8E43000235B
:102C5000C7F8E8300423C7F8EC3007F1DC03194665
:102C60003D482EF02BFC8023C7F8DC301223C7F838
:102C7000E0300023C7F8E4300023C7F8E83004232D
:102C8000C7F8EC3007F1DC03194634482EF016FC87
:102C9000304BD3F8E8302F4A43F40003C2F8E83051
:102CA0002C4BD3F8E83003F400037B617B694BE0E5
:102CB0007B681B682A4A934246D14FF010024FF0BE
:102CC0000003C7E908230023C7F8B43007F1200345
:102CD000184632F00DFE0346002B01D0FFF7AEFB85
:102CE0001C4BD3F8E0301B4A43F02003C2F8E0301D
:102CF000184BD3F8E03003F020033B613B694FF4FD
:102D00004043C7F8DC301223C7F8E0300023C7F88F
:102D1000E4300023C7F8E8300423C7F8EC3007F1AB
:102D2000DC0319460F482EF0C9FB0A4BD3F8F430E8
:102D3000084A43F08003C2F8F430064BD3F8F4306D
:102D400003F08003FB60FB6800BFF037BD4680BD29
:102D5000005C00400044025800080258001C025861
:102D6000001C00580014025880B582B000AF786093
:102D70007B681B68174A934211D1174BD3F8E83090
:102D8000154A23F40003C2F8E8304FF400711348E9
:102D90002EF03CFD802112482EF038FD16E07B68B5
:102DA0001B68104A934211D10B4BD3F8F4300A4AF6
:102DB00023F08003C2F8F4304FF400410A482EF0AB
:102DC00025FD4FF4804108482EF020FD00BF083754
:102DD000BD4680BD005C0040004402580008025817
:102DE000001C0258001C00580014025880B5BEB0E8
:102DF00000AF786007F1E40300221A605A609A601D
:102E0000DA601A6107F12803B8220021184650F051
:102E10005EFF7B681B68DE4A934240F0CE814FF034
:102E200000524FF00003C7E90A2319233B654FF412
:102E300090737B650223BB650223FB651E233B6603
:102E400000237B664FF40073BB660023FB6607F12B
:102E50002803184632F04CFD0346002B01D0FFF743
:102E6000EDFACC4BD3F8E430CA4A43F00803C2F879
:102E7000E430C84BD3F8E43003F008037B627B6A8C
:102E8000C44BD3F8E030C34A43F00203C2F8E03049
:102E9000C04BD3F8E03003F002033B623B6ABD4B0A
:102EA000D3F8E030BB4A43F00803C2F8E030B94B36
:102EB000D3F8E03003F00803FB61FB69B54BD3F8AE
:102EC000E030B44A43F00103C2F8E030B14BD3F82C
:102ED000E03003F00103BB61BB69AE4BD3F8E030D7
:102EE000AC4A43F01003C2F8E030AA4BD3F8E0300C
:102EF00003F010037B617B69A64BD3F8E030A54A51
:102F000043F04003C2F8E030A24BD3F8E03003F0C6
:102F100040033B613B699F4BD3F8E0309D4A43F04F
:102F20008003C2F8E0309B4BD3F8E03003F080031D
:102F3000FB60FB68974BD3F8E030964A43F00403FC
:102F4000C2F8E030934BD3F8E03003F00403BB60E9
:102F5000BB684FF48073C7F8E4300223C7F8E83049
:102F60000023C7F8EC300023C7F8F0300E23C7F871
:102F7000F43007F1E403194687482EF09FFA09233D
:102F8000C7F8E4300223C7F8E8300023C7F8EC3074
:102F90000023C7F8F0300E23C7F8F43007F1E4033C
:102FA00019467E482EF08AFA40F20323C7F8E4302F
:102FB0000223C7F8E8300023C7F8EC300323C7F832
:102FC000F0300E23C7F8F43007F1E40319467248D5
:102FD0002EF074FA4FF48073C7F8E4300223C7F878
:102FE000E8300023C7F8EC300323C7F8F0300D2396
:102FF000C7F8F43007F1E403194669482EF05EFA89
:103000004BF60203C7F8E4300223C7F8E830002388
:10301000C7F8EC300323C7F8F0300E23C7F8F430BC
:1030200007F1E40319465F482EF048FA4FF4804355
:10303000C7F8E4300223C7F8E8300023C7F8EC30C3
:103040000323C7F8F0300E23C7F8F43007F1E40388
:10305000194655482EF032FA4023C7F8E4300223CF
:10306000C7F8E8300023C7F8EC300323C7F8F03086
:103070000E23C7F8F43007F1E403194647482EF051
:103080001DFA48F20403C7F8E4300223C7F8E83019
:103090000023C7F8EC300023C7F8F0300E23C7F840
:1030A000F43007F1E403194640482EF007FAC02334
:1030B000C7F8E4300223C7F8E8300023C7F8EC3043
:1030C0000023C7F8F0300E23C7F8F43007F1E4030B
:1030D000194637482EF0F2F98023C7F8E43002236E
:1030E000C7F8E8300023C7F8EC300023C7F8F03009
:1030F0000E23C7F8F43007F1E40319462A482EF0EE
:10310000DDF940F60873C7F8E4300223C7F8E83069
:103110000023C7F8EC300323C7F8F0300E23C7F8BC
:10312000F43007F1E403194620482EF0C7F958237C
:10313000C7F8E4300223C7F8E8300023C7F8EC30C2
:103140000323C7F8F0300E23C7F8F43007F1E40387
:10315000194613482EF0B2F91023C7F8E4300223C1
:10316000C7F8E8300023C7F8EC300323C7F8F03085
:103170000923C7F8F43007F1E40319460B482EF091
:103180009DF90022052158202BF0BEFD12E000BF62
:10319000001000500044025800040258000C02586D
:1031A000000002580010025800180258001C025873
:1031B0000008025858202BF0C1FD00BFF837BD466B
:1031C00080BD00BF80B592B000AF786007F13403D6
:1031D00000221A605A609A60DA601A617B681B6884
:1031E000B54A934240F0E680B44B1B680133B34AC2
:1031F0001360B24B1B68012B0ED1B14BD3F8D43006
:10320000AF4A43F40013C2F8D430AD4BD3F8D430F6
:1032100003F400133B633B6BA94BD3F8D430A84AAB
:1032200043F48043C2F8D430A54BD3F8D43003F430
:103230008043FB62FB6AA24BD3F8E030A04A43F024
:103240004003C2F8E0309E4BD3F8E03003F0400377
:10325000BB62BB6A9A4BD3F8E030994A43F008034B
:10326000C2F8E030964BD3F8E03003F008037B62FD
:103270007B6A934BD3F8E030914A43F01003C2F8D5
:10328000E0308F4BD3F8E03003F010033B623B6A31
:103290008B4BD3F8E0308A4A43F02003C2F8E03089
:1032A000874BD3F8E03003F02003FB61FB69844BCC
:1032B000D3F8E030824A43F00203C2F8E030804B9A
:1032C000D3F8E03003F00203BB61BB694FF4007335
:1032D0007B630223BB630023FB6303233B6409235B
:1032E0007B6407F13403194676482EF0E7F8B023E3
:1032F0007B630223BB630023FB6303233B640A233A
:103300007B6407F1340319466F482EF0D7F8042385
:103310007B630223BB630023FB6303233B6409231A
:103320007B6407F13403194668482EF0C7F8402340
:103330007B630223BB630023FB6303233B640A23F9
:103340007B6407F1340319465E482EF0B7F84FF45A
:1033500060537B630223BB630023FB6303233B6453
:1033600009237B6407F13403194657482EF0A6F869
:103370004FF480637B630223BB630023FB6303235F
:103380003B6409237B6407F13403194650482EF04F
:1033900095F804237B630223BB630023FB630323B1
:1033A0003B640A237B6407F13403194649482EF035
:1033B00085F87CE07B681B68474A934277D13F4B96
:1033C0001B6801333D4A13603C4B1B68012B0ED137
:1033D0003B4BD3F8D4303A4A43F40013C2F8D4300C
:1033E000374BD3F8D43003F400137B617B69344B43
:1033F000D3F8D430324A43F40023C2F8D430304BEF
:10340000D3F8D43003F400233B613B692C4BD3F851
:10341000E0302B4A43F04003C2F8E030284BD3F8A9
:10342000E03003F04003FB60FB68254BD3F8E0304D
:10343000234A43F02003C2F8E030214BD3F8E030B8
:1034400003F02003BB60BB6840F603037B630223E9
:10345000BB630023FB6303233B6409237B6407F105
:103460003403194617482EF029F84FF4A0537B6314
:103470000223BB630023FB6303233B6403237B64BE
:1034800007F1340319460F482EF018F841F21F03D4
:103490007B630223BB630023FB6303233B64092399
:1034A0007B6407F13403194609482EF007F800BF82
:1034B0004837BD4680BD00BF00500052E4F00024F4
:1034C0000044025800180258000C0258001002581C
:1034D000001402580004025800A0005280B582B0C7
:1034E00000AF78607B681B682F4A934230D12F4B26
:1034F0001B68013B2D4A13602C4B1B68002B07D126
:103500002B4BD3F8D4302A4A23F40013C2F8D4301A
:10351000274BD3F8D430264A23F48043C2F8D43062
:103520004FF4107123482EF071F943F6B001224890
:103530002EF06CF9042121482EF068F94FF48061D7
:103540001F482EF063F904211E482EF05FF927E092
:103550007B681B681C4A934222D1144B1B68013BB9
:10356000124A1360114B1B68002B07D1104BD3F884
:10357000D4300F4A23F40013C2F8D4300C4BD3F8E4
:10358000D4300B4A23F40023C2F8D43041F603416F
:1035900008482EF03BF941F21F0109482EF036F998
:1035A00000BF0837BD4680BD00500052E4F0002443
:1035B0000044025800180258000C0258001002582B
:1035C000001402580004025800A0005280B485B0D4
:1035D00000AF78607B681B680B4A93420ED10B4B9F
:1035E000D3F8F030094A43F00103C2F8F030074B3A
:1035F000D3F8F03003F00103FB60FB6800BF143721
:10360000BD465DF8047B704700000140004402584D
:1036100080B58AB000AF786007F1140300221A6009
:103620005A609A60DA601A617B681B682E4A93427E
:1036300055D12E4BD3F8EC302C4A43F08073C2F8AE
:10364000EC302A4BD3F8EC3003F080733B613B69DC
:10365000264BD3F8E030254A43F04003C2F8E0306F
:10366000224BD3F8E03003F04003FB60FB681F4BB4
:10367000D3F8E0301D4A43F02003C2F8E0301B4B82
:10368000D3F8E03003F02003BB60BB684FF4005375
:103690007B610223BB610023FB6102233B620D239C
:1036A0007B6207F11403194611482DF007FF4023F0
:1036B0007B610223BB610023FB6100233B620D237E
:1036C0007B6207F1140319460A482DF0F7FE002229
:1036D0000521A1202BF018FBA1202BF02FFB00BF10
:1036E0002837BD4680BD00BF00E0004000440258BE
:1036F000001802580014025880B590B000AF7860EE
:103700007B680F2B27D80022796836202BF0FCFA33
:1037100036202BF013FB294A7B681360284BD3F823
:10372000E830274A43F01003C2F8E830244BD3F8BE
:10373000E83003F01003FB60FB6807F1100207F1AB
:1037400014031146184632F091F8BB6ABB63BB6B99
:10375000002B06D101E001232BE032F05BF8F86387
:1037600004E032F057F803465B00FB63FB6B154A3D
:10377000A2FB03239B0C013B7B63134B134A1A6090
:10378000114B40F2E732DA600F4A7B6B53600E4B0D
:1037900000221A610C4B00229A600B4834F08EFC18
:1037A0000346002B04D1084834F05EFD034600E0D8
:1037B000012318464037BD4680BD00BF6C00002481
:1037C0000044025883DE1B43E8F000240010004050
:1037D00080B400AF00BFBD465DF8047B704780B485
:1037E00000AF00BFFDE780B400AF00BFFDE780B4CD
:1037F00000AF00BFFDE780B400AF00BFFDE780B4BD
:1038000000AF00BFBD465DF8047B704780B500AFD8
:1038100002482CF0CDF900BF80BD00BF3402002467
:1038200080B500AF034829F0FDFC034829F0FAFCFD
:1038300000BF80BD54010024C401002480B500AF46
:10384000024834F0EBFE00BF80BD00BFE8F000246A
:1038500080B500AF02482FF051F900BF80BD00BF16
:10386000E003002480B500AF02482DF017FD00BF33
:1038700080BD00BFD002002480B500AF024834F004
:10388000CDFE00BF80BD00BF8C05002480B400AF1A
:1038900001231846BD465DF8047B704780B582B0B1
:1038A00000AF7860396050F00BFB034616221A60B7
:1038B0004FF0FF3318460837BD4680BD80B582B053
:1038C00000AF78604FF0FF317868FFF7E7FF00BF87
:1038D000FDE780B586B000AFF860B9607A6000237C
:1038E0007B610AE0AFF300800146BB685A1CBA60F6
:1038F000CAB21A707B6901337B617A697B689A422C
:10390000F0DB7B6818461837BD4680BD80B483B0B5
:1039100000AF78604FF0FF3318460C37BD465DF8B6
:10392000047B704780B483B000AF786039603B6837
:103930004FF400525A60002318460C37BD465DF81C
:10394000047B704780B483B000AF786001231846D1
:103950000C37BD465DF8047B704780B485B000AF7E
:10396000F860B9607A60002318461437BD465DF8E8
:10397000047B704780B586B000AF7860144A154B61
:10398000D31A7B617B693B61134B1B68002B02D10F
:10399000114B124A1A60104B1A687B6813443A693B
:1039A0009A4207D250F08CFA03460C221A604FF06C
:1039B000FF3309E0084B1B68FB60074B1A687B6804
:1039C0001344054A1360FB6818461837BD4680BD8E
:1039D000000005240010000034F1002420BA032464
:1039E000DFF834D028F040FD002103E00B4B5B589A
:1039F000435004310A480B4B42189A42F6D30A4A04
:103A000002E0002342F8043B084B9A42F9D350F0FD
:103A10005DFAFDF75DF9704700000524E8FB050835
:103A200000000024380100243801002420BA0324B7
:103A3000FEE780B400AF00BFBD465DF8047B704771
:103A400080B500AF02F012F801F0DEFF00BF80BDCC
:103A500080B582B000AF786002F010F800BF083780
:103A6000BD4680BD80B483B000AF7860044A7B68F7
:103A70001A607B6818460C37BD465DF8047B7047BA
:103A8000A05B050880B582B000AF78607868FFF76A
:103A9000E9FF0C2178684EF0CAFD7B6818460837AC
:103AA000BD4680BD80B584B000AF78600B46FB702A
:103AB000FB78002B11D07B681B6810331B6878687B
:103AC000984702467B689B68D31AFB607B685A68FC
:103AD000FB681A447B685A6008E07B681B681033F7
:103AE0001B687868984702467B689A6000BF103769
:103AF000BD4680BD80B483B000AF78607B685B68F2
:103B000018460C37BD465DF8047B704780B483B01F
:103B100000AF786039607B683A685A6000BF0C3744
:103B2000BD465DF8047B704780B483B000AF786019
:103B30000B4B1B680A4A43F080731360094B1A68E9
:103B40000849094B13430B60084B1B68074A43F0B5
:103B50000103136000BF0C37BD465DF8047B70475E
:103B6000FCED00E0B01F00E055CEACC5001000E059
:103B700080B485B000AFF860B9607A603B607A6865
:103B8000BB68D21A3B685B081A443B68B2FBF3F38C
:103B900018461437BD465DF8047B704780B483B087
:103BA00000AF7860034B1B6818460C37BD465DF8C4
:103BB000047B7047041000E080B584B000AF7860EB
:103BC0000B46FB70FB78002B11D07B681B68103311
:103BD0001B687868984702467B689B68D31AFB602D
:103BE0007B685A68FB681A447B685A6008E07B6807
:103BF0001B6810331B687868984702467B689A6098
:103C000000BF1037BD4680BD80B582B000AF786080
:103C1000054A7B681A607B681846FFF723FF7B68BC
:103C200018460837BD4680BD785B050880B582B070
:103C300000AF78607868FFF7E7FF0C2178684EF0F6
:103C4000F6FC7B6818460837BD4680BD80B483B05B
:103C500000AF7860044A7B681A607B6818460C37AE
:103C6000BD465DF8047B7047E05B050880B582B017
:103C700000AF78607868FFF7E9FF042178684EF0BC
:103C8000D6FC7B6818460837BD4680BD80B586B037
:103C900000AF786008233B6100237B61074B1B88E2
:103CA000BB60074B1B88FB6007F108031946002027
:103CB00028F062F900BF1837BD4680BD02AE03246C
:103CC00004AE032480B588B000AFF860B9607A60B4
:103CD00007F1100300221A605A609A6007F110037E
:103CE0001946002028F004FA0346002B14BF0123D4
:103CF0000023DBB2002B0BD04FF0500383F311886D
:103D0000BFF36F8FBFF34F8FFB6100BF00BFFDE7B5
:103D10003B69002B09D07B691A46BB681A60BB69F6
:103D20001A467B681A60012300E0002318462037FA
:103D3000BD4680BD80B582B000AF7860054A7B6823
:103D40001A607B681846FFF781FF7B6818460837C2
:103D5000BD4680BDC85B050880B582B000AF786005
:103D60007868FFF7E7FF042178684EF060FC7B6815
:103D700018460837BD4680BD80B582B000AF00232D
:103D80007B6015E07B68DBB2184600F00BF9034658
:103D9000002B0AD00A4A7B6852F82330012B04D04A
:103DA000074A7B68012142F823107B6801337B605E
:103DB0007B68042BE6DD00BF00BF0837BD4680BD31
:103DC00038F1002480B582B000AF0346FB71FB7967
:103DD000032B49D801A252F823F000BFED3D0008A3
:103DE0000B3E0008293E0008493E0008FB79204AA6
:103DF00052F82330002B0CBF01230023DBB21A46FC
:103E000001211C482DF01CFE2EE0FB79184A52F8C7
:103E10002330002B0CBF01230023DBB21A460821FC
:103E200015482DF00DFE1FE0FB79114A52F82330A2
:103E3000002B0CBF01230023DBB21A464FF4804154
:103E40000E482DF0FDFD0FE0FB79094A52F82330B2
:103E5000002B0CBF01230023DBB21A464FF40041B4
:103E600006482DF0EDFD00BF00BF0837BD4680BD00
:103E700038F10024000002580018025800040258CB
:103E800080B582B000AF0346FB71FB79032B49D8A4
:103E900001A252F823F000BFA93E0008C73E000867
:103EA000E53E0008053F0008FB79204A52F8233020
:103EB000002B01D0012300E000231A4601211C48F9
:103EC0002DF0BEFD2EE0FB79184A52F82330002B6E
:103ED00001D0012300E000231A46082115482DF0E7
:103EE000AFFD1FE0FB79114A52F82330002B01D0BF
:103EF000012300E000231A464FF480410E482DF0C4
:103F00009FFD0FE0FB79094A52F82330002B01D0C6
:103F1000012300E000231A464FF4004106482DF02B
:103F20008FFD00BF00BF0837BD4680BD38F10024BB
:103F300000000258001802580004025880B582B0F0
:103F400000AF0346FB71FB79032B21D801A252F885
:103F500023F000BF653F00086F3F0008793F00086D
:103F6000853F000801210C482DF083FD10E0082159
:103F70000A482DF07EFD0BE04FF4804108482DF0FB
:103F800078FD05E04FF4004105482DF072FD00BFBB
:103F900000BF0837BD4680BD000002580018025817
:103FA0000004025880B584B000AF0346FB710023C3
:103FB000FB73FB79032B29D801A252F823F000BF31
:103FC000D13F0008DF3F0008ED3F0008FD3F00083B
:103FD000012113482DF01CFD0346FB7316E0082158
:103FE00010482DF015FD0346FB730FE04FF48041A0
:103FF0000D482DF00DFD0346FB7307E04FF4004123
:1040000009482DF005FD0346FB7300BFFB7B012B28
:104010000CBF01230023DBB218461037BD4680BD1C
:1040200000000258001802580004025880B483B0FF
:1040300000AF7860044A7B681A607B6818460C37CA
:10404000BD465DF8047B7047AC6C050880B582B056
:1040500000AF78607868FFF7E9FF7C2178684EF060
:10406000E6FA7B6818460837BD4680BD80B400AFCD
:10407000034B1B681846BD465DF8047B704700BFC4
:1040800008AE032480B483B000AF78600B46FB70A9
:104090007B68FA7883F878207B68012283F879209E
:1040A00000BF0C37BD465DF8047B704780B582B019
:1040B00000AF78600B467B8013463B800C4B1B881F
:1040C0007A889A4204D30B4B1B883A889A4205D2CD
:1040D000094B0A4A9E210A484FF0F2FB094A7B88A5
:1040E0001380094A3B88138000BF0837BD4680BD56
:1040F000FCAD0324FEAD0324344A0508984A0508A4
:10410000DC4A050802AE032404AE032480B582B065
:1041100000AF78607B6893F87A30002B09D07B6819
:104120005A687B685B681B681B68104698470346A3
:1041300000E0002318460837BD4680BD80B582B038
:1041400000AF7860786839F001FF7B681B68AC339A
:104150001B687868984700BF0837BD4680BD80B4AB
:1041600083B000AF78603960002318460C37BD4635
:104170005DF8047B7047000080B584B000AFF86044
:10418000B9607A603B60BB68002B06D10F4B104AC8
:1041900040F2D2210F484FF093FBFB68BA68DA6314
:1041A000FB687A681A647B68002B14BF0123002324
:1041B000DAB2094B1A70FB681B688C331B683968CC
:1041C000F868984700BF1037BD4680BD244B0508EE
:1041D0005C4B0508DC4A050806AE032480B483B0B6
:1041E00000AF786039607B683A685A643B68002B9E
:1041F00014BF01230023DAB2034B1A7000BF0C373F
:10420000BD465DF8047B704707AE032480B483B0DD
:1042100000AF786039607B683A681A6100BF0C377C
:10422000BD465DF8047B704780B483B000AF786012
:104230000B46FB707B68FA7883F8702000BF0C3760
:10424000BD465DF8047B704780B483B000AF7860F2
:10425000002318460C37BD465DF8047B704780B5D7
:1042600082B000AF78600B467B807B689B6B002B35
:1042700004D07B689B6B7A881046984700BF08374C
:10428000BD4680BD80B483B000AF78604FF6FF7349
:1042900018460C37BD465DF8047B704780B582B088
:1042A00000AF78607B685A687B685B681B6818336E
:1042B0001B6810469847034618460837BD4680BD20
:1042C00080B485B000AF78607B6893F878207B6815
:1042D00093F834309A4211D0144B1B78002B1ED126
:1042E000134B1B88BB81134B1A88114B1A80114A40
:1042F000BB8913800D4B01221A7010E00B4B1B7809
:10430000002B0CD00A4B1B88FB810A4B1A88084BE8
:104310001A80084AFB891380044B00221A7000BFE0
:104320001437BD465DF8047B704700BF00AE032420
:10433000FEAD0324FCAD032480B582B000AF7860ED
:104340007B68184639F060F800BF0837BD4680BD6D
:1043500080B582B000AF7860054A7B681A607B68E0
:104360001846FFF763FE7B6818460837BD4680BDD8
:10437000CC60050880B582B000AF78607868FFF740
:10438000E7FF7C2178684EF052F97B6818460837C1
:10439000BD4680BD80B582B000AF78607B681846AE
:1043A000FFF7CAFF00BF0837BD4680BD80B582B0A9
:1043B00000AF78607B68184602F0B0FB7A687B68D3
:1043C0001B688C331B680C49104698477B687C330C
:1043D0001846FFF7A9FB7A687B687C3319461046BC
:1043E000FFF714FF7B6801211846FFF71DFF00BF90
:1043F0000837BD4680BD00BF0000007080B582B0A8
:1044000000AF78607B681B6880331B6878689847CA
:104410007B681B6878331B687868984700F074F9EC
:104420007A687B681B6870331B68104698470122C6
:104430004FF4806109482DF003FB01224FF4004145
:1044400007482DF0FDFA00F05FF97A687B681B6879
:1044500070331B681046984700BFF4E7000C025801
:104460000018025880B582B000AF78607B681846AB
:1044700002F0ECFB034618460837BD4680BD80B508
:1044800082B000AF786039607B683968184602F006
:10449000EBFB00BF0837BD4680BD000080B586B08D
:1044A00000AF786039607B683968184602F0F2FB2B
:1044B0001F4B0022C3F88420BFF34F8F00BF1C4B5B
:1044C000D3F880307B617B695B0BC3F30E033B61E8
:1044D0007B69DB08C3F30903FB603B695A0143F6C0
:1044E000E0731340FA68920711491343C1F874321C
:1044F000FB685A1EFA60002B14BF01230023DBB2B5
:10450000002BEAD13B695A1E3A61002B14BF0123EC
:104510000023DBB2002BDBD1BFF34F8F00BFBFF313
:104520006F8F00BF00BF00BF1837BD4680BD00BF02
:1045300000ED00E080B582B000AF78607B6818467F
:1045400002F010FB00BF0837BD4680BD80B582B0C9
:1045500000AF78607B68184602F014FB00BF083794
:10456000BD4680BD80B582B000AF78607B681846DC
:1045700002F016FB00BF0837BD4680BD80B582B093
:1045800000AF78607B68184602F018FB00BF083760
:10459000BD4680BD80B582B000AF78607B68002BDF
:1045A00007D0FFF763FD03460121184639F0E8FC08
:1045B00006E0FFF75BFD03460021184639F0E0FCFA
:1045C000012318460837BD4680BD000080B582B083
:1045D00000AF7860084A7B681A607B687C331846B5
:1045E000FFF712FB7B681846FFF7B2FE7B681846A0
:1045F0000837BD4680BD00BFF85B050880B582B0B6
:1046000000AF78607868FFF7E1FF882178684EF0A6
:104610000EF87B6818460837BD4680BD80B500AFF0
:1046200000220121012034F082FD03460F4A13606D
:104630000E4B1B68002B05D10D4B0E4A28210E484E
:104640004FF03EF900220421012034F08FFE034692
:104650000A4A1360094B1B68002B05D1084B054A19
:104660002C2105484FF02CF900BF80BD48F10024F3
:10467000AC4B0508F84B0508284C05084CF1002404
:10468000804C050880B500AF044B1B684FF0FF312C
:10469000184634F0D5FD00BF80BD00BF48F10024AE
:1046A00080B500AF034B1B68184634F01BFE00BFFB
:1046B00080BD00BF48F1002480B500AF034B1B68EC
:1046C0000021184634F0BCFD00BF80BD48F1002435
:1046D00080B500AF034B1B68184634F003FE00BFE3
:1046E00080BD00BF48F1002480B500AF044B1868BE
:1046F00000230022034934F0ADFE00BF80BD00BF9F
:104700004CF100242800002480B582B000AF094B92
:104710001868391D0023002234F0FCFE054B186890
:10472000391D4FF0FF33002234F0F4FE00BF08378C
:10473000BD4680BD4CF1002480B483B000AF034679
:10474000FB80B7F90630002B0BDBFB8803F01F0260
:104750000749B7F906305B09012000FA02F241F877
:10476000232000BF0C37BD465DF8047B704700BFB7
:1047700000E100E080B483B000AF0346FB80B7F9EE
:104780000630002B12DBFB8803F01F020A49B7F941
:1047900006305B09012000FA02F2203341F82320A1
:1047A000BFF34F8F00BFBFF36F8F00BF00BF0C3749
:1047B000BD465DF8047B704700E100E080B483B043
:1047C00000AF78607B6800221A607B6818460C375F
:1047D000BD465DF8047B704780B483B000AF78605D
:1047E0007B681B6818460C37BD465DF8047B704734
:1047F00080B483B000AF7860044A7B681A607B683D
:1048000018460C37BD465DF8047B7047205D0508EF
:1048100080B582B000AF78607868FFF7E9FF0421C7
:1048200078684DF004FF7B6818460837BD4680BDA8
:1048300080B582B000AF78607B681B6844331B682A
:104840007868984700BF0837BD4680BD80B483B004
:1048500000AF7860044A7B681A607B6818460C37A2
:10486000BD465DF8047B7047846D050880B582B055
:1048700000AF78607868FFF7E9FF0C2178684DF0A9
:10488000D6FE7B6818460837BD4680BD80B483B02D
:1048900000AF78603960094A7B681A607B683A68C3
:1048A0005A607B6800221A727B6800225A727B6809
:1048B00018460C37BD465DF8047B7047846D0508CB
:1048C00080B483B000AF7860012318460C37BD4632
:1048D0005DF8047B704780B582B000AF78607A687D
:1048E0007B681B6828331B681046984700BF083751
:1048F000BD4680BD80B582B000AF78607B685A68E5
:104900007B685B681B6814331B681046984700BFC0
:104910000837BD4680BD80B582B000AF7860FFF734
:10492000A5FB03461846FFF7E5FF00BF0837BD4665
:1049300080BD80B582B000AF78607B680C331846CC
:10494000FFF73CFF7B6818460837BD4680BD000076
:10495000B0B582B000AF78607A687B680C331946D6
:104960001046FFF793FF0E4A7B681A607B6803F1DD
:104970000C007B6820336022194639F053FC7B68B9
:1049800020335F241D4604E02846FFF7D2FF013C98
:104990002435002CF8DA7B6818460837BD46B0BDD0
:1049A000D05C050880B582B000AF7860094A7B68AA
:1049B0001A605A20FFF7DEFE7B680C33184600F0C1
:1049C00017FB7B681846FFF741FF7B6818460837DE
:1049D000BD4680BDD05C050880B582B000AF786070
:1049E0007868FFF7DFFF4FF45A6178684DF01FFEDB
:1049F0007B6818460837BD4680BD000080B584B08E
:104A000000AF7860124BD3F8D430114A43F0100352
:104A1000C2F8D4300E4BD3F8D43003F01003FB604F
:104A2000FB680B4BDB6F0A4A43F01003D367084B5C
:104A3000DB6F074A23F01003D367064B064A1A625E
:104A40005A20FFF779FE00BF1037BD4680BD00BF7A
:104A500000440258D00200241749000880B584B0F1
:104A600000AF78600B46FB700023FB60FB780B2BDC
:104A700026D801A252F823F0B54A0008AF4A000830
:104A8000A94A0008C14A0008C14A0008C14A0008F2
:104A9000C14A0008BB4A0008BB4A0008BB4A0008DC
:104AA000BB4A0008BB4A00080023FB600EE001235C
:104AB000FB600BE00223FB6008E00523FB6005E0E0
:104AC000054B064A652106484EF0FAFEFB6818467B
:104AD0001037BD4680BD00BFC44C0508E04C05083A
:104AE0002C4D050880B584B000AF78600B46FB7094
:104AF0000023FB60FB780A2B21D801A252F823F097
:104B0000394B0008334B00082D4B00083F4B000881
:104B10003F4B00083F4B00083F4B0008334B000859
:104B2000334B0008334B0008334B00080023FB6075
:104B30000BE00123FB6008E00223FB6005E0054B6E
:104B4000054A862105484EF0BBFEFB681846103723
:104B5000BD4680BDC44C0508804D05082C4D050898
:104B600080B483B000AF786040F2EF3318460C3762
:104B7000BD465DF8047B704790B589B000AF7860A2
:104B800039603B685B7F19467868FFF767FFB8615B
:104B90003B689B7F19467868FFF760FF78613B6848
:104BA0009B7F19467868FFF79DFF38613B685B8BF8
:104BB0001A463B689B8AD21A944B1A643B685B8BFB
:104BC0001A463B689B8AD21A904B9A613B681B8BB2
:104BD0001A463B689B8AD21A8C4B1A618B4A3B69F6
:104BE00053633B68DB8A1A463B689B8A1B041A4363
:104BF000864B5A643B681A69844BDA633B685A688F
:104C0000824BDA603B681B68B3F5007F36D0B3F5A2
:104C1000007F00F2DE80B3F5807F15D0B3F5807F92
:104C200000F2D780802B43D0802B00F2D280402B23
:104C300000F0BB80402B00F2CC80042B00F0A18060
:104C4000202B00F0B280C4E03B681B7F1A066F493E
:104C50006F4B1343CB613B680C336C4C1846FFF72A
:104C6000BBFD03462362694A7B6953623B681A694C
:104C7000664B5A61654B674A1A60C2E03B681B7F0E
:104C80001A066249644B1343CB613B680C335F4C9B
:104C90001846FFF7A1FD034623625C4A7B69536215
:104CA0003B681A69594B5A61584B5A4A1A60A8E036
:104CB0003B689B68FB600123FB773B681B7F1A0600
:104CC000BB691343514A43F40033D3614F4A7B69B4
:104CD00053623B681A694D4B5A61FB681A1D4B4B76
:104CE000DA62FB681B88DBB2002B02D0012B0DD0EF
:104CF00020E0464BDA69494B1340FA685288013A82
:104D000012021146414A0B43D3611AE03B681B7FF4
:104D1000FF2B01D10023FB773C4BDA693F4B13405B
:104D2000FA685288013A12021343384A43F01003DA
:104D3000D36106E03A4B3B4A4FF480713A484EF05B
:104D4000BFFD324BDB69314A43F02003D36100BF22
:104D50002E4BDB6903F02003002B14BF012300233B
:104D6000DBB2002BF4D1294B10229A60FB7F002B81
:104D700003D0264B274A1A6043E0244B2B4A1A6083
:104D80003FE03B681B7F1A06BB6913431F4A43F48D
:104D90000033D3611D4A7B6953623B681A691B4B20
:104DA0005A611A4B1B4A1A602BE03B681B7F1A069C
:104DB000BB691343154A43F40033D361134A7B693B
:104DC00053623B681A69114B5A61104B114A1A60C1
:104DD00017E03B681B7F1A06BB6913430B4A43F479
:104DE0000033D3613B685A7F3B689B7F9A4203D074
:104DF000064B0E4A1A6003E0044B40F201221A608F
:104E000000BF00BF2437BD4690BD00BF0010005258
:104E10000A0002000102020009000200EF00FFFF89
:104E2000CC4D0508E84D05082C4D05080102010090
:104E300090B585B000AF786039603B689B7F1946BC
:104E40007868FFF74FFEF8602F4AFB6853633B68B2
:104E5000DB8A1A463B689B8A1B041A432A4B5A6416
:104E60003B681A69284BDA633B685B8B1A463B68E0
:104E70009B8AD21A244B1A643B681B68082B2DD1DD
:104E80003B685B8B1A463B689B8AD21A1E4B9A6121
:104E90003B685B8B1A463B689B8AD21A1A4B1A6195
:104EA000194AFB6853623B681B7F1A061649174B69
:104EB0001343CB613B680C33134C1846FFF78CFC53
:104EC000034623623B681A690F4B5A613B681A69B3
:104ED0000D4BDA600C4B0E4A1A6010E00A4AFB6870
:104EE000D361094B00221A613B680C33064C18460B
:104EF000FFF772FC0346A363034B064A1A6000BF28
:104F00001437BD4690BD00BF0010005209000100DB
:104F1000010202000102030080B400AF00BF094B90
:104F20001B6803F00103002B14BF01230023DBB235
:104F3000002BF4D1034B23229A6000BFBD465DF8DD
:104F4000047B70470010005280B485B000AFF86059
:104F5000B9607A60FB7000BF214B1B6803F001034E
:104F6000002B14BF01230023DBB2002BF4D11C4B18
:104F700023229A601A4B01225A63BB681B04184A09
:104F800043F001035364164AFB68D363FB78FF2B9D
:104F900017D0134B01225A62FB781A061049114BA5
:104FA0001343CB610E4A7B6823F07F4313620C4AA4
:104FB000FB6853610A4AFB68D360094B0A4A1A60CE
:104FC00008E0074B0122DA61054A7B689363044BD2
:104FD000064A1A6000BF1437BD465DF8047B70476F
:104FE000001000520900010001000200010003004E
:104FF00080B582B000AF7860054A7B681A607B6834
:105000001846FFF7F5FB7B6818460837BD4680BD9C
:10501000D46D050880B582B000AF78607868FFF77E
:10502000E7FF142178684DF002FB7B6818460837CB
:10503000BD4680BD80B483B000AF78607B6800223D
:105040001A807B6800225A807B6800229A807B68E5
:105050000022DA807B6818460C37BD465DF8047B79
:105060007047000080B483B000AF7860044A7B686A
:10507000136000BF0C37BD465DF8047B704700BF6E
:105080006CAE032480B483B000AF7860044A7B68C0
:105090001A607B6818460C37BD465DF8047B704784
:1050A000805F050880B582B000AF78607868FFF750
:1050B000E9FF042178684DF0BAFA7B681846083792
:1050C000BD4680BD80B485B000AFF860B9607A603D
:1050D0003B600B4AFB681A60FB68BA685A60FB6861
:1050E0007A689A60FB683A68DA60FB68BA691A61A4
:1050F000FB6818461437BD465DF8047B704700BF57
:10510000705F050880B483B000AF7860044A7B68A4
:105110001A607B6818460C37BD465DF8047B704703
:10512000705F050880B582B000AF78607868FFF7DF
:10513000E9FF142178684DF07AFA7B681846083741
:10514000BD4680BD80B483B000AF7860396000BFD9
:105150000C37BD465DF8047B704780B483B000AF68
:105160007860396000BF0C37BD465DF8047B70473E
:1051700080B483B000AF7860396000BF0C37BD46A3
:105180005DF8047B704780B483B000AF78600B4655
:10519000FB7000BF0C37BD465DF8047B704780B4E0
:1051A00083B000AF786000BF0C37BD465DF8047B6C
:1051B000704780B483B000AF786000BF0C37BD4645
:1051C0005DF8047B7047000080B483B000AF786066
:1051D000044A7B681A607B6818460C37BD465DF848
:1051E000047B7047485F050880B582B000AF7860E7
:1051F0007868FFF7E9FF042178684DF018FA7B68BA
:1052000018460837BD4680BD80B483B000AF7860D3
:10521000044A7B681A607B6818460C37BD465DF807
:10522000047B7047345F050880B582B000AF7860BA
:105230007868FFF7E9FF042178684DF0F8F97B689A
:1052400018460837BD4680BD80B483B000AF786093
:10525000044A7B681A607B6818460C37BD465DF8C7
:10526000047B70475477050880B582B000AF786042
:105270007868FFF7E9FF0C2178684DF0D8F97B6872
:1052800018460837BD4680BD80B483B000AF786053
:1052900039607B683A689A6000BF0C37BD465DF89C
:1052A000047B704780B483B000AF786000BF0C37D8
:1052B000BD465DF8047B704780B483B000AF786072
:1052C0000B46FB7000BF0C37BD465DF8047B704792
:1052D00080B483B000AF786039607B683A6803F5CA
:1052E00098731068516803C300BF0C37BD465DF862
:1052F000047B704780B483B000AF7860044A7B6859
:105300001A607B6818460C37BD465DF8047B704711
:105310001C5F050880B582B000AF78607868FFF741
:10532000E9FF042178684DF082F97B681846083758
:10533000BD4680BD80B483B000AF7860074A7B680B
:105340001A607B6800225A607B6800229A607B6842
:1053500018460C37BD465DF8047B7047A05B050816
:1053600080B483B000AF78607B6800221A807B68CD
:1053700000225A807B6800229A807B680022DA80B3
:105380007B6800221A817B6800225A817B68002298
:105390009A817B6800229A737B6818460C37BD4659
:1053A0005DF8047B704780B582B000AF78607B68A1
:1053B0001846FFF7D5FF7B6800221A617B68002240
:1053C0009A827B6818460837BD4680BD80B584B098
:1053D00000AFF860B9607A603B60554AFB681A60BC
:1053E000FB68BA685A60FB687A689A60FB683A683A
:1053F000DA60FB6800221A61FB6800225A61FB68D0
:1054000000229A61FB681C331846FFF7CCFFFB684B
:10541000002283F83420FB6800229A63FB68002294
:10542000DA63FB6800221A64FB6800225A64FB6896
:10543000002283F84820FB68012283F84920FB689A
:10544000002283F84A20FB68002283F84B20FB6887
:105450000022DA64FB6850331846FFF7EBFDFB6867
:10546000002283F85820FB680022DA65FB680022DE
:105470001A66FB6800225A66FB68012283F86820DE
:10548000FB68002283F86920FB68002283F86A2009
:10549000FB68012283F86B20FB68002283F86C20F4
:1054A000FB68002283F86D20FB68002283F86E20E1
:1054B000FB68002283F86F20FB68002283F87020CD
:1054C000FB6800225A67FB68002283F87820FB689B
:1054D000002283F87920FB68012283F87A20FB6898
:1054E000012283F87B20134AFB681360124A3B8B2E
:1054F0001380114B1A88114B1A80114ABB8B1380F1
:105500000F4B1A880F4B1A800F4B00221A703A8BE0
:10551000BB8B9A4234BF01230023DBB21A46FB68DF
:1055200083F83420FB6818461037BD4680BD00BFA5
:10553000AC6C050808AE0324FCAD032402AE0324C2
:10554000FEAD032404AE032400AE032480B582B074
:1055500000AF7860054A7B681A607B681846FFF7E1
:1055600033FE7B6818460837BD4680BDAC7705081A
:1055700080B582B000AF78607868FFF7E7FF4FF43E
:105580009E7178684DF053F87B6818460837BD4621
:1055900080BD80B582B000AF7860786800F004F814
:1055A00000BF0837BD4680BD80B582B000AF7860CF
:1055B0007B68D3F84031002B0FD07B68D3F84021B3
:1055C0007B68D3F840311B680C331B681046984742
:1055D0000346002B01D0012300E00023002B0ED056
:1055E0007B68D3F840217B68D3F840311B680833CF
:1055F0001B68104698477B680022C3F8402100BF13
:105600000837BD4680BD000080B582B000AF78602D
:10561000054A7B681A607B681846FFF797FF7B682E
:1056200018460837BD4680BDC85E050880B582B003
:1056300000AF78607868FFF7E7FF4FF4A2717868F1
:105640004CF0F5FF7B6818460837BD4680BD00006A
:1056500080B582B000AF7860084A7B681A607B68CA
:1056600003F5A273184600F06DFB7B681846FFF740
:10567000CBFF7B6818460837BD4680BD5C5E0508D9
:1056800080B582B000AF78607868FFF7E1FF4FF433
:10569000AE7178684CF0CBFF7B6818460837BD4682
:1056A00080BD80B582B000AF7860786801F030FFCF
:1056B00000BF0837BD4680BD80B582B000AF7860BE
:1056C000054A7B681A607B681846FFF7C1FF7B6854
:1056D00018460837BD4680BD085E050880B582B013
:1056E00000AF78607868FFF7E7FF4FF4AE71786835
:1056F0004CF09DFF7B6818460837BD4680BD80B5DD
:1057000082B000AF78607B68D3F85831184623F038
:105710002DF87B6818463EF06BF900BF0837BD4690
:1057200080BD80B582B000AF786039603B681846B4
:1057300001F0EEFE00BF0837BD4680BD80B586B0E3
:1057400002AFF860B9607A603B60F868BB690093AB
:105750003B687A68B968FFF7B5FC044AFB681A60D1
:10576000FB6818461037BD4680BD00BFF45D0508D4
:1057700080B500AF014800F08BF980BD50F10024E6
:1057800080B500AF114B1B68BFF35B8F03F00103C3
:10579000002B0CBF01230023DBB2002B13D00B48DE
:1057A0004CF047FF0346002B14BF01230023DBB25C
:1057B000002B08D0064800F067F806484EF09EF827
:1057C00002484CF042FF024B184680BDB81F01242E
:1057D00050F100247157000880B582B000AF7860A6
:1057E000054A7B681A607B681846FFF78BFC7B686C
:1057F00018460837BD4680BDF45D050880B582B007
:1058000000AF78607868FFF7E7FF142178684CF004
:105810000EFF7B6818460837BD4680BD80B582B054
:1058200000AF78607B68184637F094F8034A7B68CD
:105830001A607B6818460837BD4680BDC05D050804
:1058400080B582B000AF78607B68184637F082F888
:10585000034A7B681A607B6818460837BD4680BDDE
:105860008C5D050880B582B000AF78607B68184613
:1058700037F070F8034A7B681A607B68184608376F
:10588000BD4680BD585D0508B0B584B002AF7860F4
:1058900078687B6803F114047B6803F12C057B684E
:1058A00042F298721A44796842F60C530B44009302
:1058B00013462A462146FFF741FF1A4A7B681A60C1
:1058C0007B6814331846FFF7A9FF7B682C33184612
:1058D000FFF7B6FF7A6842F2987313441846FFF751
:1058E000C1FF7A6842F2AC731344184622F022FFDB
:1058F0007A6842F60C5313447A6842F2AC71114450
:105900007A68184622F000FF78687A6842F60C53ED
:1059100013441946FFF705FF7B6818460837BD4654
:10592000B0BD00BF445D050880B586B002AFF86029
:10593000B9607A603B60F868BB8B01933B8B009346
:105940003B687A68B968FFF741FD044AFB681A6052
:10595000FB6818461037BD4680BD00BFCC60050807
:1059600080B582B000AF78607B681846FFF7E2FC34
:10597000034A7B681A607B6818460837BD4680BDBD
:10598000785B050880B586B002AFF860B9607A60D0
:105990003B60F868BB8B01933B8B00933B687A6854
:1059A000B968FFF7C1FF064AFB681A60FB687C33E1
:1059B0001846FFF7D5FFFB6818461037BD4680BD77
:1059C000F85B050880B483B000AF7860044A7B6858
:1059D0001A607B6818460C37BD465DF8047B70473B
:1059E000E05B050880B582B000AF78607B68184640
:1059F000FFF7E8FF034A7B681A607B6818460837A0
:105A0000BD4680BDC85B050890B585B002AF01F00A
:105A100029FB044601F030FB03461946002300939E
:105A200000230022204641F0A1FE0B48FFF71AFB9D
:105A3000002022F09DFD09490948FFF725FC09488F
:105A400041F04CFDFFF79CFE78600748FEF7AEFC86
:105A500000BF0C37BD4690BDE42D0124C82D0124A4
:105A6000602D01242C000024E82D012480B400AF17
:105A700000BFBD465DF8047B7047000080B500AFF5
:105A80000248FEF7BBFC00BF80BD00BFE82D01242B
:105A900080B582B000AF7860114A7B681A607A687E
:105AA00042F60C5313441846FFF706FE7A6842F29A
:105AB00098731344184600F027F87B682C33184677
:105AC00000F044F87B681433184600F063F87B68F4
:105AD0001846FFF781FE7B6818460837BD4680BD33
