:020000040800F2
:100000000000052435390008113700081F370008A3
:10001000273700082F370008373700080000000096
:10002000000000000000000000000000F19B030839
:100030003F37000800000000419E0308F58C0308CC
:100040008539000885390008853900088539000898
:100050008539000885390008853900088539000888
:100060008539000885390008853900084D370008B2
:10007000613700088539000885390008853900088E
:10008000853900088539000875370008853900086A
:100090008539000885390008853900088539000848
:1000A0008539000885390008853900088539000838
:1000B0008539000885390008853900088539000828
:1000C0008539000885390008853900088539000818
:1000D0008539000885390008853900088539000808
:1000E00085390008853900080000000085390008BE
:1000F00085390008853900088539000885390008E8
:1001000085390008853900088539000885390008D7
:1001100085390008853900089137000885390008BD
:1001200085390008853900088539000885390008B7
:1001300085390008853900088539000885390008A7
:1001400000000000000000000000000000000000AF
:100150008539000885390008853900088539000887
:100160008539000885390008853900088539000877
:100170008539000885390008853900088539000867
:100180008539000885390008853900088539000857
:100190008539000885390008853900088539000847
:1001A000A537000885390008B937000800000000AD
:1001B0008539000885390008853900088539000827
:1001C00085390008853900080000000000000000A3
:1001D0000000000000000000853900080000000059
:1001E000000000000000000000000000000000000F
:1001F0000000000000000000853900088539000873
:10020000853900088539000800000000853900089C
:1002100085390008853900088539000885390008C6
:100220008539000800000000853900080000000042
:10023000853900088539000800000000853900086C
:100240008539000885390008853900088539000896
:100250008539000885390008853900088539000886
:100260008539000885390008853900088539000876
:10027000853900088539000885390008000000002C
:100280008539000885390008853900088539000856
:10029000000000008539000885390008853900080C
:1002A0008539000885390008853900088539000836
:1002B0008539000885390008853900088539000826
:0C02C00085390008CD370008853900089A
:1002D00010B5054C237833B9044B13B10448AFF380
:1002E00000800123237010BD3401002400000000B1
:1002F0008C4A050808B5034B1BB103490348AFF30B
:10030000008008BD00000000380100248C4A050868
:1003100001F0FF01102A2BDB10F0070F08D010F8B6
:10032000013B013A8B422DD010F0070F42B3F6D1BA
:10033000F0B441EA012141EA014122F007047FF0D3
:1003400000070023F0E80256083C85EA010586EA2A
:10035000010685FA47F5A3FA87F586FA47F6A5FA66
:1003600087F68EB9EED1F0BC01F0FF0102F0070272
:1003700032B110F8013B013A83EA010313B1F8D11D
:100380000020704701387047002D06BF35460338FE
:10039000073815F0010F07D1013015F4807F02BF37
:1003A000013015F4C03F0130F0BC0138704700BF88
:1003B00081F0004102E000BF83F0004330B54FEA16
:1003C00041044FEA430594EA050F08BF90EA020F83
:1003D0001FBF54EA000C55EA020C7FEA645C7FEA16
:1003E000655C00F0E2804FEA5454D4EB5555B8BF39
:1003F0006D420CDD2C4480EA020281EA030382EAAA
:10040000000083EA010180EA020281EA0303362D3B
:1004100088BF30BD11F0004F4FEA01314FF4801C0E
:100420004CEA113102D0404261EB410113F0004F20
:100430004FEA03334CEA133302D0524263EB4303D7
:1004400094EA050F00F0A780A4F10104D5F1200E75
:100450000DDB02FA0EFC22FA05F2801841F10001D0
:1004600003FA0EF2801843FA05F359410EE0A5F1A4
:1004700020050EF1200E012A03FA0EFC28BF4CF0D5
:10048000020C43FA05F3C01851EBE37101F000458B
:1004900007D54FF0000EDCF1000C7EEB00006EEB98
:1004A0000101B1F5801F1BD3B1F5001F0CD3490822
:1004B0005FEA30004FEA3C0C04F101044FEA445279
:1004C00012F5800F80F09A80BCF1004F08BF5FEA00
:1004D000500C50F1000041EB045141EA050130BDE0
:1004E0005FEA4C0C404141EB0101013C28BFB1F5F2
:1004F000801FE9D291F0000F04BF01460020B1FA3D
:1005000081F308BF2033A3F10B03B3F120020CDA0F
:100510000C3208DD02F1140CC2F10C0201FA0CF0ED
:1005200021FA02F10CE002F11402D8BFC2F1200C52
:1005300001FA02F120FA0CFCDCBF41EA0C01904008
:10054000E41AA2BF01EB0451294330BD6FEA040451
:100550001F3C1CDA0C340EDC04F11404C4F120023C
:1005600020FA04F001FA02F340EA030021FA04F34E
:1005700045EA030130BDC4F10C04C4F1200220FAA5
:1005800002F001FA04F340EA0300294630BD21FAE3
:1005900004F0294630BD94F0000F83F4801306BFA9
:1005A00081F480110134013D4EE77FEA645C18BF9D
:1005B0007FEA655C29D094EA050F08BF90EA020F34
:1005C00005D054EA000C04BF1946104630BD91EA2C
:1005D000030F1EBF0021002030BD5FEA545C05D12F
:1005E0004000494128BF41F0004130BD14F580046E
:1005F0003CBF01F5801130BD01F0004545F0FE41E2
:1006000041F470014FF0000030BD7FEA645C1ABF16
:10061000194610467FEA655C1CBF0B46024650EA4D
:10062000013406BF52EA033591EA030F41F4002179
:1006300030BD00BF90F0000F04BF0021704730B5FF
:100640004FF4806404F132044FF000054FF00001D4
:1006500050E700BF90F0000F04BF0021704730B595
:100660004FF4806404F1320410F0004548BF40426A
:100670004FF000013EE700BF42004FEAE2014FEABF
:1006800031014FEA02701FBF12F07F4393F07F4F9A
:1006900081F06051704732F07F4208BF704793F09D
:1006A0007F4F04BF41F40021704730B54FF46074B0
:1006B00001F0004521F000411CE700BF50EA0102B3
:1006C00008BF704730B54FF000050AE050EA01025C
:1006D00008BF704730B511F0004502D5404261EBCC
:1006E00041014FF4806404F132045FEA915C3FF40D
:1006F000D8AE4FF003025FEADC0C18BF03325FEAAA
:10070000DC0C18BF033202EBDC02C2F1200300FA5A
:1007100003FC20FA02F001FA03FE40EA0E0021FA7F
:1007200002F11444BDE600BF80B500AF02490020CD
:100730003BF098F800BF80BDE944000880B483B066
:1007400000AF78604FF06043D3F8803E03F00103C0
:10075000002B13D04FF06043D3F8003E03F00103A9
:10076000002B0BD000E000BF4FF060431B68002B54
:10077000F9D04FF060437A68D2B21A707B6818469D
:100780000C37BD465DF8047B7047000080B400AFB5
:100790008F4B1B88B3F57A7F59D18E4B1B78502B2A
:1007A00007D0502B00F30E81142B36D0282B1AD0F3
:1007B00008E1894B1B68894AA2FB03239B094FF47C
:1007C0007A7202FB03F3844A1360834B1B6807EEC3
:1007D000903AB8EE677ADFED826AC7EE267A814BEF
:1007E000C3ED007AEEE0804B1B687C4AA2FB03233A
:1007F0009B094FF47A7202FB03F37B4A13607A4B36
:100800001B6807EE903AB8EE677ADFED756AC7EEBF
:10081000267A764BC3ED007AD4E0754B1B686F4A9D
:10082000A2FB03239B094FF47A7202FB03F3704A85
:1008300013606F4B1B6807EE903AB8EE677ADFEDF6
:10084000686AC7EE267A6B4BC3ED007ABAE0604B5C
:100850001B88642B56D15F4B1B78502B07D0502B35
:1008600000F3B080142B34D0282B19D0AAE05A4BB7
:100870001B68614AA2FB03235B09642202FB03F3AA
:10088000554A1360544B1B6807EE903AB8EE677AEE
:10089000DFED536AC7EE267A524BC3ED007A91E042
:1008A000514B1B68544AA2FB03235B09642202FBE1
:1008B00003F34D4A13604C4B1B6807EE903AB8EEB9
:1008C000677ADFED476AC7EE267A484BC3ED007AB8
:1008D00078E0474B1B68484AA2FB03235B0964226C
:1008E00002FB03F3424A1360414B1B6807EE903A48
:1008F000B8EE677ADFED3A6AC7EE267A3D4BC3ED74
:10090000007A5FE0324B1B880A2B5BD1314B1B789E
:10091000502B06D0502B55DC142B38D0282B1BD055
:1009200050E02D4B1B68354AA2FB0323DA0813461F
:100930009B0013445B001A46274B1A60264B1B682A
:1009400007EE903AB8EE677ADFED256AC7EE267AB1
:10095000244BC3ED007A35E0234B1B68274AA2FBEA
:100960000323DA0813469B0013445B001A461E4B10
:100970001A601D4B1B6807EE903AB8EE677ADFED00
:10098000186AC7EE267A194BC3ED007A1AE0184BA5
:100990001B681A4AA2FB0323DA0813469B00134480
:1009A0005B001A46124B1A60114B1B6807EE903A17
:1009B000B8EE677ADFED0A6AC7EE267A0D4BC3ED13
:1009C000007A00BF00BFBD465DF8047B704700BFE2
:1009D000200000241C00002410000024D34D6210CD
:1009E00000007A44040000241400002408000024BD
:1009F000180000240C0000241F85EB51CDCCCCCC7A
:100A000080B483B000AF78607B68594A934240F06D
:100A1000A880584B1B78002B40F0A380564B1B78C6
:100A20000133DAB2544B1A70534B1B78022B40F04F
:100A30009880524B01221A704D4B1B681B6803F0C3
:100A40001003102B29D14E4B1B78502B06D0502B66
:100A50001CDC142B12D0282B08D017E0494B1B6844
:100A6000494A12889B1A474A13600FE0474B1B689C
:100A7000454A12889B1A454A136007E0444B1B689D
:100A8000414A12889B1A424A136000BF394B012227
:100A90001A70404B01221A702BE0394B1B78502BF7
:100AA00006D0502B1FDC142B14D0282B09D01AE0B1
:100AB000354B1B881A46334B1B681344314A13606D
:100AC00011E0314B1B881A46304B1B6813442F4AE8
:100AD000136008E02C4B1B881A462D4B1B681344EF
:100AE0002B4A136000BF234B01221A70294B0122AD
:100AF0001A70234B1B78502B06D0502B2EDC142B56
:100B00001ED0282B0ED029E01E4B1B6807EE903A12
:100B1000B8EE677ADFED206AC7EE267A1F4BC3ED89
:100B2000007A1BE0194B1B6807EE903AB8EE677A23
:100B3000DFED196AC7EE267A194BC3ED007A0DE096
:100B4000134B1B6807EE903AB8EE677ADFED126A36
:100B5000C7EE267A134BC3ED007A00BF064B002286
:100B60001A7000BF0C37BD465DF8047B704700BFAC
:100B7000AC050024490600244F0600244A06002440
:100B80001C00002410000024200000241400002475
:100B9000180000244806002400007A4404000024C1
:100BA000080000240C00002480B582B002AF254B61
:100BB0001B78012B43D1244B1B78012B3FD1234BB6
:100BC0001B78502B06D0502B1CDC142B12D0282B5A
:100BD00008D017E01E4B1B681E4A1F49184601F03B
:100BE00065FD0FE01D4B1B681A4A1B49184601F0B2
:100BF0005DFD07E01A4B1B68164A1749184601F0BD
:100C000055FD00BF134B5B68DAB2164B1A70002318
:100C10000093104B02220021002001F09AFC114B9E
:100C20001B7800930B4B02220021022001F091FC63
:100C30000949002001F04EFC024B00221A7000BF4F
:100C4000BD4680BD49060024500600241C00002437
:100C50001000002434060024280600241400002478
:100C6000180000242406002480B485B000AF78600A
:100C70000023FB810023BB811FE0BB8903F001033C
:100C80009BB2002B09D1FB89124A52F82320BB8961
:100C900091B2114A22F813100CE0FB890D4A52F868
:100CA00023301A0CBB8991B20B4A22F81310FB892E
:100CB0000133FB81BB890133BB81BB89B3F5805F05
:100CC000DBD3064B00221A7000BF1437BD465DF817
:100CD000047B7047540600245426002458E6002460
:100CE00080B586B002AF01F039FBBB4B5B6903F402
:100CF0000033002B1BD1BFF34F8F00BFBFF36F8FAB
:100D000000BFB54B0022C3F85022BFF34F8F00BF86
:100D1000BFF36F8F00BFB04B5B69AF4A43F4003342
:100D20005361BFF34F8F00BFBFF36F8F00E000BF71
:100D3000A94B5B6903F48033002B38D1A64B00220A
:100D4000C3F88420BFF34F8F00BFA34BD3F880308C
:100D5000BB60BB685B0BC3F30E037B60BB68DB0847
:100D6000C3F309033B607B685A0143F6E073134009
:100D70003A68920798491343C1F860323B685A1E9B
:100D80003A60002BEFD17B685A1E7A60002BE5D1C8
:100D9000BFF34F8F00BF904B5B698F4A43F48033A2
:100DA0005361BFF34F8F00BFBFF36F8F00E000BFF1
:100DB0002BF080FB00F06EF900F0DEF900F0F4FD9E
:100DC00000F0CAFD00F004FB00F0E2FB00F062FC62
:100DD00000F06CFD00F01AFB00F058FB00F0FCF98D
:100DE00000F0D4FA00F00EFD00F072FA02F0D2FD2D
:100DF00002F0C9FD3C21794837F056FA40F2FF7203
:100E0000002177482DF064FB40F2FF720021754805
:100E10002DF05EFB744837F09DF84FF40062734983
:100E20006F482DF0B9FB0023FB8125E0FB8907EE1D
:100E3000903AB8EEE77B9FED646B27EE067B9FED63
:100E4000645B87EE056BB0EE460B51F089FCB0EEAB
:100E5000407BB6EE006B27EE067BB6EE006B36EEFF
:100E6000477BFB89F7EEC77B614A9B001344C3EDC8
:100E7000007AFB890133FB81FB89B3F5006FD5D381
:100E80005C4B28221A705B4B1A785B4B1A705B4BD9
:100E90005B4A1A6001224FF480415A4830F0C4FC8A
:100EA00000221021584830F0BFFC01222021564872
:100EB00030F0BAFC554B184601F0D4FA4F4B1B6882
:100EC000534A5449184601F0F1FB514B5B68DAB2C2
:100ED000514B1A70002300934D4B02220021002039
:100EE00001F037FB4C4B1B780093494B0222002149
:100EF000022001F02EFB4749002001F0EBFA05200B
:100F000001F062FC37F010FF444B002200214448FE
:100F100038F016F80346434A1360434B0022002181
:100F2000424838F00DF80346414A1360414A022115
:100F3000012038F0CFF903463F4A13603F4A0421AD
:100F4000012038F0C7F903463D4A13603D4A40F29C
:100F50005451012038F0BEF903463B4A13603B4A26
:100F600000213B4837F02AFF03463A4A13603A4AC9
:100F700000213A4837F022FF0346394A1360394AC4
:100F80000021394837F01AFF0346384A1360384ABF
:100F90000021384837F012FF0346374A1360374ABA
:100FA0000021374837F00AFF0346364A1360364AB5
:100FB0000021364837F002FF0346354A136037F008
:100FC000D7FE00BFFDE700BF00000060FB21194015
:100FD0000000000000FC9F4000ED00E0AC05002494
:100FE00050010024C00100246005002454060024A0
:100FF00054C600241C0000241D00002414000024FA
:10100000D0F06B00001002580018025856A80100DA
:10101000340600242806002424060024AC5C0508BD
:10102000112300081C060024BC5C05083D230008B1
:1010300020060024645C0508100600247C5C05087A
:1010400014060024945C0508180600248C5B05082F
:10105000F11B0008F8050024B05B0508A53900085D
:10106000FC050024D45B0508011C000800060024D0
:10107000F85B05085D1D0008040600241C5C0508DB
:10108000E51E000808060024405C0508291F00082A
:101090000C06002480B59CB000AF07F124034C225D
:1010A0000021184652F083FE3B1D202200211846E5
:1010B00052F07DFE042033F00DFB00233B602D4BEE
:1010C0009B692C4A23F4404393612A4B9B6903F4A8
:1010D00040433B603B6800BF264B9B6903F40053D1
:1010E000B3F5005FF8D103237B624FF48033BB621A
:1010F00001233B6340237B630223BB640223FB6425
:1011000002233B652C237B650123BB650223FB6522
:1011100002233B660C237B660023BB660023FB6631
:1011200007F12403184633F02FFB0346002B01D0B0
:1011300001F090F93F237B600323BB600023FB6039
:1011400008233B6140237B614023BB614FF48063F4
:10115000FB6140233B623B1D0321184633F0EEFE4A
:101160000346002B01D001F075F900BF7037BD4672
:1011700080BD00BF0048025880B5AEB000AF3B460E
:10118000B8220021184652F012FE4FF002424FF0F2
:101190000003C7E900230523BB605023FB60022343
:1011A0003B6102237B610223BB618023FB6100233F
:1011B0003B6200237B622023FB6400237B653B466C
:1011C000184634F089FA0346002B01D001F042F9A9
:1011D00000BFB837BD4680BD80B58CB000AF07F109
:1011E000240300221A605A609A603B4624220021A0
:1011F000184652F0DCFD344B344A1A60324B002260
:101200005A60314B04229A602F4B00221A612E4BF8
:1012100004225A612C4B00221A762B4B00225A765C
:10122000294B0122DA61284B002283F82020264B2B
:101230004FF4A4629A62244B4FF48062DA62224B2C
:1012400001221A63204B0022DA631F4B00221A642A
:101250001D4B002283F844201B482BF0CFFC034693
:10126000002B01D001F0F6F806237B624FF4004317
:10127000BB620023FB6207F12403194612482DF0DC
:101280009DFA0346002B01D001F0E4F801233B60F6
:1012900006237B600323BB6040F2FF73FB600423E3
:1012A0003B6100237B61002387F821303B461946D0
:1012B00005482CF003F90346002B01D001F0CAF8D1
:1012C00000BF3037BD4680BD5001002400200240E1
:1012D00080B58AB000AF3B1D24220021184652F091
:1012E00066FD274B274A1A60254B00225A60244B83
:1012F00004229A60224B00221A61214B04225A6177
:101300001F4B00221A761E4B00225A761C4B0122DC
:10131000DA611B4B002283F82020194B00221A634C
:10132000174B0022DA63164B00221A64144B00227A
:1013300083F8442012482BF061FC0346002B01D0B7
:1013400001F088F8104B7B600623BB600223FB6032
:1013500040F2FF733B6104237B610023BB610023E8
:1013600087F825303B1D194605482CF0A7F80346A1
:10137000002B01D001F06EF800BF2837BD4680BDBC
:10138000C0010024002102400200300480B500AFFB
:101390000D4B0E4A1A600C4B00221A710A4B0022A8
:1013A0005A71094B00225A61074B00229A61064B81
:1013B00001221A6204482DF03BFC0346002B01D0A9
:1013C00001F048F800BF80BD20030024004C025803
:1013D00080B500AF0B4B0C4A1A600A4B4FF44032F9
:1013E0005A60084B01229A60064B0022DA600548D9
:1013F0002FF0E4FD0346002B01D001F02BF800BFD5
:1014000080BD00BF440300240010005280B500AF2F
:101410001B4B1C4A1A601A4B1B4A5A60184B00227D
:101420009A60174B0122DA60154B00221A61144BA7
:1014300000225A61124B00229A61114B0022DA619C
:101440000F4B00221A620E4830F022FA0346002B9E
:1014500001D000F0FFFF4FF48051094831F0DAF875
:101460000346002B01D000F0F5FF0021044831F0C5
:101470001CF90346002B01D000F0ECFF00BF80BD3B
:10148000AC030024001C0058FFC8B02080B58EB00B
:1014900000AF3B1D34220021184652F088FC3A4B25
:1014A0003A4A1A60384B00225A60374B00229A6041
:1014B000354B0022DA60344B00221A61324B07228E
:1014C0005A61314B03229A612F4B0E22DA612E4B67
:1014D00005221A622C4B40F28E225A622A4B40F2AD
:1014E000E5129A62284B4FF42572DA62264B40F2DD
:1014F000E7121A63244B002283F83420224B002287
:1015000083F83520204B002283F836201E4831F026
:1015100019F90346002B01D000F09CFF00237B60EB
:101520004FF4F073BB600023FB604FF488733B61A2
:1015300001237B61FF23BB610023FB614FF48063C8
:101540003B6205237B624FF0E043BB624FF4F073D4
:10155000FB624FF488733B63002387F83430002329
:1015600087F83530002387F836303B1D00221946B6
:10157000054831F06FFA0346002B01D000F06AFFF6
:1015800000BF3837BD4680BD000400240010005065
:1015900080B588B000AF3B1D00221A605A609A6087
:1015A000DA601A615A61384B384A1A60364B0422A5
:1015B0005A60354B00229A60334B4FF08072DA60EC
:1015C000314B20221A61304B02225A612E4B0022ED
:1015D0009A612D4B0022DA612B4B00221A622A4BB2
:1015E00002225A62284B00229A62274B0022DA62BA
:1015F000254B00221A63244B08225A63224B0022F7
:101600009A63214B0022DA631F4831F08FFC0346B6
:10161000002B01D000F01EFF01237B600123BB6083
:101620000123FB604FF001133B61194B7B613B1DB4
:1016300041F288321946144832F0F8F80346002B7C
:1016400001D000F007FF104831F02CFD01233B775B
:1016500001237B77002029F001FE07F11C031946C6
:10166000002029F05DFD0346002B01D000F0F2FEC2
:10167000002029F087FE0346002B01D000F0EAFE8F
:1016800000BF2037BD4680BDA80400240050005292
:101690000100000180B592B000AF07F130030022D5
:1016A0001A605A609A60DA601A615A6107F1200381
:1016B00000221A605A609A60DA6007F10C03002277
:1016C0001A605A609A60DA601A613B1D00221A6043
:1016D0005A60484B484A1A60464B04225A60454BB0
:1016E00000229A60434B4FF08062DA60414B18222F
:1016F0001A61404B04225A613E4B00229A613D4BD5
:101700000022DA613B4B00221A623A4B02225A62F3
:10171000384B00229A62374B4FF08052DA62354BD9
:1017200017221A63334B00225A63324B00229A630A
:10173000304B4FF4C872DA632E4831F0F7FB0346A2
:10174000002B01D000F086FE02233B6302237B6363
:101750000223BB63294BFB63294B3B6407F1300336
:1017600041F288321946234832F060F80346002BD4
:1017700001D000F06FFE03233B6206237B6200234F
:10178000BB620123FB6207F1200341F28832194654
:10179000184831F03BFD0346002B01D000F05AFE03
:1017A0000023FB604FF440537B614FF00053FB611B
:1017B00000233B610123BB6107F10C0341F2883236
:1017C00019460C4831F061FD0346002B01D000F0B2
:1017D00041FE00237B603B1D1946064831F054FF53
:1017E0000346002B01D000F035FE00BF4837BD4650
:1017F00080BD00BF0405002400A0005202000100CB
:101800000200000180B588B000AF07F1100300228C
:101810001A605A609A60DA603B1D00221A605A60B2
:101820009A60204B204A1A601E4B4FF489725A600E
:101830001C4B00229A601B4B0922DA60194B0022D4
:101840001A61184B00225A61164B80229A61154882
:1018500036F028FB0346002B01D000F0FBFD4FF4CF
:1018600080533B6107F1100319460E4836F0D2FE53
:101870000346002B01D000F0EDFD20237B60002308
:10188000BB600023FB603B1D1946064837F04EF94C
:101890000346002B01D000F0DDFD00BF2037BD4620
:1018A00080BD00BF600500240000014080B58CB001
:1018B00000AF07F10C0324220021184652F077FAFA
:1018C0003B4600221A605A609A60204B204A1A60F8
:1018D0001E4B00225A601D4B00229A601B4B1D4A72
:1018E000DA601A4B00221A61184B00229A61032316
:1018F000FB6000233B6101237B610023BB610A2362
:10190000FB6100233B6201237B620023BB620A234D
:10191000FB6207F10C0319460C4836F01FFC034626
:10192000002B01D000F096FD00233B600023BB603C
:101930003B461946054837F0F9F80346002B01D01D
:1019400000F088FD00BF3037BD4680BDAC050024E7
:1019500000E00040801A060080B582B000AF114B55
:10196000D3F8D8300F4A43F00103C2F8D8300D4BFA
:10197000D3F8D83003F001037B607B680022052197
:101980000B202DF0B5F80B202DF0CCF8002205210E
:101990000C202DF0ADF80C202DF0C4F800BF083756
:1019A000BD4680BD0044025880B58EB000AF07F13F
:1019B000240300221A605A609A60DA601A61784B38
:1019C000D3F8E030764A43F00203C2F8E030744BBB
:1019D000D3F8E03003F002033B623B6A704BD3F86C
:1019E000E0306F4A43F04003C2F8E0306C4BD3F86C
:1019F000E03003F04003FB61FB69694BD3F8E03052
:101A0000674A43F00803C2F8E030654BD3F8E03092
:101A100003F00803BB61BB69614BD3F8E030604A57
:101A200043F01003C2F8E0305D4BD3F8E03003F030
:101A300010037B617B695A4BD3F8E030584A43F07E
:101A40000103C2F8E030564BD3F8E03003F0010355
:101A50003B613B69524BD3F8E030514A43F080037D
:101A6000C2F8E0304E4BD3F8E03003F08003FB6067
:101A7000FB684B4BD3F8E030494A43F00403C2F80B
:101A8000E030474BD3F8E03003F00403BB60BB68A1
:101A9000434BD3F8E030424A43F02003C2F8E03031
:101AA0003F4BD3F8E03003F020037B607B680022DB
:101AB00044F208013B482FF0B7FE002248F23801FB
:101AC00039482FF0B1FE00224FF4044137482FF07F
:101AD000ABFE00224FF4404135482FF0A5FE002216
:101AE000012134482FF0A0FE44F208037B62012359
:101AF000BB620023FB6200233B6307F1240319460A
:101B000028482FF0CFFB48F230037B620123BB62F1
:101B10000023FB6200233B6307F12403194622489C
:101B20002FF0C0FB08237B620123BB620023FB6212
:101B300003233B6307F1240319461B482FF0B2FB34
:101B40004FF404437B620123BB620023FB6200234A
:101B50003B6307F12403194614482FF0A3FB4FF40D
:101B600040437B620123BB620023FB6203233B6390
:101B700007F1240319460E482FF094FB01237B62E2
:101B80000123BB620023FB6203233B6307F12403B1
:101B9000194608482FF086FB00BF3837BD4680BD88
:101BA000004402580010025800180258000C025855
:101BB000000402580000025880B586B000AFF860FB
:101BC000B9607A6000237B6109E0BB685A1CBA6087
:101BD0001B781846FEF7B2FD7B6901337B617A6999
:101BE0007B689A42F1DB7B6818461837BD4680BD9A
:101BF00080B582B000AF7860322037F071F9FBE732
:101C000080B584B000AF7860484B00221A80484B02
:101C10001B78002B1FD10023FB730FE0FB7BC3F16C
:101C2000A803444A52F823309AB2404B1B8813440D
:101C30009AB23E4B1A80FB7B0133FB73FB7B0E2B6E
:101C4000ECD93A4B1B883C4AA2FB0323DB089AB22F
:101C5000364B1A801DE00023BB730EE0BB7BAB3319
:101C6000344A52F823309AB2304B1B8813449AB24C
:101C70002E4B1A80BB7B0133BB73BB7B0E2BEDD984
:101C80002A4B1B882C4AA2FB0323DB089AB2274B62
:101C90001A80264B1A88294B1B889A4212D0284B4F
:101CA0001B68184637F048FC0346002B06D1244B2E
:101CB0001868002300221D4937F080FB1B4B1A884F
:101CC0001E4B1A801F4B1B78012B2BD11E4B1B6800
:101CD000184637F031FC0346002B20D11B4B1B78F4
:101CE000502B06D1184B186800230022184937F0F2
:101CF00065FB164B1B78282B06D1134B1868002365
:101D00000022144937F05AFB104B1B78142B06D1D4
:101D10000D4B1868002300220F4937F04FFB094B89
:101D200000221A70642037F0DBF86DE754E60024D7
:101D30004C0600245CE600248988888856E6002446
:101D4000100600244A060024140600241C00002467
:101D500004000024080000240C00002480B582B098
:101D600000AF7860534B1B78002B05D1012208216E
:101D700051482FF059FD04E0002208214E482FF071
:101D800053FD4E4B1A784E4B1B789A4212D04B4B58
:101D90001B78002B05D1012220214A482FF044FD59
:101DA00004E00022202147482FF03EFD434B1A78E3
:101DB000434B1A70444B1A78444B1B789A421BD001
:101DC000424B1B78142B17D100224FF480413A4824
:101DD0002FF02AFD012210213A482FF025FD3C4B1F
:101DE00001221A703B4B01221A703B4B01221A70E0
:101DF000364B1A78344B1A70334B1A78334B1B78A6
:101E00009A421BD0314B1B78282B17D101224FF45B
:101E1000804129482FF008FD0022102129482FF089
:101E200003FD2B4B01221A702A4B01221A702A4BF8
:101E300001221A70254B1A78234B1A70224B1A78FC
:101E4000224B1B789A421BD0204B1B78502B17D16A
:101E500000224FF4804118482FF0E6FC00221021A8
:101E600018482FF0E1FC1A4B01221A70194B01227D
:101E70001A70194B01221A70144B1A78124B1A70EF
:101E8000164B1A88164B1B889A420ED0FEF77EFC22
:101E90000F4B01221A700F4B01221A700E4B0122B8
:101EA0001A700F4B1A880D4B1A80642037F018F8FF
:101EB00058E700BF4B060024001002584C060024CF
:101EC0004D060024001802581D0000241C000024A8
:101ED0004A06002448060024490600242200002463
:101EE0002000002480B582B000AF78600B4B1B78D7
:101EF000012B09D10A4B1B680221184637F09CF8C8
:101F0000064B00221A7005E0064B1B78012B01D10D
:101F1000FEF74AFE0A2036F0E3FFE7E75106002409
:101F20001C0600244906002480B588B000AF786004
:101F3000A14B1B78002B40F0D481A04B1B78012BC8
:101F400040F0CF810023FB830023BB832CE0BB8BBD
:101F500003F001039BB2002B05D1BB8B002B02D0F9
:101F6000FB8B0133FB83BB8B954A32F8133007EEB2
:101F7000903AB8EEE77B9FED8E6B27EE066BFB8BFE
:101F8000904A9B001344D3ED007AB7EEE77A26EE31
:101F9000077BBB8BF7EEC77B8B4A9B001344C3EDDB
:101FA000007ABB8B0133BB83BB8BB3F5805FCED391
:101FB00001230022844985484FF020FF4FF400623E
:101FC000834981484FF0B8FF814B4FF000025A60BF
:101FD0007F4B03F5805303F6FC734FF000021A6049
:101FE0007B4B03F5805303F6F8734FF000021A6041
:101FF00000237B830EE07B8B03F580627B8B74492F
:1020000092000A44126873499B000B441A607B8B50
:1020100001337B837B8BB3F5806FECD34FF480630C
:102020003B830EE03B8BA3F580623B8B68499200BB
:102030000A44126867499B000B441A603B8B0133CA
:102040003B833B8BB3F5006FECD30023FB82624BE9
:102050001B78002B56D10023BB824FE0BB8A5D4A20
:102060009B00134493ED007ABB8A0133594A9B00CD
:102070001344D3ED007A37EE277ABB8A0233554AF0
:102080009B001344D3ED007A37EE277ABB8A0333E3
:10209000504A9B001344D3ED007A37EE277ABB8A6F
:1020A00004334C4A9B001344D3ED007A37EE277A71
:1020B000BB8A0533474A9B001344D3ED007A37EEC1
:1020C000277AF1EE086AC7EE267AFB8AFDEEE77AF8
:1020D00017EE901A414A42F82310FB8A3F4A52F801
:1020E0002330322B04DDFB8A3C4A322142F8231094
:1020F000FB8A0133FB82BB8A0633BB82BB8AB3F502
:10210000006FABD3344B1B78012B46D14FF4AB732C
:102110007B823DE07B8A2F4A9B00134493ED007A3B
:102120007B8A01332B4A9B001344D3ED007A37EEB0
:10213000277A7B8A0233274A9B001344D3ED007A27
:1021400037EE277A7B8A0333224A9B001344D3ED70
:10215000007A37EE277AF1EE006AC7EE267AFB8A1C
:10216000FDEEE77A17EE901A1C4A42F82310FB8A1C
:102170001A4A52F82330322B04DDFB8A174A3221E7
:1021800042F82310FB8A0133FB827B8A04337B8273
:102190007B8A40F2AA629342BCD90F4B1B78022B78
:1021A0004FD140F2AB233B8246E000BFAFF300804B
:1021B0002D431CEBE2361A3F58E600241E00002493
:1021C0005426002454C6002454460024EC7C050800
:1021D0005486002454A600244E0600245CE6002405
:1021E0003B8A424A9B00134493ED007A3B8A0133B9
:1021F0003E4A9B001344D3ED007A37EE277AF0EE87
:10220000006AC7EE267AFB8AFDEEE77A17EE901A8F
:10221000374A42F82310FB8A354A52F82330322BD2
:1022200004DDFB8A324A322142F82310FB8A013353
:10223000FB823B8A02333B823B8A40F255529342F7
:10224000CED92C4B1B78032B27D140F25633FB8180
:102250001EE0FB89254A9B001344D3ED007AFB8ADC
:10226000FDEEE77A17EE901A214A42F82310FB8A16
:102270001F4A52F82330322B04DDFB8A1C4A3221DC
:1022800042F82310FB8A0133FB82FB890133FB8177
:10229000FB8940F2AB429342DBD9174A144B1046FC
:1022A000194640F254531A4651F0A7FE134B1B68CF
:1022B000184637F041F90346002B06D10F4B18683A
:1022C000002300220C4937F079F84FF400620C49E2
:1022D0000C482CF061F90C4B01221A700B4B0022B8
:1022E0001A70142036F0FCFD22E600BF54A600242C
:1022F0005CE600244E060024B0EB002418060024FF
:10230000540600245001002458E600241E00002436
:1023100080B582B000AF7860064B01221A70064B80
:102320001B681921184636F087FE00BF0837BD46E6
:1023300080BD00BF500600242006002480B483B076
:1023400000AF7860044B00221A7000BF0C37BD4606
:102350005DF8047B704700BF5006002480B584B050
:1023600000AF3B4600221A605A609A60DA602CF097
:10237000E7FB01233B7000237B704FF010537B6021
:1023800012233B7200237B720023BB720323FB7278
:1023900001233B7300237B730123BB730123FB7376
:1023A0003B4618462CF004FC01237B704FF0E043C1
:1023B0007B601C233B720023FB720023BB73002352
:1023C000FB733B4618462CF0F3FB02237B7016236D
:1023D0003B720323FB720123BB730123FB733B4658
:1023E00018462CF0E5FB03237B704FF010437B6015
:1023F0001C233B720023FB720023BB730023FB737F
:102400003B4618462CF0D4FB04237B7019233B7207
:102410000323FB720123BB733B4618462CF0C8FB19
:1024200004202CF0A5FB00BF1037BD4680BD000086
:1024300080B582B000AF78607B681B68044A934225
:1024400001D12AF073F800BF0837BD4680BD00BF38
:102450000010004080B400AF00BFBD465DF8047BB3
:102460007047000080B584B000AF7860184A7B6880
:102470001360FF21032000F0B7F98021102000F045
:10248000B3F98021112000F0AFF98021122000F073
:10249000ABF98021132000F0A7F98021142000F06F
:1024A000A3F98021152000F09FF98021162000F06B
:1024B0009BF98021172000F097F94023FB73FB7BE9
:1024C0001946B72000F090F900BF1037BD4680BD17
:1024D0000CF1002480B58CB002AF03463960FB716B
:1024E0003B681B687B623B685B683B623B689B6840
:1024F000FB617B6ADA013B6AD901FB6991FBF3F36B
:102500001344A3F50073BB613B6ADB01FA6993FBDB
:10251000F2F2F96901FB02F29B1A7B61FB693B61F4
:10252000FB79002B01D11A2300E02223FB73F87BF7
:1025300000230193002300933B697A69B96900F095
:1025400079F9A021B12000F04FF900BF2837BD462E
:1025500080BD80B58CB002AF3B600346FB710B467B
:10256000BB7113467B713B685B683B613B689B6852
:10257000FB603B68DB68BB60002387F82730FB7992
:10258000022B01D901238DE03B681B78002B0AD177
:102590003B69072B05DD3B69082B04D1FB68002B49
:1025A00001D102237EE03B69042B09D100233B6269
:1025B0000023FB610123BB61032387F8273016E06A
:1025C0003B69DA01FB68D901BB6891FBF3F3134463
:1025D000A3F500733B62FB68DB01BA6893FBF2F280
:1025E000B96801FB02F29B1AFB61BB68BB61002367
:1025F000FB750023BB7500237B75FB79022B14D080
:10260000022B19DC002B02D0012B07D014E02A2367
:10261000FB75A523BB7510237B750DE03223FB757D
:10262000A623BB7511237B7506E03A23FB75A72310
:10263000BB7512237B7500BF7B7943F00C033B75A0
:10264000BB79012B03D13B7D43F020033B753B68F5
:102650001B78002B09D0FB68002B02D03B69042BB0
:1026600003D13B7D43F040033B753A7D7B7D1146B2
:10267000184600F0B9F83B681B7CF87D019397F889
:1026800027300093BB69FA69396A00F0D3F897F8EC
:10269000303003F07F03DAB2BB7D1146184600F0FC
:1026A000A3F8002318462837BD4680BD80B487B004
:1026B00000AFF860B9607A60384B7B61FB68384ADC
:1026C000934202D2364BFB6005E0FB68354A9342E9
:1026D00001D9344BFB60FB68334AA2FB03239B0CFC
:1026E000324A126802FB03F3314AA2FB03235B095F
:1026F000FA68D31AFB607B6800221A707B6800229C
:102700001A74FB682B4A934203D87B687F225A6075
:1027100012E0FB68284A934207D2284AFB68B2FBC2
:10272000F3F31A467B685A6006E0254AFB68B2FB61
:10273000F3F31A467B685A607B6800229A607B68D4
:102740000122DA607B685B681A46FB6802FB03F3D0
:102750003B613A697B6992FBF3F2BB681A603B69A3
:102760007A6993FBF2F2796901FB02F29B1A154A2E
:1027700082FB03129210DB17D21ABB685A607B6986
:10278000104A82FB03129210DB17D21ABB689A60C0
:1027900000BF1C37BD465DF8047B704740787D0163
:1027A000C05C150000E1F50583DE1B430CF100243D
:1027B0001F85EB519FC44A0000127A0040BE40259D
:1027C00000E9A435ABAAAA2A80B582B000AF0346BF
:1027D000FB71FB79DB43DBB21946032000F004F800
:1027E00000BF0837BD4680BD80B586B004AF034644
:1027F0000A46FB711346BB7100BF25230322C0218B
:102800000B482FF03FFB0346002BF6D1FB799AB221
:102810002523029301230193BB1D00930123C021B3
:1028200003482FF001F900BF0837BD4680BD00BF47
:10283000AC03002480B588B004AFB9607A603B6017
:102840000346FB733B681B12DAB2294B1A703B68D4
:10285000DAB2274B5A70BB681B145BB203F0030358
:102860005AB23B7E9B005BB203F00C035BB2134396
:102870005AB23B7F1B015BB203F070035BB21343A0
:102880005BB2DAB21A4B9A70BB681B12DAB2184B01
:10289000DA70BB68DAB2164B1A713B681B135BB275
:1028A00023F00F035AB27B681B145BB203F00F03D3
:1028B0005BB213435BB2DAB20D4B5A717B681B12E9
:1028C000DAB20B4B9A717B68DAB2094BDA71FB7B97
:1028D0009AB22523029308230193054B0093012309
:1028E000C02104482FF0A0F800BF1037BD4680BDBE
:1028F00004F10024AC03002480B582B000AF184B73
:10290000D3F8F430164A43F00203C2F8F430144B03
:10291000D3F8F43003F002037B607B6800220F21C0
:102920006FF001002CF0E4F80D4BD3F8F4300C4AB2
:1029300043F40043C2F8F430094BD3F8F43003F405
:1029400000433B603B68002029F034FE29F05AFE2A
:10295000002029F043FE00BF0837BD4680BD00BF00
:102960000044025880B5B4B000AF786007F1180396
:10297000B8220021184651F01AFA7B681B687F4A7A
:10298000934279D14FF400224FF00003C7E90623A8
:102990004FF40033C7F8B83007F11803184632F087
:1029A0009BFE0346002B01D0FFF754FD744B1B68C0
:1029B0000133734A1360724B1B68012B0ED1714BAC
:1029C000D3F8D8306F4A43F02003C2F8D8306D4BAB
:1029D000D3F8D83003F020037B617B69694BD3F8CF
:1029E000E030684A43F00103C2F8E030654BD3F8A9
:1029F000E03003F001033B613B694FF080714FF021
:102A0000807029F023FE604B604A1A605E4B0922F9
:102A10005A605D4B00229A605B4B0022DA605A4B91
:102A20004FF480621A61584B4FF480525A61564BF2
:102A30004FF480429A61544B0022DA61524B4FF4BA
:102A400000321A62504B00225A624F482CF0E2F9D1
:102A50000346002B01D0FFF7FDFC7B684A4A9A65CC
:102A6000494A7B6893630022052112202CF040F82C
:102A700012202CF057F87DE07B681B68444A934293
:102A800078D14FF400224FF00003C7E906234FF43A
:102A90000033C7F8B83007F11803184632F01CFEAF
:102AA0000346002B01D0FFF7D5FC354B1B680133E3
:102AB000334A1360324B1B68012B0ED1314BD3F8D4
:102AC000D830304A43F02003C2F8D8302D4BD3F829
:102AD000D83003F02003FB60FB682A4BD3F8E030CA
:102AE000284A43F00103C2F8E030264BD3F8E03027
:102AF00003F00103BB60BB684FF000714FF0007042
:102B000029F0A4FD234B244A1A60224B0A225A6062
:102B1000204B00229A601F4B0022DA601D4B4FF4BD
:102B200080621A611B4B4FF480525A61194B4FF46B
:102B300080429A61174B0022DA61164B4FF4003243
:102B40001A62144B00225A6212482CF063F90346B1
:102B5000002B01D0FFF77EFC7B680E4A9A650D4A78
:102B60007B6893630022052112202BF0C1FF122005
:102B70002BF0D8FF00BFD037BD4680BD00200240FB
:102B800010F10024004402583002002410000240DA
:102B900000210240A80200242800024080B485B031
:102BA00000AF78607B681B680B4A93420ED10B4BD9
:102BB000D3F8E030094A43F40023C2F8E030074B71
:102BC000D3F8E03003F40023FB60FB6800BF143748
:102BD000BD465DF8047B7047004C02580044025823
:102BE00080B584B000AF78607B681B680E4A934262
:102BF00016D10E4BD3F8D4300C4A43F01003C2F870
:102C0000D4300A4BD3F8D43003F01003FB60FB68D8
:102C1000002205215A202BF06BFF5A202BF082FF57
:102C200000BF1037BD4680BD00100052004402585E
:102C300080B5B8B000AF786007F1CC0300221A600D
:102C40005A609A60DA601A6107F11003B822002115
:102C5000184651F0ACF87B681B68274A934246D16E
:102C60004FF010024FF00003C7E904230023C7F818
:102C7000A43007F11003184632F02EFD0346002B56
:102C800001D0FFF7E7FB1D4BD3F8E0301B4A43F0C0
:102C90002003C2F8E030194BD3F8E03003F02003F2
:102CA000FB60FB684FF44043C7F8CC301223C7F8F1
:102CB000D0300023C7F8D4300023C7F8D83004231D
:102CC000C7F8DC3007F1CC0319460D482EF0EAFABC
:102CD0000A4BD3F8F430094A43F08003C2F8F430C9
:102CE000064BD3F8F43003F08003BB60BB6800BF31
:102CF000E037BD4680BD00BF001C005800440258AC
:102D00000014025880B582B000AF78607B681B6801
:102D10000C4A934211D10C4BD3F8F4300A4A23F0F9
:102D20008003C2F8F4304FF4004108482EF062FCF2
:102D30004FF4804105482EF05DFC00BF0837BD46CA
:102D400080BD00BF001C0058004402580014025807
:102D500080B5BEB000AF786007F1E40300221A60CE
:102D60005A609A60DA601A6107F12803B8220021DC
:102D7000184651F01CF87B681B68DE4A934240F00D
:102D8000CE814FF000524FF00003C7E90A23192308
:102D90003B654FF490737B650223BB650223FB65A3
:102DA0001E233B6600237B664FF40073BB66002343
:102DB000FB6607F12803184632F08EFC0346002B11
:102DC00001D0FFF747FBCC4BD3F8E430CA4A43F0BD
:102DD0000803C2F8E430C84BD3F8E43003F008032A
:102DE0007B627B6AC44BD3F8E030C34A43F00203F2
:102DF000C2F8E030C04BD3F8E03003F002033B628E
:102E00003B6ABD4BD3F8E030BB4A43F00803C2F83D
:102E1000E030B94BD3F8E03003F00803FB61FB6905
:102E2000B54BD3F8E030B44A43F00103C2F8E030C8
:102E3000B14BD3F8E03003F00103BB61BB69AE4B8B
:102E4000D3F8E030AC4A43F01003C2F8E030AA4BAC
:102E5000D3F8E03003F010037B617B69A64BD3F815
:102E6000E030A54A43F04003C2F8E030A24BD3F86B
:102E7000E03003F040033B613B699F4BD3F8E03007
:102E80009D4A43F08003C2F8E0309B4BD3F8E0301A
:102E900003F08003FB60FB68974BD3F8E030964A61
:102EA00043F00403C2F8E030934BD3F8E03003F072
:102EB0000403BB60BB684FF48073C7F8E43002239F
:102EC000C7F8E8300023C7F8EC300023C7F8F0302B
:102ED0000E23C7F8F43007F1E403194687482EF0B3
:102EE000E1F90923C7F8E4300223C7F8E8300023EA
:102EF000C7F8EC300023C7F8F0300E23C7F8F430E1
:102F000007F1E40319467E482EF0CCF940F2032382
:102F1000C7F8E4300223C7F8E8300023C7F8EC30E4
:102F20000323C7F8F0300E23C7F8F43007F1E403A9
:102F3000194672482EF0B6F94FF48073C7F8E430A2
:102F40000223C7F8E8300023C7F8EC300323C7F8A2
:102F5000F0300D23C7F8F43007F1E403194669484F
:102F60002EF0A0F94BF60203C7F8E4300223C7F8AD
:102F7000E8300023C7F8EC300323C7F8F0300E2305
:102F8000C7F8F43007F1E40319465F482EF08AF9D8
:102F90004FF48043C7F8E4300223C7F8E830002339
:102FA000C7F8EC300323C7F8F0300E23C7F8F4302D
:102FB00007F1E403194655482EF074F94023C7F889
:102FC000E4300223C7F8E8300023C7F8EC300323CD
:102FD000C7F8F0300E23C7F8F43007F1E4031946C0
:102FE00047482EF05FF948F20403C7F8E4300223A3
:102FF000C7F8E8300023C7F8EC300023C7F8F030FA
:103000000E23C7F8F43007F1E403194640482EF0C8
:1030100049F9C023C7F8E4300223C7F8E830002399
:10302000C7F8EC300023C7F8F0300E23C7F8F430AF
:1030300007F1E403194637482EF034F98023C7F826
:10304000E4300223C7F8E8300023C7F8EC3000234F
:10305000C7F8F0300E23C7F8F43007F1E40319463F
:103060002A482EF01FF940F60873C7F8E43002230F
:10307000C7F8E8300023C7F8EC300323C7F8F03076
:103080000E23C7F8F43007F1E403194620482EF068
:1030900009F95823C7F8E4300223C7F8E8300023C1
:1030A000C7F8EC300323C7F8F0300E23C7F8F4302C
:1030B00007F1E403194613482EF0F4F81023C7F87B
:1030C000E4300223C7F8E8300023C7F8EC300323CC
:1030D000C7F8F0300923C7F8F43007F1E4031946C4
:1030E0000B482EF0DFF80022052158202BF000FDC0
:1030F00012E000BF001000500044025800040258C3
:10310000000C025800000258001002580018025823
:10311000001C02580008025858202BF003FD00BF85
:10312000F837BD4680BD00BF80B592B000AF786073
:1031300007F1340300221A605A609A60DA601A615B
:103140007B681B68B54A934240F0E680B44B1B682D
:103150000133B34A1360B24B1B68012B0ED1B14B44
:10316000D3F8D430AF4A43F40013C2F8D430AD4B97
:10317000D3F8D43003F400133B633B6BA94BD3F873
:10318000D430A84A43F48043C2F8D430A54BD3F8D6
:10319000D43003F48043FB62FB6AA24BD3F8E030E7
:1031A000A04A43F04003C2F8E0309E4BD3F8E03031
:1031B00003F04003BB62BB6A9A4BD3F8E030994AF4
:1031C00043F00803C2F8E030964BD3F8E03003F048
:1031D00008037B627B6A934BD3F8E030914A43F05B
:1031E0001003C2F8E0308F4BD3F8E03003F0100347
:1031F0003B623B6A8B4BD3F8E0308A4A43F02003B2
:10320000C2F8E030874BD3F8E03003F02003FB61D5
:10321000FB69844BD3F8E030824A43F00203C2F8E2
:10322000E030804BD3F8E03003F00203BB61BB69B0
:103230004FF400737B630223BB630023FB63032310
:103240003B6409237B6407F13403194676482EF06A
:1032500029F8B0237B630223BB630023FB630323B2
:103260003B640A237B6407F1340319466F482EF050
:1032700019F804237B630223BB630023FB6303234E
:103280003B6409237B6407F13403194668482EF038
:1032900009F840237B630223BB630023FB63032302
:1032A0003B640A237B6407F1340319465E482DF022
:1032B000F9FF4FF460537B630223BB630023FB637E
:1032C00003233B6409237B6407F134031946574801
:1032D0002DF0E8FF4FF480637B630223BB63002380
:1032E000FB6303233B6409237B6407F13403194622
:1032F00050482DF0D7FF04237B630223BB630023D8
:10330000FB6303233B640A237B6407F13403194600
:1033100049482DF0C7FF7CE07B681B68474A934211
:1033200077D13F4B1B6801333D4A13603C4B1B6810
:10333000012B0ED13B4BD3F8D4303A4A43F400135F
:10334000C2F8D430374BD3F8D43003F400137B6188
:103350007B69344BD3F8D430324A43F40023C2F8AB
:10336000D430304BD3F8D43003F400233B613B69B5
:103370002C4BD3F8E0302B4A43F04003C2F8E03046
:10338000284BD3F8E03003F04003FB60FB68254B8B
:10339000D3F8E030234A43F02003C2F8E030214B59
:1033A000D3F8E03003F02003BB60BB6840F60303B2
:1033B0007B630223BB630023FB6303233B6409237A
:1033C0007B6407F13403194617482DF06BFF4FF467
:1033D000A0537B630223BB630023FB6303233B6493
:1033E00003237B6407F1340319460F482DF05AFF7D
:1033F00041F21F037B630223BB630023FB630323B0
:103400003B6409237B6407F13403194609482DF016
:1034100049FF00BF4837BD4680BD00BF0050005285
:1034200014F100240044025800180258000C0258FD
:1034300000100258001402580004025800A0005264
:1034400080B582B000AF78607B681B682F4A9342DA
:1034500030D12F4B1B68013B2D4A13602C4B1B684E
:10346000002B07D12B4BD3F8D4302A4A23F4001376
:10347000C2F8D430274BD3F8D430264A23F4804303
:10348000C2F8D4304FF4107123482EF0B3F843F64D
:10349000B00122482EF0AEF8042121482EF0AAF8FF
:1034A0004FF480611F482EF0A5F804211E482EF02D
:1034B000A1F827E07B681B681C4A934222D1144B79
:1034C0001B68013B124A1360114B1B68002B07D18C
:1034D000104BD3F8D4300F4A23F40013C2F8D43081
:1034E0000C4BD3F8D4300B4A23F40023C2F8D43069
:1034F00041F6034108482EF07DF841F21F010948CA
:103500002EF078F800BF0837BD4680BD005000524D
:1035100014F100240044025800180258000C02580C
:1035200000100258001402580004025800A0005273
:1035300080B485B000AF78607B681B680B4A93420B
:103540000ED10B4BD3F8F030094A43F00103C2F817
:10355000F030074BD3F8F03003F00103FB60FB6859
:1035600000BF1437BD465DF8047B70470000014082
:103570000044025880B58AB000AF786007F11403A8
:1035800000221A605A609A60DA601A617B681B68D0
:10359000264A934245D1264BD3F8EC30244A43F0D7
:1035A0008073C2F8EC30224BD3F8EC3003F0807318
:1035B0003B613B691E4BD3F8E0301D4A43F02003CA
:1035C000C2F8E0301A4BD3F8E03003F02003FB6080
:1035D000FB6840237B610223BB610023FB61002366
:1035E0003B620D237B6207F11403194611482DF04D
:1035F00059FE80237B610223BB610023FB61022310
:103600003B620D237B6207F11403194609482DF034
:1036100049FE00220521A1202BF06AFAA1202BF0FF
:1036200081FA00BF2837BD4680BD00BF00E00040E2
:10363000004402580014025880B590B000AF786082
:103640007B680F2B27D80022796836202BF050FAA0
:1036500036202BF067FA294A7B681360284BD3F891
:10366000E830274A43F01003C2F8E830244BD3F87F
:10367000E83003F01003FB60FB6807F1100207F16C
:1036800014031146184631F0E5FFBB6ABB63BB6B00
:10369000002B06D101E001232BE031F0AFFFF863EE
:1036A00004E031F0ABFF03465B00FB63FB6B154AA4
:1036B000A2FB03239B0C013B7B63134B134A1A6051
:1036C000114B40F2E732DA600F4A7B6B53600E4BCE
:1036D00000221A610C4B00229A600B4834F0E2FB86
:1036E0000346002B04D1084834F0B2FC034600E046
:1036F000012318464037BD4680BD00BF6800002446
:103700000044025883DE1B4318F1002400100040DF
:1037100080B400AF00BFBD465DF8047B704780B445
:1037200000AF00BFFDE780B400AF00BFFDE780B48D
:1037300000AF00BFFDE780B400AF00BFFDE780B47D
:1037400000AF00BFBD465DF8047B704780B500AF99
:1037500002482CF021F900BF80BD00BF30020024D8
:1037600080B500AF02482CF017F900BF80BD00BF44
:10377000A802002480B500AF034829F047FC0348A5
:1037800029F044FC00BF80BD50010024C00100248A
:1037900080B500AF024834F035FE00BF80BD00BFE9
:1037A00018F1002480B500AF02482FF09BF800BF4D
:1037B00080BD00BF0004002480B500AF02482DF09A
:1037C00061FC00BF80BD00BF4403002480B500AF92
:1037D000024834F017FE00BF80BD00BFAC050024D6
:1037E00080B400AF01231846BD465DF8047B7047E6
:1037F00080B582B000AF7860396050F0D1FB0346ED
:1038000016221A604FF0FF3318460837BD4680BDB8
:1038100080B582B000AF78604FF0FF317868FFF775
:10382000E7FF00BFFDE780B586B000AFF860B96084
:103830007A6000237B610AE0AFF300800146BB6839
:103840005A1CBA60CAB21A707B6901337B617A690B
:103850007B689A42F0DB7B6818461837BD4680BD0E
:1038600080B483B000AF78604FF0FF3318460C3758
:10387000BD465DF8047B704780B483B000AF7860CC
:1038800039603B684FF400525A60002318460C37E9
:10389000BD465DF8047B704780B483B000AF7860AC
:1038A000012318460C37BD465DF8047B704780B491
:1038B00085B000AFF860B9607A600023184614370D
:1038C000BD465DF8047B704780B586B000AF786078
:1038D000144A154BD31A7B617B693B61134B1B6800
:1038E000002B02D1114B124A1A60104B1A687B68E8
:1038F00013443A699A4207D250F052FB03460C2215
:103900001A604FF0FF3309E0084B1B68FB60074B60
:103910001A687B681344054A1360FB681846183719
:10392000BD4680BD000005240010000064F10024A5
:1039300050BA0324DFF834D028F040FD002103E022
:103940000B4B5B58435004310A480B4B42189A42C8
:10395000F6D30A4A02E0002342F8043B084B9A429D
:10396000F9D350F023FBFDF7BBF9704700000524A5
:1039700048FD05080000002434010024340100241F
:1039800050BA0324FEE780B400AF00BFBD465DF827
:10399000047B704780B500AF02F012F801F0DEFF43
:1039A00000BF80BD80B582B000AF786002F010F833
:1039B00000BF0837BD4680BD80B483B000AF7860DB
:1039C000044A7B681A607B6818460C37BD465DF870
:1039D000047B7047FC5C050880B582B000AF78605E
:1039E0007868FFF7E9FF0C2178684EF090FE7B685D
:1039F00018460837BD4680BD80B584B000AF7860FA
:103A00000B46FB70FB78002B11D07B681B681033D2
:103A10001B687868984702467B689B68D31AFB60EE
:103A20007B685A68FB681A447B685A6008E07B68C8
:103A30001B6810331B687868984702467B689A6059
:103A400000BF1037BD4680BD80B483B000AF786042
:103A50007B685B6818460C37BD465DF8047B704791
:103A600080B483B000AF786039607B683A685A6090
:103A700000BF0C37BD465DF8047B704780B483B04F
:103A800000AF78600B4B1B680A4A43F080731360E9
:103A9000094B1A680849094B13430B60084B1B6814
:103AA000074A43F00103136000BF0C37BD465DF8C1
:103AB000047B7047FCED00E0B01F00E055CEACC5C4
:103AC000001000E080B485B000AFF860B9607A60A3
:103AD0003B607A68BB68D21A3B685B081A443B6853
:103AE000B2FBF3F318461437BD465DF8047B70470C
:103AF00080B483B000AF7860034B1B6818460C3766
:103B0000BD465DF8047B7047041000E080B584B0CA
:103B100000AF78600B46FB70FB78002B11D07B6800
:103B20001B6810331B687868984702467B689B685F
:103B3000D31AFB607B685A68FB681A447B685A603A
:103B400008E07B681B6810331B687868984702465A
:103B50007B689A6000BF1037BD4680BD80B582B0DB
:103B600000AF7860054A7B681A607B681846FFF7EB
:103B700023FF7B6818460837BD4680BDD45C050826
:103B800080B582B000AF78607868FFF7E7FF0C215E
:103B900078684EF0BCFD7B6818460837BD4680BD8E
:103BA00080B483B000AF7860044A7B681A607B6899
:103BB00018460C37BD465DF8047B70473C5D050830
:103BC00080B582B000AF78607868FFF7E9FF042124
:103BD00078684EF09CFD7B6818460837BD4680BD6E
:103BE00080B586B000AF786008233B6100237B611D
:103BF000074B1B88BB60074B1B88FB6007F1080362
:103C00001946002028F062F900BF1837BD4680BD74
:103C100032AE032434AE032480B588B000AFF86020
:103C2000B9607A6007F1100300221A605A609A6046
:103C300007F110031946002028F004FA0346002B70
:103C400014BF01230023DBB2002B0BD04FF0500335
:103C500083F31188BFF36F8FBFF34F8FFB6100BFFA
:103C600000BFFDE73B69002B09D07B691A46BB68A2
:103C70001A60BB691A467B681A60012300E00023C2
:103C800018462037BD4680BD80B582B000AF786051
:103C9000054A7B681A607B681846FFF781FF7B68DE
:103CA00018460837BD4680BD245D050880B582B042
:103CB00000AF78607868FFF7E7FF042178684EF07E
:103CC00026FD7B6818460837BD4680BD80B582B0AA
:103CD00000AF00237B6015E07B68DBB2184600F084
:103CE0000BF90346002B0AD00A4A7B6852F82330AE
:103CF000012B04D0074A7B68012142F823107B681E
:103D000001337B607B68042BE6DD00BF00BF083712
:103D1000BD4680BD68F1002480B582B000AF034687
:103D2000FB71FB79032B49D801A252F823F000BFA5
:103D3000413D00085F3D00087D3D00089D3D0008B5
:103D4000FB79204A52F82330002B0CBF01230023BB
:103D5000DBB21A4601211C482DF066FD2EE0FB79EE
:103D6000184A52F82330002B0CBF01230023DBB28A
:103D70001A46082115482DF057FD1FE0FB79114A1E
:103D800052F82330002B0CBF01230023DBB21A466C
:103D90004FF480410E482DF047FD0FE0FB79094AB2
:103DA00052F82330002B0CBF01230023DBB21A464C
:103DB0004FF4004106482DF037FD00BF00BF083723
:103DC000BD4680BD68F1002400000258001802586A
:103DD0000004025880B582B000AF0346FB71FB7946
:103DE000032B49D801A252F823F000BFFD3D000883
:103DF0001B3E0008393E0008593E0008FB79204A66
:103E000052F82330002B01D0012300E000231A4692
:103E100001211C482DF008FD2EE0FB79184A52F8CC
:103E20002330002B01D0012300E000231A46082193
:103E300015482DF0F9FC1FE0FB79114A52F82330A8
:103E4000002B01D0012300E000231A464FF48041EB
:103E50000E482DF0E9FC0FE0FB79094A52F82330B7
:103E6000002B01D0012300E000231A464FF400414B
:103E700006482DF0D9FC00BF00BF0837BD4680BD05
:103E800068F100240000025800180258000402588B
:103E900080B582B000AF0346FB71FB79032B21D8BC
:103EA00001A252F823F000BFB93E0008C33E00084B
:103EB000CD3E0008D93E000801210C482DF0CDFC74
:103EC00010E008210A482DF0C8FC0BE04FF48041B7
:103ED00008482DF0C2FC05E04FF4004105482DF0E4
:103EE000BCFC00BF00BF0837BD4680BD00000258C3
:103EF000001802580004025880B584B000AF034691
:103F0000FB710023FB73FB79032B29D801A252F824
:103F100023F000BF253F0008333F0008413F000861
:103F2000513F0008012113482DF066FC0346FB7346
:103F300016E0082110482DF05FFC0346FB730FE0EC
:103F40004FF480410D482DF057FC0346FB7307E00A
:103F50004FF4004109482DF04FFC0346FB7300BFAE
:103F6000FB7B012B0CBF01230023DBB2184610376B
:103F7000BD4680BD000002580018025800040258D7
:103F800080B483B000AF7860044A7B681A607B68B5
:103F900018460C37BD465DF8047B7047086E05086F
:103FA00080B582B000AF78607868FFF7E9FF7C21C8
:103FB00078684EF0ACFB7B6818460837BD4680BD7C
:103FC00080B400AF034B1B681846BD465DF8047B08
:103FD000704700BF38AE032480B483B000AF786070
:103FE0000B46FB707B68FA7883F878207B680122A7
:103FF00083F8792000BF0C37BD465DF8047B70471D
:1040000080B582B000AF78600B467B8013463B8062
:104010000C4B1B887A889A4204D30B4B1B883A8836
:104020009A4205D2094B0A4A9E210A484FF0B8FC31
:10403000094A7B881380094A3B88138000BF0837F0
:10404000BD4680BD2CAE03242EAE03244C4B050888
:10405000B04B0508F44B050832AE032434AE0324FC
:1040600080B582B000AF78607B6893F87A30002B1F
:1040700009D07B685A687B685B681B681B681046C0
:104080009847034600E0002318460837BD4680BD28
:1040900080B582B000AF7860786839F0C7FF7B6880
:1040A0001B68AC331B687868984700BF0837BD466B
:1040B00080BD80B483B000AF7860396000231846BB
:1040C0000C37BD465DF8047B7047000080B584B0B6
:1040D00000AFF860B9607A603B60BB68002B06D126
:1040E0000F4B104A40F2D2210F484FF059FCFB68A9
:1040F000BA68DA63FB687A681A647B68002B14BFBD
:1041000001230023DAB2094B1A70FB681B688C3359
:104110001B683968F868984700BF1037BD4680BDF6
:104120003C4C0508744C0508F44B050836AE0324D6
:1041300080B483B000AF786039607B683A685A64B5
:104140003B68002B14BF01230023DAB2034B1A7023
:1041500000BF0C37BD465DF8047B704737AE0324C3
:1041600080B483B000AF786039607B683A681A61C8
:1041700000BF0C37BD465DF8047B704780B483B048
:1041800000AF78600B46FB707B68FA7883F870208C
:1041900000BF0C37BD465DF8047B704780B483B028
:1041A00000AF7860002318460C37BD465DF8047BED
:1041B000704780B582B000AF78600B467B807B682B
:1041C0009B6B002B04D07B689B6B7A8810469847CA
:1041D00000BF0837BD4680BD80B483B000AF7860B3
:1041E0004FF6FF7318460C37BD465DF8047B7047E9
:1041F00080B582B000AF78607B685A687B685B6886
:104200001B6818331B681046984703461846083742
:10421000BD4680BD80B485B000AF78607B6893F800
:1042200078207B6893F834309A4211D0144B1B7875
:10423000002B1ED1134B1B88BB81134B1A88114BCB
:104240001A80114ABB8913800D4B01221A7010E0AD
:104250000B4B1B78002B0CD00A4B1B88FB810A4BA5
:104260001A88084B1A80084AFB891380044B0022E5
:104270001A7000BF1437BD465DF8047B704700BF5D
:1042800030AE03242EAE03242CAE032480B582B0BE
:1042900000AF78607B68184639F026F900BF083710
:1042A000BD4680BD80B582B000AF7860054A7B68AE
:1042B0001A607B681846FFF763FE7B68184608376C
:1042C000BD4680BD2862050880B582B000AF786029
:1042D0007868FFF7E7FF7C2178684EF018FA7B6872
:1042E00018460837BD4680BD80B582B000AF786003
:1042F0007B681846FFF7CAFF00BF0837BD4680BD80
:1043000080B582B000AF78607B68184602F0B0FBE1
:104310007A687B681B688C331B680C491046984789
:104320007B687C331846FFF7A9FB7A687B687C338F
:1043300019461046FFF714FF7B6801211846FFF766
:104340001DFF00BF0837BD4680BD00BF00000070E4
:1043500080B582B000AF78607B681B6880331B68D3
:10436000786898477B681B6878331B68786898473B
:1043700000F074F97A687B681B6870331B6810461C
:10438000984701224FF4806109482DF04DFA01222F
:104390004FF4004107482DF047FA00F05FF97A68C2
:1043A0007B681B6870331B681046984700BFF4E7B2
:1043B000000C02580018025880B582B000AF786037
:1043C0007B68184602F0ECFB034618460837BD46EA
:1043D00080BD80B582B000AF786039607B68396895
:1043E000184602F0EBFB00BF0837BD4680BD000059
:1043F00080B586B000AF786039607B683968184650
:1044000002F0F2FB1F4B0022C3F88420BFF34F8F52
:1044100000BF1C4BD3F880307B617B695B0BC3F31F
:104420000E033B617B69DB08C3F30903FB603B6957
:104430005A0143F6E0731340FA6892071149134397
:10444000C1F87432FB685A1EFA60002B14BF0123B6
:104450000023DBB2002BEAD13B695A1E3A61002BE4
:1044600014BF01230023DBB2002BDBD1BFF34F8F3E
:1044700000BFBFF36F8F00BF00BF00BF1837BD463E
:1044800080BD00BF00ED00E080B582B000AF786075
:104490007B68184602F010FB00BF0837BD4680BDA0
:1044A00080B582B000AF78607B68184602F014FBDC
:1044B00000BF0837BD4680BD80B582B000AF7860D0
:1044C0007B68184602F016FB00BF0837BD4680BD6A
:1044D00080B582B000AF78607B68184602F018FBA8
:1044E00000BF0837BD4680BD80B582B000AF7860A0
:1044F0007B68002B07D0FFF763FD034601211846B8
:1045000039F0AEFD06E0FFF75BFD034600211846DB
:1045100039F0A6FD012318460837BD4680BD0000CE
:1045200080B582B000AF7860084A7B681A607B680B
:104530007C331846FFF712FB7B681846FFF7B2FE84
:104540007B6818460837BD4680BD00BF545D05082E
:1045500080B582B000AF78607868FFF7E1FF88210E
:1045600078684EF0D4F87B6818460837BD4680BDA1
:1045700080B500AF00220121012034F08BFD0346FD
:104580000F4A13600E4B1B68002B05D10D4B0E4AD2
:1045900028210E484FF004FA00220421012034F0B3
:1045A00099FE03460A4A1360094B1B68002B05D18C
:1045B000084B054A2C2105484FF0F2F900BF80BD99
:1045C00078F10024C44C0508104D0508404D05083D
:1045D0007CF10024984D050880B500AF044B1B68A2
:1045E0004FF0FF31184634F0DFFD00BF80BD00BF43
:1045F00078F1002480B500AF034B1B68184634F0F7
:1046000025FE00BF80BD00BF78F1002480B500AF5B
:10461000034B1B680021184634F0C6FD00BF80BD67
:1046200078F1002480B500AF034B1B68184634F0C6
:104630000DFE00BF80BD00BF78F1002480B500AF43
:10464000044B186800230022034934F0B7FE00BF72
:1046500080BD00BF7CF100242400002480B582B01E
:1046600000AF094B1868391D0023002234F006FF03
:10467000054B1868391D4FF0FF33002234F0FEFE61
:1046800000BF0837BD4680BD7CF1002480B483B0F4
:1046900000AF0346FB80B7F90630002B0BDBFB882D
:1046A00003F01F020749B7F906305B09012000FA41
:1046B00002F241F8232000BF0C37BD465DF8047BB1
:1046C000704700BF00E100E080B483B000AF034654
:1046D000FB80B7F90630002B12DBFB8803F01F02CA
:1046E0000A49B7F906305B09012000FA02F22033CB
:1046F00041F82320BFF34F8F00BFBFF36F8F00BF80
:1047000000BF0C37BD465DF8047B704700E100E058
:1047100080B483B000AF78607B6800221A607B6849
:1047200018460C37BD465DF8047B704780B483B0F3
:1047300000AF78607B681B6818460C37BD465DF893
:10474000047B704780B483B000AF7860044A7B6814
:104750001A607B6818460C37BD465DF8047B7047CD
:104760007C5E050880B582B000AF78607868FFF79E
:10477000E9FF042178684DF0CAFF7B6818460837C6
:10478000BD4680BD80B582B000AF78607B681B6895
:1047900044331B687868984700BF0837BD4680BD22
:1047A00080B483B000AF7860044A7B681A607B688D
:1047B00018460C37BD465DF8047B7047E06E05086F
:1047C00080B582B000AF78607868FFF7E9FF0C2110
:1047D00078684DF09CFF7B6818460837BD4680BD61
:1047E00080B483B000AF78603960094A7B681A6092
:1047F0007B683A685A607B6800221A727B680022E4
:104800005A727B6818460C37BD465DF8047B7047CA
:10481000E06E050880B483B000AF786001231846CD
:104820000C37BD465DF8047B704780B582B000AFA1
:1048300078607A687B681B6828331B681046984745
:1048400000BF0837BD4680BD80B582B000AF78603C
:104850007B685A687B685B681B6814331B6810466A
:10486000984700BF0837BD4680BD80B582B000AF15
:104870007860FFF7A5FB03461846FFF7E5FF00BF8A
:104880000837BD4680BD80B582B000AF78607B68D8
:104890000C331846FFF73CFF7B6818460837BD46C7
:1048A00080BD0000B0B582B000AF78607A687B68E8
:1048B0000C3319461046FFF793FF0E4A7B681A60C7
:1048C0007B6803F10C007B6820336022194639F0C5
:1048D00019FD7B6820335F241D4604E02846FFF75E
:1048E000D2FF013C2435002CF8DA7B6818460837E3
:1048F000BD46B0BD2C5E050880B582B000AF7860C3
:10490000094A7B681A605A20FFF7DEFE7B680C3389
:10491000184600F017FB7B681846FFF741FF7B68DD
:1049200018460837BD4680BD2C5E050880B582B0AC
:1049300000AF78607868FFF7DFFF4FF45A6178685E
:104940004DF0E5FE7B6818460837BD4680BD000087
:1049500080B584B000AF7860124BD3F8D430114AE0
:1049600043F01003C2F8D4300E4BD3F8D43003F028
:104970001003FB60FB680B4BDB6F0A4A43F010032C
:10498000D367084BDB6F074A23F01003D367064B4E
:10499000064A1A625A20FFF779FE00BF1037BD465B
:1049A00080BD00BF00440258440300246B48000847
:1049B00080B584B000AF78600B46FB700023FB60CD
:1049C000FB780B2B26D801A252F823F0094A0008E5
:1049D000034A0008FD490008154A0008154A000866
:1049E000154A0008154A00080F4A00080F4A000837
:1049F0000F4A00080F4A00080F4A00080023FB6016
:104A00000EE00123FB600BE00223FB6008E00523BE
:104A1000FB6005E0054B064A652106484EF0C0FFE5
:104A2000FB6818461037BD4680BD00BFDC4D050849
:104A3000F84D0508444E050880B584B000AF786095
:104A40000B46FB700023FB60FB780A2B21D801A2E8
:104A500052F823F08D4A0008874A0008814A00086E
:104A6000934A0008934A0008934A0008934A0008B2
:104A7000874A0008874A0008874A0008874A0008D2
:104A80000023FB600BE00123FB6008E00223FB60D6
:104A900005E0054B054A862105484EF081FFFB687D
:104AA00018461037BD4680BDDC4D0508984E0508F8
:104AB000444E050880B483B000AF786040F2EF3315
:104AC00018460C37BD465DF8047B704790B589B039
:104AD00000AF786039603B685B7F19467868FFF704
:104AE00067FFB8613B689B7F19467868FFF760FFF6
:104AF00078613B689B7F19467868FFF79DFF3861B6
:104B00003B685B8B1A463B689B8AD21A944B1A64AB
:104B10003B685B8B1A463B689B8AD21A904B9A6122
:104B20003B681B8B1A463B689B8AD21A8C4B1A61D6
:104B30008B4A3B6953633B68DB8A1A463B689B8A16
:104B40001B041A43864B5A643B681A69844BDA6328
:104B50003B685A68824BDA603B681B68B3F5007F9C
:104B600036D0B3F5007F00F2DE80B3F5807F15D03C
:104B7000B3F5807F00F2D780802B43D0802B00F2EA
:104B8000D280402B00F0BB80402B00F2CC80042B65
:104B900000F0A180202B00F0B280C4E03B681B7FB6
:104BA0001A066F496F4B1343CB613B680C336C4C57
:104BB0001846FFF7BBFD03462362694A7B695362CF
:104BC0003B681A69664B5A61654B674A1A60C2E0D6
:104BD0003B681B7F1A066249644B1343CB613B68F9
:104BE0000C335F4C1846FFF7A1FD034623625C4A75
:104BF0007B6953623B681A69594B5A61584B5A4A50
:104C00001A60A8E03B689B68FB600123FB773B6868
:104C10001B7F1A06BB691343514A43F40033D36127
:104C20004F4A7B6953623B681A694D4B5A61FB6876
:104C30001A1D4B4BDA62FB681B88DBB2002B02D0DB
:104C4000012B0DD020E0464BDA69494B1340FA683E
:104C50005288013A12021146414A0B43D3611AE0CD
:104C60003B681B7FFF2B01D10023FB773C4BDA69AC
:104C70003F4B1340FA685288013A12021343384AF4
:104C800043F01003D36106E03A4B3B4A4FF4807186
:104C90003A484EF085FE324BDB69314A43F020033F
:104CA000D36100BF2E4BDB6903F02003002B14BF40
:104CB00001230023DBB2002BF4D1294B10229A6090
:104CC000FB7F002B03D0264B274A1A6043E0244B7E
:104CD0002B4A1A603FE03B681B7F1A06BB691343EF
:104CE0001F4A43F40033D3611D4A7B6953623B681A
:104CF0001A691B4B5A611A4B1B4A1A602BE03B681E
:104D00001B7F1A06BB691343154A43F40033D36172
:104D1000134A7B6953623B681A69114B5A61104B05
:104D2000114A1A6017E03B681B7F1A06BB691343E0
:104D30000B4A43F40033D3613B685A7F3B689B7F47
:104D40009A4203D0064B0E4A1A6003E0044B40F22D
:104D500001221A6000BF00BF2437BD4690BD00BFCE
:104D6000001000520A0002000102020009000200C5
:104D7000EF00FFFFE44E0508004F0508444E05080C
:104D80000102010090B585B000AF786039603B68E2
:104D90009B7F19467868FFF74FFEF8602F4AFB6843
:104DA00053633B68DB8A1A463B689B8A1B041A43A1
:104DB0002A4B5A643B681A69284BDA633B685B8B61
:104DC0001A463B689B8AD21A244B1A643B681B68BC
:104DD000082B2DD13B685B8B1A463B689B8AD21A05
:104DE0001E4B9A613B685B8B1A463B689B8AD21AC2
:104DF0001A4B1A61194AFB6853623B681B7F1A06FB
:104E00001649174B1343CB613B680C33134C1846C0
:104E1000FFF78CFC034623623B681A690F4B5A610B
:104E20003B681A690D4BDA600C4B0E4A1A6010E0B1
:104E30000A4AFB68D361094B00221A613B680C33B4
:104E4000064C1846FFF772FC0346A363034B064A61
:104E50001A6000BF1437BD4690BD00BF001000525D
:104E600009000100010202000102030080B400AF4A
:104E700000BF094B1B6803F00103002B14BF012383
:104E80000023DBB2002BF4D1034B23229A6000BF36
:104E9000BD465DF8047B70470010005280B485B0B9
:104EA00000AFF860B9607A60FB7000BF214B1B68EF
:104EB00003F00103002B14BF01230023DBB2002BFE
:104EC000F4D11C4B23229A601A4B01225A63BB680F
:104ED0001B04184A43F001035364164AFB68D3636A
:104EE000FB78FF2B17D0134B01225A62FB781A066E
:104EF0001049114B1343CB610E4A7B6823F07F436B
:104F000013620C4AFB6853610A4AFB68D360094B81
:104F10000A4A1A6008E0074B0122DA61054A7B68F9
:104F20009363044B064A1A6000BF1437BD465DF810
:104F3000047B7047001000520900010001000200CC
:104F40000100030080B582B000AF7860054A7B683D
:104F50001A607B681846FFF7F5FB7B681846083730
:104F6000BD4680BD306F050880B582B000AF786067
:104F70007868FFF7E7FF142178684DF0C8FB7B687D
:104F800018460837BD4680BD80B483B000AF786056
:104F90007B6800221A807B6800225A807B6800228E
:104FA0009A807B680022DA807B6818460C37BD4601
:104FB0005DF8047B7047000080B483B000AF786078
:104FC000044A7B68136000BF0C37BD465DF8047B64
:104FD000704700BF9CAE032480B483B000AF7860FC
:104FE000044A7B681A607B6818460C37BD465DF83A
:104FF000047B7047DC60050880B582B000AF786044
:105000007868FFF7E9FF042178684DF080FB7B6842
:1050100018460837BD4680BD80B485B000AFF86043
:10502000B9607A603B600B4AFB681A60FB68BA683B
:105030005A60FB687A689A60FB683A68DA60FB68D5
:10504000BA691A61FB6818461437BD465DF8047BDF
:10505000704700BFCC60050880B483B000AF7860B3
:10506000044A7B681A607B6818460C37BD465DF8B9
:10507000047B7047CC60050880B582B000AF7860D3
:105080007868FFF7E9FF142178684DF040FB7B68F2
:1050900018460837BD4680BD80B483B000AF786045
:1050A000396000BF0C37BD465DF8047B704780B4A3
:1050B00083B000AF7860396000BF0C37BD465DF843
:1050C000047B704780B483B000AF7860396000BF64
:1050D0000C37BD465DF8047B704780B483B000AFE9
:1050E00078600B46FB7000BF0C37BD465DF8047B53
:1050F000704780B483B000AF786000BF0C37BD4606
:105100005DF8047B704780B483B000AF786000BF67
:105110000C37BD465DF8047B7047000080B483B057
:1051200000AF7860044A7B681A607B6818460C37C9
:10513000BD465DF8047B7047A460050880B582B069
:1051400000AF78607868FFF7E9FF042178684DF0D8
:10515000DEFA7B6818460837BD4680BD80B483B050
:1051600000AF7860044A7B681A607B6818460C3789
:10517000BD465DF8047B70479060050880B582B03D
:1051800000AF78607868FFF7E9FF042178684DF098
:10519000BEFA7B6818460837BD4680BD80B483B030
:1051A00000AF7860044A7B681A607B6818460C3749
:1051B000BD465DF8047B7047B078050880B582B0C5
:1051C00000AF78607868FFF7E9FF0C2178684DF050
:1051D0009EFA7B6818460837BD4680BD80B483B010
:1051E00000AF786039607B683A689A6000BF0C371E
:1051F000BD465DF8047B704780B483B000AF786033
:1052000000BF0C37BD465DF8047B704780B483B0A7
:1052100000AF78600B46FB7000BF0C37BD465DF8F1
:10522000047B704780B483B000AF786039607B68DE
:105230003A6803F598731068516803C300BF0C37D0
:10524000BD465DF8047B704780B483B000AF7860E2
:10525000044A7B681A607B6818460C37BD465DF8C7
:10526000047B70477860050880B582B000AF786035
:105270007868FFF7E9FF042178684DF048FA7B6809
:1052800018460837BD4680BD80B483B000AF786053
:10529000074A7B681A607B6800225A607B6800229C
:1052A0009A607B6818460C37BD465DF8047B7047F2
:1052B000FC5C050880B483B000AF78607B68002296
:1052C0001A807B6800225A807B6800229A807B6863
:1052D0000022DA807B6800221A817B6800225A81D2
:1052E0007B6800229A817B6800229A737B6818464B
:1052F0000C37BD465DF8047B704780B582B000AFC7
:1053000078607B681846FFF7D5FF7B6800221A613A
:105310007B6800229A827B6818460837BD4680BDAC
:1053200080B584B000AFF860B9607A603B60554AE0
:10533000FB681A60FB68BA685A60FB687A689A6012
:10534000FB683A68DA60FB6800221A61FB68002299
:105350005A61FB6800229A61FB681C331846FFF70C
:10536000CCFFFB68002283F83420FB6800229A639C
:10537000FB680022DA63FB6800221A64FB680022E3
:105380005A64FB68002283F84820FB68012283F8F6
:105390004920FB68002283F84A20FB68002283F83A
:1053A0004B20FB680022DA64FB6850331846FFF795
:1053B000EBFDFB68002283F85820FB680022DA65C9
:1053C000FB6800221A66FB6800225A66FB6801220D
:1053D00083F86820FB68002283F86920FB680022BC
:1053E00083F86A20FB68012283F86B20FB680022A7
:1053F00083F86C20FB68002283F86D20FB68002294
:1054000083F86E20FB68002283F86F20FB6800227F
:1054100083F87020FB6800225A67FB68002283F83B
:105420007820FB68002283F87920FB68012283F84A
:105430007A20FB68012283F87B20134AFB68136003
:10544000124A3B8B1380114B1A88114B1A80114A58
:10545000BB8B13800F4B1A880F4B1A800F4B002207
:105460001A703A8BBB8B9A4234BF01230023DBB204
:105470001A46FB6883F83420FB6818461037BD468F
:1054800080BD00BF086E050838AE03242CAE03248F
:1054900032AE03242EAE032434AE032430AE0324F4
:1054A00080B582B000AF7860054A7B681A607B687F
:1054B0001846FFF733FE7B6818460837BD4680BDA7
:1054C0000879050880B582B000AF78607868FFF78A
:1054D000E7FF4FF49E7178684DF019F97B68184624
:1054E0000837BD4680BD80B582B000AF786078686F
:1054F00000F004F800BF0837BD4680BD80B582B01B
:1055000000AF78607B68D3F84031002B0FD07B6808
:10551000D3F840217B68D3F840311B680C331B68FB
:10552000104698470346002B01D0012300E00023DA
:10553000002B0ED07B68D3F840217B68D3F8403134
:105540001B6808331B68104698477B680022C3F825
:10555000402100BF0837BD4680BD000080B582B045
:1055600000AF7860054A7B681A607B681846FFF7D1
:1055700097FF7B6818460837BD4680BD2460050844
:1055800080B582B000AF78607868FFF7E7FF4FF42E
:10559000A27178684DF0BBF87B6818460837BD46A5
:1055A00080BD000080B582B000AF7860084A7B689B
:1055B0001A607B6803F5A273184600F06DFB7B68E8
:1055C0001846FFF7CBFF7B6818460837BD4680BDFD
:1055D000B85F050880B582B000AF78607868FFF7E3
:1055E000E1FF4FF4AE7178684DF091F87B68184692
:1055F0000837BD4680BD80B582B000AF786078685E
:1056000001F030FF00BF0837BD4680BD80B582B0D5
:1056100000AF7860054A7B681A607B681846FFF720
:10562000C1FF7B6818460837BD4680BD645F05082A
:1056300080B582B000AF78607868FFF7E7FF4FF47D
:10564000AE7178684DF063F87B6818460837BD4640
:1056500080BD80B582B000AF78607B68D3F85831E8
:10566000184623F02DF87B6818463EF031FA00BF4B
:105670000837BD4680BD80B582B000AF7860396024
:105680003B68184601F0EEFE00BF0837BD4680BDFE
:1056900080B586B002AFF860B9607A603B60F868A8
:1056A000BB6900933B687A68B968FFF7B5FC044AA8
:1056B000FB681A60FB6818461037BD4680BD00BF06
:1056C000505F050880B500AF014800F08BF980BD40
:1056D00080F1002480B500AF114B1B68BFF35B8FD6
:1056E00003F00103002B0CBF01230023DBB2002BCE
:1056F00013D00B484DF00DF80346002B14BF0123C7
:105700000023DBB2002B08D0064800F067F80648FB
:105710004EF064F902484DF008F8024B184680BD7F
:10572000E81F012480F10024C556000880B582B02E
:1057300000AF7860054A7B681A607B681846FFF7FF
:105740008BFC7B6818460837BD4680BD505F050856
:1057500080B582B000AF78607868FFF7E7FF14216A
:1057600078684CF0D4FF7B6818460837BD4680BD8A
:1057700080B582B000AF78607B68184637F05AF980
:10578000034A7B681A607B6818460837BD4680BDAF
:105790001C5F050880B582B000AF78607B68184652
:1057A00037F048F9034A7B681A607B681846083767
:1057B000BD4680BDE85E050880B582B000AF786068
:1057C0007B68184637F036F9034A7B681A607B68B5
:1057D00018460837BD4680BDB45E0508B0B584B034
:1057E00002AF786078687B6803F114047B6803F18A
:1057F0002C057B6842F298721A44796842F60C5381
:105800000B44009313462A462146FFF741FF1A4AEC
:105810007B681A607B6814331846FFF7A9FF7B6822
:105820002C331846FFF7B6FF7A6842F29873134498
:105830001846FFF7C1FF7A6842F2AC73134418466A
:1058400022F022FF7A6842F60C5313447A6842F23F
:10585000AC7111447A68184622F000FF78687A68C3
:1058600042F60C5313441946FFF705FF7B681846B0
:105870000837BD46B0BD00BFA05E050880B586B044
:1058800002AFF860B9607A603B60F868BB8B019347
:105890003B8B00933B687A68B968FFF741FD044A87
:1058A000FB681A60FB6818461037BD4680BD00BF14
:1058B0002862050880B582B000AF78607B68184622
:1058C000FFF7E2FC034A7B681A607B6818460837DA
:1058D000BD4680BDD45C050880B586B002AFF860D7
:1058E000B9607A603B60F868BB8B01933B8B009397
:1058F0003B687A68B968FFF7C1FF064AFB681A601F
:10590000FB687C331846FFF7D5FFFB681846103755
:10591000BD4680BD545D050880B483B000AF78609B
:10592000044A7B681A607B6818460C37BD465DF8F0
:10593000047B70473C5D050880B582B000AF78609D
:105940007B681846FFF7E8FF034A7B681A607B68AC
:1059500018460837BD4680BD245D050890B585B062
:1059600002AF01F029FB044601F030FB0346194663
:105970000023009300230022204641F067FF0B48DC
:10598000FFF71AFB002022F09DFD09490948FFF7A7
:1059900025FC094841F012FEFFF79CFE786007489D
:1059A000FEF7AEFC00BF0C37BD4690BD142E01249F
:1059B000F82D0124902D012428000024182E012404
:1059C00080B400AF00BFBD465DF8047B70470000A7
:1059D00080B500AF0248FEF7BBFC00BF80BD00BF32
:1059E000182E012480B582B000AF7860114A7B6820
:1059F0001A607A6842F60C5313441846FFF706FE05
:105A00007A6842F298731344184600F027F87B68CE
:105A10002C33184600F044F87B681433184600F025
:105A200063F87B681846FFF781FE7B6818460837E5
:105A3000BD4680BDA05E050880B582B000AF78602D
:105A40007868FFF7CFFF42F6686178684CF05FFE38
:105A50007B6818460837BD4680BD000080B582B01F
:105A600000AF7860054A7B681A607B68184636F09C
:105A7000DFFF7B6818460837BD4680BDB45E050869
:105A800080B582B000AF78607868FFF7E7FF142137
:105A900078684CF03CFE7B6818460837BD4680BDF0
:105AA00080B582B000AF7860054A7B681A607B6879
:105AB000184636F0BDFF7B6818460837BD4680BDE6
:105AC000E85E050880B582B000AF78607868FFF7BF
:105AD000E7FF42F26C7178684CF019FE7B6818465B
