:020000040800F2
:10000000000005241D3A00080D3800081B380008C0
:10001000233800082B38000833380008000000009F
:10002000000000000000000000000000619B0308C9
:100030003B38000800000000B19D0308DD8D030877
:100040006D3A00086D3A00086D3A00086D3A0008F4
:100050006D3A00086D3A00086D3A00086D3A0008E4
:100060006D3A00086D3A00086D3A000849380008FA
:100070006D3A00086D3A00086D3A00086D3A0008C4
:100080006D3A00086D3A00085D3800086D3A0008C6
:100090006D3A00086D3A00086D3A00086D3A0008A4
:1000A0006D3A00086D3A00086D3A00086D3A000894
:1000B0006D3A00086D3A00086D3A00086D3A000884
:1000C0006D3A00086D3A00086D3A00086D3A000874
:1000D0006D3A00086D3A00086D3A00086D3A000864
:1000E0006D3A00086D3A0008000000006D3A000803
:1000F0006D3A00086D3A00086D3A00086D3A000844
:100100006D3A00086D3A00086D3A00086D3A000833
:100110006D3A00086D3A0008793800086D3A000819
:100120006D3A00086D3A00086D3A00086D3A000813
:100130006D3A00086D3A00086D3A00086D3A000803
:1001400000000000000000000000000000000000AF
:100150006D3A00086D3A00086D3A00086D3A0008E3
:100160006D3A00086D3A00086D3A00086D3A0008D3
:100170006D3A00086D3A00086D3A00086D3A0008C3
:100180006D3A00086D3A00086D3A00086D3A0008B3
:100190006D3A00086D3A00086D3A00086D3A0008A3
:1001A0008D3800086D3A0008A138000800000000F2
:1001B0006D3A00086D3A00086D3A00086D3A000883
:1001C0006D3A00086D3A00080000000000000000D1
:1001D00000000000000000006D3A00080000000070
:1001E000000000000000000000000000000000000F
:1001F00000000000000000006D3A00086D3A0008A1
:100200006D3A00086D3A0008000000006D3A0008E1
:100210006D3A00086D3A00086D3A00086D3A000822
:100220006D3A0008000000006D3A00080000000070
:100230006D3A00086D3A0008000000006D3A0008B1
:100240006D3A00086D3A00086D3A00086D3A0008F2
:100250006D3A00086D3A00086D3A00086D3A0008E2
:100260006D3A00086D3A00086D3A00086D3A0008D2
:100270006D3A00086D3A00086D3A00080000000071
:100280006D3A00086D3A00086D3A00086D3A0008B2
:10029000000000006D3A00086D3A00086D3A000851
:1002A0006D3A00086D3A00086D3A00086D3A000892
:1002B0006D3A00086D3A00086D3A00086D3A000882
:0C02C0006D3A0008B53800086D3A0008DF
:1002D00010B5054C237833B9044B13B10448AFF380
:1002E00000800123237010BD3401002400000000B1
:1002F0007C48050808B5034B1BB103490348AFF31D
:10030000008008BD00000000380100247C4805087A
:1003100001F0FF01102A2BDB10F0070F08D010F8B6
:10032000013B013A8B422DD010F0070F42B3F6D1BA
:10033000F0B441EA012141EA014122F007047FF0D3
:1003400000070023F0E80256083C85EA010586EA2A
:10035000010685FA47F5A3FA87F586FA47F6A5FA66
:1003600087F68EB9EED1F0BC01F0FF0102F0070272
:1003700032B110F8013B013A83EA010313B1F8D11D
:100380000020704701387047002D06BF35460338FE
:10039000073815F0010F07D1013015F4807F02BF37
:1003A000013015F4C03F0130F0BC0138704700BF88
:1003B00081F0004102E000BF83F0004330B54FEA16
:1003C00041044FEA430594EA050F08BF90EA020F83
:1003D0001FBF54EA000C55EA020C7FEA645C7FEA16
:1003E000655C00F0E2804FEA5454D4EB5555B8BF39
:1003F0006D420CDD2C4480EA020281EA030382EAAA
:10040000000083EA010180EA020281EA0303362D3B
:1004100088BF30BD11F0004F4FEA01314FF4801C0E
:100420004CEA113102D0404261EB410113F0004F20
:100430004FEA03334CEA133302D0524263EB4303D7
:1004400094EA050F00F0A780A4F10104D5F1200E75
:100450000DDB02FA0EFC22FA05F2801841F10001D0
:1004600003FA0EF2801843FA05F359410EE0A5F1A4
:1004700020050EF1200E012A03FA0EFC28BF4CF0D5
:10048000020C43FA05F3C01851EBE37101F000458B
:1004900007D54FF0000EDCF1000C7EEB00006EEB98
:1004A0000101B1F5801F1BD3B1F5001F0CD3490822
:1004B0005FEA30004FEA3C0C04F101044FEA445279
:1004C00012F5800F80F09A80BCF1004F08BF5FEA00
:1004D000500C50F1000041EB045141EA050130BDE0
:1004E0005FEA4C0C404141EB0101013C28BFB1F5F2
:1004F000801FE9D291F0000F04BF01460020B1FA3D
:1005000081F308BF2033A3F10B03B3F120020CDA0F
:100510000C3208DD02F1140CC2F10C0201FA0CF0ED
:1005200021FA02F10CE002F11402D8BFC2F1200C52
:1005300001FA02F120FA0CFCDCBF41EA0C01904008
:10054000E41AA2BF01EB0451294330BD6FEA040451
:100550001F3C1CDA0C340EDC04F11404C4F120023C
:1005600020FA04F001FA02F340EA030021FA04F34E
:1005700045EA030130BDC4F10C04C4F1200220FAA5
:1005800002F001FA04F340EA0300294630BD21FAE3
:1005900004F0294630BD94F0000F83F4801306BFA9
:1005A00081F480110134013D4EE77FEA645C18BF9D
:1005B0007FEA655C29D094EA050F08BF90EA020F34
:1005C00005D054EA000C04BF1946104630BD91EA2C
:1005D000030F1EBF0021002030BD5FEA545C05D12F
:1005E0004000494128BF41F0004130BD14F580046E
:1005F0003CBF01F5801130BD01F0004545F0FE41E2
:1006000041F470014FF0000030BD7FEA645C1ABF16
:10061000194610467FEA655C1CBF0B46024650EA4D
:10062000013406BF52EA033591EA030F41F4002179
:1006300030BD00BF90F0000F04BF0021704730B5FF
:100640004FF4806404F132044FF000054FF00001D4
:1006500050E700BF90F0000F04BF0021704730B595
:100660004FF4806404F1320410F0004548BF40426A
:100670004FF000013EE700BF42004FEAE2014FEABF
:1006800031014FEA02701FBF12F07F4393F07F4F9A
:1006900081F06051704732F07F4208BF704793F09D
:1006A0007F4F04BF41F40021704730B54FF46074B0
:1006B00001F0004521F000411CE700BF50EA0102B3
:1006C00008BF704730B54FF000050AE050EA01025C
:1006D00008BF704730B511F0004502D5404261EBCC
:1006E00041014FF4806404F132045FEA915C3FF40D
:1006F000D8AE4FF003025FEADC0C18BF03325FEAAA
:10070000DC0C18BF033202EBDC02C2F1200300FA5A
:1007100003FC20FA02F001FA03FE40EA0E0021FA7F
:1007200002F11444BDE600BF80B500AF02490020CD
:100730003BF050F800BF80BDD145000880B483B0C5
:1007400000AF78604FF06043D3F8803E03F00103C0
:10075000002B13D04FF06043D3F8003E03F00103A9
:10076000002B0BD000E000BF4FF060431B68002B54
:10077000F9D04FF060437A68D2B21A707B6818469D
:100780000C37BD465DF8047B7047000080B400AFB5
:100790008F4B1B88B3F57A7F59D18E4B1B78502B2A
:1007A00007D0502B00F30E81142B36D0282B1AD0F3
:1007B00008E1894B1B68894AA2FB03239B094FF47C
:1007C0007A7202FB03F3844A1360834B1B6807EEC3
:1007D000903AB8EE677ADFED826AC7EE267A814BEF
:1007E000C3ED007AEEE0804B1B687C4AA2FB03233A
:1007F0009B094FF47A7202FB03F37B4A13607A4B36
:100800001B6807EE903AB8EE677ADFED756AC7EEBF
:10081000267A764BC3ED007AD4E0754B1B686F4A9D
:10082000A2FB03239B094FF47A7202FB03F3704A85
:1008300013606F4B1B6807EE903AB8EE677ADFEDF6
:10084000686AC7EE267A6B4BC3ED007ABAE0604B5C
:100850001B88642B56D15F4B1B78502B07D0502B35
:1008600000F3B080142B34D0282B19D0AAE05A4BB7
:100870001B68614AA2FB03235B09642202FB03F3AA
:10088000554A1360544B1B6807EE903AB8EE677AEE
:10089000DFED536AC7EE267A524BC3ED007A91E042
:1008A000514B1B68544AA2FB03235B09642202FBE1
:1008B00003F34D4A13604C4B1B6807EE903AB8EEB9
:1008C000677ADFED476AC7EE267A484BC3ED007AB8
:1008D00078E0474B1B68484AA2FB03235B0964226C
:1008E00002FB03F3424A1360414B1B6807EE903A48
:1008F000B8EE677ADFED3A6AC7EE267A3D4BC3ED74
:10090000007A5FE0324B1B880A2B5BD1314B1B789E
:10091000502B06D0502B55DC142B38D0282B1BD055
:1009200050E02D4B1B68354AA2FB0323DA0813461F
:100930009B0013445B001A46274B1A60264B1B682A
:1009400007EE903AB8EE677ADFED256AC7EE267AB1
:10095000244BC3ED007A35E0234B1B68274AA2FBEA
:100960000323DA0813469B0013445B001A461E4B10
:100970001A601D4B1B6807EE903AB8EE677ADFED00
:10098000186AC7EE267A194BC3ED007A1AE0184BA5
:100990001B681A4AA2FB0323DA0813469B00134480
:1009A0005B001A46124B1A60114B1B6807EE903A17
:1009B000B8EE677ADFED0A6AC7EE267A0D4BC3ED13
:1009C000007A00BF00BFBD465DF8047B704700BFE2
:1009D000200000241C00002410000024D34D6210CD
:1009E00000007A45040000241400002408000024BC
:1009F000180000240C0000241F85EB51CDCCCCCC7A
:100A000080B582B000AF78607B685A4A934240F06C
:100A1000AD80594B1B780133DAB2574B1A70564BE5
:100A20001B78022B40F0A280544B01221A70514BCC
:100A30001B681B6803F01003102B2ED1504B1B7842
:100A4000502B06D0502B1FDC142B14D0282B09D090
:100A50001AE04C4B1B684C4A128892009B1A494A78
:100A6000136011E0494B1B68474A128892009B1A99
:100A7000464A136008E0464B1B68434A12889200BE
:100A80009B1A434A136000BF424B01221A70424B2B
:100A900001221A7000F08AF830E0394B1B78502B95
:100AA00006D0502B22DC142B16D0282B0AD01DE0A8
:100AB000354B1B889B001A46324B1B681344314A46
:100AC000136013E0304B1B889B001A462F4B1B68AA
:100AD00013442E4A136009E02B4B1B889B001A46D7
:100AE0002B4B1B6813442A4A136000BF294B012279
:100AF0001A70294B01221A7000F058F8204B1B780D
:100B0000502B06D0502B2EDC142B1ED0282B0ED0B1
:100B100029E01C4B1B6807EE903AB8EE677ADFEDD0
:100B20001F6AC7EE267A1E4BC3ED007A1BE0174BF7
:100B30001B6807EE903AB8EE677ADFED186AC7EEE9
:100B4000267A184BC3ED007A0DE0114B1B6807EEB7
:100B5000903AB8EE677ADFED116AC7EE267A124B4B
:100B6000C3ED007A00BF044B00221A7000BF0837A3
:100B7000BD4680BD880500241B06002416060024FF
:100B80001C00002410000024200000241400002475
:100B900018000024150600241406002400007A45DD
:100BA00004000024080000240C00002480B582B05A
:100BB00002AF1C4B1B78012B31D11B4B1B78502BE8
:100BC00006D0502B1CDC142B12D0282B08D017E099
:100BD000164B1B68164A1749184601F075FD0FE0C1
:100BE000154B1B68124A1349184601F06DFD07E0CA
:100BF000124B1B680E4A0F49184601F065FD00BFF5
:100C0000002300930A4B01220021022001F0AEFCD8
:100C10000849002001F06FFC024B00221A7000BF4F
:100C2000BD4680BD150600241C00002410000024D1
:100C300000060024F40500241400002418000024F9
:100C400080B485B000AF78600023FB810023BB81B6
:100C50001FE0BB8903F001039BB2002B09D1FB8984
:100C6000124A52F82320BB8991B2114A22F813107C
:100C70000CE0FB890D4A52F823301A0CBB8991B263
:100C80000B4A22F81310FB890133FB81BB89013326
:100C9000BB81BB89B3F5805FDBD3064B00221A70A2
:100CA00000BF1437BD465DF8047B70472006002462
:100CB0002026002424E6002480B586B002AF01F08F
:100CC0001FFBA74B5B6903F40033002B1BD1BFF361
:100CD0004F8F00BFBFF36F8F00BFA14B0022C3F83F
:100CE0005022BFF34F8F00BFBFF36F8F00BF9C4BED
:100CF0005B699B4A43F400335361BFF34F8F00BFDE
:100D0000BFF36F8F00E000BF954B5B6903F4803346
:100D1000002B38D1924B0022C3F88420BFF34F8FB1
:100D200000BF8F4BD3F88030BB60BB685B0BC3F355
:100D30000E037B60BB68DB08C3F309033B607B6881
:100D40005A0143F6E07313403A689207844913430B
:100D5000C1F860323B685A1E3A60002BEFD17B68C5
:100D60005A1E7A60002BE5D1BFF34F8F00BF7C4B3A
:100D70005B697B4A43F480335361BFF34F8F00BFFD
:100D8000BFF36F8F00E000BF2BF008FC00F030F9DC
:100D900000F0A0F900F0F6FD00F0D4FD00F0CEFA6E
:100DA00000F0ECFB00F06CFC00F076FD00F024FBA2
:100DB00000F062FB00F0BEF900F09EFA00F018FDB2
:100DC00000F0DAFA00F038FA02F058FE02F04FFEB6
:100DD0003C21644837F0DCFA40F2FF72002162489F
:100DE0002DF0EAFB614837F029F94FF400626049C1
:100DF0005D482DF045FC0023FB8125E0FB8907EED3
:100E0000903AB8EEE77B9FED526B27EE067B9FEDA5
:100E1000525B87EE056BB0EE460B51F099FBB0EEDE
:100E2000407BB6EE006B27EE067BB6EE006B36EE2F
:100E3000477BFB89F7EEC77B4E4A9B001344C3ED0B
:100E4000007AFB890133FB81FB89B3F5006FD5D3B1
:100E5000494B28221A70484B1A78484B1A70484B55
:100E6000484A1A6001224FF48051474830F050FD43
:100E700000224FF40051444830F04AFD01224FF463
:100E80008051424830F044FD414B184601F0BCFA15
:100E90003B4B1B683F4A4049184601F015FC0023B4
:100EA00000933C4B02220021022001F05FFB3A49F3
:100EB000002001F0E1FA042001F094FC37F0A8FFD3
:100EC000364A0221012038F0B9F90346344A13604A
:100ED000344A0421012038F0B1F90346324A136044
:100EE000324A40F25451012038F0A8F90346304A02
:100EF0001360304A0021304837F0D4FF03462F4AB0
:100F000013602F4A00212F4837F0CCFF03462E4AAA
:100F100013602E4A00212E4837F0C4FF03462D4AA5
:100F200013602D4A00212D4837F0BCFF03462C4AA0
:100F300013602C4A00212C4837F0B4FF03462B4A9B
:100F4000136037F089FF00BFFDE700BFAFF30080FB
:100F500000000060FB2119400000000000FC9F40E1
:100F600000ED00E088050024500100243C05002429
:100F70002006002420C600241C0000241D0000249C
:100F80001400002440C3AF010004025800000258BE
:100F900056A8010000060024F4050024F8590508AD
:100FA000E8050024105A0508EC050024285A050815
:100FB000F0050024445905080D1C0008D405002440
:100FC000685905088D3A0008D80500248C59050891
:100FD0001D1C0008DC050024B0590508791D000817
:100FE000E0050024D4590508191F0008E405002471
:100FF00080B59CB000AF07F124034C2200211846B5
:1010000052F0CDFD3B1D20220021184652F0C7FDB5
:10101000042033F0D3FB00233B602D4B9B692C4A0B
:1010200023F4404393612A4B9B6903F440433B60A4
:101030003B6800BF264B9B6903F40053B3F5005F88
:10104000F8D103237B624FF48033BB6201233B63FF
:1010500040237B630223BB640223FB6402233B65C2
:101060002C237B650123BB650223FB6502233B66C2
:101070000C237B660023BB660023FB6607F1240379
:10108000184633F0F5FB0346002B01D001F0B4F90C
:101090003F237B600323BB600023FB6008233B618D
:1010A00040237B614023BB614FF48063FB6140239D
:1010B0003B623B1D0321184633F0B4FF0346002B6F
:1010C00001D001F099F900BF7037BD4680BD00BF67
:1010D0000048025880B5AEB000AF3B46B8220021B0
:1010E000184652F05CFD4FF002424FF00003C7E992
:1010F00000230523BB605023FB6002233B610223D6
:101100007B610223BB618023FB6100233B620023E0
:101110007B622023FB6400237B653B46184634F04A
:101120004FFB0346002B01D001F066F900BFB83732
:10113000BD4680BD80B58CB000AF07F1240300220E
:101140001A605A609A603B4624220021184652F0E9
:1011500026FD364B364A1A60344B00225A60334B18
:1011600004229A60314B00221A61304B08225A61E6
:101170002E4B00221A762D4B00225A762B4B012241
:10118000DA612A4B002283F82020284B4FF4A46216
:101190009A62264B4FF48062DA62244B01221A6372
:1011A000224B0022DA63214B00221A641F4B0022DB
:1011B00083F844201D4B01229A641C482BF092FDB9
:1011C0000346002B01D001F017F906237B624FF490
:1011D0000043BB624FF44073FB6207F124031946DE
:1011E00012482DF05FFB0346002B01D001F004F9FB
:1011F000104B3B6006237B600023BB6040F2FF7313
:10120000FB6004233B6100237B61002387F82130CE
:101210003B46194605482CF0C5F90346002B01D082
:1012200001F0EAF800BF3037BD4680BD5001002410
:10123000002002400200300480B58AB000AF3B1DA0
:1012400024220021184652F0AAFC294B294A1A6090
:10125000274B00225A60264B04229A60244B00221E
:101260001A61234B04225A61214B00221A76204B2B
:1012700000225A761E4B0122DA611D4B002283F8B0
:1012800020201B4B00221A63194B0022DA63184BF3
:1012900000221A64164B002283F84420144B0122CA
:1012A0009A6413482BF01EFD0346002B01D001F079
:1012B000A3F801237B600623BB600023FB6040F2A0
:1012C000FF733B6104237B610023BB61002387F82C
:1012D00025303B1D194606482CF064F90346002BC7
:1012E00001D001F089F800BF2837BD4680BD00BF9E
:1012F000C00100240021024080B500AF0D4B0E4A12
:101300001A600C4B00221A710A4B00225A71094BC9
:1013100000225A61074B00229A61064B01221A6291
:1013200004482DF0F9FC0346002B01D001F064F8CD
:1013300000BF80BDA8020024004C025880B500AF59
:101340000B4B0C4A1A600A4B4FF440325A60084B60
:1013500001229A60064B0022DA6005482FF0A2FEB7
:101360000346002B01D001F047F800BF80BD00BF4D
:10137000CC0200240010005280B500AF1B4B1C4A69
:101380001A601A4B1B4A5A60184B00229A60174B7E
:101390000122DA60154B00221A61144B00225A61B7
:1013A000124B00229A61114B0022DA610F4B00228E
:1013B0001A620E4830F0E0FA0346002B01D001F02B
:1013C0001BF80021094831F099F90346002B01D0A0
:1013D00001F012F80021054831F0DBF90346002B3B
:1013E00001D001F009F800BF80BD00BF3403002424
:1013F000005C0040724E406080B500AF1B4B1C4A41
:101400001A601A4B1B4A5A60184B00229A60174BFD
:101410000122DA60154B00221A61144B00225A6136
:10142000124B00229A61114B0022DA610F4B00220D
:101430001A620E4830F0A0FA0346002B01D000F0EB
:10144000DBFF4FF48051094831F058F90346002B77
:1014500001D000F0D1FF0021044831F09AF9034691
:10146000002B01D000F0C8FF00BF80BD880300241E
:10147000001C0058FFC8B02080B58EB000AF3B1DE7
:1014800034220021184652F08AFB3A4B3A4A1A603D
:10149000384B00225A60374B00229A60354B0022AD
:1014A000DA60344B00221A61324B07225A61314B09
:1014B00003229A612F4B0E22DA612E4B05221A620B
:1014C0002C4B40F28E225A622A4B40F2E5129A626D
:1014D000284B4FF42572DA62264B40F2E7121A636A
:1014E000244B002283F83420224B002283F835203D
:1014F000204B002283F836201E4831F097F903462E
:10150000002B01D000F078FF00237B604FF4F073D4
:10151000BB600023FB604FF488733B6101237B6158
:10152000FF23BB610023FB614FF480633B62052313
:101530007B624FF0E043BB624FF4F073FB624FF409
:1015400088733B63002387F83430002387F83530F5
:10155000002387F836303B1D00221946054831F03C
:10156000EDFA0346002B01D000F046FF00BF3837EC
:10157000BD4680BDDC0300240010005080B588B05B
:1015800000AF3B1D00221A605A609A60DA601A614F
:101590005A61384B384A1A60364B04225A60354B30
:1015A00000229A60334B4FF08072DA60314B202278
:1015B0001A61304B02225A612E4B00229A612D4B48
:1015C0000022DA612B4B00221A622A4B02225A6255
:1015D000284B00229A62274B0022DA62254B002218
:1015E0001A63244B08225A63224B00229A63214B30
:1015F0000022DA631F4831F00DFD0346002B01D0B5
:1016000000F0FAFE01237B600123BB600123FB6035
:101610004FF001133B61194B7B613B1D41F2883256
:101620001946144832F076F90346002B01D000F039
:10163000E3FE104831F0AAFD01233B7701237B77BD
:10164000002029F07FFE07F11C031946002029F035
:10165000DBFD0346002B01D000F0CEFE002029F078
:1016600005FF0346002B01D000F0C6FE00BF203767
:10167000BD4680BD840400240050005201000001DA
:1016800080B592B000AF07F1300300221A605A60B3
:101690009A60DA601A615A6107F1200300221A6029
:1016A0005A609A60DA6007F10C0300221A605A60EF
:1016B0009A60DA601A613B1D00221A605A60484B3A
:1016C000484A1A60464B04225A60454B00229A60F1
:1016D000434B4FF08062DA60414B18221A61404B55
:1016E00004225A613E4B00229A613D4B0022DA618E
:1016F0003B4B00221A623A4B02225A62384B0022BC
:101700009A62374B4FF08052DA62354B17221A63D8
:10171000334B00225A63324B00229A63304B4FF412
:10172000C872DA632E4831F075FC0346002B01D0F5
:1017300000F062FE02233B6302237B630223BB6350
:10174000294BFB63294B3B6407F1300341F288329C
:101750001946234832F0DEF80346002B01D000F092
:101760004BFE03233B6206237B620023BB62012303
:10177000FB6207F1200341F288321946184831F024
:10178000B9FD0346002B01D000F036FE0023FB60BC
:101790004FF440537B614FF00053FB6100233B61EA
:1017A0000123BB6107F10C0341F2883219460C4852
:1017B00031F0DFFD0346002B01D000F01DFE0023B9
:1017C0007B603B1D1946064831F0D2FF0346002BD3
:1017D00001D000F011FE00BF4837BD4680BD00BFFC
:1017E000E004002400A000520200010002000001F9
:1017F00080B588B000AF07F1100300221A605A606C
:101800009A60DA603B1D00221A605A609A60204B91
:10181000204A1A601E4B4FF489725A601C4B0022FA
:101820009A601B4B0922DA60194B00221A61184B8F
:1018300000225A61164B80229A61154836F0A6FBA9
:101840000346002B01D000F0D7FD4FF480533B61DD
:1018500007F1100319460E4836F050FF0346002BDF
:1018600001D000F0C9FD20237B600023BB60002372
:10187000FB603B1D1946064837F0CCF90346002BA8
:1018800001D000F0B9FD00BF2037BD4680BD00BFCC
:101890003C0500240000014080B58CB000AF07F18A
:1018A0000C0324220021184652F079F93B4600220D
:1018B0001A605A609A60204B204A1A601E4B002220
:1018C0005A601D4B00229A601B4B1D4ADA601A4B6E
:1018D00000221A61184B00229A610323FB60002347
:1018E0003B6101237B610023BB610A23FB61002371
:1018F0003B6201237B620023BB620A23FB6207F188
:101900000C0319460C4836F09DFC0346002B01D011
:1019100000F072FD00233B600023BB603B4619468C
:10192000054837F077F90346002B01D000F064FD3D
:1019300000BF3037BD4680BD8805002400E0004070
:10194000801A060080B582B000AF0D4BD3F8D830B6
:101950000B4A43F00103C2F8D830094BD3F8D83012
:1019600003F001037B607B68002205210B202DF032
:1019700033F90B202DF04AF900BF0837BD4680BD72
:101980000044025880B58EB000AF07F12403002256
:101990001A605A609A60DA601A61884BD3F8E030B6
:1019A000864A43F00203C2F8E030844BD3F8E030BB
:1019B00003F002033B623B6A804BD3F8E0307F4A7E
:1019C00043F04003C2F8E0307C4BD3F8E03003F042
:1019D0004003FB61FB69794BD3F8E030774A43F071
:1019E0000803C2F8E030754BD3F8E03003F0080389
:1019F000BB61BB69714BD3F8E030704A43F0100310
:101A0000C2F8E0306D4BD3F8E03003F010037B6197
:101A10007B696A4BD3F8E030684A43F00103C2F8AF
:101A2000E030664BD3F8E03003F001033B613B69E3
:101A3000624BD3F8E030614A43F08003C2F8E030F3
:101A40005E4BD3F8E03003F08003FB60FB685B4B38
:101A5000D3F8E030594A43F00403C2F8E030574B62
:101A6000D3F8E03003F00403BB60BB68534BD3F8FA
:101A7000E030524A43F02003C2F8E0304F4BD3F835
:101A8000E03003F020037B607B68002244F2080111
:101A90004B482FF03DFF002241F2010149482FF051
:101AA00037FF002248F2380147482FF031FF00226B
:101AB0004FF4044145482FF02BFF00224FF47041B2
:101AC00043482FF025FF44F208037B620123BB62E9
:101AD0000023FB6200233B6307F1240319463848C7
:101AE0002FF054FC4FF480537B620123BB62002330
:101AF000FB6200233B6307F12403194631482FF0B2
:101B000045FC48F230037B620123BB620023FB6289
:101B100000233B6307F1240319462B482FF036FCC2
:101B200008237B620123BB620023FB6203233B6328
:101B300007F12403194624482FF028FC4FF40443EE
:101B40007B620123BB620023FB6200233B6307F13E
:101B5000240319461D482FF019FC4FF440437B62C3
:101B60000123BB620023FB6203233B6307F12403D1
:101B7000194617482FF00AFC4FF440537B620123AB
:101B8000BB620023FB6200233B6307F12403194679
:101B90000F482FF0FBFB01237B620123BB62002374
:101BA000FB6203233B6307F12403194605482FF02A
:101BB000EDFB00BF3837BD4680BD00BF0044025872
:101BC000001002580000025800180258000C025879
:101BD0000004025880B586B000AFF860B9607A6042
:101BE00000237B6109E0BB685A1CBA601B78184669
:101BF000FEF7A4FD7B6901337B617A697B689A42B9
:101C0000F1DB7B6818461837BD4680BD80B582B0D1
:101C100000AF7860322037F0D7F9FBE780B584B0A9
:101C200000AF7860484B00221A80484B1B78002B8D
:101C30001FD10023FB730FE0FB7BC3F1A803444AD1
:101C400052F823309AB2404B1B8813449AB23E4B51
:101C50001A80FB7B0133FB73FB7B0E2BECD93A4BD9
:101C60001B883C4AA2FB0323DB089AB2364B1A803E
:101C70001DE00023BB730EE0BB7BAB33344A52F84C
:101C800023309AB2304B1B8813449AB22E4B1A80E1
:101C9000BB7B0133BB73BB7B0E2BEDD92A4B1B885F
:101CA0002C4AA2FB0323DB089AB2274B1A80264B4F
:101CB0001A88294B1B889A4212D0284B1B68184659
:101CC00037F0EEFB0346002B06D1244B18680023A7
:101CD00000221D4937F026FB1B4B1A881E4B1A8029
:101CE0001F4B1B78012B2BD11E4B1B68184637F05E
:101CF000D7FB0346002B20D11B4B1B78502B06D162
:101D0000184B186800230022184937F00BFB164BBC
:101D10001B78282B06D1134B186800230022144986
:101D200037F000FB104B1B78142B06D10D4B1868B5
:101D3000002300220F4937F0F5FA094B00221A70F0
:101D4000642037F041F96DE720E6002418060024EE
:101D500028E600248988888822E60024E8050024F3
:101D600016060024EC0500241C00002404000024B6
:101D7000080000240C00002480B582B000AF786019
:101D8000584B1B78002B05D10122202156482FF0FB
:101D9000BFFD04E00022202153482FF0B9FD534B32
:101DA0001A78534B1B789A4214D0504B1B78002B57
:101DB00006D101224FF480514E482FF0A9FD05E0D5
:101DC00000224FF480514B482FF0A2FD474B1A7868
:101DD000474B1A70484B1A78484B1B789A421ED0D2
:101DE000464B1B78142B1AD100224FF480514448E3
:101DF0002FF08EFD01224FF4005141482FF088FD55
:101E0000404B01221A70404B01221A703F4B0122B5
:101E10001A703A4B1A78384B1A70FEF7C7FE364BD9
:101E20001A78364B1B789A421ED0344B1B78282BDD
:101E30001AD101224FF4805131482FF069FD002260
:101E40004FF400512E482FF063FD2E4B01221A70E3
:101E50002D4B01221A702D4B01221A70274B1A7834
:101E6000254B1A70FEF7A2FE234B1A78234B1B78E2
:101E70009A421ED0214B1B78502B1AD100224FF4CE
:101E800080511F482FF044FD00224FF400511C48A0
:101E90002FF03EFD1B4B01221A701B4B01221A70C2
:101EA0001A4B01221A70154B1A78134B1A70FEF751
:101EB0007DFE174B1A88174B1B889A420ED0FEF7EF
:101EC00065FC104B01221A700F4B01221A700F4B48
:101ED00001221A700F4B1A880D4B1A80642037F0BC
:101EE00073F84DE71706002400180258180600245E
:101EF00019060024000002581D0000241C000024C4
:101F000000040258160600241406002415060024B6
:101F1000220000242000002480B588B000AF786043
:101F2000A14B1B78002B40F0D481A04B1B78012BD8
:101F300040F0CF810023FB830023BB832CE0BB8BCD
:101F400003F001039BB2002B05D1BB8B002B02D009
:101F5000FB8B0133FB83BB8B954A32F8133007EEC2
:101F6000903AB8EEE77B9FED8E6B27EE066BFB8B0E
:101F7000904A9B001344D3ED007AB7EEE77A26EE41
:101F8000077BBB8BF7EEC77B8B4A9B001344C3EDEB
:101F9000007ABB8B0133BB83BB8BB3F5805FCED3A1
:101FA00001230022844985484FF020FE4FF400624F
:101FB000834981484FF0B8FE814B4FF000025A60D0
:101FC0007F4B03F5805303F6FC734FF000021A6059
:101FD0007B4B03F5805303F6F8734FF000021A6051
:101FE00000237B830EE07B8B03F580627B8B74493F
:101FF00092000A44126873499B000B441A607B8B61
:1020000001337B837B8BB3F5806FECD34FF480631C
:102010003B830EE03B8BA3F580623B8B68499200CB
:102020000A44126867499B000B441A603B8B0133DA
:102030003B833B8BB3F5006FECD30023FB82624BF9
:102040001B78002B56D10023BB824FE0BB8A5D4A30
:102050009B00134493ED007ABB8A0133594A9B00DD
:102060001344D3ED007A37EE277ABB8A0233554A00
:102070009B001344D3ED007A37EE277ABB8A0333F3
:10208000504A9B001344D3ED007A37EE277ABB8A7F
:1020900004334C4A9B001344D3ED007A37EE277A81
:1020A000BB8A0533474A9B001344D3ED007A37EED1
:1020B000277AF1EE086AC7EE267AFB8AFDEEE77A08
:1020C00017EE901A414A42F82310FB8A3F4A52F811
:1020D0002330322B04DDFB8A3C4A322142F82310A4
:1020E000FB8A0133FB82BB8A0633BB82BB8AB3F512
:1020F000006FABD3344B1B78012B46D14FF4AB733D
:102100007B823DE07B8A2F4A9B00134493ED007A4B
:102110007B8A01332B4A9B001344D3ED007A37EEC0
:10212000277A7B8A0233274A9B001344D3ED007A37
:1021300037EE277A7B8A0333224A9B001344D3ED80
:10214000007A37EE277AF1EE006AC7EE267AFB8A2C
:10215000FDEEE77A17EE901A1C4A42F82310FB8A2C
:102160001A4A52F82330322B04DDFB8A174A3221F7
:1021700042F82310FB8A0133FB827B8A04337B8283
:102180007B8A40F2AA629342BCD90F4B1B78022B88
:102190004FD140F2AB233B8246E000BFAFF300805B
:1021A0002D431CEBE2361A3F24E600241E000024D7
:1021B0002026002420C6002420460024607A05083A
:1021C0002086002420A600241A06002428E60024E5
:1021D0003B8A424A9B00134493ED007A3B8A0133C9
:1021E0003E4A9B001344D3ED007A37EE277AF0EE97
:1021F000006AC7EE267AFB8AFDEEE77A17EE901AA0
:10220000374A42F82310FB8A354A52F82330322BE2
:1022100004DDFB8A324A322142F82310FB8A013363
:10222000FB823B8A02333B823B8A40F25552934207
:10223000CED92C4B1B78032B27D140F25633FB8190
:102240001EE0FB89254A9B001344D3ED007AFB8AEC
:10225000FDEEE77A17EE901A214A42F82310FB8A26
:102260001F4A52F82330322B04DDFB8A1C4A3221EC
:1022700042F82310FB8A0133FB82FB890133FB8187
:10228000FB8940F2AB429342DBD9174A144B10460C
:10229000194640F254531A4651F0A7FD134B1B68E0
:1022A000184637F0FDF80346002B06D10F4B18688F
:1022B000002300220C4937F035F84FF400620C4936
:1022C0000C482CF0DDF90C4B01221A700B4B00224C
:1022D0001A70142036F078FE22E600BF20A60024F3
:1022E00028E600241A0600247CEB0024F0050024D4
:1022F000200600245001002424E600241E000024AF
:1023000080B584B000AF3B4600221A605A609A60E4
:10231000DA602CF089FC01233B7000237B704FF0C6
:1023200010537B6012233B7200237B720023BB722D
:102330000323FB7201233B7300237B730123BB73D5
:102340000123FB733B4618462CF0A6FC01237B704F
:102350004FF0E0437B601C233B720023FB720023A1
:10236000BB730023FB733B4618462CF095FC0223FD
:102370007B7016233B720323FB720123BB73012383
:10238000FB733B4618462CF087FC03237B704FF011
:1023900010437B601C233B720023FB720023BB7342
:1023A0000023FB733B4618462CF076FC04237B701D
:1023B00019233B720323FB720123BB733B46184670
:1023C0002CF06AFC04202CF047FC00BF1037BD46FF
:1023D00080BD000080B582B000AF78607B681B686C
:1023E000044A934201D12AF015F900BF0837BD46CF
:1023F00080BD00BF0010004080B400AF00BFBD46EC
:102400005DF8047B7047000080B584B000AF786051
:10241000184A7B681360FF21032000F0F3F9802144
:10242000102000F0EFF98021112000F0EBF980215D
:10243000122000F0E7F98021132000F0E3F9802159
:10244000142000F0DFF98021152000F0DBF9802155
:10245000162000F0D7F98021172000F0D3F980234F
:10246000FB73FB7B1946B72000F0CCF900BF103797
:10247000BD4680BDD8F0002480B58CB002AF0346C5
:102480003960FB713B681B687B623B685B683B6241
:102490003B689B68FB617B6ADA013B6AD901FB6997
:1024A00091FBF3F31344A3F50073BB613B6ADB01BB
:1024B000FA6993FBF2F2F96901FB02F29B1A7B6164
:1024C000FB693B61FB79002B01D11A2300E0222339
:1024D000FB73F87B00230193002300933B697A6927
:1024E000B96900F0B5F9A021B12000F08BF900BF67
:1024F0002837BD4680BD80B58CB002AF0346396039
:10250000FB713B681B687B623B685B683B623B68B6
:102510009B68FB617B6ADA013B6AD901FB6991FB2D
:10252000F3F31344A3F50073BB613B6ADB01FA6963
:1025300093FBF2F2F96901FB02F29B1A7B61FB69E2
:102540003B61FB79002B01D11A2300E02223FB73AE
:10255000F87B00230193002300933B697A69B969F2
:1025600000F076F900BF2837BD4680BD80B58CB03D
:1025700002AF3B600346FB710B46BB7113467B7198
:102580003B685B683B613B689B68FB603B68DB6862
:10259000BB60002387F82730FB79022B01D9012388
:1025A0008DE03B681B78002B0AD13B69072B05DDCA
:1025B0003B69082B04D1FB68002B01D102237EE08C
:1025C0003B69042B09D100233B620023FB610123FB
:1025D000BB61032387F8273016E03B69DA01FB680B
:1025E000D901BB6891FBF3F31344A3F500733B627D
:1025F000FB68DB01BA6893FBF2F2B96801FB02F2F7
:102600009B1AFB61BB68BB610023FB750023BB7594
:1026100000237B75FB79022B14D0022B19DC002BD5
:1026200002D0012B07D014E02A23FB75A523BB752C
:1026300010237B750DE03223FB75A623BB75112398
:102640007B7506E03A23FB75A723BB7512237B75C8
:1026500000BF7B7943F00C033B75BB79012B03D1A1
:102660003B7D43F020033B753B681B78002B09D072
:10267000FB68002B02D03B69042B03D13B7D43F068
:1026800040033B753A7D7B7D1146184600F0BAF851
:102690003B681B7CF87D019397F827300093BB695A
:1026A000FA69396A00F0D4F897F8303003F07F0304
:1026B000DAB2BB7D1146184600F0A4F80023184694
:1026C0002837BD4680BD000080B487B000AFF860F9
:1026D000B9607A60384B7B61FB68384A934202D21A
:1026E000364BFB6005E0FB68354A934201D9344B19
:1026F000FB60FB68334AA2FB03239B0C324A12683F
:1027000002FB03F3314AA2FB03235B09FA68D31AE5
:10271000FB607B6800221A707B6800221A74FB68D9
:102720002B4A934203D87B687F225A6012E0FB68F1
:10273000284A934207D2284AFB68B2FBF3F31A46B1
:102740007B685A6006E0254AFB68B2FBF3F31A4641
:102750007B685A607B6800229A607B680122DA609D
:102760007B685B681A46FB6802FB03F33B613A69CE
:102770007B6992FBF3F2BB681A603B697A6993FB51
:10278000F2F2796901FB02F29B1A154A82FB0312ED
:102790009210DB17D21ABB685A607B69104A82FB21
:1027A00003129210DB17D21ABB689A6000BF1C3765
:1027B000BD465DF8047B704740787D01C05C150024
:1027C00000E1F50583DE1B43D8F000241F85EB51A3
:1027D0009FC44A0000127A0040BE402500E9A4359B
:1027E000ABAAAA2A80B582B000AF0346FB71FB7981
:1027F000DB43DBB21946032000F004F800BF0837C2
:10280000BD4680BD80B586B004AF03460A46FB7165
:102810001346BB7100BF25230322C0210B482FF0B4
:10282000A5FB0346002BF6D1FB799AB22523029330
:1028300001230193BB1D00930123C02103482FF006
:1028400067F900BF0837BD4680BD00BF34030024D0
:1028500080B588B004AFB9607A603B600346FB7313
:102860003B681B12DAB2294B1A703B68DAB2274B6D
:102870005A70BB681B145BB203F003035AB23B7E71
:102880009B005BB203F00C035BB213435AB23B7F75
:102890001B015BB203F070035BB213435BB2DAB2AD
:1028A0001A4B9A70BB681B12DAB2184BDA70BB680D
:1028B000DAB2164B1A713B681B135BB223F00F039D
:1028C0005AB27B681B145BB203F00F035BB2134375
:1028D0005BB2DAB20D4B5A717B681B12DAB20B4B4A
:1028E0009A717B68DAB2094BDA71FB7B9AB22523C5
:1028F000029308230193054B00930123C021044850
:102900002FF006F900BF1037BD4680BDD0F000247F
:102910003403002480B582B000AF184BD3F8F430F4
:10292000164A43F00203C2F8F430144BD3F8F430E3
:1029300003F002037B607B6800220F216FF001002F
:102940002CF04AF90D4BD3F8F4300C4A43F4004311
:10295000C2F8F430094BD3F8F43003F400433B6081
:102960003B68002029F09AFE29F0C0FE002029F0E3
:10297000A9FE00BF0837BD4680BD00BF0044025815
:1029800080B5B4B000AF786007F11803B822002119
:10299000184651F004F97B681B68674A934278D166
:1029A0004FF400224FF00003C7E906234FF4003331
:1029B000C7F8B83007F11803184632F001FF034694
:1029C000002B01D0FFF718FD5C4B1B6801335B4AFD
:1029D00013605A4B1B68012B0ED1594BD3F8D830DA
:1029E000574A43F02003C2F8D830554BD3F8D830BB
:1029F00003F020037B617B69514BD3F8E030504AF0
:102A000043F00103C2F8E0304D4BD3F8E03003F05F
:102A100001033B613B694FF000714FF0007029F0FA
:102A200089FE484B484A1A60464B09225A60454B7A
:102A300000229A60434B0022DA60424B4FF48062DE
:102A40001A61404B4FF480525A613E4B4FF4804222
:102A50009A613C4B0022DA613A4B00221A62394BF0
:102A600000225A6237482CF049FA0346002B01D065
:102A7000FFF7C2FC7B68334A9A65324A7B689363EE
:102A80000022052112202CF0A7F812202CF0BEF80D
:102A90004DE07B681B682D4A934248D14FF40022D9
:102AA0004FF00003C7E906234FF40033C7F8B830EE
:102AB00007F11803184632F083FE0346002B01D0BD
:102AC000FFF79AFC1D4B1B6801331C4A13601B4B1C
:102AD0001B68012B0ED11A4BD3F8D830184A43F09B
:102AE0002003C2F8D830164BD3F8D83003F02003B7
:102AF000FB60FB68124BD3F8E030114A43F001034E
:102B0000C2F8E0300E4BD3F8E03003F00103BB60B5
:102B1000BB684FF080714FF0807029F00BFE0022EF
:102B2000052112202CF058F812202CF06FF800BF6D
:102B3000D037BD4680BD00BF00200240DCF000243D
:102B400000440258300200241000024000210240DC
:102B500080B485B000AF78607B681B680B4A9342F5
:102B60000ED10B4BD3F8E030094A43F40023C2F8EE
:102B7000E030074BD3F8E03003F40023FB60FB6840
:102B800000BF1437BD465DF8047B7047004C025807
:102B90000044025880B584B000AF78607B681B6841
:102BA0000E4A934216D10E4BD3F8D4300C4A43F060
:102BB0001003C2F8D4300A4BD3F8D43003F010031A
:102BC000FB60FB68002205215A202CF005F85A20F2
:102BD0002CF01CF800BF1037BD4680BD001000521D
:102BE0000044025880B5BCB000AF786007F1DC0348
:102BF00000221A605A609A60DA601A6107F12003B5
:102C0000B8220021184650F0CAFF7B681B685F4A53
:102C100093426BD14FF008024FF00003C7E908233D
:102C20000023C7F8A03007F12003184632F0C8FD92
:102C30000346002B01D0FFF7DFFB554BD3F8E03004
:102C4000534A43F00403C2F8E030514BD3F8E0306C
:102C500003F00403FB61FB694D4BD3F8E0304C4AB1
:102C600043F08003C2F8E030494BD3F8E03003F082
:102C70008003BB61BB694FF40073C7F8DC301223DB
:102C8000C7F8E0300023C7F8E4300023C7F8E83085
:102C90000423C7F8EC3007F1DC0319463D482EF059
:102CA00075FB8023C7F8DC301223C7F8E03000231F
:102CB000C7F8E4300023C7F8E8300423C7F8EC3045
:102CC00007F1DC03194634482EF060FB304BD3F893
:102CD000E8302F4A43F40003C2F8E8302C4BD3F815
:102CE000E83003F400037B617B694BE07B681B6881
:102CF0002A4A934246D14FF010024FF00003C7E931
:102D000008230023C7F8B43007F12003184632F037
:102D100057FD0346002B01D0FFF76EFB1C4BD3F889
:102D2000E0301B4A43F02003C2F8E030184BD3F8E0
:102D3000E03003F020033B613B694FF44043C7F8A8
:102D4000DC301223C7F8E0300023C7F8E43000235A
:102D5000C7F8E8300423C7F8EC3007F1DC03194664
:102D60000F482EF013FB0A4BD3F8F430084A43F017
:102D70008003C2F8F430064BD3F8F43003F080033C
:102D8000FB60FB6800BFF037BD4680BD005C0040C3
:102D90000044025800080258001C0258001C005849
:102DA0000014025880B582B000AF78607B681B6861
:102DB000174A934211D1174BD3F8E830154A23F440
:102DC0000003C2F8E8304FF4007113482EF086FC7F
:102DD000802112482EF082FC16E07B681B68104AA6
:102DE000934211D10B4BD3F8F4300A4A23F08003FD
:102DF000C2F8F4304FF400410A482EF06FFC4FF453
:102E0000804108482EF06AFC00BF0837BD4680BDEF
:102E1000005C00400044025800080258001C0258A0
:102E2000001C00580014025880B5BEB000AF786096
:102E300007F1E40300221A605A609A60DA601A61AE
:102E400007F12803B8220021184650F0A8FE7B683D
:102E50001B68DE4A934240F0CE814FF000524FF0A3
:102E60000003C7E90A2319233B654FF490737B6580
:102E70000223BB650223FB651E233B6600237B66A2
:102E80004FF40073BB660023FB6607F12803184666
:102E900032F096FC0346002B01D0FFF7ADFACC4B85
:102EA000D3F8E430CA4A43F00803C2F8E430C84B10
:102EB000D3F8E43003F008037B627B6AC44BD3F899
:102EC000E030C34A43F00203C2F8E030C04BD3F80D
:102ED000E03003F002033B623B6ABD4BD3F8E030C5
:102EE000BB4A43F00803C2F8E030B94BD3F8E030F6
:102EF00003F00803FB61FB69B54BD3F8E030B44A3B
:102F000043F00103C2F8E030B14BD3F8E03003F0F6
:102F10000103BB61BB69AE4BD3F8E030AC4A43F070
:102F20001003C2F8E030AA4BD3F8E03003F01003EE
:102F30007B617B69A64BD3F8E030A54A43F04003A0
:102F4000C2F8E030A24BD3F8E03003F040033B611D
:102F50003B699F4BD3F8E0309D4A43F08003C2F8B1
:102F6000E0309B4BD3F8E03003F08003FB60FB685C
:102F7000974BD3F8E030964A43F00403C2F8E030B0
:102F8000934BD3F8E03003F00403BB60BB684FF40D
:102F90008073C7F8E4300223C7F8E8300023C7F88D
:102FA000EC300023C7F8F0300E23C7F8F43007F1F7
:102FB000E403194687482EF0E9F90923C7F8E430FD
:102FC0000223C7F8E8300023C7F8EC300023C7F825
:102FD000F0300E23C7F8F43007F1E40319467E48B9
:102FE0002EF0D4F940F20323C7F8E4300223C7F8E7
:102FF000E8300023C7F8EC300323C7F8F0300E2385
:10300000C7F8F43007F1E403194672482EF0BEF910
:103010004FF48073C7F8E4300223C7F8E830002388
:10302000C7F8EC300323C7F8F0300D23C7F8F430AD
:1030300007F1E403194669482EF0A8F94BF602039C
:10304000C7F8E4300223C7F8E8300023C7F8EC30B3
:103050000323C7F8F0300E23C7F8F43007F1E40378
:1030600019465F482EF092F94FF48043C7F8E430D8
:103070000223C7F8E8300023C7F8EC300323C7F871
:10308000F0300E23C7F8F43007F1E4031946554831
:103090002EF07CF94023C7F8E4300223C7F8E8306B
:1030A0000023C7F8EC300323C7F8F0300E23C7F82D
:1030B000F43007F1E403194647482EF067F948F267
:1030C0000403C7F8E4300223C7F8E8300023C7F848
:1030D000EC300023C7F8F0300E23C7F8F43007F1C6
:1030E000E403194640482EF051F9C023C7F8E430F4
:1030F0000223C7F8E8300023C7F8EC300023C7F8F4
:10310000F0300E23C7F8F43007F1E40319463748CE
:103110002EF03CF98023C7F8E4300223C7F8E830EA
:103120000023C7F8EC300023C7F8F0300E23C7F8AF
:10313000F43007F1E40319462A482EF027F940F647
:103140000873C7F8E4300223C7F8E8300023C7F853
:10315000EC300323C7F8F0300E23C7F8F43007F142
:10316000E403194620482EF011F95823C7F8E4303B
:103170000223C7F8E8300023C7F8EC300323C7F870
:10318000F0300E23C7F8F43007F1E4031946134872
:103190002EF0FCF81023C7F8E4300223C7F8E8301B
:1031A0000023C7F8EC300323C7F8F0300923C7F831
:1031B000F43007F1E40319460B482EF0E7F800223B
:1031C000052158202BF008FD12E000BF0010005030
:1031D0000044025800040258000C02580000025833
:1031E0000010025800180258001C0258000802582B
:1031F00058202BF00BFD00BFF837BD4680BD00BF47
:1032000080B592B000AF786007F1340300221A60F5
:103210005A609A60DA601A617B681B68B54A93420B
:1032200040F0E680B44B1B680133B34A1360B24BE5
:103230001B68012B0ED1B14BD3F8D430AF4A43F405
:103240000013C2F8D430AD4BD3F8D43003F40013DC
:103250003B633B6BA94BD3F8D430A84A43F480437B
:10326000C2F8D430A54BD3F8D43003F48043FB62CA
:10327000FB6AA24BD3F8E030A04A43F04003C2F807
:10328000E0309E4BD3F8E03003F04003BB62BB6AF2
:103290009A4BD3F8E030994A43F00803C2F8E03083
:1032A000964BD3F8E03003F008037B627B6A934BC4
:1032B000D3F8E030914A43F01003C2F8E0308F4B6E
:1032C000D3F8E03003F010033B623B6A8B4BD3F83A
:1032D000E0308A4A43F02003C2F8E030874BD3F84D
:1032E000E03003F02003FB61FB69844BD3F8E0304E
:1032F000824A43F00203C2F8E030804BD3F8E0305A
:1033000003F00203BB61BB694FF400737B630223CC
:10331000BB630023FB6303233B6409237B6407F146
:103320003403194676482EF031F8B0237B6302232C
:10333000BB630023FB6303233B640A237B6407F125
:10334000340319466F482EF021F804237B630223CF
:10335000BB630023FB6303233B6409237B6407F106
:103360003403194668482EF011F840237B6302238A
:10337000BB630023FB6303233B640A237B6407F1E5
:10338000340319465E482EF001F84FF460537B6316
:103390000223BB630023FB6303233B6409237B6499
:1033A00007F13403194657482DF0F0FF4FF48063BE
:1033B0007B630223BB630023FB6303233B6409237A
:1033C0007B6407F13403194650482DF0DFFF0423D6
:1033D0007B630223BB630023FB6303233B640A2359
:1033E0007B6407F13403194649482DF0CFFF7CE098
:1033F0007B681B68474A934277D13F4B1B68013378
:103400003D4A13603C4B1B68012B0ED13B4BD3F85C
:10341000D4303A4A43F40013C2F8D430374BD3F8CF
:10342000D43003F400137B617B69344BD3F8D43080
:10343000324A43F40023C2F8D430304BD3F8D430AE
:1034400003F400233B613B692C4BD3F8E0302B4A5B
:1034500043F04003C2F8E030284BD3F8E03003F0EB
:103460004003FB60FB68254BD3F8E030234A43F070
:103470002003C2F8E030214BD3F8E03003F0200302
:10348000BB60BB6840F603037B630223BB6300237E
:10349000FB6303233B6409237B6407F13403194670
:1034A00017482DF073FF4FF4A0537B630223BB63D7
:1034B0000023FB6303233B6403237B6407F1340392
:1034C00019460F482DF062FF41F21F037B63022370
:1034D000BB630023FB6303233B6409237B6407F185
:1034E0003403194609482DF051FF00BF4837BD4647
:1034F00080BD00BF00500052E0F00024004402589C
:1035000000180258000C025800100258001402580B
:103510000004025800A0005280B582B000AF78606D
:103520007B681B682F4A934230D12F4B1B68013BAD
:103530002D4A13602C4B1B68002B07D12B4BD3F863
:10354000D4302A4A23F40013C2F8D430274BD3F8DE
:10355000D430264A23F48043C2F8D4304FF410719B
:1035600023482EF0BBF843F6B00122482EF0B6F8FF
:10357000042121482EF0B2F84FF480611F482EF04C
:10358000ADF804211E482EF0A9F827E07B681B68DF
:103590001C4A934222D1144B1B68013B124A136010
:1035A000114B1B68002B07D1104BD3F8D4300F4AB6
:1035B00023F40013C2F8D4300C4BD3F8D4300B4AA8
:1035C00023F40023C2F8D43041F6034108482EF01A
:1035D00085F841F21F0109482EF080F800BF083736
:1035E000BD4680BD00500052E0F000240044025867
:1035F00000180258000C025800100258001402581B
:103600000004025800A0005280B485B000AF78607A
:103610007B681B680B4A93420ED10B4BD3F8F030FA
:10362000094A43F00103C2F8F030074BD3F8F030F9
:1036300003F00103FB60FB6800BF1437BD465DF873
:10364000047B7047000001400044025880B58AB0F6
:1036500000AF786007F1140300221A605A609A6084
:10366000DA601A617B681B682E4A934255D12E4B53
:10367000D3F8EC302C4A43F08073C2F8EC302A4B7C
:10368000D3F8EC3003F080733B613B69264BD3F8F1
:10369000E030254A43F04003C2F8E030224BD3F833
:1036A000E03003F04003FB60FB681F4BD3F8E030D1
:1036B0001D4A43F02003C2F8E0301B4BD3F8E03042
:1036C00003F02003BB60BB684FF400537B6102230F
:1036D000BB610023FB6102233B620D237B6207F188
:1036E0001403194611482DF051FE40237B6102233B
:1036F000BB610023FB6100233B620D237B6207F16A
:10370000140319460A482DF041FE00220521A1208C
:103710002BF062FAA1202BF079FA00BF2837BD46C2
:1037200080BD00BF00E0004000440258001802586D
:103730000014025880B590B000AF78607B680F2B02
:1037400027D80022796836202BF046FA36202BF055
:103750005DFA294A7B681360284BD3F8E830274A82
:1037600043F01003C2F8E830244BD3F8E83003F0FC
:103770001003FB60FB6807F1100207F11403114608
:10378000184631F0DBFFBB6ABB63BB6B002B06D175
:1037900001E001232BE031F0A5FFF86304E031F0F4
:1037A000A1FF03465B00FB63FB6B154AA2FB0323EF
:1037B0009B0C013B7B63134B134A1A60114B40F285
:1037C000E732DA600F4A7B6B53600E4B00221A61BE
:1037D0000C4B00229A600B4834F0D8FB0346002BB8
:1037E00004D1084834F0A8FC034600E00123184641
:1037F0004037BD4680BD00BF680000240044025829
:1038000083DE1B43E4F000240010004080B400AFCE
:1038100000BFBD465DF8047B704780B400AF00BFB9
:10382000FDE780B400AF00BFFDE780B400AF00BF8C
:10383000FDE780B400AF00BFFDE780B400AF00BF7C
:10384000BD465DF8047B704780B500AF02482CF0A0
:1038500017F900BF80BD00BF3002002480B500AF63
:10386000034829F047FC034829F044FC00BF80BD11
:1038700050010024C001002480B500AF024834F09C
:1038800035FE00BF80BD00BFE4F0002480B500AF6E
:1038900002482FF09BF800BF80BD00BFDC0300246E
:1038A00080B500AF02482DF061FC00BF80BD00BFB5
:1038B000CC02002480B500AF024834F017FE00BFF0
:1038C00080BD00BF8805002480B400AF01231846E6
:1038D000BD465DF8047B704780B582B000AF78606C
:1038E000396050F055FA034616221A604FF0FF3344
:1038F00018460837BD4680BD80B582B000AF7860FD
:103900004FF0FF317868FFF7E7FF00BFFDE780B5B4
:1039100086B000AFF860B9607A6000237B610AE08E
:10392000AFF300800146BB685A1CBA60CAB21A7075
:103930007B6901337B617A697B689A42F0DB7B6843
:1039400018461837BD4680BD80B483B000AF78609C
:103950004FF0FF3318460C37BD465DF8047B7047C7
:1039600080B483B000AF786039603B684FF4005298
:103970005A60002318460C37BD465DF8047B70473B
:1039800080B483B000AF7860012318460C37BD4681
:103990005DF8047B704780B485B000AFF860B96013
:1039A0007A60002318461437BD465DF8047B7047E3
:1039B00080B586B000AF7860144A154BD31A7B618E
:1039C0007B693B61134B1B68002B02D1114B124AE0
:1039D0001A60104B1A687B6813443A699A4207D2FE
:1039E00050F0D6F903460C221A604FF0FF3309E07D
:1039F000084B1B68FB60074B1A687B681344054A39
:103A00001360FB6818461837BD4680BD00000524CA
:103A10000010000030F1002420BA0324DFF834D075
:103A200028F040FD002103E00B4B5B58435004316C
:103A30000A480B4B42189A42F6D30A4A02E0002386
:103A400042F8043B084B9A42F9D350F0A7F9FDF72E
:103A500033F9704700000524B8FA05080000002477
:103A600034010024340100241CBA0324FEE780B48E
:103A700000AF00BFBD465DF8047B704780B500AF66
:103A800002F012F801F0DEFF00BF80BD80B582B009
:103A900000AF786002F010F800BF0837BD4680BD67
:103AA00080B483B000AF7860044A7B681A607B689A
:103AB00018460C37BD465DF8047B7047705A050800
:103AC00080B582B000AF78607868FFF7E9FF0C211D
:103AD00078684EF014FD7B6818460837BD4680BDF7
:103AE00080B584B000AF78600B46FB70FB78002B8C
:103AF00011D07B681B6810331B68786898470246B2
:103B00007B689B68D31AFB607B685A68FB681A4421
:103B10007B685A6008E07B681B6810331B68786814
:103B2000984702467B689A6000BF1037BD4680BD4B
:103B300080B483B000AF78607B685B6818460C3750
:103B4000BD465DF8047B704780B483B000AF7860F9
:103B500039607B683A685A6000BF0C37BD465DF833
:103B6000047B704780B483B000AF78600B4B1B6858
:103B70000A4A43F080731360094B1A680849094BDD
:103B800013430B60084B1B68074A43F001031360A3
:103B900000BF0C37BD465DF8047B7047FCED00E0CC
:103BA000B01F00E055CEACC5001000E080B485B079
:103BB00000AFF860B9607A603B607A68BB68D21A7F
:103BC0003B685B081A443B68B2FBF3F318461437B2
:103BD000BD465DF8047B704780B483B000AF786069
:103BE000034B1B6818460C37BD465DF8047B7047D5
:103BF000041000E080B584B000AF78600B46FB7025
:103C0000FB78002B11D07B681B6810331B68786829
:103C1000984702467B689B68D31AFB607B685A68AA
:103C2000FB681A447B685A6008E07B681B681033A5
:103C30001B687868984702467B689A6000BF103717
:103C4000BD4680BD80B582B000AF7860054A7B6814
:103C50001A607B681846FFF723FF7B681846083711
:103C6000BD4680BD485A050880B582B000AF786077
:103C70007868FFF7E7FF0C2178684EF040FC7B681E
:103C800018460837BD4680BD80B483B000AF786069
:103C9000044A7B681A607B6818460C37BD465DF89D
:103CA000047B7047B05A050880B582B000AF7860D9
:103CB0007868FFF7E9FF042178684EF020FC7B6804
:103CC00018460837BD4680BD80B586B000AF786025
:103CD00008233B6100237B61074B1B88BB60074BBC
:103CE0001B88FB6007F108031946002028F062F9E1
:103CF00000BF1837BD4680BDFEAD032400AE0324CF
:103D000080B588B000AFF860B9607A6007F1100341
:103D100000221A605A609A6007F1100319460020C9
:103D200028F004FA0346002B14BF01230023DBB262
:103D3000002B0BD04FF0500383F31188BFF36F8F2C
:103D4000BFF34F8FFB6100BF00BFFDE73B69002B56
:103D500009D07B691A46BB681A60BB691A467B6842
:103D60001A60012300E0002318462037BD4680BDBD
:103D700080B582B000AF7860054A7B681A607B68C6
:103D80001846FFF781FF7B6818460837BD4680BD9F
:103D9000985A050880B582B000AF78607868FFF760
:103DA000E7FF042178684EF0AAFB7B6818460837C5
:103DB000BD4680BD80B582B000AF00237B6015E0BA
:103DC0007B68DBB2184600F00BF90346002B0AD0E3
:103DD0000A4A7B6852F82330012B04D0074A7B68DB
:103DE000012142F823107B6801337B607B68042B40
:103DF000E6DD00BF00BF0837BD4680BD34F10024BA
:103E000080B582B000AF0346FB71FB79032B49D824
:103E100001A252F823F000BF293E0008473E0008E7
:103E2000653E0008853E0008FB79204A52F82330A1
:103E3000002B0CBF01230023DBB21A4601211C48D2
:103E40002DF066FD2EE0FB79184A52F82330002B46
:103E50000CBF01230023DBB21A46082115482DF0C0
:103E600057FD1FE0FB79114A52F82330002B0CBF9D
:103E700001230023DBB21A464FF480410E482DF097
:103E800047FD0FE0FB79094A52F82330002B0CBFA5
:103E900001230023DBB21A464FF4004106482DF0FF
:103EA00037FD00BF00BF0837BD4680BD34F1002498
:103EB00000000258001802580004025880B582B071
:103EC00000AF0346FB71FB79032B49D801A252F8DE
:103ED00023F000BFE53E0008033F0008213F000833
:103EE000413F0008FB79204A52F82330002B01D0D3
:103EF000012300E000231A4601211C482DF008FD93
:103F00002EE0FB79184A52F82330002B01D0012310
:103F100000E000231A46082115482DF0F9FC1FE0A7
:103F2000FB79114A52F82330002B01D0012300E025
:103F300000231A464FF480410E482DF0E9FC0FE0B3
:103F4000FB79094A52F82330002B01D0012300E00D
:103F500000231A464FF4004106482DF0D9FC00BF5B
:103F600000BF0837BD4680BD34F100240000025870
:103F7000001802580004025880B582B000AF034612
:103F8000FB71FB79032B21D801A252F823F000BF6B
:103F9000A13F0008AB3F0008B53F0008C13F000843
:103FA00001210C482DF0CDFC10E008210A482DF02D
:103FB000C8FC0BE04FF4804108482DF0C2FC05E03E
:103FC0004FF4004105482DF0BCFC00BF00BF08378E
:103FD000BD4680BD00000258001802580004025877
:103FE00080B584B000AF0346FB710023FB73FB79FF
:103FF000032B29D801A252F823F000BF0D4000087E
:104000001B400008294000083940000801211348DE
:104010002DF066FC0346FB7316E0082110482DF0D6
:104020005FFC0346FB730FE04FF480410D482DF019
:1040300057FC0346FB7307E04FF4004109482DF09D
:104040004FFC0346FB7300BFFB7B012B0CBF01231E
:104050000023DBB218461037BD4680BD0000025871
:10406000001802580004025880B483B000AF786092
:10407000044A7B681A607B6818460C37BD465DF8B9
:10408000047B70477C6B050880B582B000AF786018
:104090007868FFF7E9FF7C2178684EF030FA7B689A
:1040A00018460837BD4680BD80B400AF034B1B687F
:1040B0001846BD465DF8047B704700BF04AE03247C
:1040C00080B483B000AF78600B46FB707B68FA78F1
:1040D00083F878207B68012283F8792000BF0C37B1
:1040E000BD465DF8047B704780B582B000AF786054
:1040F0000B467B8013463B800C4B1B887A889A4288
:1041000004D30B4B1B883A889A4205D2094B0A4AC2
:104110009E210A484FF03CFB094A7B881380094ADC
:104120003B88138000BF0837BD4680BDF8AD03242F
:10413000FAAD03240449050868490508AC49050897
:10414000FEAD032400AE032480B582B000AF7860DA
:104150007B6893F87A30002B09D07B685A687B68BB
:104160005B681B681B6810469847034600E0002305
:1041700018460837BD4680BD80B582B000AF786074
:10418000786839F04BFE7B681B68AC331B68786835
:10419000984700BF0837BD4680BD80B483B000AFEC
:1041A00078603960002318460C37BD465DF8047B03
:1041B0007047000080B584B000AFF860B9607A60E5
:1041C0003B60BB68002B06D10F4B104A40F2D22156
:1041D0000F484FF0DDFAFB68BA68DA63FB687A686B
:1041E0001A647B68002B14BF01230023DAB2094B49
:1041F0001A70FB681B688C331B683968F86898472D
:1042000000BF1037BD4680BDF44905082C4A05089B
:10421000AC49050802AE032480B483B000AF7860D7
:1042200039607B683A685A643B68002B14BF0123ED
:104230000023DAB2034B1A7000BF0C37BD465DF89D
:10424000047B704703AE032480B483B000AF786072
:1042500039607B683A681A6100BF0C37BD465DF86B
:10426000047B704780B483B000AF78600B46FB706E
:104270007B68FA7883F8702000BF0C37BD465DF884
:10428000047B704780B483B000AF78600023184689
:104290000C37BD465DF8047B704780B582B000AF37
:1042A00078600B467B807B689B6B002B04D07B681F
:1042B0009B6B7A881046984700BF0837BD4680BD83
:1042C00080B483B000AF78604FF6FF7318460C37A8
:1042D000BD465DF8047B704780B582B000AF786062
:1042E0007B685A687B685B681B6818331B681046DC
:1042F0009847034618460837BD4680BD80B485B050
:1043000000AF78607B6893F878207B6893F834304E
:104310009A4211D0144B1B78002B1ED1134B1B88D3
:10432000BB81134B1A88114B1A80114ABB89138029
:104330000D4B01221A7010E00B4B1B78002B0CD098
:104340000A4B1B88FB810A4B1A88084B1A80084AC3
:10435000FB891380044B00221A7000BF1437BD463E
:104360005DF8047B704700BFFCAD0324FAAD032465
:10437000F8AD032480B582B000AF78607B68184642
:1043800038F0AAFF00BF0837BD4680BD80B582B0B7
:1043900000AF7860054A7B681A607B681846FFF7B3
:1043A00063FE7B6818460837BD4680BD9C5F0508E4
:1043B00080B582B000AF78607868FFF7E7FF7C21B6
:1043C00078684EF09CF87B6818460837BD4680BD7B
:1043D00080B582B000AF78607B681846FFF7CAFFEF
:1043E00000BF0837BD4680BD80B582B000AF7860A1
:1043F0007B68184602F0B0FB7A687B681B688C33D8
:104400001B680C49104698477B687C331846FFF7B9
:10441000A9FB7A687B687C3319461046FFF714FFC6
:104420007B6801211846FFF71DFF00BF0837BD4616
:1044300080BD00BF0000007080B582B000AF786022
:104440007B681B6880331B68786898477B681B68AB
:1044500078331B687868984700F074F97A687B684D
:104460001B6870331B681046984701224FF4806127
:1044700009482DF04DFA01224FF4004107482DF074
:1044800047FA00F05FF97A687B681B6870331B6835
:104490001046984700BFF4E7000C02580018025875
:1044A00080B582B000AF78607B68184602F0ECFB04
:1044B000034618460837BD4680BD80B582B000AFC0
:1044C000786039607B683968184602F0EBFB00BF02
:1044D0000837BD4680BD000080B586B000AF78606B
:1044E00039607B683968184602F0F2FB1F4B0022E6
:1044F000C3F88420BFF34F8F00BF1C4BD3F880302C
:104500007B617B695B0BC3F30E033B617B69DB085B
:10451000C3F30903FB603B695A0143F6E0731340A0
:10452000FA68920711491343C1F87432FB685A1EA6
:10453000FA60002B14BF01230023DBB2002BEAD169
:104540003B695A1E3A61002B14BF01230023DBB2E2
:10455000002BDBD1BFF34F8F00BFBFF36F8F00BFC6
:1045600000BF00BF1837BD4680BD00BF00ED00E0B2
:1045700080B582B000AF78607B68184602F010FB0F
:1045800000BF0837BD4680BD80B582B000AF7860FF
:104590007B68184602F014FB00BF0837BD4680BD9B
:1045A00080B582B000AF78607B68184602F016FBD9
:1045B00000BF0837BD4680BD80B582B000AF7860CF
:1045C0007B68184602F018FB00BF0837BD4680BD67
:1045D00080B582B000AF78607B68002B07D0FFF712
:1045E00063FD03460121184639F032FC06E0FFF76F
:1045F0005BFD03460021184639F02AFC01231846CA
:104600000837BD4680BD000080B582B000AF78603D
:10461000084A7B681A607B687C331846FFF712FBF8
:104620007B681846FFF7B2FE7B6818460837BD4620
:1046300080BD00BFC85A050880B582B000AF786061
:104640007868FFF7E1FF882178684DF058FF7B68B4
:1046500018460837BD4680BD80B500AF0022012155
:10466000012034F0CCFC03460F4A13600E4B1B684C
:10467000002B05D10D4B0E4A28210E484FF088F82B
:1046800000220421012034F0D9FD03460A4A1360B8
:10469000094B1B68002B05D1084B054A2C21054806
:1046A0004FF076F800BF80BD44F100247C4A050835
:1046B000C84A0508F84A050848F10024504B050887
:1046C00080B500AF044B1B684FF0FF31184634F043
:1046D0001FFD00BF80BD00BF44F1002480B500AFC6
:1046E000034B1B68184634F065FD00BF80BD00BF5A
:1046F00044F1002480B500AF034B1B68002118462D
:1047000034F006FD00BF80BD44F1002480B500AF49
:10471000034B1B68184634F04DFD00BF80BD00BF41
:1047200044F1002480B500AF044B18680023002238
:10473000034934F0F7FD00BF80BD00BF48F10024FD
:104740002400002480B582B000AF094B1868391DE1
:104750000023002234F046FE054B1868391D4FF047
:10476000FF33002234F03EFE00BF0837BD4680BD57
:1047700048F1002480B483B000AF0346FB80B7F952
:104780000630002B0BDBFB8803F01F020749B7F94B
:1047900006305B09012000FA02F241F8232000BF35
:1047A0000C37BD465DF8047B704700BF00E100E0B8
:1047B00080B483B000AF0346FB80B7F90630002B0E
:1047C00012DBFB8803F01F020A49B7F906305B09C8
:1047D000012000FA02F2203341F82320BFF34F8F6B
:1047E00000BFBFF36F8F00BF00BF0C37BD465DF841
:1047F000047B704700E100E080B483B000AF7860D4
:104800007B6800221A607B6818460C37BD465DF84D
:10481000047B704780B483B000AF78607B681B680E
:1048200018460C37BD465DF8047B704780B483B0F2
:1048300000AF7860044A7B681A607B6818460C37C2
:10484000BD465DF8047B7047F05B050880B582B01B
:1048500000AF78607868FFF7E9FF042178684DF0D1
:104860004EFE7B6818460837BD4680BD80B582B0D5
:1048700000AF78607B681B6844331B687868984792
:1048800000BF0837BD4680BD80B483B000AF7860FC
:10489000044A7B681A607B6818460C37BD465DF891
:1048A000047B7047546C050880B582B000AF786017
:1048B0007868FFF7E9FF0C2178684DF020FE7B68EF
:1048C00018460837BD4680BD80B483B000AF78601D
:1048D0003960094A7B681A607B683A685A607B686D
:1048E00000221A727B6800225A727B6818460C37C5
:1048F000BD465DF8047B7047546C050880B483B0F6
:1049000000AF7860012318460C37BD465DF8047B84
:10491000704780B582B000AF78607A687B681B68AA
:1049200028331B681046984700BF0837BD4680BD36
:1049300080B582B000AF78607B685A687B685B683E
:104940001B6814331B681046984700BF0837BD46E4
:1049500080BD80B582B000AF7860FFF7A5FB03464D
:104960001846FFF7E5FF00BF0837BD4680BD80B59C
:1049700082B000AF78607B680C331846FFF73CFFCD
:104980007B6818460837BD4680BD0000B0B582B0D0
:1049900000AF78607A687B680C3319461046FFF7E1
:1049A00093FF0E4A7B681A607B6803F10C007B68FA
:1049B00020336022194639F09DFB7B6820335F2449
:1049C0001D4604E02846FFF7D2FF013C2435002CA9
:1049D000F8DA7B6818460837BD46B0BDA05B05080D
:1049E00080B582B000AF7860094A7B681A605A20AF
:1049F000FFF7DEFE7B680C33184600F017FB7B6880
:104A00001846FFF741FF7B6818460837BD4680BD52
:104A1000A05B050880B582B000AF78607868FFF7CA
:104A2000DFFF4FF45A6178684DF069FD7B681846E6
:104A30000837BD4680BD000080B584B000AF786007
:104A4000124BD3F8D430114A43F01003C2F8D430DB
:104A50000E4BD3F8D43003F01003FB60FB680B4B14
:104A6000DB6F0A4A43F01003D367084BDB6F074A3A
:104A700023F01003D367064B064A1A625A20FFF749
:104A800079FE00BF1037BD4680BD00BF004402580C
:104A9000CC0200245349000880B584B000AF786090
:104AA0000B46FB700023FB60FB780B2B26D801A282
:104AB00052F823F0F14A0008EB4A0008E54A0008E2
:104AC000FD4A0008FD4A0008FD4A0008FD4A0008AA
:104AD000F74A0008F74A0008F74A0008F74A0008B2
:104AE000F74A00080023FB600EE00123FB600BE0A7
:104AF0000223FB6008E00523FB6005E0054B064A46
:104B0000652106484EF044FEFB6818461037BD4646
:104B100080BD00BF944B0508B04B0508FC4B050851
:104B200080B584B000AF78600B46FB700023FB605B
:104B3000FB780A2B21D801A252F823F0754B00080C
:104B40006F4B0008694B00087B4B00087B4B00084B
:104B50007B4B00087B4B00086F4B00086F4B000835
:104B60006F4B00086F4B00080023FB600BE0012334
:104B7000FB6008E00223FB6005E0054B054A862147
:104B800005484EF005FEFB6818461037BD4680BD4F
:104B9000944B0508504C0508FC4B050880B483B0C5
:104BA00000AF786040F2EF3318460C37BD465DF831
:104BB000047B704790B589B000AF786039603B687E
:104BC0005B7F19467868FFF767FFB8613B689B7F9A
:104BD00019467868FFF760FF78613B689B7F19464C
:104BE0007868FFF79DFF38613B685B8B1A463B682E
:104BF0009B8AD21A944B1A643B685B8B1A463B68BB
:104C00009B8AD21A904B9A613B681B8B1A463B6871
:104C10009B8AD21A8C4B1A618B4A3B6953633B685F
:104C2000DB8A1A463B689B8A1B041A43864B5A64EC
:104C30003B681A69844BDA633B685A68824BDA60D6
:104C40003B681B68B3F5007F36D0B3F5007F00F2F8
:104C5000DE80B3F5807F15D0B3F5807F00F2D7807A
:104C6000802B43D0802B00F2D280402B00F0BB8001
:104C7000402B00F2CC80042B00F0A180202B00F010
:104C8000B280C4E03B681B7F1A066F496F4B134329
:104C9000CB613B680C336C4C1846FFF7BBFD0346F9
:104CA0002362694A7B6953623B681A69664B5A61A1
:104CB000654B674A1A60C2E03B681B7F1A0662496F
:104CC000644B1343CB613B680C335F4C1846FFF7D2
:104CD000A1FD034623625C4A7B6953623B681A6903
:104CE000594B5A61584B5A4A1A60A8E03B689B6876
:104CF000FB600123FB773B681B7F1A06BB691343EC
:104D0000514A43F40033D3614F4A7B6953623B6895
:104D10001A694D4B5A61FB681A1D4B4BDA62FB68EE
:104D20001B88DBB2002B02D0012B0DD020E0464BBC
:104D3000DA69494B1340FA685288013A1202114667
:104D4000414A0B43D3611AE03B681B7FFF2B01D123
:104D50000023FB773C4BDA693F4B1340FA685288DB
:104D6000013A12021343384A43F01003D36106E0BC
:104D70003A4B3B4A4FF480713A484EF009FD324BB2
:104D8000DB69314A43F02003D36100BF2E4BDB695E
:104D900003F02003002B14BF01230023DBB2002B00
:104DA000F4D1294B10229A60FB7F002B03D0264BB5
:104DB000274A1A6043E0244B2B4A1A603FE03B68C5
:104DC0001B7F1A06BB6913431F4A43F40033D361A8
:104DD0001D4A7B6953623B681A691B4B5A611A4B27
:104DE0001B4A1A602BE03B681B7F1A06BB69134302
:104DF000154A43F40033D361134A7B6953623B681D
:104E00001A69114B5A61104B114A1A6017E03B683E
:104E10001B7F1A06BB6913430B4A43F40033D3616B
:104E20003B685A7F3B689B7F9A4203D0064B0E4AF1
:104E30001A6003E0044B40F201221A6000BF00BF79
:104E40002437BD4690BD00BF001000520A0002008A
:104E50000102020009000200EF00FFFF9C4C050860
:104E6000B84C0508FC4B05080102010090B585B05F
:104E700000AF786039603B689B7F19467868FFF720
:104E80004FFEF8602F4AFB6853633B68DB8A1A4683
:104E90003B689B8A1B041A432A4B5A643B681A6975
:104EA000284BDA633B685B8B1A463B689B8AD21AB5
:104EB000244B1A643B681B68082B2DD13B685B8B25
:104EC0001A463B689B8AD21A1E4B9A613B685B8BE1
:104ED0001A463B689B8AD21A1A4B1A61194AFB6818
:104EE00053623B681B7F1A061649174B1343CB616D
:104EF0003B680C33134C1846FFF78CFC03462362C7
:104F00003B681A690F4B5A613B681A690D4BDA60AE
:104F10000C4B0E4A1A6010E00A4AFB68D361094B39
:104F200000221A613B680C33064C1846FFF772FCEE
:104F30000346A363034B064A1A6000BF1437BD46FD
:104F400090BD00BF001000520900010001020200E4
:104F50000102030080B400AF00BF094B1B6803F0DF
:104F60000103002B14BF01230023DBB2002BF4D17B
:104F7000034B23229A6000BFBD465DF8047B704757
:104F80000010005280B485B000AFF860B9607A605C
:104F9000FB7000BF214B1B6803F00103002B14BF03
:104FA00001230023DBB2002BF4D11C4B23229A6097
:104FB0001A4B01225A63BB681B04184A43F00103D1
:104FC0005364164AFB68D363FB78FF2B17D0134B4F
:104FD00001225A62FB781A061049114B1343CB6128
:104FE0000E4A7B6823F07F4313620C4AFB685361CF
:104FF0000A4AFB68D360094B0A4A1A6008E0074B6B
:105000000122DA61054A7B689363044B064A1A6001
:1050100000BF1437BD465DF8047B70470010005296
:1050200009000100010002000100030080B582B008
:1050300000AF7860054A7B681A607B681846FFF706
:10504000F5FB7B6818460837BD4680BDA46C050893
:1050500080B582B000AF78607868FFF7E7FF142171
:1050600078684DF04CFA7B6818460837BD4680BD1D
:1050700080B483B000AF78607B6800221A807B68C0
:1050800000225A807B6800229A807B680022DA80A6
:105090007B6818460C37BD465DF8047B70470000FE
:1050A00080B483B000AF7860044A7B68136000BFAF
:1050B0000C37BD465DF8047B704700BF68AE032423
:1050C00080B483B000AF7860044A7B681A607B6864
:1050D00018460C37BD465DF8047B7047505E0508E6
:1050E00080B582B000AF78607868FFF7E9FF0421EF
:1050F00078684DF004FA7B6818460837BD4680BDD5
:1051000080B485B000AFF860B9607A603B600B4A4C
:10511000FB681A60FB68BA685A60FB687A689A6034
:10512000FB683A68DA60FB68BA691A61FB6818467E
:105130001437BD465DF8047B704700BF405E05082C
:1051400080B483B000AF7860044A7B681A607B68E3
:1051500018460C37BD465DF8047B7047405E050875
:1051600080B582B000AF78607868FFF7E9FF14215E
:1051700078684DF0C4F97B6818460837BD4680BD95
:1051800080B483B000AF7860396000BF0C37BD4693
:105190005DF8047B704780B483B000AF78603960FD
:1051A00000BF0C37BD465DF8047B704780B483B008
:1051B00000AF7860396000BF0C37BD465DF8047BF6
:1051C000704780B483B000AF78600B46FB7000BFBF
:1051D0000C37BD465DF8047B704780B483B000AFE8
:1051E000786000BF0C37BD465DF8047B704780B423
:1051F00083B000AF786000BF0C37BD465DF8047B1C
:105200007047000080B483B000AF7860044A7B68C8
:105210001A607B6818460C37BD465DF8047B704702
:10522000185E050880B582B000AF78607868FFF737
:10523000E9FF042178684DF062F97B681846083769
:10524000BD4680BD80B483B000AF7860044A7B68FF
:105250001A607B6818460C37BD465DF8047B7047C2
:10526000045E050880B582B000AF78607868FFF70B
:10527000E9FF042178684DF042F97B681846083749
:10528000BD4680BD80B483B000AF7860044A7B68BF
:105290001A607B6818460C37BD465DF8047B704782
:1052A0002476050880B582B000AF78607868FFF793
:1052B000E9FF0C2178684DF022F97B681846083721
:1052C000BD4680BD80B483B000AF786039607B6834
:1052D0003A689A6000BF0C37BD465DF8047B7047A2
:1052E00080B483B000AF786000BF0C37BD465DF876
:1052F000047B704780B483B000AF78600B46FB70CE
:1053000000BF0C37BD465DF8047B704780B483B0A6
:1053100000AF786039607B683A6803F5987310686D
:10532000516803C300BF0C37BD465DF8047B70476E
:1053300080B483B000AF7860044A7B681A607B68F1
:1053400018460C37BD465DF8047B7047EC5D0508D8
:1053500080B582B000AF78607868FFF7E9FF04217C
:1053600078684DF0CCF87B6818460837BD4680BD9C
:1053700080B483B000AF7860074A7B681A607B68AE
:1053800000225A607B6800229A607B6818460C37BE
:10539000BD465DF8047B7047705A050880B483B041
:1053A00000AF78607B6800221A807B6800225A80F8
:1053B0007B6800229A807B680022DA807B6800226A
:1053C0001A817B6800225A817B6800229A817B685F
:1053D00000229A737B6818460C37BD465DF8047B43
:1053E000704780B582B000AF78607B681846FFF7E1
:1053F000D5FF7B6800221A617B6800229A827B6855
:1054000018460837BD4680BD80B584B000AFF8604F
:10541000B9607A603B60554AFB681A60FB68BA68FD
:105420005A60FB687A689A60FB683A68DA60FB68E1
:1054300000221A61FB6800225A61FB6800229A610F
:10544000FB681C331846FFF7CCFFFB68002283F88B
:105450003420FB6800229A63FB680022DA63FB6851
:1054600000221A64FB6800225A64FB68002283F859
:105470004820FB68012283F84920FB68002283F85A
:105480004A20FB68002283F84B20FB680022DA6484
:10549000FB6850331846FFF7EBFDFB68002283F8EA
:1054A0005820FB680022DA65FB6800221A66FB6858
:1054B00000225A66FB68012283F86820FB680022FC
:1054C00083F86920FB68002283F86A20FB680122C8
:1054D00083F86B20FB68002283F86C20FB680022B5
:1054E00083F86D20FB68002283F86E20FB680022A1
:1054F00083F86F20FB68002283F87020FB6800228D
:105500005A67FB68002283F87820FB68002283F842
:105510007920FB68012283F87A20FB68012283F856
:105520007B20134AFB681360124A3B8B1380114B9C
:105530001A88114B1A80114ABB8B13800F4B1A88A3
:105540000F4B1A800F4B00221A703A8BBB8B9A427A
:1055500034BF01230023DBB21A46FB6883F83420F2
:10556000FB6818461037BD4680BD00BF7C6B050840
:1055700004AE0324F8AD0324FEAD0324FAAD0324E6
:1055800000AE0324FCAD032480B582B000AF786088
:10559000054A7B681A607B681846FFF733FE7B6814
:1055A00018460837BD4680BD7C76050880B582B0B8
:1055B00000AF78607868FFF7E7FF4FF49E71786876
:1055C0004CF09DFF7B6818460837BD4680BD80B50E
:1055D00082B000AF7860786800F004F800BF083748
:1055E000BD4680BD80B582B000AF78607B68D3F8DF
:1055F0004031002B0FD07B68D3F840217B68D3F873
:1056000040311B680C331B68104698470346002B3B
:1056100001D0012300E00023002B0ED07B68D3F8DB
:1056200040217B68D3F840311B6808331B68104663
:1056300098477B680022C3F8402100BF0837BD4669
:1056400080BD000080B582B000AF7860054A7B68FD
:105650001A607B681846FFF797FF7B681846083783
:10566000BD4680BD985D050880B582B000AF78600A
:105670007868FFF7E7FF4FF4A27178684CF03FFFBE
:105680007B6818460837BD4680BD000080B582B0F3
:1056900000AF7860084A7B681A607B6803F5A273E4
:1056A000184600F06DFB7B681846FFF7CBFF7B6860
:1056B00018460837BD4680BD2C5D050880B582B010
:1056C00000AF78607868FFF7E1FF4FF4AE7178685B
:1056D0004CF015FF7B6818460837BD4680BD80B585
:1056E00082B000AF7860786801F030FF00BF083703
:1056F000BD4680BD80B582B000AF7860054A7B684A
:105700001A607B681846FFF7C1FF7B6818460837A8
:10571000BD4680BDD85C050880B582B000AF78601A
:105720007868FFF7E7FF4FF4AE7178684CF0E7FE5A
:105730007B6818460837BD4680BD80B582B000AF93
:1057400078607B68D3F85831184623F02DF87B68D1
:1057500018463EF0B5F800BF0837BD4680BD80B59D
:1057600082B000AF786039603B68184601F0EEFE09
:1057700000BF0837BD4680BD80B586B002AFF86077
:10578000B9607A603B60F868BB6900933B687A68EF
:10579000B968FFF7B5FC044AFB681A60FB68184655
:1057A0001037BD4680BD00BFC45C050880B500AFA2
:1057B000014800F08BF980BD4CF1002480B500AFAA
:1057C000114B1B68BFF35B8F03F00103002B0CBF71
:1057D00001230023DBB2002B13D00B484CF091FEC9
:1057E0000346002B14BF01230023DBB2002B08D09B
:1057F000064800F067F806484DF0E8FF02484CF014
:105800008CFE024B184680BDB41F01244CF10024CD
:10581000AD57000880B582B000AF7860054A7B685C
:105820001A607B681846FFF78BFC7B6818460837C0
:10583000BD4680BDC45C050880B582B000AF78600D
:105840007868FFF7E7FF142178684CF058FE7B6812
:1058500018460837BD4680BD80B582B000AF78607D
:105860007B68184636F0DEFF034A7B681A607B6867
:1058700018460837BD4680BD905C050880B582B0EB
:1058800000AF78607B68184636F0CCFF034A7B682F
:105890001A607B6818460837BD4680BD5C5C050809
:1058A00080B582B000AF78607B68184636F0BAFFEA
:1058B000034A7B681A607B6818460837BD4680BD7E
:1058C000285C0508B0B584B002AF786078687B6862
:1058D00003F114047B6803F12C057B6842F2987293
:1058E0001A44796842F60C530B44009313462A4637
:1058F0002146FFF741FF1A4A7B681A607B68143320
:105900001846FFF7A9FF7B682C331846FFF7B6FF50
:105910007A6842F2987313441846FFF7C1FF7A6819
:1059200042F2AC731344184622F022FF7A6842F622
:105930000C5313447A6842F2AC7111447A681846E9
:1059400022F000FF78687A6842F60C531344194637
:10595000FFF705FF7B6818460837BD46B0BD00BF9E
:10596000145C050880B586B002AFF860B9607A6053
:105970003B60F868BB8B01933B8B00933B687A6874
:10598000B968FFF741FD044AFB681A60FB681846D6
:105990001037BD4680BD00BF9C5F050880B582B052
:1059A00000AF78607B681846FFF7E2FC034A7B682B
:1059B0001A607B6818460837BD4680BD485A0508FE
:1059C00080B586B002AFF860B9607A603B60F86875
:1059D000BB8B01933B8B00933B687A68B968FFF7F8
:1059E000C1FF064AFB681A60FB687C331846FFF764
:1059F000D5FFFB6818461037BD4680BDC85A05085C
:105A000080B483B000AF7860044A7B681A607B681A
:105A100018460C37BD465DF8047B7047B05A050840
:105A200080B582B000AF78607B681846FFF7E8FF6A
:105A3000034A7B681A607B6818460837BD4680BDFC
:105A4000985A050890B585B002AF01F029FB0446CD
:105A500001F030FB03461946002300930023002287
:105A6000204641F0EBFD0B48FFF71AFB002022F027
:105A70009DFD09490948FFF725FC094841F096FCBE
:105A8000FFF79CFE78600748FEF7AEFC00BF0C37BE
:105A9000BD4690BDE02D0124C42D01245C2D0124C0
:105AA00028000024E42D012480B400AF00BFBD46CF
:105AB0005DF8047B7047000080B500AF0248FEF738
:105AC000BBFC00BF80BD00BFE42D012480B582B0C7
:105AD00000AF7860114A7B681A607A6842F60C530E
