:020000040800F2
:100000000000052421400008D53D0008E33D00081C
:10001000EB3D0008F33D0008FB3D00080000000038
:10002000000000000000000000000000E1A703083D
:10003000033E00080000000031AA03085D9A03088F
:1000400071400008714000087140000871400008CC
:1000500071400008714000087140000871400008BC
:10006000714000087140000871400008113E00080E
:10007000253E0008714000087140000871400008EA
:100080007140000871400008393E000871400008C6
:10009000714000087140000871400008714000087C
:1000A000714000087140000871400008714000086C
:1000B000714000087140000871400008714000085C
:1000C000714000087140000871400008714000084C
:1000D000714000087140000871400008714000083C
:1000E00071400008714000080000000071400008E5
:1000F000714000087140000871400008714000081C
:10010000714000087140000871400008714000080B
:100110007140000871400008553E00087140000819
:1001200071400008714000087140000871400008EB
:1001300071400008714000087140000871400008DB
:1001400000000000000000000000000000000000AF
:1001500071400008714000087140000871400008BB
:1001600071400008714000087140000871400008AB
:10017000714000087140000871400008714000089B
:10018000714000087140000871400008714000088B
:10019000714000087140000871400008714000087B
:1001A0007D3E000871400008913E000800000000FC
:1001B000714000087140000871400008714000085B
:1001C00071400008714000080000000000000000BD
:1001D0000000000000000000714000080000000066
:1001E000000000000000000000000000000000000F
:1001F000000000000000000071400008714000088D
:1002000071400008714000080000000071400008C3
:1002100071400008714000087140000871400008FA
:10022000714000080000000071400008000000005C
:100230007140000871400008000000007140000893
:1002400071400008A53E0008714000087140000898
:1002500071400008714000087140000871400008BA
:1002600071400008714000087140000871400008AA
:100270007140000871400008714000080000000053
:10028000714000087140000871400008714000088A
:100290000000000071400008714000087140000833
:1002A000714000087140000871400008714000086A
:1002B000714000087140000871400008714000085A
:0C02C00071400008B93E000871400008C1
:1002D00010B5054C237833B9044B13B10448AFF380
:1002E00000800123237010BD5C0200240000000088
:1002F0002455050808B5034B1BB103490348AFF368
:10030000008008BD0000000060020024245505089C
:1003100001F0FF01102A2BDB10F0070F08D010F8B6
:10032000013B013A8B422DD010F0070F42B3F6D1BA
:10033000F0B441EA012141EA014122F007047FF0D3
:1003400000070023F0E80256083C85EA010586EA2A
:10035000010685FA47F5A3FA87F586FA47F6A5FA66
:1003600087F68EB9EED1F0BC01F0FF0102F0070272
:1003700032B110F8013B013A83EA010313B1F8D11D
:100380000020704701387047002D06BF35460338FE
:10039000073815F0010F07D1013015F4807F02BF37
:1003A000013015F4C03F0130F0BC0138704700BF88
:1003B00081F0004102E000BF83F0004330B54FEA16
:1003C00041044FEA430594EA050F08BF90EA020F83
:1003D0001FBF54EA000C55EA020C7FEA645C7FEA16
:1003E000655C00F0E2804FEA5454D4EB5555B8BF39
:1003F0006D420CDD2C4480EA020281EA030382EAAA
:10040000000083EA010180EA020281EA0303362D3B
:1004100088BF30BD11F0004F4FEA01314FF4801C0E
:100420004CEA113102D0404261EB410113F0004F20
:100430004FEA03334CEA133302D0524263EB4303D7
:1004400094EA050F00F0A780A4F10104D5F1200E75
:100450000DDB02FA0EFC22FA05F2801841F10001D0
:1004600003FA0EF2801843FA05F359410EE0A5F1A4
:1004700020050EF1200E012A03FA0EFC28BF4CF0D5
:10048000020C43FA05F3C01851EBE37101F000458B
:1004900007D54FF0000EDCF1000C7EEB00006EEB98
:1004A0000101B1F5801F1BD3B1F5001F0CD3490822
:1004B0005FEA30004FEA3C0C04F101044FEA445279
:1004C00012F5800F80F09A80BCF1004F08BF5FEA00
:1004D000500C50F1000041EB045141EA050130BDE0
:1004E0005FEA4C0C404141EB0101013C28BFB1F5F2
:1004F000801FE9D291F0000F04BF01460020B1FA3D
:1005000081F308BF2033A3F10B03B3F120020CDA0F
:100510000C3208DD02F1140CC2F10C0201FA0CF0ED
:1005200021FA02F10CE002F11402D8BFC2F1200C52
:1005300001FA02F120FA0CFCDCBF41EA0C01904008
:10054000E41AA2BF01EB0451294330BD6FEA040451
:100550001F3C1CDA0C340EDC04F11404C4F120023C
:1005600020FA04F001FA02F340EA030021FA04F34E
:1005700045EA030130BDC4F10C04C4F1200220FAA5
:1005800002F001FA04F340EA0300294630BD21FAE3
:1005900004F0294630BD94F0000F83F4801306BFA9
:1005A00081F480110134013D4EE77FEA645C18BF9D
:1005B0007FEA655C29D094EA050F08BF90EA020F34
:1005C00005D054EA000C04BF1946104630BD91EA2C
:1005D000030F1EBF0021002030BD5FEA545C05D12F
:1005E0004000494128BF41F0004130BD14F580046E
:1005F0003CBF01F5801130BD01F0004545F0FE41E2
:1006000041F470014FF0000030BD7FEA645C1ABF16
:10061000194610467FEA655C1CBF0B46024650EA4D
:10062000013406BF52EA033591EA030F41F4002179
:1006300030BD00BF90F0000F04BF0021704730B5FF
:100640004FF4806404F132044FF000054FF00001D4
:1006500050E700BF90F0000F04BF0021704730B595
:100660004FF4806404F1320410F0004548BF40426A
:100670004FF000013EE700BF42004FEAE2014FEABF
:1006800031014FEA02701FBF12F07F4393F07F4F9A
:1006900081F06051704732F07F4208BF704793F09D
:1006A0007F4F04BF41F40021704730B54FF46074B0
:1006B00001F0004521F000411CE700BF50EA0102B3
:1006C00008BF704730B54FF000050AE050EA01025C
:1006D00008BF704730B511F0004502D5404261EBCC
:1006E00041014FF4806404F132045FEA915C3FF40D
:1006F000D8AE4FF003025FEADC0C18BF03325FEAAA
:10070000DC0C18BF033202EBDC02C2F1200300FA5A
:1007100003FC20FA02F001FA03FE40EA0E0021FA7F
:1007200002F11444BDE600BF80B500AF02490020CD
:100730003BF090FE00BF80BDD54B000880B483B075
:1007400000AF78604FF06043D3F8803E03F00103C0
:10075000002B13D04FF06043D3F8003E03F00103A9
:10076000002B0BD000E000BF4FF060431B68002B54
:10077000F9D04FF060437A68D2B21A707B6818469D
:100780000C37BD465DF8047B7047000080B400AFB5
:10079000934B1B88B3F57A7F5CD1924B1B78502B1F
:1007A00007D0502B00F31781142B38D0282B1BD0E7
:1007B00011E18D4B1B688D4AA2FB03239B094FF46B
:1007C0007A7202FB03F3884A1360874B1B685B084D
:1007D00007EE903AB8EE677ADFED856AC7EE267AC3
:1007E000844BC3ED007AF6E0834B1B687F4AA2FB83
:1007F00003239B094FF47A7202FB03F37E4A1360D2
:100800007D4B1B689B0807EE903AB8EE677ADFEDE8
:10081000786AC7EE267A794BC3ED007ADBE0784B35
:100820001B68724AA2FB03239B094FF47A7202FBF6
:1008300003F3734A1360724B1B685B0807EE903A30
:10084000B8EE677ADFED6A6AC7EE267A6D4BC3EDC4
:10085000007AC0E0624B1B88642B59D1614B1B7836
:10086000502B07D0502B00F3B680142B36D0282BFA
:100870001AD0B0E05C4B1B68634AA2FB03235B0900
:10088000642202FB03F3584A1360574B1B685B0852
:1008900007EE903AB8EE677ADFED556AC7EE267A32
:1008A000544BC3ED007A96E0534B1B68564AA2FBAB
:1008B00003235B09642202FB03F34F4A13604E4B90
:1008C0001B689B0807EE903AB8EE677ADFED486A3E
:1008D000C7EE267A494BC3ED007A7CE0484B1B6893
:1008E000494AA2FB03235B09642202FB03F3444A47
:1008F0001360434B1B689B0807EE903AB8EE677A8B
:10090000DFED3B6AC7EE267A3E4BC3ED007A62E02C
:10091000334B1B880A2B5ED1324B1B78502B06D0F1
:10092000502B58DC142B3AD0282B1CD053E02E4BE4
:100930001B68364AA2FB0323DA0813469B001344C4
:100940005B001A46284B1A60274B1B685B0807EEB2
:10095000903AB8EE677ADFED266AC7EE267A254B25
:10096000C3ED007A37E0244B1B68284AA2FB03231F
:10097000DA0813469B0013445B001A461E4B1A60AC
:100980001D4B1B689B0807EE903AB8EE677ADFEDC7
:10099000186AC7EE267A194BC3ED007A1BE0184B94
:1009A0001B681A4AA2FB0323DA0813469B00134470
:1009B0005B001A46124B1A60114B1B685B0807EE6E
:1009C000903AB8EE677ADFED0A6AC7EE267A0D4BE9
:1009D000C3ED007A00BF00BFBD465DF8047B7047E1
:1009E000220000241E00002410000024D34D6210B9
:1009F00000007A44040000241400002408000024AD
:100A0000180000240C0000241F85EB51CDCCCCCC69
:100A100080B483B000AF78607B68594A934240F05D
:100A2000A980584B1B780133DAB2564B1A70554BDC
:100A30001B78022B40F09E80534B01221A70504BC2
:100A40001B681B6803F01003102B2CD14F4B1B7835
:100A5000502B06D0502B1CDC142B12D0282B08D086
:100A600017E04B4B1B684B4A12889B1A484A13608D
:100A70000FE0494B1B68474A12889B1A464A13608D
:100A800007E0464B1B68434A12889B1A434A13608F
:100A900000BF434B01221A70424B01221A70424B95
:100AA00001221A702EE0394B1B78502B06D0502BA8
:100AB0001FDC142B14D0282B09D01AE0354B1B88CF
:100AC0001A46334B1B681344314A136011E0314B13
:100AD0001B881A46304B1B6813442F4A136008E0EA
:100AE0002C4B1B881A462D4B1B6813442B4A136052
:100AF00000BF2B4B01221A702A4B01221A702A4B7D
:100B000001221A70214B1B78502B06D0502B2EDC63
:100B1000142B1ED0282B0ED029E01D4B1B6807EE8E
:100B2000903AB8EE677ADFED216AC7EE267A204B5D
:100B3000C3ED007A1BE0184B1B6807EE903AB8EE45
:100B4000677ADFED1A6AC7EE267A1A4BC3ED007A90
:100B50000DE0124B1B6807EE903AB8EE677ADFEDB6
:100B6000136AC7EE267A144BC3ED007A00BF054B1B
:100B700000221A7000BF0C37BD465DF8047B704739
:100B8000A40800243D0900241D0000241E000024A8
:100B90001000002422000024140000241800002467
:100BA0001C000024380900242600002400007A4498
:100BB00004000024080000240C00002480B582B04A
:100BC00002AF1F4B1B78012B36D11E4B1B78502BCD
:100BD00006D0502B1CDC142B12D0282B08D017E089
:100BE000194B1B68194A1A49184601F005FF0FE016
:100BF000184B1B68154A1649184601F0FDFE07E020
:100C0000154B1B68114A1249184601F0F5FE00BF4A
:100C10000E4B5B68DAB2114B1A70002300930B4B3A
:100C200003220021002001F03AFE0949002001F0D2
:100C3000F7FD034B00221A7000BFBD4680BD00BF08
:100C40001C0000241E00002410000024240900249D
:100C5000180900241400002418000024140900249A
:100C600080B485B000AF78607B681A4A93422BD17C
:100C70000023FB810023BB811FE0BB8903F001033C
:100C80009BB2002B09D1FB89134A52F82320BB8960
:100C900091B2124A22F813100CE0FB890E4A52F866
:100CA00023301A0CBB8991B20C4A22F81310FB892D
:100CB0000133FB81BB890133BB81BB89B3F5805F05
:100CC000DBD3074B01221A7000BF1437BD465DF815
:100CD000047B704778020024400900244029002446
:100CE00044E9002480B483B000AF786000BF0C37C3
:100CF000BD465DF8047B704780B58AB002AF01F055
:100D0000BFFC594B5B6903F40033002B1BD1BFF3CD
:100D10004F8F00BFBFF36F8F00BF534B0022C3F84C
:100D20005022BFF34F8F00BFBFF36F8F00BF4E4BFA
:100D30005B694D4A43F400335361BFF34F8F00BFEB
:100D4000BFF36F8F00E000BF474B5B6903F4803354
:100D5000002B38D1444B0022C3F88420BFF34F8FBF
:100D600000BF414BD3F88030BB61BB695B0BC3F361
:100D70000E037B61BB69DB08C3F309033B617B693D
:100D80005A0143F6E07313403A6992073649134318
:100D9000C1F860323B695A1E3A61002BEFD17B6982
:100DA0005A1E7A61002BE5D1BFF34F8F00BF2E4B47
:100DB0005B692D4A43F480335361BFF34F8F00BF0B
:100DC000BFF36F8F00E000BF2BF0E6FE00F07EF96E
:100DD00000F0EEF900F090FF00F066FF00F044FF35
:100DE00000F0CAFB00F0E8FC00F068FD00F0E6FE51
:100DF00000F020FC00F05EFC00F00AFA00F05AFB64
:100E000000F034FE00F0D6FB00F082FA00F0E2FAC7
:100E100000F072FB00F00AFE00F07CFE03F030F9F7
:100E200003F027F93C21114838F0F2F8104837F068
:100E300045FF40F2FF7200210E482DF067FF40F29F
:100E4000FF7200210C482DF061FF0B482CF03CFC98
:100E50004FF40062094907482DF0BCFF084B0122FE
:100E60001A700023FB8337E000ED00E0A4080024A3
:100E70000C08002478020024E80200244009002421
:100E800044E90024FB8B07EE903AB8EEE77B9FED38
:100E9000646B27EE067B9FED645B87EE056BB0EE1F
:100EA000460B52F0A9F9B0EE407BB6EE006B27EE90
:100EB000067BB6EE006B36EE477B9FED5D6B27EE53
:100EC000067BFB8BF7EEC77B5B4A9B001344C3EDAD
:100ED000007AFB8B0133FB83FB8BB3F5006FD1D31F
:100EE000564B28221A70554B1A78554B1A70554B91
:100EF000554A1A6001224FF48051544831F080FA6B
:100F000000224FF40051514831F07AFA00224FF498
:100F100080514F4831F074FA4E4B184601F048FCAE
:100F2000484B1B684C4A4D49184601F065FD4A4B39
:100F30005B68DAB24A4B1A7000230093464B0322D7
:100F40000021002001F0ABFC454B1B780093424B85
:100F500003220021022001F0A2FC4049002001F000
:100F60005FFC052001F0D6FDFFF728FE381D0A239F
:100F700000933C4B3C4A492151F016FD38F088FD66
:100F80003A4A0221012038F099FF0346384A13609B
:100F9000384A0421012038F091FF0346364A136095
:100FA000364A40F25451012038F088FF0346344A53
:100FB0001360344A0021344838F0B4FD0346334A04
:100FC0001360334A0021334838F0ACFD0346324AFF
:100FD0001360324A0021324838F0A4FD0346314AFA
:100FE0001360314A0021314838F09CFD0346304AF5
:100FF0001360304A0021304838F094FD03462F4AF0
:1010000013602F4A00212F4838F08CFD03462E4AEA
:10101000136038F061FD00BFFDE700BFAFF3008053
:1010200000000060FB2119400000000000FC9F4010
:101030002D431CEBE2361A3F40C900241E00002459
:101040001F0000241400002440C3AF010004025814
:101050000000025898C00100240900241809002447
:1010600014090024F0F3002428000024D4660508A5
:1010700008090024EC6605080C090024046705082B
:1010800010090024FC650508811F0008F0080024F1
:101090002066050891400008F4080024446605080D
:1010A000911F0008F808002468660508ED20000874
:1010B000FC0800248C6605089D2200080009002415
:1010C000B0660508592600080409002480B59CB0C4
:1010D00000AF07F124034C220021184653F0B3FB64
:1010E0003B1D20220021184653F0ADFB042034F0B4
:1010F000A5F900233B602D4B9B692C4A23F4404308
:1011000093612A4B9B6903F440433B603B6800BFFB
:10111000264B9B6903F40053B3F5005FF8D103231A
:101120007B624FF48033BB6201233B6340237B63CC
:101130000223BB640223FB6402233B652C237B65F3
:101140000123BB650223FB6502233B660C237B6600
:101150000023BB660023FB6607F12403184634F026
:10116000C7F90346002B01D001F01AFB3F237B6037
:101170000323BB600023FB6008233B6140237B61AA
:101180004023BB614FF48063FB6140233B623B1D06
:101190000321184634F086FD0346002B01D001F0F0
:1011A000FFFA00BF7037BD4680BD00BF004802583F
:1011B00080B5AEB000AF3B46B8220021184653F0D0
:1011C00042FB4FF002424FF00003C7E90023052322
:1011D000BB605023FB6002233B6102237B6102233F
:1011E000BB618023FB6100233B6200237B622023E1
:1011F000FB6400237B653B46184635F021F9034626
:10120000002B01D001F0CCFA00BFB837BD4680BD3D
:1012100080B58CB000AF07F1240300221A605A6039
:101220009A603B4624220021184653F00CFB364BB3
:10123000364A1A60344B00225A60334B04229A60BB
:10124000314B00221A61304B08225A612E4B00228A
:101250001A762D4B00225A762B4B0122DA612A4B4B
:10126000002283F82020284B4FF4A4629A62264B78
:101270004FF48062DA62244B01221A63224B00226F
:10128000DA63214B00221A641F4B002283F84420AA
:101290001D4B01229A641C482CF00EF80346002BCB
:1012A00001D001F07DFA06237B624FF40043BB625C
:1012B0000023FB6207F12403194613482DF09CFE1E
:1012C0000346002B01D001F06BFA01233B6006239B
:1012D0007B600323BB6040F2FF73FB6004233B6130
:1012E00000237B61002387F821303B4619460648DE
:1012F0002CF002FD0346002B01D001F051FA00BF93
:101300003037BD4680BD00BF780200240020024077
:1013100080B58AB000AF3B1D24220021184653F04F
:1013200092FA294B294A1A60274B00225A60264B11
:1013300004229A60244B00221A61234B08225A612E
:10134000214B00221A76204B00225A761E4B012296
:10135000DA611D4B002283F820201B4B00221A6308
:10136000194B0022DA63184B00221A64164B002234
:1013700083F84420144B01229A6413482BF09CFFFD
:101380000346002B01D001F00BFA114B7B600623C2
:10139000BB600023FB6040F2FF733B6104237B6171
:1013A0000023BB61002387F825303B1D1946064802
:1013B0002CF0A2FC0346002B01D001F0F1F900BF94
:1013C0002837BD4680BD00BFE8020024002102404E
:1013D0000200300480B58AB000AF3B1D24220021FA
:1013E000184653F030FA314B314A1A602F4B002225
:1013F0005A602E4B08229A602C4B0022DA602B4B4D
:1014000000221A61294B04225A61284B00221A76C5
:10141000264B01225A76254B0122DA61234B00220A
:1014200083F82020214B4FF49C629A621F4B4FF4AB
:101430008062DA621D4B012283F838201B4B0022A8
:101440005A631A4B00221A63184B0022DA63174BB7
:1014500000221A64154B002283F84420134B00220B
:101460009A6412482BF028FF0346002B01D001F0AC
:1014700097F901237B600623BB600023FB6040F2E9
:10148000FF733B6104237B610023BB6100233B624C
:101490003B1D194605482CF02FFC0346002B01D0BC
:1014A00001F07EF900BF2837BD4680BD58030024F7
:1014B0000060025880B500AF0D4B0E4A1A600C4B0D
:1014C00000221A710A4B00225A71094B00225A61FC
:1014D000074B00229A61064B01221A6204482DF044
:1014E000C5FF0346002B01D001F05AF900BF80BDB3
:1014F000B8040024004C025880B58AB000AF3B1DF0
:1015000024220021184653F09EF9194B194A1A60FB
:1015100017482EF09DF80346002B01D001F040F94A
:1015200000237B600023BB600223FB6002233B613E
:1015300000237B613B1D002219460D482EF00AF95D
:101540000346002B01D001F02BF90023FB6001239F
:101550003B613B1D1022194605482EF0FBF803465F
:10156000002B01D001F01CF900BF2837BD4680BD1B
:10157000DC0400240074004080B500AF0B4B0C4A23
:101580001A600A4B4FF440325A60084B01229A60AD
:10159000064B0022DA60054830F0FCFA0346002BC7
:1015A00001D001F0FDF800BF80BD00BF6805002438
:1015B0000010005280B500AF1B4B1C4A1A601A4B3A
:1015C0001B4A5A60184B00229A60174B0122DA60BE
:1015D000154B00221A61144B00225A61124B002253
:1015E0009A61114B0022DA610F4B00221A620E48F9
:1015F00030F03AFF0346002B01D001F0D1F8002172
:10160000094831F0F3FD0346002B01D001F0C8F882
:101610000021054831F035FE0346002B01D001F0D2
:10162000BFF800BF80BD00BFD0050024005C0040B3
:10163000724E406080B500AF1B4B1C4A1A601A4BBB
:101640001B4A5A60184B00229A60174B0122DA603D
:10165000154B00221A61144B00225A61124B0022D2
:101660009A61114B0022DA610F4B00221A620E4878
:1016700030F0FAFE0346002B01D001F091F84FF450
:101680008051094831F0B2FD0346002B01D001F032
:1016900087F80021044831F0F4FD0346002B01D007
:1016A00001F07EF800BF80BD24060024001C005815
:1016B000FFC8B02080B58EB000AF3B1D34220021A2
:1016C000184653F0C0F83A4B3A4A1A60384B002299
:1016D0005A60374B00229A60354B0022DA60344B57
:1016E00000221A61324B07225A61314B03229A6160
:1016F0002F4B0E22DA612E4B05221A622C4B40F240
:101700008E225A622A4B40F2E5129A62284B4FF41D
:101710002572DA62264B40F2E7121A63244B00224C
:1017200083F83420224B002283F83520204B0022FE
:1017300083F836201E4831F0F1FD0346002B01D01E
:1017400001F02EF800237B604FF4F073BB600023A0
:10175000FB604FF488733B6101237B61FF23BB6116
:101760000023FB614FF480633B6205237B624FF0F3
:10177000E043BB624FF4F073FB624FF488733B634A
:10178000002387F83430002387F83530002387F8AA
:1017900036303B1D00221946054831F047FF03460D
:1017A000002B01D000F0FCFF00BF3837BD4680BDE4
:1017B000780600240010005080B588B000AF3B1DB3
:1017C00000221A605A609A60DA601A615A61384BD6
:1017D000384A1A60364B04225A60354B00229A6010
:1017E000334B4FF08072DA60314B20221A61304B5C
:1017F00002225A612E4B00229A612D4B0022DA619F
:101800002B4B00221A622A4B02225A62284B0022DA
:101810009A62274B0022DA62254B00221A63244B7E
:1018200008225A63224B00229A63214B0022DA637A
:101830001F4832F02FFA0346002B01D000F0B0FF12
:1018400001237B600123BB600123FB604FF0011388
:101850003B61194B7B613B1D41F2883219461448AC
:1018600032F098FE0346002B01D000F099FF10489B
:1018700032F0CCFA01233B7701237B7700202AF05A
:101880005FF807F11C031946002029F0BBFF03464F
:10189000002B01D000F084FF00202AF0E5F8034679
:1018A000002B01D000F07CFF00BF2037BD4680BD7B
:1018B00020070024005000520100000180B592B0C2
:1018C00000AF07F1300300221A605A609A60DA60B4
:1018D0001A615A6107F1200300221A605A609A6067
:1018E000DA6007F10C0300221A605A609A60DA602D
:1018F0001A613B1D00221A605A60484B484A1A6020
:10190000464B04225A60454B00229A60434B4FF0ED
:101910008062DA60414B18221A61404B04225A61FE
:101920003E4B00229A613D4B0022DA613B4B002284
:101930001A623A4B02225A62384B00229A62374BA3
:101940004FF08052DA62354B17221A63334B002274
:101950005A63324B00229A63304B4FF4C872DA63F9
:101960002E4832F097F90346002B01D000F018FF03
:1019700002233B6302237B630223BB63294BFB638C
:10198000294B3B6407F1300341F288321946234862
:1019900032F000FE0346002B01D000F001FF0323CC
:1019A0003B6206237B620023BB620123FB6207F1DB
:1019B000200341F288321946184832F0DBFA034618
:1019C000002B01D000F0ECFE0023FB604FF44053ED
:1019D0007B614FF00053FB6100233B610123BB613E
:1019E00007F10C0341F2883219460C4832F001FB32
:1019F0000346002B01D000F0D3FE00237B603B1D8B
:101A00001946064832F0F4FC0346002B01D000F0E2
:101A1000C7FE00BF4837BD4680BD00BF7C0700241D
:101A200000A00052020001000200000180B500AFDA
:101A30000C4B0D4A1A600B4B60229A60094B042232
:101A40001A61084B00225A60064B0022DA610548F1
:101A500032F058F80346002B01D000F0A1FE00BF81
:101A600080BD00BFD80700240090004080B588B03A
:101A700000AF07F1100300221A605A609A60DA6022
:101A80003B1D00221A605A609A60204B204A1A605F
:101A90001E4B4FF489725A601C4B00229A601B4BFC
:101AA0000922DA60194B00221A61184B00225A6190
:101AB000164B80229A61154837F0A8F80346002B90
:101AC00001D000F06DFE4FF480533B6107F110032D
:101AD00019460E4837F052FC0346002B01D000F0A7
:101AE0005FFE20237B600023BB600023FB603B1D67
:101AF0001946064837F0CEFE0346002B01D000F011
:101B00004FFE00BF2037BD4680BD00BF0C0800243B
:101B10000000014080B588B000AF07F1100300223B
:101B20001A605A609A60DA603B1D00221A605A609F
:101B30009A60204B204A1A601E4B4FF489725A60FB
:101B40001C4B00229A601B4B6322DA60194B002267
:101B50001A61184B00225A61164B80229A6115486F
:101B600037F054F80346002B01D000F019FE4FF473
:101B700080533B6107F1100319460E4837F0FEFB16
:101B80000346002B01D000F00BFE20237B600023D6
:101B9000BB600023FB603B1D1946064837F07AFE08
:101BA0000346002B01D000F0FBFD00BF2037BD46EF
:101BB00080BD00BF580800240004014080B58CB0EF
:101BC00000AF07F10C0324220021184652F03BFE1F
:101BD0003B4600221A605A609A60204B204A1A60E5
:101BE0001E4B00225A601D4B00229A601B4B1D4A5F
:101BF000DA601A4B00221A61184B00229A61032303
:101C0000FB6000233B6101237B610023BB610A234E
:101C1000FB6100233B6201237B620023BB620A233A
:101C2000FB6207F10C0319460C4837F04BF90346E9
:101C3000002B01D000F0B4FD00233B600023BB600B
:101C40003B461946054837F025FE0346002B01D0D8
:101C500000F0A6FD00BF3037BD4680BDA4080024BB
:101C600000E00040801A060080B582B000AF0D4B46
:101C7000D3F8E0300B4A43F40013C2F8E030094BCC
:101C8000D3F8E03003F400137B607B680022052169
:101C900081202DF04BFB81202DF062FB00BF083727
:101CA000BD4680BD0044025880B582B000AF114BE4
:101CB000D3F8D8300F4A43F00103C2F8D8300D4BA7
:101CC000D3F8D83003F001037B607B680022052144
:101CD0000B202DF02BFB0B202DF042FB00220521C9
:101CE0000C202DF023FB0C202DF03AFB00BF083711
:101CF000BD4680BD0044025880B58EB000AF07F1EC
:101D0000240300221A605A609A60DA601A61884BD4
:101D1000D3F8E030864A43F00203C2F8E030844B47
:101D2000D3F8E03003F002033B623B6A804BD3F808
:101D3000E0307F4A43F04003C2F8E0307C4BD3F8F8
:101D4000E03003F04003FB61FB69794BD3F8E030EE
:101D5000774A43F00803C2F8E030754BD3F8E0301F
:101D600003F00803BB61BB69714BD3F8E030704AE4
:101D700043F01003C2F8E0306D4BD3F8E03003F0CD
:101D800010037B617B696A4BD3F8E030684A43F00B
:101D90000103C2F8E030664BD3F8E03003F00103F2
:101DA0003B613B69624BD3F8E030614A43F080030A
:101DB000C2F8E0305E4BD3F8E03003F08003FB6004
:101DC000FB685B4BD3F8E030594A43F00403C2F898
:101DD000E030574BD3F8E03003F00403BB60BB683E
:101DE000534BD3F8E030524A43F02003C2F8E030BE
:101DF0004F4BD3F8E03003F020037B607B68002278
:101E000044F208014B4830F0FBFA002241F2010194
:101E1000494830F0F5FA002248F23801474830F0DE
:101E2000EFFA00224FF40441454830F0E9FA00226D
:101E30004FF47041434830F0E3FA44F208037B6208
:101E40000123BB620023FB6200233B6307F12403F1
:101E50001946384830F012F84FF480537B62012362
:101E6000BB620023FB6200233B6307F12403194696
:101E7000314830F003F848F230037B620123BB6243
:101E80000023FB6200233B6307F1240319462B4820
:101E90002FF0F4FF08237B620123BB620023FB6267
:101EA00003233B6307F12403194624482FF0E6FF80
:101EB0004FF404437B620123BB620023FB620023D7
:101EC0003B6307F1240319461D482FF0D7FF4FF459
:101ED00040437B620123BB620023FB6203233B631D
:101EE00007F12403194617482FF0C8FF4FF4405359
:101EF0007B620123BB620023FB6200233B6307F18B
:101F0000240319460F482FF0B9FF01237B620123F8
:101F1000BB620023FB6203233B6307F124031946E2
:101F200005482FF0ABFF00BF3837BD4680BD00BF6E
:101F300000440258001002580000025800180258CD
:101F4000000C02580004025880B586B000AFF8605B
:101F5000B9607A6000237B6109E0BB685A1CBA60F3
:101F60001B781846FEF7EAFB7B6901337B617A69CF
:101F70007B689A42F1DB7B6818461837BD4680BD06
:101F800080B582B000AF7860322037F05DFEFBE7AD
:101F900080B584B000AF7860484B00221A80484B6F
:101FA0001B78012B1FD10023FB730FE0FB7BC3F1D8
:101FB000A803444A52F823309AB2404B1B8813447A
:101FC0009AB23E4B1A80FB7B0133FB73FB7B0E2BDB
:101FD000ECD93A4B1B883C4AA2FB0323DB089AB29C
:101FE000364B1A801DE00023BB730EE0BB7BAB3386
:101FF000344A52F823309AB2304B1B8813449AB2B9
:102000002E4B1A80BB7B0133BB73BB7B0E2BEDD9F0
:102010002A4B1B882C4AA2FB0323DB089AB2274BCE
:102020001A80264B1A88294B1B889A4212D0284BBB
:102030001B68184638F074F80346002B06D1244B71
:102040001868002300221D4937F0ACFF1B4B1A888B
:102050001E4B1A801F4B1B78012B2BD11E4B1B686C
:10206000184638F05DF80346002B20D11B4B1B7837
:10207000502B06D1184B186800230022184937F05E
:1020800091FF164B1B78282B06D1134B18680023A1
:102090000022144937F086FF104B1B78142B06D111
:1020A0000D4B1868002300220F4937F07BFF094BC6
:1020B00000221A70642037F0C7FD6DE740E9002464
:1020C0003A09002448E900248988888842E90024E4
:1020D000080900241D0000240C0900241E0000240F
:1020E00004000024080000240C00002480B582B005
:1020F00000AF78605B4B1B78002B05D101222021BB
:10210000594830F07DF904E000222021564830F093
:1021100077F9564B1A78564B1B789A4214D0534B8A
:102120001B78012B06D101224FF48051514830F029
:1021300067F905E000224FF480514E4830F060F915
:102140004A4B1A784A4B1A704B4B1A784B4B1B78F8
:102150009A421FD0494B1B78142B1BD100224FF4FD
:102160008051474830F04CF901224FF40051444867
:1021700030F046F9434B01221A70434B01221A708A
:10218000424B01221A703D4B1A783B4B1A70404B60
:1021900001221A70384B1A78384B1B789A421FD09C
:1021A000364B1B78282B1BD101224FF48051344829
:1021B00030F026F900224FF40051314830F020F978
:1021C000304B01221A70304B01221A702F4B012222
:1021D0001A702A4B1A78284B1A702D4B01221A704C
:1021E000254B1A78254B1B789A421FD0234B1B781E
:1021F000502B1BD100224FF48051214830F000F9C0
:1022000000224FF400511E4830F0FAF81D4B012215
:102210001A701D4B01221A701C4B01221A70174BA9
:102220001A78154B1A701A4B01221A70194B1A881A
:10223000194B1B889A4211D0FEF7A8FA114B0122C4
:102240001A70114B01221A70104B01221A70124B96
:102250001A88104B1A800E4B01221A70642037F036
:10226000F3FC47E739090024001802583A09002412
:102270003B090024000002581F0000241E00002417
:10228000000402581D000024380900241C0000240A
:1022900026000024240000242200002480B588B0F9
:1022A00000AF7860994B1B78012B40F0C18100236F
:1022B000FB830023BB8324E0BB8B03F001039BB2B1
:1022C000002B05D1BB8B002B02D0FB8B0133FB8392
:1022D000BB8B8F4A32F8133007EE903AB8EE677A2C
:1022E000FB8B8C4A9B001344D3ED007ABB8B67EECB
:1022F000277A894A9B001344C3ED007ABB8B0133D4
:10230000BB83BB8BB3F5805FD6D301230022824908
:10231000824850F0ABFA4FF4006281497E4850F099
:1023200055FB7F4B4FF000025A607D4B03F5805305
:1023300003F6FC734FF000021A60794B03F58053EB
:1023400003F6F8734FF000021A6000237B830EE05F
:102350007B8B03F580627B8B714992000A44126883
:1023600070499B000B441A607B8B01337B837B8B12
:10237000B3F5806FECD34FF480633B830EE03B8B6F
:10238000A3F580623B8B664992000A441268654956
:102390009B000B441A603B8B01333B833B8BB3F5B3
:1023A000006FECD30023FB825F4B1B78002B58D1CE
:1023B0000023BB8251E0BB8A5A4A9B00134493ED31
:1023C000007ABB8A0133574A9B001344D3ED007A4D
:1023D00037EE277ABB8A0233524A9B001344D3ED6F
:1023E000007A37EE277ABB8A03334E4A9B001344A8
:1023F000D3ED007A37EE277ABB8A0433494A9B0033
:102400001344D3ED007A37EE277ABB8A0533454A69
:102410009B001344D3ED007A77EE277AB7EEE76A94
:10242000B1EE085B86EE057BFB8AFDEEC77B17EEFF
:10243000901A3E4A42F82310FB8A3C4A52F8233055
:10244000322B04DDFB8A394A322142F82310FB8A01
:102450000133FB82BB8A0633BB82BB8AB3F5006FB4
:10246000A9D3314B1B78012B48D14FF4AB737B823E
:102470003FE07B8A2B4A9B00134493ED007A7B8AD2
:102480000133284A9B001344D3ED007A37EE277AB4
:102490007B8A0233234A9B001344D3ED007A37EE44
:1024A000277A7B8A03331F4A9B001344D3ED007ABB
:1024B00077EE277AB7EEE76AB1EE005B86EE057B32
:1024C000FB8AFDEEC77B17EE901A184A42F82310DC
:1024D000FB8A164A52F82330322B04DDFB8A134A5A
:1024E000322142F82310FB8A0133FB827B8A0433BA
:1024F0007B827B8A40F2AA629342BAD90A4B1B784C
:10250000022B48D140F2AB233B823FE044E9002458
:102510004029002440C90024404900243C87050884
:102520004089002440A900243C09002448E90024F3
:102530003B8A414A9B00134493ED007A3B8A013366
:102540003D4A9B001344D3ED007A77EE277AB7EE2D
:10255000E76AB0EE005B86EE057BFB8AFDEEC77B8B
:1025600017EE901A354A42F82310FB8A334A52F884
:102570002330322B04DDFB8A304A322142F823100B
:10258000FB8A0133FB823B8A02333B823B8A40F267
:1025900055529342CCD92A4B1B78032B27D140F2BA
:1025A0005633FB811EE0FB89234A9B001344D3ED85
:1025B000007AFB8AFDEEE77A17EE901A1F4A42F87E
:1025C0002310FB8A1D4A52F82330322B04DDFB8A8C
:1025D0001A4A322142F82310FB8A0133FB82FB891D
:1025E0000133FB81FB8940F2AB429342DBD9154AB0
:1025F000124B1046194640F254531A4652F049FA0B
:10260000114B1B68184637F08BFD0346002B06D193
:102610000D4B1868002300220A4937F0C3FC0B4B0E
:1026200000221A704FF4006209490A482CF0D2FBCC
:10263000322037F009FB35E640A9002448E90024A0
:102640003C0900249CEE00241009002444E90024E5
:10265000400900247802002480B582B000AF786081
:10266000064B1B78012B04D1FEF7A8FA034B00227E
:102670001A701E2037F0E8FAF2E700BF26000024A7
:1026800080B584B000AF3B4600221A605A609A6061
:10269000DA602CF073FE01233B7000237B704FF057
:1026A00010537B6012233B7200237B720023BB72AA
:1026B0000323FB7201233B7300237B730123BB7352
:1026C0000123FB733B4618462CF090FE01237B70E0
:1026D0004FF0E0437B601C233B720023FB7200231E
:1026E000BB730023FB733B4618462CF07FFE02238E
:1026F0007B7016233B720323FB720123BB73012300
:10270000FB733B4618462CF071FE03237B704FF0A1
:1027100010437B601C233B720023FB720023BB73BE
:102720000023FB733B4618462CF060FE04237B70AD
:1027300019233B720323FB720123BB733B461846EC
:102740002CF054FE04202CF031FE00BF1037BD46A3
:1027500080BD000080B582B000AF78607B681B68E8
:102760000C4A934201D12AF053FA7B681B680A4A4B
:1027700093420AD1094B1B78012B03D1074B00224E
:102780001A7002E0054B01221A7000BF0837BD46DF
:1027900080BD00BF001000400000014044E900245B
:1027A00080B400AF00BFBD465DF8047B70470000F9
:1027B00080B584B000AF7860184A7B681360FF2151
:1027C000032000F0B7F98021102000F0B3F9802138
:1027D000112000F0AFF98021122000F0ABF9802128
:1027E000132000F0A7F98021142000F0A3F9802124
:1027F000152000F09FF98021162000F09BF9802120
:10280000172000F097F98023FB73FB7B1946B72054
:1028100000F090F900BF1037BD4680BD40F50024A0
:1028200080B58CB002AF03463960FB713B681B6812
:102830007B623B685B683B623B689B68FB617B6AD1
:10284000DA013B6AD901FB6991FBF3F31344A3F569
:102850000073BB613B6ADB01FA6993FBF2F2F96931
:1028600001FB02F29B1A7B61FB693B61FB79002B48
:1028700001D11A2300E02223FB73F87B002301938C
:10288000002300933B697A69B96900F079F9A021C6
:10289000B12000F04FF900BF2837BD4680BD80B59C
:1028A0008CB002AF3B600346FB710B46BB71134615
:1028B0007B713B685B683B613B689B68FB603B6886
:1028C000DB68BB60002387F82730FB79022B01D936
:1028D00001238DE03B681B78002B0AD13B69072B55
:1028E00005DD3B69082B04D1FB68002B01D10223D5
:1028F0007EE03B69042B09D100233B620023FB618E
:102900000123BB61032387F8273016E03B69DA0116
:10291000FB68D901BB6891FBF3F31344A3F5007383
:102920003B62FB68DB01BA6893FBF2F2B96801FB1A
:1029300002F29B1AFB61BB68BB610023FB7500239D
:10294000BB7500237B75FB79022B14D0022B19DC9D
:10295000002B02D0012B07D014E02A23FB75A523FE
:10296000BB7510237B750DE03223FB75A623BB7569
:1029700011237B7506E03A23FB75A723BB75122351
:102980007B7500BF7B7943F00C033B75BB79012B52
:1029900003D13B7D43F020033B753B681B78002B44
:1029A00009D0FB68002B02D03B69042B03D13B7D8F
:1029B00043F040033B753A7D7B7D1146184600F09D
:1029C000B9F83B681B7CF87D019397F8273000939A
:1029D000BB69FA69396A00F0D3F897F8303003F030
:1029E0007F03DAB2BB7D1146184600F0A3F800233E
:1029F00018462837BD4680BD80B487B000AFF86068
:102A0000B9607A60384B7B61FB68384A934202D2E6
:102A1000364BFB6005E0FB68354A934201D9344BE5
:102A2000FB60FB68334AA2FB03239B0C324A12680B
:102A300002FB03F3314AA2FB03235B09FA68D31AB2
:102A4000FB607B6800221A707B6800221A74FB68A6
:102A50002B4A934203D87B687F225A6012E0FB68BE
:102A6000284A934207D2284AFB68B2FBF3F31A467E
:102A70007B685A6006E0254AFB68B2FBF3F31A460E
:102A80007B685A607B6800229A607B680122DA606A
:102A90007B685B681A46FB6802FB03F33B613A699B
:102AA0007B6992FBF3F2BB681A603B697A6993FB1E
:102AB000F2F2796901FB02F29B1A154A82FB0312BA
:102AC0009210DB17D21ABB685A607B69104A82FBEE
:102AD00003129210DB17D21ABB689A6000BF1C3732
:102AE000BD465DF8047B704740787D01C05C1500F1
:102AF00000E1F50583DE1B4340F500241F85EB5103
:102B00009FC44A0000127A0040BE402500E9A43567
:102B1000ABAAAA2A80B582B000AF0346FB71FB794D
:102B2000DB43DBB21946032000F004F800BF08378E
:102B3000BD4680BD80B586B004AF03460A46FB7132
:102B40001346BB7100BF25230322C0210B482FF081
:102B500085FF0346002BF6D1FB799AB22523029319
:102B600001230193BB1D00930123C02103482FF0D3
:102B700047FD00BF0837BD4680BD00BFD00500241B
:102B800080B588B004AFB9607A603B600346FB73E0
:102B90003B681B12DAB2294B1A703B68DAB2274B3A
:102BA0005A70BB681B145BB203F003035AB23B7E3E
:102BB0009B005BB203F00C035BB213435AB23B7F42
:102BC0001B015BB203F070035BB213435BB2DAB27A
:102BD0001A4B9A70BB681B12DAB2184BDA70BB68DA
:102BE000DAB2164B1A713B681B135BB223F00F036A
:102BF0005AB27B681B145BB203F00F035BB2134342
:102C00005BB2DAB20D4B5A717B681B12DAB20B4B16
:102C10009A717B68DAB2094BDA71FB7B9AB2252391
:102C2000029308230193054B00930123C02104481C
:102C30002FF0E6FC00BF1037BD4680BD38F50024FC
:102C4000D005002480B582B000AF164BD3F8F43025
:102C5000144A43F00203C2F8F430124BD3F8F430B4
:102C600003F002037B607B6800220F216FF00100FC
:102C70002CF05CFB0B4BD3F8F4300A4A43F40043CE
:102C8000C2F8F430074BD3F8F43003F400433B6050
:102C90003B682AF015F8022029F0FEFF00BF083734
:102CA000BD4680BD0044025880B5B6B000AF786024
:102CB00007F12003B8220021184651F0C4FD7B68BB
:102CC0001B689C4A934278D14FF400224FF00003D6
:102CD000C7E908234FF40033C7F8C03007F12003D9
:102CE000184633F0ADFB0346002B01D0FFF758FD2B
:102CF000914B1B680133904A13608F4B1B68012B6B
:102D00000ED18E4BD3F8D8308C4A43F02003C2F852
:102D1000D8308A4BD3F8D83003F02003FB61FB692D
:102D2000864BD3F8E030854A43F00103C2F8E03027
:102D3000824BD3F8E03003F00103BB61BB694FF075
:102D400080714FF0807029F0CBFF7D4B7D4A1A6077
:102D50007B4B09225A607A4B00229A60784B002202
:102D6000DA60774B4FF480621A61754B4FF48052F2
:102D70005A61734B4FF480429A61714B0022DA61C1
:102D80006F4B00221A626E4B00225A626C482CF084
:102D90002DFE0346002B01D0FFF702FD7B68684A39
:102DA0009A65674A7B6893630022052112202CF004
:102DB000BDFA12202CF0D4FAB8E07B681B68624A96
:102DC000934249D14FF400224FF00003C7E9082392
:102DD0004FF40033C7F8C03007F12003184633F032
:102DE0002FFB0346002B01D0FFF7DAFC524B1B6888
:102DF0000133514A1360504B1B68012B0ED14F4BCE
:102E0000D3F8D8304D4A43F02003C2F8D8304B4BAA
:102E1000D3F8D83003F020037B617B69474BD3F8AC
:102E2000E030464A43F00103C2F8E030434BD3F8A8
:102E3000E03003F001033B613B694FF000714FF05C
:102E4000007029F04DFF0022052112202CF06EFAAF
:102E500012202CF085FA69E07B681B683B4A93429C
:102E600064D14FF400224FF00003C7E908234FF468
:102E70000033C7F8C03007F12003184633F0E0FAFA
:102E80000346002B01D0FFF78BFC2C4BD3F8E0302E
:102E90002A4A43F08073C2F8E030284BD3F8E03080
:102EA00003F08073FB60FB68244BD3F8E030234AC7
:102EB00043F00403C2F8E030204BD3F8E03003F0D5
:102EC0000403BB60BB684FF080614FF0806029F065
:102ED00007FF1F4B1F4A1A601D4B11225A601C4BE3
:102EE00000229A601A4B0022DA60194B4FF480627C
:102EF0001A61174B4FF480525A61154B4FF48042C0
:102F00009A61134B4FF48072DA61114B00221A62FE
:102F10000F482CF06BFD0346002B01D0FFF740FC5F
:102F20007B680B4A9A650A4A7B68936300BFD8376F
:102F3000BD4680BD0020024044F5002400440258F4
:102F4000C803002410000240002102400060025823
:102F5000400400240854025880B485B000AF786063
:102F60007B681B680B4A93420ED10B4BD3F8E030C1
:102F7000094A43F40023C2F8E030074BD3F8E030AD
:102F800003F40023FB60FB6800BF1437BD465DF807
:102F9000047B7047004C02580044025880B58AB048
:102FA00000AF786007F1140300221A605A609A603B
:102FB000DA601A617B681B68344A934261D1344BF2
:102FC000D3F8E830324A43F00053C2F8E830304BCF
:102FD000D3F8E83003F000533B613B692C4BD3F846
:102FE000E0302B4A43F00103C2F8E030284BD3F81D
:102FF000E03003F00103FB60FB6820237B610323C7
:10300000BB610023FB6107F11403194621482EF030
:1030100035FF214B214A1A601F4B43225A601E4B39
:1030200040229A601C4B0022DA601B4B4FF48062F6
:103030001A61194B4FF480525A61174B4FF480427A
:103040009A61154B4FF48072DA61134B00221A62B9
:10305000114B00225A6210482CF0C8FC0346002B8A
:1030600001D0FFF79DFB7B680B4A9A600A4A7B6898
:1030700093630022052136202CF058F936202CF0DD
:103080006FF900BF2837BD4680BD00BF0074004007
:103090000044025800000258F004002428000240B6
:1030A00080B584B000AF78607B681B680E4A93429D
:1030B00016D10E4BD3F8D4300C4A43F01003C2F8AB
:1030C000D4300A4BD3F8D43003F01003FB60FB6814
:1030D000002205215A202CF029F95A202CF040F921
:1030E00000BF1037BD4680BD00100052004402589A
:1030F00080B5BCB000AF786007F1DC0300221A6035
:103100005A609A60DA601A6107F12003B822002140
:10311000184651F098FB7B681B685F4A93426BD15D
:103120004FF008024FF00003C7E908230023C7F857
:10313000A03007F12003184633F082F90346002B34
:1031400001D0FFF72DFB554BD3F8E030534A43F045
:103150000403C2F8E030514BD3F8E03003F004032D
:10316000FB61FB694D4BD3F8E0304C4A43F08003E0
:10317000C2F8E030494BD3F8E03003F08003BB6184
:10318000BB694FF40073C7F8DC301223C7F8E03096
:103190000023C7F8E4300023C7F8E8300423C7F859
:1031A000EC3007F1DC0319463D482EF067FE802322
:1031B000C7F8DC301223C7F8E0300023C7F8E4304A
:1031C0000023C7F8E8300423C7F8EC3007F1DC032C
:1031D000194634482EF052FE304BD3F8E8302F4ACF
:1031E00043F40003C2F8E8302C4BD3F8E83003F482
:1031F00000037B617B694BE07B681B682A4A934232
:1032000046D14FF010024FF00003C7E90823002316
:10321000C7F8B43007F12003184633F011F903461C
:10322000002B01D0FFF7BCFA1C4BD3F8E0301B4A4F
:1032300043F02003C2F8E030184BD3F8E03003F03D
:1032400020033B613B694FF44043C7F8DC30122355
:10325000C7F8E0300023C7F8E4300023C7F8E830AF
:103260000423C7F8EC3007F1DC0319460F482EF0B1
:1032700005FE0A4BD3F8F430084A43F08003C2F845
:10328000F430064BD3F8F43003F08003FB60FB68A6
:1032900000BFF037BD4680BD005C004000440258CE
:1032A00000080258001C0258001C00580014025864
:1032B00080B582B000AF78607B681B68174A934284
:1032C00011D1174BD3F8E830154A23F40003C2F8A4
:1032D000E8304FF4007113482EF078FF8021124837
:1032E0002EF074FF16E07B681B68104A934211D1E0
:1032F0000B4BD3F8F4300A4A23F08003C2F8F430C1
:103300004FF400410A482EF061FF4FF48041084815
:103310002EF05CFF00BF0837BD4680BD005C00405A
:103320000044025800080258001C0258001C0058B3
:103330000014025880B5BEB000AF786007F1E40316
:1033400000221A605A609A60DA601A6107F1280355
:10335000B8220021184651F076FA7B681B68DE4AD5
:10336000934240F0CE814FF000524FF00003C7E986
:103370000A2319233B654FF490737B650223BB65D9
:103380000223FB651E233B6600237B664FF400731C
:10339000BB660023FB6607F12803184633F050F89C
:1033A0000346002B01D0FFF7FBF9CC4BD3F8E430F8
:1033B000CA4A43F00803C2F8E430C84BD3F8E430FB
:1033C00003F008037B627B6AC44BD3F8E030C34A46
:1033D00043F00203C2F8E030C04BD3F8E03003F012
:1033E00002033B623B6ABD4BD3F8E030BB4A43F07B
:1033F0000803C2F8E030B94BD3F8E03003F008031B
:10340000FB61FB69B54BD3F8E030B44A43F00103EC
:10341000C2F8E030B14BD3F8E03003F00103BB61F8
:10342000BB69AE4BD3F8E030AC4A43F01003C2F8AE
:10343000E030AA4BD3F8E03003F010037B617B69E6
:10344000A64BD3F8E030A54A43F04003C2F8E03081
:10345000A24BD3F8E03003F040033B613B699F4B44
:10346000D3F8E0309D4A43F08003C2F8E0309B4B34
:10347000D3F8E03003F08003FB60FB68974BD3F890
:10348000E030964A43F00403C2F8E030934BD3F89F
:10349000E03003F00403BB60BB684FF48073C7F8EF
:1034A000E4300223C7F8E8300023C7F8EC300023EB
:1034B000C7F8F0300E23C7F8F43007F1E4031946DB
:1034C00087482EF0DBFC0923C7F8E4300223C7F855
:1034D000E8300023C7F8EC300023C7F8F0300E23A3
:1034E000C7F8F43007F1E40319467E482EF0C6FC15
:1034F00040F20323C7F8E4300223C7F8E830002382
:10350000C7F8EC300323C7F8F0300E23C7F8F430C7
:1035100007F1E403194672482EF0B0FC4FF48073B3
:10352000C7F8E4300223C7F8E8300023C7F8EC30CE
:103530000323C7F8F0300D23C7F8F43007F1E40394
:10354000194669482EF09AFC4BF60203C7F8E4309E
:103550000223C7F8E8300023C7F8EC300323C7F88C
:10356000F0300E23C7F8F43007F1E40319465F4842
:103570002EF084FC4FF48043C7F8E4300223C7F8F0
:10358000E8300023C7F8EC300323C7F8F0300E23EF
:10359000C7F8F43007F1E403194655482EF06EFCE5
:1035A0004023C7F8E4300223C7F8E8300023C7F807
:1035B000EC300323C7F8F0300E23C7F8F43007F1DE
:1035C000E403194647482EF059FC48F20403C7F8B3
:1035D000E4300223C7F8E8300023C7F8EC300023BA
:1035E000C7F8F0300E23C7F8F43007F1E4031946AA
:1035F00040482EF043FCC023C7F8E4300223C7F84C
:10360000E8300023C7F8EC300023C7F8F0300E2371
:10361000C7F8F43007F1E403194637482EF02EFCC2
:103620008023C7F8E4300223C7F8E8300023C7F846
:10363000EC300023C7F8F0300E23C7F8F43007F160
:10364000E40319462A482EF019FC40F60873C7F81F
:10365000E4300223C7F8E8300023C7F8EC30032336
:10366000C7F8F0300E23C7F8F43007F1E403194629
:1036700020482EF003FC5823C7F8E4300223C7F893
:10368000E8300023C7F8EC300323C7F8F0300E23EE
:10369000C7F8F43007F1E403194613482EF0EEFBA7
:1036A0001023C7F8E4300223C7F8E8300023C7F836
:1036B000EC300323C7F8F0300923C7F8F43007F1E2
:1036C000E40319460B482EF0D9FB002205215820AF
:1036D0002BF02CFE12E000BF0010005000440258F6
:1036E00000040258000C0258000002580010025852
:1036F00000180258001C02580008025858202BF0ED
:103700002FFE00BFF837BD4680BD00BF80B592B028
:1037100000AF786007F1340300221A605A609A60A3
:10372000DA601A617B681B68B54A934240F0E68014
:10373000B44B1B680133B34A1360B24B1B68012BB7
:103740000ED1B14BD3F8D430AF4A43F40013C2F8D2
:10375000D430AD4BD3F8D43003F400133B633B6B50
:10376000A94BD3F8D430A84A43F48043C2F8D430EC
:10377000A54BD3F8D43003F48043FB62FB6AA24B21
:10378000D3F8E030A04A43F04003C2F8E0309E4B4B
:10379000D3F8E03003F04003BB62BB6A9A4BD3F826
:1037A000E030994A43F00803C2F8E030964BD3F872
:1037B000E03003F008037B627B6A934BD3F8E03080
:1037C000914A43F01003C2F8E0308F4BD3F8E03059
:1037D00003F010033B623B6A8B4BD3F8E0308A4A1C
:1037E00043F02003C2F8E030874BD3F8E03003F019
:1037F0002003FB61FB69844BD3F8E030824A43F03D
:103800000203C2F8E030804BD3F8E03003F002034B
:10381000BB61BB694FF400737B630223BB6300236E
:10382000FB6303233B6409237B6407F134031946DC
:1038300076482EF023FBB0237B630223BB63002377
:10384000FB6303233B640A237B6407F134031946BB
:103850006F482EF013FB04237B630223BB6300231A
:10386000FB6303233B6409237B6407F1340319469C
:1038700068482EF003FB40237B630223BB630023D5
:10388000FB6303233B640A237B6407F1340319467B
:103890005E482EF0F3FA4FF460537B630223BB6360
:1038A0000023FB6303233B6409237B6407F1340398
:1038B000194657482EF0E2FA4FF480637B630223E7
:1038C000BB630023FB6303233B6409237B6407F191
:1038D0003403194650482EF0D1FA04237B630223A7
:1038E000BB630023FB6303233B640A237B6407F170
:1038F0003403194649482EF0C1FA7CE07B681B6806
:10390000474A934277D13F4B1B6801333D4A1360CE
:103910003C4B1B68012B0ED13B4BD3F8D4303A4AB9
:1039200043F40013C2F8D430374BD3F8D43003F447
:1039300000137B617B69344BD3F8D430324A43F4B3
:103940000023C2F8D430304BD3F8D43003F4002332
:103950003B613B692C4BD3F8E0302B4A43F04003EA
:10396000C2F8E030284BD3F8E03003F04003FB60AE
:10397000FB68254BD3F8E030234A43F02003C2F81C
:10398000E030214BD3F8E03003F02003BB60BB688C
:1039900040F603037B630223BB630023FB63032323
:1039A0003B6409237B6407F13403194617482EF062
:1039B00065FA4FF4A0537B630223BB630023FB63D0
:1039C00003233B6403237B6407F1340319460F4848
:1039D0002EF054FA41F21F037B630223BB630023E2
:1039E000FB6303233B6409237B6407F1340319461B
:1039F00009482EF043FA00BF4837BD4680BD00BFDE
:103A00000050005248F500240044025800180258A3
:103A1000000C02580010025800140258000402580A
:103A200000A0005280B582B000AF78607B681B6850
:103A30002F4A934230D12F4B1B68013B2D4A136014
:103A40002C4B1B68002B07D12B4BD3F8D4302A4AC0
:103A500023F40013C2F8D430274BD3F8D430264ACD
:103A600023F48043C2F8D4304FF4107123482EF071
:103A7000ADFB43F6B00122482EF0A8FB04212148FB
:103A80002EF0A4FB4FF480611F482EF09FFB042111
:103A90001E482EF09BFB27E07B681B681C4A934264
:103AA00022D1144B1B68013B124A1360114B1B6857
:103AB000002B07D1104BD3F8D4300F4A23F4001356
:103AC000C2F8D4300C4BD3F8D4300B4A23F4002383
:103AD000C2F8D43041F6034108482EF077FB41F29A
:103AE0001F0109482EF072FB00BF0837BD4680BD9C
:103AF0000050005248F500240044025800180258B3
:103B0000000C025800100258001402580004025819
:103B100000A0005280B58AB000AF786007F11403AE
:103B200000221A605A609A60DA601A617B681B682A
:103B3000184A934229D1184BD3F8EC30164A43F077
:103B40001003C2F8EC30144BD3F8EC3003F0100340
:103B50003B613B69104BD3F8E0300F4A43F004035C
:103B6000C2F8E0300C4BD3F8E03003F00403FB6004
:103B7000FB6810237B610323BB610023FB6107F11A
:103B80001403194605482EF079F900BF2837BD46C1
:103B900080BD00BF00900040004402580008025859
:103BA00080B485B000AF78607B681B68164A93428A
:103BB0000FD1164BD3F8F030144A43F00103C2F88A
:103BC000F030124BD3F8F03003F00103FB60FB68D8
:103BD00013E07B681B680E4A93420ED10B4BD3F85F
:103BE000F0300A4A43F00203C2F8F030074BD3F832
:103BF000F03003F00203BB60BB6800BF1437BD4662
:103C00005DF8047B704700BF00000140004402588B
:103C10000004014080B58AB000AF786007F114035A
:103C200000221A605A609A60DA601A617B681B6829
:103C30002E4A934255D12E4BD3F8EC302C4A43F008
:103C40008073C2F8EC302A4BD3F8EC3003F0807369
:103C50003B613B69264BD3F8E030254A43F04003F3
:103C6000C2F8E030224BD3F8E03003F04003FB60B1
:103C7000FB681F4BD3F8E0301D4A43F02003C2F825
:103C8000E0301B4BD3F8E03003F02003BB60BB688F
:103C90004FF400537B610223BB610023FB610223CD
:103CA0003B620D237B6207F11403194611482EF085
:103CB000E5F840237B610223BB610023FB61002305
:103CC0003B620D237B6207F1140319460A482EF06C
:103CD000D5F800220521A1202BF028FBA1202BF0F4
:103CE0003FFB00BF2837BD4680BD00BF00E000405D
:103CF00000440258001802580014025880B590B0D1
:103D000000AF78607B680F2B27D8002279683620B7
:103D10002BF00CFB36202BF023FB294A7B68136029
:103D2000284BD3F8E830274A43F01003C2F8E830B4
:103D3000244BD3F8E83003F01003FB60FB6807F175
:103D4000100207F114031146184632F037FBBB6A24
:103D5000BB63BB6B002B06D101E001232BE032F0EB
:103D600001FBF86304E032F0FDFA03465B00FB63FD
:103D7000FB6B154AA2FB03239B0C013B7B63134B9C
:103D8000134A1A60114B40F2E732DA600F4A7B6B3C
:103D900053600E4B00221A610C4B00229A600B48B4
:103DA00034F034FF0346002B04D1084835F004F802
:103DB000034600E0012318464037BD4680BD00BFE2
:103DC000900100240044025883DE1B434CF500247C
:103DD0000010004080B400AF00BFBD465DF8047B1A
:103DE000704780B400AF00BFFDE780B400AF00BFF4
:103DF000FDE780B400AF00BFFDE780B400AF00BFB7
:103E0000FDE780B400AF00BFBD465DF8047B70479E
:103E100080B500AF02482CF0ABFB00BF80BD00BFF7
:103E2000C803002480B500AF02482CF0A1FB00BFFE
:103E300080BD00BFF004002480B500AF034829F026
:103E40000DFD034829F00AFD00BF80BD7802002463
:103E5000E802002480B500AF064B1B79DBB2002BD3
:103E600002D004482BF016FC034835F07FF900BF60
:103E700080BD00BFDC0400244CF5002480B500AFF9
:103E800002482FF01BFB00BF80BD00BF7806002456
:103E900080B500AF02482DF0E1FE00BF80BD00BF3D
:103EA0006805002480B500AF02482CF061FB00BF1C
:103EB00080BD00BF4004002480B500AF024835F04B
:103EC00055F900BF80BD00BFA408002480B400AF36
:103ED00001231846BD465DF8047B704780B582B06B
:103EE00000AF7860396050F0A7FD034616221A60D3
:103EF0004FF0FF3318460837BD4680BD80B582B00D
:103F000000AF78604FF0FF317868FFF7E7FF00BF40
:103F1000FDE780B586B000AFF860B9607A60002335
:103F20007B610AE0AFF300800146BB685A1CBA60AF
:103F3000CAB21A707B6901337B617A697B689A42E5
:103F4000F0DB7B6818461837BD4680BD80B483B06F
:103F500000AF78604FF0FF3318460C37BD465DF870
:103F6000047B704780B483B000AF786039603B68F1
:103F70004FF400525A60002318460C37BD465DF8D6
:103F8000047B704780B483B000AF7860012318468B
:103F90000C37BD465DF8047B704780B485B000AF38
:103FA000F860B9607A60002318461437BD465DF8A2
:103FB000047B704780B586B000AF7860144A154B1B
:103FC000D31A7B617B693B61134B1B68002B02D1C9
:103FD000114B124A1A60104B1A687B6813443A69F5
:103FE0009A4207D250F028FD03460C221A604FF087
:103FF000FF3309E0084B1B68FB60074B1A687B68BE
:104000001344054A1360FB6818461837BD4680BD47
:10401000000005240010000098F5002488BE032449
:10402000DFF834D028F03CFD002103E00B4B5B5857
:10403000435004310A480B4B42189A42F6D30A4ABD
:1040400002E0002342F8043B084B9A42F9D350F0B7
:10405000F9FCFCF751FE704700000524980706089C
:10406000000000245C0200245C02002484BE0324BF
:10407000FEE780B400AF00BFBD465DF8047B70472B
:1040800080B500AF02F012F801F0DEFF00BF80BD86
:1040900080B582B000AF786002F010F800BF08373A
:1040A000BD4680BD80B483B000AF7860044A7B68B1
:1040B0001A607B6818460C37BD465DF8047B704774
:1040C0004C67050880B582B000AF78607868FFF76C
:1040D000E9FF0C2178684FF064F87B6818460837D0
:1040E000BD4680BD80B584B000AF78600B46FB70E4
:1040F000FB78002B11D07B681B6810331B68786835
:10410000984702467B689B68D31AFB607B685A68B5
:10411000FB681A447B685A6008E07B681B681033B0
:104120001B687868984702467B689A6000BF103722
:10413000BD4680BD80B483B000AF78607B685B68AB
:1041400018460C37BD465DF8047B704780B483B0D9
:1041500000AF786039607B683A685A6000BF0C37FE
:10416000BD465DF8047B704780B483B000AF7860D3
:104170000B4B1B680A4A43F080731360094B1A68A3
:104180000849094B13430B60084B1B68074A43F06F
:104190000103136000BF0C37BD465DF8047B704718
:1041A000FCED00E0B01F00E055CEACC5001000E013
:1041B00080B485B000AFF860B9607A603B607A681F
:1041C000BB68D21A3B685B081A443B68B2FBF3F346
:1041D00018461437BD465DF8047B704780B483B041
:1041E00000AF7860034B1B6818460C37BD465DF87E
:1041F000047B7047041000E080B584B000AF7860A5
:104200000B46FB70FB78002B11D07B681B681033CA
:104210001B687868984702467B689B68D31AFB60E6
:104220007B685A68FB681A447B685A6008E07B68C0
:104230001B6810331B687868984702467B689A6051
:1042400000BF1037BD4680BD80B582B000AF78603A
:10425000054A7B681A607B681846FFF723FF7B6876
:1042600018460837BD4680BD2467050880B582B072
:1042700000AF78607868FFF7E7FF0C2178684EF0B0
:1042800090FF7B6818460837BD4680BD80B483B078
:1042900000AF7860044A7B681A607B6818460C3768
:1042A000BD465DF8047B70478C67050880B582B019
:1042B00000AF78607868FFF7E9FF042178684EF076
:1042C00070FF7B6818460837BD4680BD80B586B054
:1042D00000AF786008233B6100237B61074B1B889C
:1042E000BB60074B1B88FB6007F1080319460020E1
:1042F00028F05EF900BF1837BD4680BD66B20324C2
:1043000068B2032480B588B000AFF860B9607A6005
:1043100007F1100300221A605A609A6007F1100337
:104320001946002028F000FA0346002B14BF012391
:104330000023DBB2002B0BD04FF0500383F3118826
:10434000BFF36F8FBFF34F8FFB6100BF00BFFDE76F
:104350003B69002B09D07B691A46BB681A60BB69B0
:104360001A467B681A60012300E0002318462037B4
:10437000BD4680BD80B582B000AF7860054A7B68DD
:104380001A607B681846FFF781FF7B68184608377C
:10439000BD4680BD7467050880B582B000AF786007
:1043A0007868FFF7E7FF042178684EF0FAFE7B6833
:1043B00018460837BD4680BD80B582B000AF0023E7
:1043C0007B6015E07B68DBB2184600F00BF9034612
:1043D000002B0AD00A4A7B6852F82330012B04D004
:1043E000074A7B68012142F823107B6801337B6018
:1043F0007B68042BE6DD00BF00BF0837BD4680BDEB
:104400009CF5002480B582B000AF0346FB71FB79B8
:10441000032B49D801A252F823F000BF2D44000815
:104420004B4400086944000889440008FB79204A8D
:1044300052F82330002B0CBF01230023DBB21A46B5
:1044400001211C482DF0DCFF2EE0FB79184A52F8C0
:104450002330002B0CBF01230023DBB21A460821B6
:1044600015482DF0CDFF1FE0FB79114A52F823309B
:10447000002B0CBF01230023DBB21A464FF480410E
:104480000E482DF0BDFF0FE0FB79094A52F82330AA
:10449000002B0CBF01230023DBB21A464FF400416E
:1044A00006482DF0ADFF00BF00BF0837BD4680BDF8
:1044B0009CF500240000025800180258000402581D
:1044C00080B582B000AF0346FB71FB79032B49D85E
:1044D00001A252F823F000BFE94400080745000894
:1044E0002545000845450008FB79204A52F823304D
:1044F000002B01D0012300E000231A4601211C48B3
:104500002DF07EFF2EE0FB79184A52F82330002B65
:1045100001D0012300E000231A46082115482DF0A0
:104520006FFF1FE0FB79114A52F82330002B01D0B6
:10453000012300E000231A464FF480410E482DF07D
:104540005FFF0FE0FB79094A52F82330002B01D0BE
:10455000012300E000231A464FF4004106482DF0E5
:104560004FFF00BF00BF0837BD4680BD9CF500244B
:1045700000000258001802580004025880B582B0AA
:1045800000AF0346FB71FB79032B21D801A252F83F
:1045900023F000BFA5450008AF450008B945000855
:1045A000C545000801210C482DF043FF10E008210B
:1045B0000A482DF03EFF0BE04FF4804108482DF0F3
:1045C00038FF05E04FF4004105482DF032FF00BFF1
:1045D00000BF0837BD4680BD0000025800180258D1
:1045E0000004025880B584B000AF0346FB7100237D
:1045F000FB73FB79032B29D801A252F823F000BFEB
:10460000114600081F4600082D4600083D460008D8
:10461000012113482DF0DCFE0346FB7316E0082150
:1046200010482DF0D5FE0346FB730FE04FF4804198
:104630000D482DF0CDFE0346FB7307E04FF400411B
:1046400009482DF0C5FE0346FB7300BFFB7B012B21
:104650000CBF01230023DBB218461037BD4680BDD6
:1046600000000258001802580004025880B483B0B9
:1046700000AF7860044A7B681A607B6818460C3784
:10468000BD465DF8047B70475878050880B582B058
:1046900000AF78607868FFF7E9FF7C2178684EF01A
:1046A00080FD7B6818460837BD4680BD80B400AFEA
:1046B000034B1B681846BD465DF8047B704700BF7E
:1046C0006CB2032480B483B000AF78600B46FB70FB
:1046D0007B68FA7883F878207B68012283F8792058
:1046E00000BF0C37BD465DF8047B704780B582B0D3
:1046F00000AF78600B467B8013463B800C4B1B88D9
:104700007A889A4204D30B4B1B883A889A4205D286
:10471000094B0A4A9E210A484FF08EFE094A7B88BF
:104720001380094A3B88138000BF0837BD4680BD0F
:1047300060B2032462B20324BC5505082056050864
:104740006456050866B2032468B2032480B582B0BB
:1047500000AF78607B6893F87A30002B09D07B68D3
:104760005A687B685B681B681B681046984703465D
:1047700000E0002318460837BD4680BD80B582B0F2
:1047800000AF786078683AF089F97B681B68AC33D1
:104790001B687868984700BF0837BD4680BD80B465
:1047A00083B000AF78603960002318460C37BD46EF
:1047B0005DF8047B7047000080B584B000AFF860FE
:1047C000B9607A603B60BB68002B06D10F4B104A82
:1047D00040F2D2210F484FF02FFEFB68BA68DA632F
:1047E000FB687A681A647B68002B14BF01230023DE
:1047F000DAB2094B1A70FB681B688C331B68396886
:10480000F868984700BF1037BD4680BDAC56050814
:10481000E4560508645605086AB2032480B483B0E0
:1048200000AF786039607B683A685A643B68002B57
:1048300014BF01230023DAB2034B1A7000BF0C37F8
:10484000BD465DF8047B70476BB2032480B483B02F
:1048500000AF786039607B683A681A6100BF0C3736
:10486000BD465DF8047B704780B483B000AF7860CC
:104870000B46FB707B68FA7883F8702000BF0C371A
:10488000BD465DF8047B704780B483B000AF7860AC
:10489000002318460C37BD465DF8047B704780B591
:1048A00082B000AF78600B467B807B689B6B002BEF
:1048B00004D07B689B6B7A881046984700BF083706
:1048C000BD4680BD80B483B000AF78604FF6FF7303
:1048D00018460C37BD465DF8047B704780B582B042
:1048E00000AF78607B685A687B685B681B68183328
:1048F0001B6810469847034618460837BD4680BDDA
:1049000080B485B000AF78607B6893F878207B68CE
:1049100093F834309A4211D0144B1B78002B1ED1DF
:10492000134B1B88BB81134B1A88114B1A80114AF9
:10493000BB8913800D4B01221A7010E00B4B1B78C2
:10494000002B0CD00A4B1B88FB810A4B1A88084BA2
:104950001A80084AFB891380044B00221A7000BF9A
:104960001437BD465DF8047B704700BF64B2032472
:1049700062B2032460B2032480B582B000AF7860D5
:104980007B68184639F0E8FA00BF0837BD4680BD9D
:1049900080B582B000AF7860054A7B681A607B689A
:1049A0001846FFF763FE7B6818460837BD4680BD92
:1049B000786C050880B582B000AF78607868FFF742
:1049C000E7FF7C2178684EF0ECFB7B6818460837DF
:1049D000BD4680BD80B582B000AF78607B68184668
:1049E000FFF7CAFF00BF0837BD4680BD80B582B063
:1049F00000AF78607B68184602F0B0FB7A687B688D
:104A00001B688C331B680C49104698477B687C33C5
:104A10001846FFF7A9FB7A687B687C331946104675
:104A2000FFF714FF7B6801211846FFF71DFF00BF49
:104A30000837BD4680BD00BF0000007080B582B061
:104A400000AF78607B681B6880331B687868984784
:104A50007B681B6878331B687868984700F074F9A6
:104A60007A687B681B6870331B6810469847012280
:104A70004FF4806109482DF0C3FC01224FF400413E
:104A800007482DF0BDFC00F05FF97A687B681B6871
:104A900070331B681046984700BFF4E7000C0258BB
:104AA0000018025880B582B000AF78607B68184665
:104AB00002F0ECFB034618460837BD4680BD80B5C2
:104AC00082B000AF786039607B683968184602F0C0
:104AD000EBFB00BF0837BD4680BD000080B586B047
:104AE00000AF786039607B683968184602F0F2FBE5
:104AF0001F4B0022C3F88420BFF34F8F00BF1C4B15
:104B0000D3F880307B617B695B0BC3F30E033B61A1
:104B10007B69DB08C3F30903FB603B695A0143F679
:104B2000E0731340FA68920711491343C1F87432D5
:104B3000FB685A1EFA60002B14BF01230023DBB26E
:104B4000002BEAD13B695A1E3A61002B14BF0123A6
:104B50000023DBB2002BDBD1BFF34F8F00BFBFF3CD
:104B60006F8F00BF00BF00BF1837BD4680BD00BFBC
:104B700000ED00E080B582B000AF78607B68184639
:104B800002F010FB00BF0837BD4680BD80B582B083
:104B900000AF78607B68184602F014FB00BF08374E
:104BA000BD4680BD80B582B000AF78607B68184696
:104BB00002F016FB00BF0837BD4680BD80B582B04D
:104BC00000AF78607B68184602F018FB00BF08371A
:104BD000BD4680BD80B582B000AF78607B68002B99
:104BE00007D0FFF763FD03460121184639F070FF37
:104BF00006E0FFF75BFD03460021184639F068FF29
:104C0000012318460837BD4680BD000080B582B03C
:104C100000AF7860084A7B681A607B687C3318466E
:104C2000FFF712FB7B681846FFF7B2FE7B68184659
:104C30000837BD4680BD00BFA467050880B582B0B7
:104C400000AF78607868FFF7E1FF882178684EF060
:104C5000A8FA7B6818460837BD4680BD80B500AF0E
:104C600000220121012035F00AF803460F4A1360A3
:104C70000E4B1B68002B05D10D4B0E4A28210E4808
:104C80004FF0DAFB00220421012035F017F903462A
:104C90000A4A1360094B1B68002B05D1084B054AD3
:104CA0002C2105484FF0C8FB00BF80BDACF50024A7
:104CB0003457050880570508B0570508B0F500249B
:104CC0000858050880B500AF044B1B684FF0FF3152
:104CD000184635F05DF800BF80BD00BFACF500247C
:104CE00080B500AF034B1B68184635F0A3F800BF32
:104CF00080BD00BFACF5002480B500AF034B1B683E
:104D00000021184635F044F800BF80BDACF5002402
:104D100080B500AF034B1B68184635F08BF800BF19
:104D200080BD00BFACF5002480B500AF044B18680F
:104D300000230022034935F035F900BF80BD00BFD4
:104D4000B0F500244C01002480B582B000AF094BBF
:104D50001868391D0023002235F084F9054B1868C6
:104D6000391D4FF0FF33002235F07CF900BF0837C2
:104D7000BD4680BDB0F5002480B483B000AF0346CB
:104D8000FB80B7F90630002B0BDBFB8803F01F021A
:104D90000749B7F906305B09012000FA02F241F831
:104DA000232000BF0C37BD465DF8047B704700BF71
:104DB00000E100E080B483B000AF0346FB80B7F9A8
:104DC0000630002B12DBFB8803F01F020A49B7F9FB
:104DD00006305B09012000FA02F2203341F823205B
:104DE000BFF34F8F00BFBFF36F8F00BF00BF0C3703
:104DF000BD465DF8047B704700E100E080B483B0FD
:104E000000AF78607B6800221A607B6818460C3718
:104E1000BD465DF8047B704780B483B000AF786016
:104E20007B681B6818460C37BD465DF8047B7047ED
:104E300080B483B000AF7860044A7B681A607B68F6
:104E400018460C37BD465DF8047B7047CC680508F2
:104E500080B582B000AF78607868FFF7E9FF042181
:104E600078684EF09EF97B6818460837BD4680BDCD
:104E700080B582B000AF78607B681B6844331B68E4
:104E80007868984700BF0837BD4680BD80B483B0BE
:104E900000AF7860044A7B681A607B6818460C375C
:104EA000BD465DF8047B70473079050880B582B057
:104EB00000AF78607868FFF7E9FF0C2178684EF062
:104EC00070F97B6818460837BD4680BD80B483B052
:104ED00000AF78603960094A7B681A607B683A687D
:104EE0005A607B6800221A727B6800225A727B68C3
:104EF00018460C37BD465DF8047B704730790508CD
:104F000080B483B000AF7860012318460C37BD46EB
:104F10005DF8047B704780B582B000AF78607A6836
:104F20007B681B6828331B681046984700BF08370A
:104F3000BD4680BD80B582B000AF78607B685A689E
:104F40007B685B681B6814331B681046984700BF7A
:104F50000837BD4680BD80B582B000AF7860FFF7EE
:104F6000A5FB03461846FFF7E5FF00BF0837BD461F
:104F700080BD80B582B000AF78607B680C33184686
:104F8000FFF73CFF7B6818460837BD4680BD000030
:104F9000B0B582B000AF78607A687B680C33194690
:104FA0001046FFF793FF0E4A7B681A607B6803F197
:104FB0000C007B6820336022194639F0DBFE7B68E9
:104FC00020335F241D4604E02846FFF7D2FF013C52
:104FD0002435002CF8DA7B6818460837BD46B0BD8A
:104FE0007C68050880B582B000AF7860094A7B68AC
:104FF0001A605A20FFF7DEFE7B680C33184600F07B
:1050000017FB7B681846FFF741FF7B681846083797
:10501000BD4680BD7C68050880B582B000AF786071
:105020007868FFF7DFFF4FF45A6178684EF0B9F8FF
:105030007B6818460837BD4680BD000080B584B047
:1050400000AF7860124BD3F8D430114A43F010030C
:10505000C2F8D4300E4BD3F8D43003F01003FB6009
:10506000FB680B4BDB6F0A4A43F01003D367084B16
:10507000DB6F074A23F01003D367064B064A1A6218
:105080005A20FFF779FE00BF1037BD4680BD00BF34
:105090000044025868050024574F000880B584B0CA
:1050A00000AF78600B46FB700023FB60FB780B2B96
:1050B00026D801A252F823F0F5500008EF5000085E
:1050C000E950000801510008015100080151000891
:1050D00001510008FB500008FB500008FB5000087D
:1050E000FB500008FB5000080023FB600EE001238A
:1050F000FB600BE00223FB6008E00523FB6005E09A
:10510000054B064A652106484FF096F9FB6818469C
:105110001037BD4680BD00BF4C58050868580508CB
:10512000B458050880B584B000AF78600B46FB70BA
:105130000023FB60FB780A2B21D801A252F823F050
:1051400079510008735100086D5100087F51000823
:105150007F5100087F5100087F51000873510008FB
:105160007351000873510008735100080023FB605D
:105170000BE00123FB6008E00223FB6005E0054B28
:10518000054A862105484FF057F9FB681846103745
:10519000BD4680BD4C58050808590508B458050897
:1051A00080B483B000AF786040F2EF3318460C371C
:1051B000BD465DF8047B704790B589B000AF78605C
:1051C00039603B685B7F19467868FFF767FFB86115
:1051D0003B689B7F19467868FFF760FF78613B6802
:1051E0009B7F19467868FFF79DFF38613B685B8BB2
:1051F0001A463B689B8AD21A944B1A643B685B8BB5
:105200001A463B689B8AD21A904B9A613B681B8B6B
:105210001A463B689B8AD21A8C4B1A618B4A3B69AF
:1052200053633B68DB8A1A463B689B8A1B041A431C
:10523000864B5A643B681A69844BDA633B685A6848
:10524000824BDA603B681B68B3F5007F36D0B3F55C
:10525000007F00F2DE80B3F5807F15D0B3F5807F4C
:1052600000F2D780802B43D0802B00F2D280402BDD
:1052700000F0BB80402B00F2CC80042B00F0A1801A
:10528000202B00F0B280C4E03B681B7F1A066F49F8
:105290006F4B1343CB613B680C336C4C1846FFF7E4
:1052A000BBFD03462362694A7B6953623B681A6906
:1052B000664B5A61654B674A1A60C2E03B681B7FC8
:1052C0001A066249644B1343CB613B680C335F4C55
:1052D0001846FFF7A1FD034623625C4A7B695362CF
:1052E0003B681A69594B5A61584B5A4A1A60A8E0F0
:1052F0003B689B68FB600123FB773B681B7F1A06BA
:10530000BB691343514A43F40033D3614F4A7B696D
:1053100053623B681A694D4B5A61FB681A1D4B4B2F
:10532000DA62FB681B88DBB2002B02D0012B0DD0A8
:1053300020E0464BDA69494B1340FA685288013A3B
:1053400012021146414A0B43D3611AE03B681B7FAE
:10535000FF2B01D10023FB773C4BDA693F4B134015
:10536000FA685288013A12021343384A43F0100394
:10537000D36106E03A4B3B4A4FF480713A484FF014
:105380005BF8324BDB69314A43F02003D36100BF45
:105390002E4BDB6903F02003002B14BF01230023F5
:1053A000DBB2002BF4D1294B10229A60FB7F002B3B
:1053B00003D0264B274A1A6043E0244B2B4A1A603D
:1053C0003FE03B681B7F1A06BB6913431F4A43F447
:1053D0000033D3611D4A7B6953623B681A691B4BDA
:1053E0005A611A4B1B4A1A602BE03B681B7F1A0656
:1053F000BB691343154A43F40033D361134A7B69F5
:1054000053623B681A69114B5A61104B114A1A607A
:1054100017E03B681B7F1A06BB6913430B4A43F432
:105420000033D3613B685A7F3B689B7F9A4203D02D
:10543000064B0E4A1A6003E0044B40F201221A6048
:1054400000BF00BF2437BD4690BD00BF0010005212
:105450000A0002000102020009000200EF00FFFF43
:105460005459050870590508B4580508010201008F
:1054700090B585B000AF786039603B689B7F194676
:105480007868FFF74FFEF8602F4AFB6853633B686C
:10549000DB8A1A463B689B8A1B041A432A4B5A64D0
:1054A0003B681A69284BDA633B685B8B1A463B689A
:1054B0009B8AD21A244B1A643B681B68082B2DD197
:1054C0003B685B8B1A463B689B8AD21A1E4B9A61DB
:1054D0003B685B8B1A463B689B8AD21A1A4B1A614F
:1054E000194AFB6853623B681B7F1A061649174B23
:1054F0001343CB613B680C33134C1846FFF78CFC0D
:10550000034623623B681A690F4B5A613B681A696C
:105510000D4BDA600C4B0E4A1A6010E00A4AFB6829
:10552000D361094B00221A613B680C33064C1846C4
:10553000FFF772FC0346A363034B064A1A6000BFE1
:105540001437BD4690BD00BF001000520900010095
:10555000010202000102030080B400AF00BF094B4A
:105560001B6803F00103002B14BF01230023DBB2EF
:10557000002BF4D1034B23229A6000BFBD465DF897
:10558000047B70470010005280B485B000AFF86013
:10559000B9607A60FB7000BF214B1B6803F0010308
:1055A000002B14BF01230023DBB2002BF4D11C4BD2
:1055B00023229A601A4B01225A63BB681B04184AC3
:1055C00043F001035364164AFB68D363FB78FF2B57
:1055D00017D0134B01225A62FB781A061049114B5F
:1055E0001343CB610E4A7B6823F07F4313620C4A5E
:1055F000FB6853610A4AFB68D360094B0A4A1A6088
:1056000008E0074B0122DA61054A7B689363044B8B
:10561000064A1A6000BF1437BD465DF8047B704728
:105620000010005209000100010002000100030007
:1056300080B582B000AF7860054A7B681A607B68ED
:105640001846FFF7F5FB7B6818460837BD4680BD56
:105650008079050880B582B000AF78607868FFF780
:10566000E7FF142178684DF09CFD7B6818460837E9
:10567000BD4680BD80B483B000AF78607B680022F7
:105680001A807B6800225A807B6800229A807B689F
:105690000022DA807B6818460C37BD465DF8047B33
:1056A0007047000080B483B000AF7860044A7B6824
:1056B000136000BF0C37BD465DF8047B704700BF28
:1056C000D0B2032480B483B000AF7860044A7B6812
:1056D0001A607B6818460C37BD465DF8047B70473E
:1056E0002C6B050880B582B000AF78607868FFF752
:1056F000E9FF042178684DF054FD7B6818460837AF
:10570000BD4680BD80B485B000AFF860B9607A60F6
:105710003B600B4AFB681A60FB68BA685A60FB681A
:105720007A689A60FB683A68DA60FB68BA691A615D
:10573000FB6818461437BD465DF8047B704700BF10
:105740001C6B050880B483B000AF7860044A7B68A6
:105750001A607B6818460C37BD465DF8047B7047BD
:105760001C6B050880B582B000AF78607868FFF7E1
:10577000E9FF142178684DF014FD7B68184608375E
:10578000BD4680BD80B483B000AF7860396000BF93
:105790000C37BD465DF8047B704780B483B000AF22
:1057A0007860396000BF0C37BD465DF8047B7047F8
:1057B00080B483B000AF7860396000BF0C37BD465D
:1057C0005DF8047B704780B483B000AF78600B460F
:1057D000FB7000BF0C37BD465DF8047B704780B49A
:1057E00083B000AF786000BF0C37BD465DF8047B26
:1057F000704780B483B000AF786000BF0C37BD46FF
:105800005DF8047B7047000080B483B000AF78601F
:10581000044A7B681A607B6818460C37BD465DF801
:10582000047B7047F46A050880B582B000AF7860E9
:105830007868FFF7E9FF042178684DF0B2FC7B68D7
:1058400018460837BD4680BD80B483B000AF78608D
:10585000044A7B681A607B6818460C37BD465DF8C1
:10586000047B7047E06A050880B582B000AF7860BD
:105870007868FFF7E9FF042178684DF092FC7B68B7
:1058800018460837BD4680BD80B483B000AF78604D
:10589000044A7B681A607B6818460C37BD465DF881
:1058A000047B70470083050880B582B000AF786044
:1058B0007868FFF7E9FF0C2178684DF072FC7B688F
:1058C00018460837BD4680BD80B483B000AF78600D
:1058D00039607B683A689A6000BF0C37BD465DF856
:1058E000047B704780B483B000AF786000BF0C3792
:1058F000BD465DF8047B704780B483B000AF78602C
:105900000B46FB7000BF0C37BD465DF8047B70474B
:1059100080B483B000AF786039607B683A6803F583
:1059200098731068516803C300BF0C37BD465DF81B
:10593000047B704780B483B000AF7860044A7B6812
:105940001A607B6818460C37BD465DF8047B7047CB
:10595000C86A050880B582B000AF78607868FFF744
:10596000E9FF042178684DF01CFC7B681846083775
:10597000BD4680BD80B483B000AF7860074A7B68C5
:105980001A607B6800225A607B6800229A607B68FC
:1059900018460C37BD465DF8047B70474C67050818
:1059A00080B483B000AF78607B6800221A807B6887
:1059B00000225A807B6800229A807B680022DA806D
:1059C0007B6800221A817B6800225A817B68002252
:1059D0009A817B6800229A737B6818460C37BD4613
:1059E0005DF8047B704780B582B000AF78607B685B
:1059F0001846FFF7D5FF7B6800221A617B680022FA
:105A00009A827B6818460837BD4680BD80B584B051
:105A100000AFF860B9607A603B60554AFB681A6075
:105A2000FB68BA685A60FB687A689A60FB683A68F3
:105A3000DA60FB6800221A61FB6800225A61FB6889
:105A400000229A61FB681C331846FFF7CCFFFB6805
:105A5000002283F83420FB6800229A63FB6800224E
:105A6000DA63FB6800221A64FB6800225A64FB6850
:105A7000002283F84820FB68012283F84920FB6854
:105A8000002283F84A20FB68002283F84B20FB6841
:105A90000022DA64FB6850331846FFF7EBFDFB6821
:105AA000002283F85820FB680022DA65FB68002298
:105AB0001A66FB6800225A66FB68012283F8682098
:105AC000FB68002283F86920FB68002283F86A20C3
:105AD000FB68012283F86B20FB68002283F86C20AE
