:020000040800F2
:1000000000000524C5140008E1130008E3130008EC
:10001000E5130008E7130008E913000800000000DA
:10002000000000000000000000000000C18C00087B
:10003000EB13000800000000518D0008EF84000859
:1000400015150008151500081515000815150008E8
:1000500015150008151500081515000815150008D8
:1000600015150008151500081515000815150008C8
:1000700015150008151500081515000815150008B8
:1000800015150008151500081515000815150008A8
:100090001515000815150008151500081515000898
:1000A0001515000815150008151500081515000888
:1000B0001515000815150008151500081515000878
:1000C0001515000815150008151500081515000868
:1000D0001515000815150008151500081515000858
:1000E000151500081515000800000000151500087A
:1000F0001515000815150008151500081515000838
:100100001515000815150008151500081515000827
:100110001515000815150008ED1300081515000841
:100120001515000815150008151500081515000807
:1001300015150008151500081515000815150008F7
:1001400000000000000000000000000000000000AF
:1001500015150008151500081515000815150008D7
:1001600015150008151500081515000815150008C7
:1001700015150008151500081515000815150008B7
:1001800015150008151500081515000815150008A7
:100190001515000815150008151500081515000897
:1001A000F9130008151500080514000800000000E8
:1001B0001515000815150008151500081515000877
:1001C00015150008151500080000000000000000CB
:1001D00000000000000000001515000800000000ED
:1001E000000000000000000000000000000000000F
:1001F000000000000000000015150008151500089B
:100200001515000815150008000000001515000858
:100210001515000815150008151500081515000816
:10022000151500080000000015150008000000006A
:100230001515000815150008000000001515000828
:1002400015150008151500081515000815150008E6
:1002500015150008151500081515000815150008D6
:1002600015150008151500081515000815150008C6
:1002700015150008151500081515000800000000E8
:1002800015150008151500081515000815150008A6
:1002900000000000151500081515000815150008C8
:1002A0001515000815150008151500081515000886
:1002B0001515000815150008151500081515000876
:0C02C0001515000815150008151500089C
:1002D00010B5054C237833B9044B13B10448AFF380
:1002E00000800123237010BD1001002400000000D5
:1002F000D8AF020808B5034B1BB103490348AFF35D
:10030000008008BD0000000014010024D8AF0208DE
:1003100001F0FF01102A2BDB10F0070F08D010F8B6
:10032000013B013A8B422DD010F0070F42B3F6D1BA
:10033000F0B441EA012141EA014122F007047FF0D3
:1003400000070023F0E80256083C85EA010586EA2A
:10035000010685FA47F5A3FA87F586FA47F6A5FA66
:1003600087F68EB9EED1F0BC01F0FF0102F0070272
:1003700032B110F8013B013A83EA010313B1F8D11D
:100380000020704701387047002D06BF35460338FE
:10039000073815F0010F07D1013015F4807F02BF37
:1003A000013015F4C03F0130F0BC0138704700BF88
:1003B00081F0004102E000BF83F0004330B54FEA16
:1003C00041044FEA430594EA050F08BF90EA020F83
:1003D0001FBF54EA000C55EA020C7FEA645C7FEA16
:1003E000655C00F0E2804FEA5454D4EB5555B8BF39
:1003F0006D420CDD2C4480EA020281EA030382EAAA
:10040000000083EA010180EA020281EA0303362D3B
:1004100088BF30BD11F0004F4FEA01314FF4801C0E
:100420004CEA113102D0404261EB410113F0004F20
:100430004FEA03334CEA133302D0524263EB4303D7
:1004400094EA050F00F0A780A4F10104D5F1200E75
:100450000DDB02FA0EFC22FA05F2801841F10001D0
:1004600003FA0EF2801843FA05F359410EE0A5F1A4
:1004700020050EF1200E012A03FA0EFC28BF4CF0D5
:10048000020C43FA05F3C01851EBE37101F000458B
:1004900007D54FF0000EDCF1000C7EEB00006EEB98
:1004A0000101B1F5801F1BD3B1F5001F0CD3490822
:1004B0005FEA30004FEA3C0C04F101044FEA445279
:1004C00012F5800F80F09A80BCF1004F08BF5FEA00
:1004D000500C50F1000041EB045141EA050130BDE0
:1004E0005FEA4C0C404141EB0101013C28BFB1F5F2
:1004F000801FE9D291F0000F04BF01460020B1FA3D
:1005000081F308BF2033A3F10B03B3F120020CDA0F
:100510000C3208DD02F1140CC2F10C0201FA0CF0ED
:1005200021FA02F10CE002F11402D8BFC2F1200C52
:1005300001FA02F120FA0CFCDCBF41EA0C01904008
:10054000E41AA2BF01EB0451294330BD6FEA040451
:100550001F3C1CDA0C340EDC04F11404C4F120023C
:1005600020FA04F001FA02F340EA030021FA04F34E
:1005700045EA030130BDC4F10C04C4F1200220FAA5
:1005800002F001FA04F340EA0300294630BD21FAE3
:1005900004F0294630BD94F0000F83F4801306BFA9
:1005A00081F480110134013D4EE77FEA645C18BF9D
:1005B0007FEA655C29D094EA050F08BF90EA020F34
:1005C00005D054EA000C04BF1946104630BD91EA2C
:1005D000030F1EBF0021002030BD5FEA545C05D12F
:1005E0004000494128BF41F0004130BD14F580046E
:1005F0003CBF01F5801130BD01F0004545F0FE41E2
:1006000041F470014FF0000030BD7FEA645C1ABF16
:10061000194610467FEA655C1CBF0B46024650EA4D
:10062000013406BF52EA033591EA030F41F4002179
:1006300030BD00BF90F0000F04BF0021704730B5FF
:100640004FF4806404F132044FF000054FF00001D4
:1006500050E700BF90F0000F04BF0021704730B595
:100660004FF4806404F1320410F0004548BF40426A
:100670004FF000013EE700BF42004FEAE2014FEABF
:1006800031014FEA02701FBF12F07F4393F07F4F9A
:1006900081F06051704732F07F4208BF704793F09D
:1006A0007F4F04BF41F40021704730B54FF46074B0
:1006B00001F0004521F000411CE700BF50EA0102B3
:1006C00008BF704730B54FF000050AE050EA01025C
:1006D00008BF704730B511F0004502D5404261EBCC
:1006E00041014FF4806404F132045FEA915C3FF40D
:1006F000D8AE4FF003025FEADC0C18BF03325FEAAA
:10070000DC0C18BF033202EBDC02C2F1200300FA5A
:1007100003FC20FA02F001FA03FE40EA0E0021FA7F
:1007200002F11444BDE600BF0149002009F08EBC6F
:10073000C119000808B5642007F059FFFBE7000065
:1007400010B59CB04C22002109A829F0B1FC202250
:10075000002101A829F0ACFC042006F0A7FA002330
:1007600000931B4B9A6922F440429A619A6902F401
:1007700040420092009A9A699104FCD501224FF4FC
:10078000803300242C2109A81B94CDE909230223DE
:10079000CDE912331493CDE917330C23CDE91512AB
:1007A000CDE9193406F0C0FA03213F23082201A83D
:1007B0000394CDE901314023CDE904234FF4806255
:1007C0000693CDE9072306F0CBFD1CB010BD00BF9A
:1007D0000048025800B5AFB00021982208A829F0BF
:1007E00067FC4FF0007200236846CDE90023052224
:1007F0005023CDE902230223CDE90433069380235D
:1008000007932023139307F031F82FB05DF804FB12
:100810002DE98048A1B0102200214FF0105413A8F8
:10082000012529F045FC1C2704F0BAFBD64B13A880
:10083000ADF84C500326CDE91443D44B0024169355
:1008400004F0CCFB4FF0E04313A88DF8574014930D
:10085000ADF85A408DF84D508DF8547004F0BEFB41
:10086000022313A88DF857608DF84D3016238DF8AC
:10087000543040F20113ADF85A3004F0AFFB4FF0A2
:10088000104313A88DF857401493ADF85A40042430
:100890008DF84D608DF8547004F0A0FB192313A857
:1008A0008DF84D408DF854308DF857608DF85A50C2
:1008B00004F094FB204604F081FBB54B5A6912F416
:1008C000003211D1BFF34F8FBFF36F8FC3F85022A7
:1008D000BFF34F8FBFF36F8F5A6942F400325A61F2
:1008E000BFF34F8FBFF36F8FA94A536913F480335F
:1008F00023D1C2F88430BFF34F8FD2F8803043F653
:10090000E074C3F3C900C3F34E335B0103EA04068A
:10091000014646EA81750139C2F86052F9D2203B9E
:1009200013F1200FF2D1BFF34F8F536943F480339B
:100930005361BFF34F8FBFF36F8F04F08DFA002424
:10094000FFF7FEFE0126FFF745FF1422002113A842
:1009500029F0AEFB8F4B48F208018F48D3F8E02016
:100960004FF003084FF008094FF4806742F002028D
:100970008A4D4FF0050A4FF0040BC3F8E020D3F87E
:10098000E02002F002020092009AD3F8E02042F048
:100990004002C3F8E020D3F8E02002F040020192C8
:1009A000019AD3F8E02042F00802C3F8E020D3F81F
:1009B000E02002F008020292029AD3F8E02042F00E
:1009C0000102C3F8E020D3F8E02002F00102039214
:1009D000039AD3F8E02042F01002C3F8E020D3F8E5
:1009E000E02002F010020492049AD3F8E02042F0D2
:1009F0008002C3F8E020D3F8E02002F080020592E4
:100A0000059AD3F8E02042F00402C3F8E020D3F8BE
:100A1000E02002F004020692069AD3F8E02042F0A9
:100A20002002C3F8E0200022D3F8E03003F02003D6
:100A30000793079B04F0A6FD00224FF4404158485D
:100A400004F0A0FD00224FF48061564804F09AFDA6
:100A500000220121544804F095FD4FF4004313A9EE
:100A60004D48CDE91336CDE9154404F00DFC13A92A
:100A700049481594CDF85880CDE9139604F004FC4C
:100A80004FF4404313A94648CDE91336CDE9154844
:100A900004F0FAFB13A94348CDE91376CDE91544D8
:100AA00004F0F2FB13A94048CDE91366CDE91548DF
:100AB00004F0EAFB3D483E4B848003600662C0E9D7
:100AC000054404F0B7FA4FF440333A483A4AC0E9D3
:100AD0000264C0E9002304F00EFB3422214613A86F
:100AE00029F0E6FA354B2821352040F2152C40F24A
:100AF000352E2C61AC8685F83640C5E900340923D3
:100B0000C5E905130B23C5E9070340F21B1328466B
:100B1000C5E909C340F21D13C5E90244C5E90BE369
:100B200005F070F9FF214FF488734FF4F0722846F6
:100B30001A9713940227ADF87C408DF87E40204D23
:100B4000CDE918144FF0E041CDE91BA14FF0180A90
:100B500013A9CDE91D23CDE914242246CDE916368B
:100B600005F01BFA2146524613A829F0A1FA154BAD
:100B70004FF080722846AC60EC63C5E9003B20234F
:100B8000C5E9057420E000BF120000030100010167
:100B900000ED00E00044025800180258F001002463
:100BA00000040258000C0258000002580003002400
:100BB000004C02589802002400100052001000500F
:100BC0009401002400500052C5E90323C5E90744FD
:100BD000C5E90974C5E90B44C5E90D9405F06AFB44
:100BE0004FF0011341F2883213A9169303F57F03E6
:100BF000284615961793CDE9136605F0E7FD2846BC
:100C000005F0CCFB40F201132046434DADF83830DF
:100C100003F07EFD0EA9204603F06CFE204603F093
:100C20003FFD5246214613A829F042FA10222146E0
:100C30000AA829F03DFA142221460EA829F038FA14
:100C4000364B4FF080512846AC60C5E9003B4FF071
:100C50008063C5E9033A1723C5E90B134FF4C87342
:100C6000CDE90844EB63C5E905B4C5E90744C5E926
:100C70000974C5E90D4405F01DFB294B41F288328A
:100C800013A9169303F57F03284615971793CDE90B
:100C9000137705F09BFD062341F288320AA9284606
:100CA000CDF828800D96CDE90B3405F0D9FB4FF433
:100CB000405341F288320EA910934FF0005328465A
:100CC0000E9412930F94119605F0F0FB08A9284694
:100CD000089405F00BFD00F0F3FB00F01DFC00F0A4
:100CE0001AFC07F011FC0F4A21460F4807F038FCA8
:100CF0000E4B0F4A214618600E4807F031FC0E4B90
:100D00000E4A214618600E4807F02AFC0D4B186069
:100D100007F00CFCFEE700BF3801002400A00052E1
:100D2000020001009CB002083507000834010024CD
:100D300078B00208271500083001002454B00208DA
:100D40006D2F00082C0100240268034B9A4201D148
:100D500004F0B0B8704700BF0010004070470000BA
:100D60000A4B82B00F216FF00100D3F8F42042F05B
:100D70000202C3F8F4200022D3F8F43003F0020397
:100D80000193019B02B004F0CBB800BF00440258AD
:100D9000026882B0094B9A420DD1A3F50063D3F8E3
:100DA000E02042F40022C3F8E020D3F8E03003F45E
:100DB00000230193019B02B0704700BF004C025812
:100DC0000F4B07B502689A4217D10E4B05215A20E6
:100DD000D3F8D42042F01002C3F8D4200022D3F874
:100DE000D43003F010030193019B04F099F85A20CA
:100DF00003B05DF804EB04F0C5B803B05DF804FB84
:100E000000100052004402582DE9F041BCB00446E5
:100E10001422002109A829F04BF9B82200210EA8BC
:100E200029F046F92268774B9A4240F0E7804FF06C
:100E3000005200230EA8CDE90E234FF4907319221F
:100E4000CDE918230223CDE91A331E231C934FF456
:100E500000731E9306F00AFD08B1FFF77FFF6A4B8F
:100E6000002402260325D3F8E4200E2709A96748A9
:100E700042F008024FF05808C3F8E420D3F8E42009
:100E800002F008020192019AD3F8E02042F0020237
:100E9000C3F8E020D3F8E02002F002020292029AA6
:100EA000D3F8E02042F00802C3F8E020D3F8E020B5
:100EB00002F008020392039AD3F8E02042F01002F5
:100EC000C3F8E020D3F8E02002F010020492049A64
:100ED000D3F8E02042F00102C3F8E020D3F8E0208C
:100EE00002F001020592059AD3F8E02042F0400298
:100EF000C3F8E020D3F8E02002F040020692069A00
:100F0000D3F8E02042F08002C3F8E020D3F8E020DC
:100F100002F080020792079AD3F8E02042F0040220
:100F2000C3F8E020D3F8E0300D9703F004030893F2
:100F3000089B40F20333CDE90B45CDE9093604F0B7
:100F4000A3F9492309A932480D97CDE90936CDE91E
:100F50000B4504F099F94BF6030309A92D480D97A9
:100F6000CDE90936CDE90B4504F08EF94FF48073D5
:100F700009A92948CDE909360D23CDE90B450D9383
:100F800004F082F94FF4814309A924480D97CDE973
:100F90000936CDE90B4504F077F948F6087309A93D
:100FA0001F480D97CDE90936CDE90B4504F06CF9E2
:100FB000C02309A91B480D97CDE90936CDE90B459A
:100FC00004F062F909A914480D97CDE90986CDE925
:100FD0000B4504F059F9102309A91148CDE9093648
:100FE0000923CDE90B450D9304F04EF94046224606
:100FF000052103F095FF404603F0C4FF3CB0BDE877
:10100000F08100BF00100050004402580004025854
:10101000000C025800100258000002580018025834
:10102000001C0258000802582DE9F04391B0044614
:10103000142200210BA829F03BF82368884A934228
:1010400040F0B080874A13680133012B13600CD144
:10105000854BD3F8D42042F40012C3F8D420D3F83F
:10106000D43003F400130093009B7F4B022503242C
:101070000927D3F8D4200BA97C48002642F48042EB
:101080004FF00A084FF00409C3F8D420D3F8D42055
:1010900002F480420192019AD3F8E02042F040022B
:1010A000C3F8E020D3F8E02002F040020292029A56
:1010B000D3F8E02042F00802C3F8E020D3F8E020A3
:1010C00002F008020392039AD3F8E02042F01002E3
:1010D000C3F8E020D3F8E02002F010020492049A52
:1010E000D3F8E02042F02002C3F8E020D3F8E0205B
:1010F00002F020020592059AD3F8E02042F00202A5
:10110000C3F8E020D3F8E03003F002030693069B17
:101110004FF40073CDE90B35CDE90E4704F0B4F878
:10112000B0230BA95248CDF83C80CDE90B35CDE971
:101130000D6404F0A9F80BA94E480F97CDE90B9563
:10114000CDE90D6404F0A0F840230BA94748CDF881
:101150003C80CDE90B35CDE90D6404F095F84FF4F2
:1011600060530BA942480F97CDE90B35CDE90D64CB
:1011700004F08AF84FF480630BA93F480F97CDE93C
:101180000B35CDE90D6404F07FF80BA93B48CDF891
:101190003C80CDE90B95CDE90D6404F075F811B0F4
:1011A000BDE8F083364A9342F9D12E4A13680133E1
:1011B000012B13600CD12C4BD3F8D42042F4001235
:1011C000C3F8D420D3F8D43003F400130793079B5B
:1011D000254B032402250926D3F8D4200BA9234844
:1011E000002742F40022C3F8D420D3F8D42002F41C
:1011F00000220892089AD3F8E02042F04002C3F897
:10120000E020D3F8E02002F040020992099AD3F8D6
:10121000E02042F02002C3F8E020D3F8E03003F0F1
:1012200020030A930A9B40F60303CDE90E46CDE95D
:101230000B3504F029F84FF4A0530BA90B480F9479
:10124000CDE90B35CDE90D7404F01EF841F21F0312
:101250000BA909480F96CDE90B35CDE90D749CE734
:101260000050005224030024004402580018025881
:10127000000C0258001002580014025800040258D2
:1012800000A00052274A08B5036893422AD1264B92
:101290001A68013A1A60254B2AB9D3F8D42022F4EF
:1012A0000012C3F8D420D3F8D4204FF41071204892
:1012B00022F48042C3F8D42004F0C8F843F6B00109
:1012C0001C4804F0C3F804211B4804F0BFF84FF495
:1012D00080611A4804F0BAF804211948BDE80840B2
:1012E00004F0B4B8174A93421AD10F4B1A68013A66
:1012F0001A600E4B2AB9D3F8D42022F40012C3F896
:10130000D420D3F8D42041F60341094822F4002226
:10131000C3F8D42004F09AF841F21F010748DDE732
:1013200008BD00BF005000522403002400440258AE
:1013300000180258000C02580010025800140258FD
:101340000004025800A000520F2810B504468AB0CD
:1013500002D901200AB010BD01460022362003F058
:10136000DFFD362003F00EFE184B694602A81C6014
:10137000174BD3F8E82042F01002C3F8E820D3F866
:10138000E83003F010030193019B06F055F9079B29
:10139000C3B906F02DF90F4C0F4B236040F2E73331
:1013A000E3600E4BB0FBF3F0013800236060204691
:1013B0002361A36007F068F80028CAD1204606F030
:1013C00005FFC7E706F014F94000E4E748000024F1
:1013D00000440258280300240010004040420F003F
:1013E0007047FEE7FEE7FEE7FEE77047014806F0BC
:1013F00037BF00BF28030024014804F071BD00BFBF
:10140000F0010024014803F0B5BE00BF980200249B
:101410000120704708B528F055FF162303604FF0F0
:10142000FF3008BD08B528F04DFF16230360FEE726
:1014300070B50D4614460E46731B9C4201DC2046D7
:1014400070BDAFF3008006F8010BF5E770B50D46EF
:1014500014460E46731B9C4201DC204670BD16F8F4
:10146000010BAFF30080F5E74FF0FF3070474FF40A
:10147000005300204B6070470120704700207047E8
:101480000B4A0346116810B509B90A491160106882
:1014900009490A4C0344091B8B4206D928F012FF64
:1014A0000C2303604FF0FF3010BD1360FCE700BF5A
:1014B000740300246068012400000524001000006B
:1014C00070470000DFF834D003F070FC002103E027
:1014D0000B4B5B58435004310A480B4B42189A425D
:1014E000F6D30A4A02E0002342F8043B084B9A4232
:1014F000F9D328F0EDFEFFF78BF9704700000524C3
:10150000BCFE020800000024100100241001002489
:1015100060680124FEE7704708B501F0F7F8BDE800
:10152000084001F07BB801F0F3B8406870474160B3
:10153000704700004FF0E022D2F8FC3D43F080738A
:10154000C2F8FC3D054B064AD3F8B01F0A43C3F866
:10155000B02F1A6842F001021A607047001000E0D4
:1015600055CEACC5521A02EB5302B2FBF3F07047F2
:10157000014B5868704700BF001000E0704710B57D
:1015800004460C2127F062FF204610BD036810B509
:101590001B69044631B19847A26863689B1A0344EB
:1015A000636010BD9847A060FBE770471FB5082334
:1015B00000206946CDE90230054B1B880093054B9E
:1015C0001B88019303F010FB05B05DF804FB00BF1E
:1015D000425C0124445C012410B50446042127F038
:1015E00035FF204610BD30B585B000200D461446AD
:1015F00001A90390CDE9010003F078FB40B14FF061
:10160000500383F31188BFF36F8FBFF34F8FFEE753
:10161000019820B1029B01202B60039B236005B041
:1016200030BD0000032825D8DFE800F0020B131CB2
:10163000114B012111481A68B2FA82F2520903F0E3
:10164000A1BF0D4B08210E485A68B2FA82F2520926
:10165000F5E7094B4FF480419A68B2FA82F25209D9
:101660000848ECE7044B4FF40041DA68B2FA82F222
:101670005209F5E7704700BF7803002400000258C4
:101680000018025800040258032825D8DFE800F0AB
:10169000020B131C114B012111481A68003A18BFA4
:1016A000012203F06FBF0D4B08210E485A68003A23
:1016B00018BF0122F5E7094B4FF480419A68003AC0
:1016C00018BF01220848ECE7044B4FF40041DA68E8
:1016D000003A18BF0122F5E7704700BF78030024E5
:1016E000000002580018025800040258032811D8BC
:1016F000DFE800F00206090D0121074803F047BFAB
:1017000008210648FAE74FF480410548F6E74FF410
:101710000041FAE7704700BF000002580018025865
:101720000004025808B5032815D8DFE800F0020AC3
:101730000D110121094803F01FFF431E5842584173
:1017400008BD08210648F6E74FF480410548F2E756
:101750004FF40041FAE70020EFE700BF0000025815
:10176000001802580004025870B5084D00240126E4
:10177000E0B2FFF7D7FF18B12B68012B18BF2E601E
:1017800001340435052CF3D170BD00BF780300246B
:10179000012380F8781080F8793070470020704776
:1017A00041640039024B18BF01211970704700BF16
:1017B000475C012400207047836B0BB10846184733
:1017C00070474FF6FF707047406803689B69184781
:1017D0007047000038B5044601F0C6F80749236891
:1017E00004F17C052046D3F88C3098472846FFF753
:1017F000A1FE0123256184F8703038BD000000701F
:1018000008B503680446D3F880309847236820461B
:101810009B6F984700F02CF9236820461B6F984770
:1018200001224FF48061084803F0ACFE01224FF41E
:101830000041064803F0A6FE00F01AF9236820468E
:101840001B6F9847F8E700BF000C025800180258B9
:1018500010B5044617F0FCF823682046D3F8AC30E6
:10186000BDE81040184701F04BB801F04FB8000038
:1018700070B501F0A3F810490023C1F88430BFF31C
:101880004F8FD1F8803043F6E074C3F3C900C3F33F
:101890004E335B0103EA0406024646EA8275013ACA
:1018A000C1F87452F9D2203B13F1200FF2D1BFF3EB
:1018B0004F8FBFF36F8F70BD00ED00E000F0FCBFF5
:1018C00001F0E6B901F0EEB901F000B816F02CBB5A
:1018D00010B50446882127F0B9FD204610BD000050
:1018E00090F834100D4B10B590F878401A788C426F
:1018F00009D03AB90A490B4A088814881080012295
:101900000C801A7010BD002AFCD0064A04491488C5
:1019100008880C8010800022F3E700BF405C01249F
:101920003E5C01243C5C012470B50D46194635B976
:10193000094B40F2D221094A094828F0FDF8C0E9D4
:101940000F52003A074B18BF01221A700368BDE816
:101950007040D3F88C30184700B1020838B1020843
:1019600086B10208465C012408B5094B1B888B42EE
:1019700003D8084B1B88934205D9074B9E21074A81
:10198000074828F0D9F8074B1980074B1A8008BD83
:101990003C5C01243E5C0124CBB102082EB202085B
:1019A00086B10208425C0124445C0124034690F89D
:1019B0007A0018B1586803681B6818477047000020
:1019C000014608B5034B186801B1012117F05AF818
:1019D000012008BD485C01240121002208B5084609
:1019E00006F088FE0A4B186028B90A4B28210A4ADB
:1019F0000A4828F0A1F800220421012006F019FF6E
:101A0000074B186018B9074B2C21034AF0E708BDB3
:101A10008C0300244CB3020895B30208C4B3020837
:101A2000880300244EB40208024B4FF0FF311868BF
:101A300006F0AABE8C030024014B186806F0D0BE45
:101A40008C030024024B0021186806F09DBE00BFE5
:101A50008C030024FFF7F0BF0023034803491A4614
:101A6000006806F021BF00BF8803002404000024A2
:101A700013B50023074C01A91A46206806F045FF5C
:101A80004FF0FF33002201A9206806F03EFF02B0AC
:101A900010BD00BF8803002403685B6C1847012059
:101AA000704703689B6A184740F2EF3070470000A8
:101AB000054B4FF080620360044BC3F88820BFF3EE
:101AC0004F8FBFF36F8F704728B6020800E100E028
:101AD00010B504464FF45A61FFF7EAFF204627F09D
:101AE000B5FC204610BD00000F4B82B0D3F8D420C7
:101AF00042F01002C3F8D420D3F8D42002F0100230
:101B00000192019ADA6F42F01002DA67DA6F22F07E
:101B10001002DA67054B064A1A62064B4FF08062E4
:101B20009A6002B0704700BF004402589802002437
:101B30007D1D000800E100E008B50A2809D8DFE8AB
:101B400000F006100E0808080810101010000220FF
:101B500008BD054B8621054A054827F0EDFF00200A
:101B6000F6E70120F4E700BF90B40208ABB4020826
:101B7000F6B4020838B50C46887FFFF7DDFF124B3C
:101B8000A58AE28A586342EA054221695A64628B57
:101B9000D963521B1A642568082D0ED19A611A6107
:101BA00058620A4A207F42EA0062DA61E2681A62F9
:101BB000074A5961D9601A6038BD0022D8611A619C
:101BC000E2689A63034AF6E7001000520900010038
:101BD000010202000102030008B50B280BD8DFE860
:101BE00000F00612100A0A0A0A080808080802206B
:101BF00008BD0520FCE7054B6521054A054827F08F
:101C00009BFF0020F4E70120F2E700BF90B4020838
:101C10007EB50208F6B402082DE9F8434F7F8946E5
:101C20003846FFF7D9FF99F81E5080462846FFF73F
:101C3000D3FF06462846FFF77FFFB9F81410B9F81E
:101C40001A40B9F81820454B641A521A1C649C615A
:101C50001A61B9F81620586342EA0142D9F8101007
:101C60005A64D9F80420D963DA60D9F8004099F8A9
:101C70001C20802C22D00FD8202C66D0402C64D081
:101C8000042C5CD048EA0260344BAF4240F4003090
:101C9000D86160D0324A3FE0B4F5807F04D0B4F51B
:101CA000007FEFD12F4800E02F4840EA0262DA615E
:101CB000D9F80C201A625E6259612CE048EA026091
:101CC000D9F8084040F40030D8615E625961211DA6
:101CD000D962217841B1012921D0244B4FF4807180
:101CE000234A244827F028FFDA69618822F47F42DA
:101CF000013922F0100242EA0122DA610122174B77
:101D0000D96941F02001D961D9698906FCD4102133
:101D10009960002ABED0184A1A60BDE8F883D969D4
:101D2000FF3A608821F47F4118BF0122013821F079
:101D3000100141EA002141F01001D961DFE748EAD2
:101D4000026242F40032DA61B5E748EA0262034B0C
:101D500042F40032F7E740F20122DDE700100052C2
:101D600001020100090002000A000200C8B50208D1
:101D7000E2B50208F6B4020801020200024B1B6839
:101D8000586803685B691847485C012470B50446CD
:101D90000A4B0C300026254660226060267266726F
:101DA00045F8203B294616F0C3FF04F55A63EE6060
:101DB00024359D42FBD1204670BD00BF28B60208E5
:101DC000034B1A68D207FCD423229A60704700BFE5
:101DD0000010005230B5104C2568ED07FCD42325C7
:101DE0000904FF2BA5604FF0010541EA0501656379
:101DF0006164E0630CD0094922F07F42656241EAE8
:101E00000363E361064B22626061E060236030BDE2
:101E1000E561044BA263F9E70010005209000100DC
:101E200001000200010003004069704790F844007F
:101E30007047036B23B9C06A003818BF0120704790
:101E40000120704780687047043010B50C460FC8F9
:101E500084E80F0010BD704708B5034A40F2122114
:101E6000024B034827F068FE70B6020837D102081B
:101E7000CBB6020810B50446482127F0E7FA204601
:101E800010BD2DE9F0411E46ADF51E7D436B0746A2
:101E90000C469046A69D93B3002203A8CDE90132DB
:101EA0000EF08EFD4FF4F4725021249024A808F017
:101EB00054FD4246214624A809F0A8FC012124A88B
:101EC00008F046FE022324A88DF8D83008F0E1FE81
:101ED000419BBDF89482BDF89022984528BF984652
:101EE0002B9B9A4228BF1A4602EB4204479B984517
:101EF00009D824A808F04EFE24A808F07BFD0DF5B3
:101F00001E7DBDE8F081012201A924A808F00AFF86
:101F100030462246796B2E4428F001FAE6E70000AD
:101F20000A4A02600022C0E90522C0E90722C0E98E
:101F30000922C0E90B22C0E90D12C0E90F2280F886
:101F40004420C0E90322C0E901227047E8B9020831
:101F500010B40C4611461A46036B3BB1036C806B00
:101F6000E41A20445DF8044B28F0AAB8C06AF8E7E8
:101F7000036B10B573B1036C826BC91A5318525CB2
:101F800098785C780004DB7840EA0420104340EA4B
:101F9000036010BDC36A5858FBE7036B43B1036C81
:101FA000C91A836B5A18585C527840EA022070476D
:101FB000C36A585A7047000070B50446006B0D465E
:101FC0001646D8B1E36B934208D209230D4A652126
:101FD0000D4884F844300D4B27F0AEFD0368DB68F4
:101FE0009847206B3246A16B03681B69984710B96C
:101FF0000D2384F84430A06B256470BDE06A08446A
:10200000FBE700BF72B70208CBB602085FB7020851
:102010002DE9F843436904462BB9234BAA21234AEF
:10202000234827F089FD08228169FFF7C5FFA169D0
:1020300043F2300646F2643704312046FFF798FF3A
:10204000A3691844A36A00F108029A4206D3012347
:1020500000206361236AA361BDE8F88363690930E6
:102060000822013320F0010120466361A161FFF7DE
:10207000A3FFD4F8189020464946FFF78EFF09F1D8
:10208000020180462046FFF788FF09F1040105465A
:102090002046FFF76DFFB045D2D1BD42D0D1002818
:1020A000CED00120D8E700BFB4B70208FDB70208C0
:1020B000CBB602082DE9F04F0546ADF51F7D8B46E6
:1020C0009046816908221F46FFF776FFAE692846D1
:1020D000311DFFF74DFF06F1080102460446284670
:1020E000FFF76AFF6B6B064633B9344B40F2AB1116
:1020F000334A344827F020FD002203A8CDE90132FD
:102100000EF05EFC4FF4F4725021249024A808F0E5
:1021100024FC2246314624A809F078FB012124A89A
:1021200008F016FD022324A88DF8D83008F0B1FD80
:10213000BBF902A0479B53452DD3BBF8063007EBF4
:102140004707BBF80260BBF900401E44BBF80420FF
:10215000419B04EB440936B2224407FB0A9A9E4293
:1021600012B2D04428BF1E462B9B9A4294BFC4EBA8
:102170000204C4EB030404EB4404479BB34210D3B2
:1021800024A808F007FD24A808F034FC01200DF570
:102190001F7DBDE8F08F012201A924A808F0C2FD2F
:1021A000C8E7012201A924A808F0BCFD696B4046DC
:1021B00022464944B84428F0B2F8DEE730B80208B5
:1021C00086B80208CBB602080129036838BF01218E
:1021D000DB6A70B50D4604469847A84204D22368CE
:1021E0002046DB6A984705466B1EE66910222046AA
:1021F00006EB031606F10801FFF7DEFE06F11001FB
:102200002046FFF7B5FE236A043B0344C4E90553A7
:1022100070BD0000002148222DE9F0410446816193
:1022200080F84410FFF7C8FEA6690423624A3146CD
:102230002046FFF78DFE40B10323604AF22184F867
:1022400044305F4B5F4827F077FC06F10801042318
:102250005D4A2046A161FFF77BFE30B10423574A57
:10226000FA2184F84430594BECE706F10C010423C1
:10227000574A2046A161FFF76BFE074638B1052398
:102280004E4A40F2011184F84430524BDAE706F12D
:1022900010012046FFF76CFE054620B94E4B40F278
:1022A0000711464ACEE706F1140804234B4A20469C
:1022B0004146FFF74DFE002849D0062384F84430FC
:1022C0000423474A06F118012046FFF741FE002883
:1022D0003FD0072384F844304544424F0C22204627
:1022E0002946FFF769FE05F1080604233A46204611
:1022F0003146FFF72DFE94F84430002848D0002BDB
:1023000048D1A36AAB4249D805F10C0304352046F5
:10231000A3612946FFF72CFE30442946606220461F
:10232000FFF726FE0644042220463146FFF744FE0E
:1023300004232D4A31462046FFF70AFE002838D1F3
:102340000123E6616361A3692362BDE8F08101278F
:10235000B6E7002FC0D006F120012046FFF708FEA7
:102360004FF47A7306F13001B0FBF3F06060204661
:10237000FFF7FEFD06F14001A0602046FFF7F8FDE3
:1023800006F14401E0602046FFF7F2FD2061A3E77B
:10239000002BB9D00A2384F84430D6E7291D204603
:1023A000FFF7E6FD85190C2220462946FFF704FEBB
:1023B00099E70B23EFE700BFE0B80208FEB8020878
:1023C000E5B80208CBB602082BB9020830B90208FA
:1023D00048B902084DB9020863B902086FB902088A
:1023E00074B9020879B902087EB90208C0E90A2165
:1023F00000220263FFF70EBF10B500230446084613
:10240000E3620B6821639B689847A0622046BDE8A1
:102410001040FFF7FFBEF0B4069FBDF81050BDF8A6
:10242000146032B12BB10495CDE90567F0BCFFF71C
:1024300028BDF0BC704700002DE9F04F9946436974
:1024400085B004460F4690462BB9294B7721294A7F
:10245000294827F071FB08228169FFF7ADFDA669C5
:1024600020463146FFF799FDB11C83462046FFF711
:1024700094FD311D82462046FFF77AFD06F10801E2
:10248000A36A054642189A4226D243F230039B457E
:1024900017D146F264339A4513D190B10246A16137
:1024A0002046FFF789FD0E9B01462A462046CDF8BF
:1024B0000080CDE901933B46FFF7ADFF636901332F
:1024C0006361A3692B4405B908330133626A23F0C1
:1024D00001039342A36109D1012301206361236AAF
:1024E000A36180F0010005B0BDE8F08F0020F8E79F
:1024F000B4B7020883B90208CBB6020801207047BE
:102500000C2070470C2303FB0100083070470C239C
:1025100003FB01000830704701207047CC20704752
:10252000CC2303FB010008307047CC2303FB0100E0
:1025300008307047012070471020704700EB0110F1
:102540000830704700EB011008307047084600F073
:10255000DBBE0000034B10B50446036015F03AFAE9
:10256000204610BD90BA020810B50446FFF7F2FFEE
:102570001421204626F06AFF204610BD034B10B5FB
:102580000446036015F026FA204610BD5CBA020826
:1025900010B50446FFF7F2FFD421204626F056FF7F
:1025A000204610BD034B10B50446036015F012FA27
:1025B000204610BD28BA020810B50446FFF7F2FF06
:1025C0001821204626F042FF204610BD084B10B5CA
:1025D0000446036000F58070FFF7BCFF04F12C0097
:1025E000FFF7CCFF04F11400FFF7DCFF204610BD1D
:1025F000C4BA020808B50248FFF7E8FF08BD00BFEB
:102600004812002410B50446FFF7E0FF4FF41D7197
:10261000204626F01BFF204610BD00002DE9F341A7
:1026200000F0FAFC0024054600F0FAFC23460146BF
:102630002246284600941CF02DFF274B274A2046AF
:10264000274D1A6001F09EF8264B274A27489A60CA
:102650001CF0D8FD2B68BFF35B8FDB0735D4284611
:1026600026F0F6FE88B3224C224B04F58C7604F15A
:10267000140004F12C0804F5807723606060C4F82E
:102680000880E760266115F0A7F91B4B404663619F
:1026900015F0A2F9194B3846E36215F09DF9184B75
:1026A00004F58A70C4F8003101F0E2F8224604F51E
:1026B0008A71304601F0D2F8304600F025FE11480C
:1026C00027F058FA284626F0CFFE0F4802B0BDE8A2
:1026D000F041FFF77FB800BFAC5C01241804002470
:1026E00044120024380400241C04002408000024A0
:1026F00048120024C4BA020828BA02085CBA0208C8
:1027000090BA0208F52500089003002470470000E5
:102710000148FFF775B800BF9003002470B5274E3D
:10272000274B284C3046284D2360FFF72FFB2846C7
:102730001FF05EFF25481AF09BFF254B00224FF447
:10274000807124481A8683F858205A6683F87020CE
:10275000DC60C3E912122049C3E91A121F490B6059
:102760004FF4F07101801E4801804FF488711D48BC
:1027700001801D4801801D49C3E90422C3E90622E6
:10278000C3E90822C3E90A22C3E90E22C3E91022E1
:10279000C3E91422C3E91722C3E901650A70144989
:1027A000C3F8802083F8342019605A671149C3F8B0
:1027B0008420114A9967DA6770BD00BFA004002425
:1027C000F0B0020840120024380400241C04002445
:1027D000900300243C5C012401000001485C0124BA
:1027E000425C01243E5C0124445C0124405C0124E1
:1027F0007CB2020800000101C8B002080148FFF7DE
:1028000057B900BFA00400240020704781807047A2
:10281000C1807047018170474181704770477047A0
:1028200070477047704710B4C4880368121B8488CF
:102830005B6D091B12B25DF8044B09B218474FF6E5
:10284000FF7383814FF0FF3303621368C36110602D
:102850007047002070478B88838001207047704745
:1028600080F82610704790F826007047002210B5B7
:10287000B1F90840B1F90A10028042808480C18019
:1028800010BD0022028042808280C28070470177A2
:10289000704780ED080A704780F82410704780F870
:1028A0002510704701207047983070478C30704772
:1028B0008430704770470000034B902283F85A23FE
:1028C00083F85823704700BF00E100E0094A0A4935
:1028D000D3680A48C3F30A03013B9BB20B8011691A
:1028E000C1F30A01013901801364536B43F0010302
:1028F0005363704700100050BE140024BC14002421
:10290000014BD3F8AC00704700100050024B01227D
:10291000C3F8AC105A627047001000500163C0E960
:102920000D21704770477047704700EB81001146DA
:1029300040680368DB68184780F83C10704710B5A2
:102940000446482126F082FD204610BD10B50446FD
:102950002C2126F07BFD204610BD10B50446BC217D
:1029600026F074FD204610BD38B5044615F031FB45
:1029700023685D6E19F04EFD01462046A847236886
:10298000074A2046D3F8885000230649A847064B3B
:10299000064A5A60064A1A639A63064A5A6338BD61
:1029A00000F40B7000FA057080150024C81500248F
:1029B00000EE117000FA050015F0F2BA15F0BABA7F
:1029C00015F01BBC38B504460D46406C4FF0FF3186
:1029D00005F04EFE606C05F06EFE242303FB0545FA
:1029E000002385F8283094F828300BB9236BA363B3
:1029F00038BD90F8252012B103685B69184770470D
:102A0000124A5369DB0370B51ED50023C2F8843027
:102A1000BFF34F8FD2F8803043F6E074C3F3C900A0
:102A2000C3F34E335B0103EA0406014646EA8175AF
:102A30000139C2F87452F9D2203B13F1200FF2D1C0
:102A4000BFF34F8FBFF36F8F70BD00BF00ED00E08D
:102A500008B531B1044B4FF4B871044A044827F06B
:102A60006BF890F8290008BDD0BA0208E4BA020851
:102A70006EBC020810B531B1064B4FF4B571064A71
:102A8000064827F059F8406811460368BDE8104031
:102A90001B6B1847D0BA0208B1BC02086EBC020812
:102AA00008B529B1034B7921034A044827F044F8BB
:102AB000C06808BDD0BA02085FBE02086EBC02083A
:102AC00010B5044629B1194BA221194A194827F01B
:102AD00033F8052A15D8DFE802F0031115171C2278
:102AE000406803681B69984758B1012384F829306E
:102AF00084F82C300023C4E9043302E0002380F87A
:102B0000293010BD0362F5E70362012380F82A3003
:102B1000F0E7002380F8293001230362F1E7003B4E
:102B200018BF012380F82D30EBE700BFD0BA0208B0
:102B300014C002086EBC020810B50C4611461A46B5
:102B40002CB1064B9021064A064826F0F5FFC460DA
:102B500040680368BDE810409B681847D0BA020877
:102B6000E8C102086EBC020808B529B1054B8221F4
:102B7000054A064826F0E0FFC0E90411C0E9063224
:102B800008BD00BFD0BA0208C3C302086EBC020869
:102B900090F83D3010B5044653B14FF0FF31406C12
:102BA00005F066FD002384F83D30012384F83E30B3
:102BB00010BD90F825201AB190F8242002B11860B9
:102BC0007047000010B50446104629B1134BD021C0
:102BD000134A144826F0B0FF94F8293033B1124B51
:102BE0001B6893F86B2063691344636194F82B307E
:102BF0000BB9012010BDA368036303685B699847A4
:102C0000002394F82C0084F82B300028F1D194F89C
:102C10002D30002BEED184F82900EBE7D0BA020862
:102C20007FC502086EBC0208485C012410B5174C31
:102C300015F0C2F994F8293013B994F82A30ABB1E1
:102C4000E169D4E90532534322694A4393420DD3E3
:102C500094F83C0038B19B1AB3FBF1F2994298BF4B
:102C600002F1FF326262012384F82E300123206CCE
:102C700084F83D3005F0B4FD94F83E302BB1606C23
:102C800005F019FD002384F83E3010BD80150024A6
:102C9000034B4FF080629A604FF080729A607047E9
:102CA00000E100E0084B4FF08062C3F88820BFF3DA
:102CB0004F8FBFF36F8F4FF08072C3F88820BFF340
:102CC0004F8FBFF36F8F704700E100E0F8B5034608
:102CD00090F82800D8B94FF480729E6B0125D86017
:102CE0009A8506F5BF22186102F500725861986155
:102CF000D861186258629D6283F82E00D3E90C47B0
:102D00003C44A2420AD90B4B52210B4A03E00B4B25
:102D100040F2C5110A4A0B4826F00EFF9E609A63E6
:102D20004FF4F07381F83450CB864FF48873086306
:102D30000B87F8BDD7C8020812C9020820C70208CD
:102D400050C702086EBC0208002370B5124E04463C
:102D50008380124B0360336893F858200AB1D86C13
:102D600000B998680368DB6A9847431E5D425D417D
:102D70003368D86C30B10368DB6A9847012808BF14
:102D800045F001052DB9064B2721064A064826F0D5
:102D9000D3FE204670BD00BF485C0124B8CB0208BA
:102DA000B5CA020813CB02084CCB020870B5244EFA
:102DB0003568BFF35B8F15F001053FD1304626F033
:102DC00047FB00283AD01F4C1F4B04F1340025610B
:102DD000E584A562A585C4E90035C4E902551AF069
:102DE000A6FE04F1580017F029FB184B2046A365F6
:102DF000174B40F8843BFFF7A7FF164B1648C4F863
:102E000084302433C4F89050C4F88C306423C4F860
:102E10009C50C4F8A850C4E928350023C4F8AC304D
:102E2000C4F8B030C4F8B430C4F8B8300B4BC4F8B0
:102E3000983026F09FFE304626F016FB014870BD04
:102E4000C0140024C414002454F50208D8CB02088E
:102E500050CC0208A0F50208B5280008D8F50208F1
:102E600010B5144C236823B3134B144A1B6C118800
:102E70008B4213D1124B198803F0BCF8226892F8E8
:102E80006A30013382F86A30FEF7E6FD206815F0FB
:102E9000DFFD0020BDE81040FEF7C4BB03F0AAF838
:102EA000206803681B6A98470020BDE81040FEF7C1
:102EB000EBBB10BD485C012400100050BE14002480
:102EC000BC1400242DE9F743044601264FF4B467EF
:102ED0004FF0FF31206C05F057FC4FF0FF31606C74
:102EE00005F0C6FB94F82E3043B36568D4F8208013
:102EF0002B6884F82B60B8F1000F23D05B6A414641
:102F000028469847002323622B684FF4F0720097FD
:102F10002846D3F814804FF48873A168C04723690A
:102F200084F82C0001332361F0B12B6828469B6A9A
:102F3000984701380023E06084F82E30606C05F07B
:102F4000BAFBC5E7626A002ADED02846D3E90993B6
:102F50009847616A01442846C8472369626AC4F8F1
:102F6000248013442361CFE70120E3E7014808B53B
:102F7000FFF7A8FF8015002438B51549002515482E
:102F8000FEF7CEFF144C154B2A462946012023603C
:102F90004FF48073A563A387A38584F83E5084F81B
:102FA0002E50C4E90C55C4E91055C4E90155C4E9D3
:102FB0000355C4E90555C4E90755C4E9095505F0A9
:102FC00099FB2064284605F01EFB606438BD00BFF5
:102FD00010160024C8150024801500249CCC02087B
:102FE000704710B50446042126F030FA204610BD83
:102FF000012908B506D0022908D059B900F000FC13
:10300000006808BD00F0FCFB4068FAE700F0F8FB40
:103010008068F6E70020F4E700487047ECCC02082F
:103020000220704713B5002451B1036801AA01942E
:103030008DF803409C680DF10303A04702B010BD5A
:103040000846FBE7C0897047008A7047C088704710
:1030500080887047807A00F07F007047807AC009CE
:1030600070470020704700009FED010A704700BFC5
:10307000000000007047704700F5987308684968C1
:1030800003C3704770477047416070477047000046
:10309000064BC0F84801C0F84C310023C0F850314D
:1030A00000F5A273C0F84031704700BF51310008ED
:1030B0000123037270477047704710B4416803469C
:1030C000C2689B68541001EB6200D20748BF0A59DE
:1030D0005DF8044B48BFD35818470346406830B1E9
:1030E0009A681AB9D86800F001007047012070474B
:1030F00010B504460C2126F0A9F9204610BD10B5E4
:103100000446102126F0A2F9204610BD10B5044651
:103110004FF4AE7126F09AF9204610BD10B519F0A3
:1031200079F90368BDE81040DB6B184710B5044619
:10313000D0F8400158B10368DB68984738B1D4F83B
:10314000400103689B6898470023C4F8403110BDD4
:103150002DE9F14FD0E9556A0746B06803681B6A4C
:103160009847CB2805D8444BA321444A444826F02D
:10317000E3FC706803681B6A98470F2803D8414B2B
:10318000A4213E4AF2E7F06803681B6A98470B28BF
:1031900003D83D4BA521394AE8E7DFF8F49019F050
:1031A00039F9043019F05BF9D9F8000010B103685F
:1031B000DB689847D9F8000010B103681B6898478E
:1031C000DFF8D080D8F8000010B103685B69984739
:1031D000D7F83C0110B103685B689847D8F8000045
:1031E00010B103681B689847D7F83C0110B1036819
:1031F0009B689847F06800214FF0000B03685B6AFA
:103200009847224B0446C0F804B080F808B05946ED
:103210000360B06803685B6A9847054600F05AFB94
:103220007068594603685B6A98470646294600F06D
:1032300031FB331DC7F83C612846C9F80040C8F887
:103240000050CAF800302B68C6F808A0DB68EE63AF
:103250009847336830461B689847214628461BF03C
:10326000C9F8236820461B699847236820465B6994
:1032700001B0BDE8F04F184714CD0208A2CD0208F6
:1032800074CE0208BBCE02085ECF020878D00208D6
:10329000905C01248C5C0124044B1B6893F858203B
:1032A0000AB1D86C00B99868704700BF485C012427
:1032B00070B5044616460D4619F072F90E4B002102
:1032C0001C600E4B23600E4BC4E951310D4B186846
:1032D000C4E953110368C4E94F119B68C4E95565FB
:1032E0009847FFF7D9FF20F06AFAFFF7D5FF20F0E3
:1032F000DDFA204670BD00BF9C5C012424D002088A
:103300000CD00208485C0124064BC0F84801C0F804
:103310004C310023C0F8503100F5A273C0F84031A1
:10332000704700BF51310008406A7047806A70479B
:1033300070478B88C069DB0A0A6850F82300104484
:10334000704710B50446BAB1107B68B1537BD27A8E
:103350001B0203F4E0631A43236A03EB82031A8817
:103360008A4202D193F9020010BD05D80138043316
:1033700080B20028F3D1F7E70020F5E710B5044646
:103380002C2126F063F8204610BD000030B58BB02C
:103390000446BDF860500895BDF85C5007959DF84F
:1033A000505006959DF84C5005959DF84850049551
:1033B0009DF8445003959DF8405002959DF83C506F
:1033C0000195BDF8385000951AF06EFC064B20466A
:1033D0002360159BE361169B2362199B63621A9B12
:1033E000A3620BB030BD00BF9CD00208704770478D
:1033F0007047704770477047704710B50446CC213E
:1034000026F024F8204610BD036870B504461B6BF7
:10341000154698472368204629465B6BBDE87040F7
:10342000184770B504461D46BDF91060FFF7ECFF64
:103430002368294620469B6B9847236831462046DF
:10344000DB6BBDE870401847094A4FF48071026099
:1034500000228184FF21826280F82610C0E90122C7
:10346000C0E90322C0E90522C0E90722704700BF76
:1034700070F602082DE9FF47044600251AF00EFEFB
:10348000314B264604F16C09E5634FF4887A46F81F
:10349000403B3046FFF7D8FF4846FFF7D5FF40F2E4
:1034A00001132A462946A4F8BC303046274B271D75
:1034B000C4F8C05004F19808C4F898304FF6FF7370
:1034C00084F8C450A4F8C630A4F8C83084F8CA30D0
:1034D0004FF4F073C4E92755C4E92955C4E92B55C5
:1034E000C4E92D55CDF800A0FFF79BFF4FF07F43B7
:1034F00031463846A36614F083FA2A4629464846E0
:103500004FF4F073CDF800A0FFF78BFF104B494646
:103510003846C4F8943014F073FA40466F223721CD
:10352000FFF772FF012303AA02A94046ADF8083055
:10353000ADF80C5016F0E0FF3846414614F060FA42
:10354000204604B0BDE8F08704D10208D8F602088E
:1035500021EB13FF7047000030B5164D8FB02C687B
:10356000BFF35B8F14F0010420D1284625F070FFD3
:10357000E0B13F23012210490993104B10480893F2
:10358000104B0A940594CDE906430423CDE9033298
:103590000A23CDE90B440093CDE90144FFF7F6FE81
:1035A000094826F0E7FA284625F05EFF04480FB0E8
:1035B00030BD00BF901D00243CFE02086CFE0208D6
:1035C000941D002478FE020855350008704700005D
:1035D00030B5164D8FB02C68BFF35B8F14F001042B
:1035E00020D1284625F034FFE0B13F2301221049C5
:1035F0000993104B10480893104B0A940594CDE999
:1036000006430423CDE903321423CDE90B44009390
:10361000CDE90144FFF7BAFE094826F0ABFA284687
:1036200025F022FF04480FB030BD00BFC01D0024AC
:103630004CFE020870FE0208C41D00247CFE020835
:10364000CD3500087047000030B5164D8FB02C689E
:10365000BFF35B8F14F0010420D1284625F0F8FE5B
:10366000E0B13F23012210490993104B1048089301
:10367000104B0A940594CDE906430423CDE90332A7
:103680002823CDE90B440093CDE90144FFF77EFEEA
:10369000094826F06FFA284625F0E6FE04480FB0E8
:1036A00030BD00BFF01D00245CFE020874FE02085D
:1036B000F41D002480FE02084536000800207047F3
:1036C000002070470EB403B503AB002153F8042B60
:1036D000019319F0EDFD02B05DF804EB03B0704703
:1036E0000CB407B504AB53F8042B019319F0E0FDBB
:1036F00003B05DF804EB02B070470000436C10B5F6
:10370000044673B3038F2BB9184BC521184A1948C7
:1037100026F012FAC38E00EB43035B8C0BB31BF055
:1037200035FB238F012B03D8134BCB21134AEEE734
:10373000E28E40F63F10531C9BB2092B194688BFFE
:10374000A3F10A0104EB4101498C814209D10A2B02
:1037500004EB420228BF0023508C04EB430358843F
:1037600051842046BDE810401BF012BA30D1020847
:1037700039D10208E4D102082ED202083CD2020854
:103780001BF0CFB938B518BB124B13481C6813494E
:10379000B4B1226822440260626822440A60A268CE
:1037A00014440F4B00221A8000F02AF8054600F05E
:1037B00025F80C4B1C600C4B1D600C4B188007E06F
:1037C0000B4B03600B4B0B600B4B1C68002CE8D1C0
:1037D00038BD00BF2C1E0024241E0024201E0024FF
:1037E000281E0024A05C0124A85C0124A45C012400
:1037F00088FE020884FE02088CFE02080020704742
:1038000000487047301E002410B5054CFFF7E0FE5D
:103810002060FFF719FF6060FFF79EFEA06010BDFB
:10382000301E002410B5002404600C6014601C607D
:1038300010BD704710B504464FF4AE7125F006FE7A
:10384000204610BD10B50446D0F8580100F013F81A
:103850002046BDE8104018F05FBE000010B50446D9
:10386000FFF726FD014B2046236010BD18D3020848
:1038700000220260704770477047043870477047F5
:1038800010B50446102125F0E1FD204610BDA0F141
:103890000400F5E70022C1608260024A026018322B
:1038A000426070476CD3020870470000034B10B5AC
:1038B00004460360FFF79FFD204610BD94D3020825
:1038C00010B50446FFF7F2FFCC21204625F0BEFDDF
:1038D000204610BD10B50446FFF7CCFD014B204635
:1038E000236010BD94D30208FFF786BD40F2011398
:1038F0004FF4F07200200B8005238B704FF4887317
:10390000C1E90123704790F82430012B04BF002344
:1039100080F82430002070470020704710B40469FC
:103920000089A4465DF8044B604710B4C468008960
:10393000A4465DF8044B604770B500F118050E46CB
:103940000978284600F0F4F804463179284600F05A
:10395000FBF80444317A284600F002F90444317B34
:10396000284600F009F90444317C284600F010F99B
:103970000444317D284600F017F9C44214BF4FF0CB
:10398000FF30002070BD183000F026B937B500F1C7
:1039900018050C4601A9284600F0BDF808BB9DF8A3
:1039A0000430052B98BF18460423206003212846C5
:1039B0000DEB030200F09CF8B0B99DF804309DF8BF
:1039C00005201B0203F4706313439DF80720636016
:1039D0009DF806301B0203F470631343A36003B029
:1039E00030BD4FF0FF30DFE74FF0FF30F7E7183022
:1039F00000F08CB80121183000F0E2B80021183036
:103A000000F0DEB810B590F8243004466BB90368B6
:103A100098472046FFF7F2FF00384FF0010318BF28
:103A2000012084F82430404210BD0020FCE7002033
:103A3000704770B500F1180588B00C4628466946F5
:103A400000F069F890BB9DF80030052B98BF184630
:103A500020601E236A460321284600F049F840BB37
:103A600021466D4614342A78063515F8056C130284
:103A7000920903F47063334315F8036C41F8043F73
:103A80008C4215F8043CCA634FEA032303F47063C5
:103A900043EA06034B6115F8023C8B6215F8013CC2
:103AA0004FEA13130B65DED108B070BD4FF0FF3045
:103AB000CEE74FF0FF30F7E790B14A680B684260FD
:103AC0000A8903600281CA68C2600A6902614A69A0
:103AD00000624261044AC261044A826103B118472C
:103AE0004FF0FF30704700BF1D3900082B39000828
:103AF00010B4D0E90140A4465DF8044B604710B40F
:103B000004688068A4465DF8044B604701230A46B8
:103B10001946FFF7EDBF10B50A460C4601230221F6
:103B2000FFF7E6FF18B9237803F00F03237010BDE9
:103B300007B501238DF807100DF107029121FFF75A
:103B4000DEFF03B05DF804FB07B501238DF8071015
:103B50000DF107029221FFF7D2FF03B05DF804FBDD
:103B600007B501238DF807100DF107029321FFF728
:103B7000C6FF03B05DF804FB07B501238DF80710FD
:103B80000DF107029421FFF7BAFF03B05DF804FBC3
:103B900007B501238DF807100DF107029521FFF7F6
:103BA000AEFF03B05DF804FB07B501238DF80710E5
:103BB0000DF107029621FFF7A2FF03B05DF804FBA9
:103BC00007B501238DF807100DF10702A421FFF7B7
:103BD00096FF03B05DF804FB0A460123A821FFF716
:103BE00087BF4FF080624FF480334FF48071C0E99B
:103BF00000234FF480524FF48063C0E902324FF447
:103C00008043C0E9043283614FF48023C0E9071385
:103C10000020704770B59AB00E4605460021144644
:103C200006A8502226F044FA1422002101A826F00A
:103C30003FFA2EB9012C50D14FF0FF301AB070BDB1
:103C40000423621E0993102053425341002E4FEA71
:103C5000C3020B9214BF012200224FEA02114FEA65
:103C600082220A9140F2FA510D924FEAC32208BF14
:103C700005210F924FF44052089106A90E920CBFF5
:103C80004FF080724FF0806214924FEAC3624FEAA5
:103C90004373169214BF052200221893012C4FF093
:103CA0000103179202930CBF022201224FF48003FA
:103CB000159241F28832CDE90430284602F081FBAA
:103CC0000028B9D141F2883201A9284602F0BEFC91
:103CD000003818BF01204042B0E70123B1E770B5BA
:103CE00096B00C46064615460021502202A826F042
:103CF000DFF90023012CCDE9003305D1002D53D18C
:103D00004FF0FF3016B070BD002C14BF0423012308
:103D10000122002C059314BF1346002302924FEAA0
:103D20000313069342D1002D0CBF0B230C23002C50
:103D3000049341F2883202A90CBF4FF480734FF410
:103D40008063002D304609930CBF4FF400534FF4AD
:103D50004053002C0A930CBF4FF080734FF08063E8
:103D600010930CBF08230623139302F02AFB0028AC
:103D7000C6D102230293E4B9002D18BF1223049385
:103D8000002341F2883202A93046139302F019FB56
:103D90000028B5D100906946304602F0A7FC0038F3
:103DA00018BF01204042ADE70423B1E74EF61343AC
:103DB000BDE741F2ED23E2E710B596B004464C2290
:103DC000002103A826F074F900234FF0080C4FF4EB
:103DD000006141F288322046CDE90033012302938D
:103DE000042305931023CDE9063C4EF611634FF0F2
:103DF000006C04934FF4806309934FF44053CDE972
:103E00000A314FF0806302A910930623CDE912C353
:103E10004FF00053149302F0D4FA18B14FF0FF3072
:103E200016B010BD022341F2883202A9029341F27A
:103E3000ED23CDE913002046049302F0C2FA0028D6
:103E4000ECD100906946204602F050FC003818BFC3
:103E500001204042E4E72DE9F0419AB00F460546C3
:103E60000021164606A8502226F022F9142200212D
:103E700001A826F01DF937B9012E63D14FF0FF30AC
:103E80001AB0BDE8F0810423711E099341F2883213
:103E900028464C424C41002F06A94FEAC40314BFE8
:103EA0004FF001084FF000080B934FEA08130A93F4
:103EB00040F2F96308BF0623089302F082FA002853
:103EC000DCD1002F40F2FA530C9041F2883208BF47
:103ED000052306A9284608934FEA88230D934FEA45
:103EE000C4230F934FF440530E930CBF4FF08073D5
:103EF0004FF0806314934FEAC4634FEA44741693FF
:103F000014BF05230023012E189417930CBF02231E
:103F10000123159302F055FA0028AFD10223102295
:103F2000039001A92846CDE901334FF48003CDE980
:103F3000043241F2883202F089FB003818BF0120B8
:103F400040429DE701239FE7F0B595B00E46054638
:103F500014460021502268461F4626F0A9F82EB9C3
:103F6000012C46D14FF0FF3015B0F0BD0423039370
:103F7000631E06975A425A41002E4FEAC203059328
:103F800014BF012300234FEA0313049347F28D2348
:103F900008BF722302930CBF4FF480734FF4806309
:103FA00007934FEAC2234FEAC26209934FF440538A
:103FB000109208930CBF4FF080734FF080630E9304
:103FC00019D0012C14BF0123022341F28832694623
:103FD00028460F9302F0F5F90028C3D141F2883248
:103FE0001AA9284602F098FA003818BF012040426A
:103FF000BAE70123BBE70123E7E72DE9F04194B0DD
:104000000F4606461546002150226846984626F07F
:104010004FF837B9012D4ED14FF0FF3014B0BDE845
:10402000F081042303936B1E41F2883269465C429F
:104030003046CDF818805C41002F4FEAC403059349
:1040400014BF012300234FEA0313049347F28E1396
:1040500008BF712302930CBF4FF480734FF4806349
:1040600007934FEAC42309934FF4405308930CBFBE
:104070004FF080734FF080630E934FEAC4634FEAB2
:104080004474109314BF05230023012D129411933F
:104090000CBF022301230F9302F093F90028BBD138
:1040A00041F288321A99304602F07AFA003818BF85
:1040B00001204042B2E70123B4E770B594B00D4649
:1040C0000646144600215022684625F0F1FF0DBB3C
:1040D000012C21D00123621E0393694630465442CD
:1040E0005441002D41F2883214BF012300234FEACE
:1040F000C4044FEA03130594049346F2996308BF7E
:104100006623029302F05DF9003818BF0120404297
:1041100014B070BD0423DEE74FF0FF30F8E770B550
:1041200094B00D460646144600215022684625F0FC
:10413000BFFF0DBB012C21D00123621E03936946F2
:10414000304654425441002D41F2883214BF0123BD
:1041500000234FEAC4044FEA03130594049349F67D
:10416000661308BF9923029302F02BF9003818BF99
:104170000120404214B070BD0423DEE74FF0FF3051
:10418000F8E70000114A08B513680BB9002008BD14
:10419000013B1360002BF9D14FF480410C4801F032
:1041A00055F90B484FF4004101F050F9094A0A480B
:1041B000D2F8F43023F08003C2F8F43001F07AFB37
:1041C0000028E3D06FF00700E1E700BF402800249B
:1041D00000140258004402584428002400230122FD
:1041E00010B5416004460362C0E90232C0E90433FD
:1041F000C0E9063301F008FB014608B1012010BDFB
:10420000204601F02EFD01460028F7D1204601F09E
:104210004EFD003818BF0120F1E700009F4BA04879
:104220002DE9F04F036093B09E4B1A680092013263
:104230001A60009B1BB1002013B0BDE8F08F01F0A5
:104240000BFD0028F7D1984D4FF480420121042640
:10425000D5F8E030954843F02003C5F8E030D5F8B4
:10426000E03003F020030A930A9BD5F8E03043F0D6
:104270002003C5F8E030D5F8E030119603F02003B4
:104280000B930B9B1223CDE90D230223CDE90F13D2
:104290000DA900F0F9FF4FF400430DA983480D93D9
:1042A000119600F0F1FFD5F8F43043F08003C5F823
:1042B000F430D5F8F43003F080030C930C9BD5F860
:1042C0009C3043F08003C5F89C30D5F89C3023F037
:1042D0008003C5F89C3003F09DF900286AD0744B28
:1042E0004FF01009009A03EB5003DFF8CCB192466F
:1042F000B3FBF0F000EB40056E4B86000146C5F1C4
:1043000032051B68C6F5C37625EAE57526EAE6762A
:1043100088464FF0000CB8F5AF7FCDF804C00CF123
:10432000010C5AD30027BE46BD4250D8BE424ED3E0
:1043300091454CD0142404FB03FA0133019C0BEB90
:104340000A097F2B4BF80A20C9E9014E3CD9594A8A
:104350001360584B40F6C412574900271B6802925D
:104360004FF0FF3205934300C3F5806B03F1320435
:10437000A3F634030BF1010B08940993059B9F42AC
:1043800037D17F2A16D814214B4B4A4399189B5892
:104390000C7C44EA03744B681B0503F470031C4354
:1043A0008B681B0403F470231C43CB681B029BB275
:1043B0002343009300993A48FFF710FF00283FF489
:1043C0003AAF6FF0070037E791464FF0010A0EF160
:1043D000010E0F44BEF1100FA6D1BCF1100F88449E
:1043E00099D101320144102A92D1BAF1000FAED115
:1043F000AFE70B684FF0000C089C03FB00031C4464
:10440000ABEB030503946C00039D0194099C1C44D1
:10441000079440F21454CDF810C00CF1010CA542E1
:1044200030D9A5F13206B0EB960F2BD2079C4FF096
:10443000000EDDF804906619DDF80C8006F2A11A72
:1044400040F21244CDF818E00EF1010EA24512D848
:10445000B8F5167F0FD380450DD936EA260A28BF56
:10446000CA46029CA24506D2049ACDF808A00A6169
:10447000069ACA603A46BEF5807F98441E44A9EB6E
:104480000309DBD1019CBCF5807F1D44A4EB030430
:104490000194BED10137143170E700BF001C0058F1
:1044A00044280024402800240044025800140258E4
:1044B00000CA9A3B3C1E0024401E00241FB54FF446
:1044C0007A7400920A4601460848CDE90134012376
:1044D00001F00AFA40B1054801F0C1FB042814BFFD
:1044E0006FF003006FF0650004B010BD4428002495
:1044F0001FB54FF47A7400920A4601460848CDE988
:104500000134012301F0CAFA40B1054801F0A7FBCC
:10451000042814BF6FF003006FF0650004B010BDF5
:104520004428002400F0D2BC30B5214C85B021488D
:10453000A2786178FFF78FFC18B16FF0040005B026
:1045400030BD03231B4800934FF44073A278617879
:10455000FFF7FAFC0028F0D1A27861781548FFF740
:104560007AFC03460028E8D1012512480095A2787C
:104570006178FFF7E9FC04460028DED1282000F02E
:10458000ABFC224629460B48FFF744FB03460028B4
:10459000D3D103AA2946009202460648FFF72DFD13
:1045A0000028CAD19DF80C30AB42C8D0C5E700BF87
:1045B00098280024A028002430B5274D85B0274C2A
:1045C000AA7869782046FFF746FC18B16FF004001E
:1045D00005B030BD0323204600934FF44073AA7802
:1045E0006978FFF7B1FC0028F0D1AA7820466978F5
:1045F000FFF731FC03460028E8D102222046009252
:10460000AA786978FFF7A0FC0028DFD1282000F005
:1046100063FC4FF080732046E3604FF08053E36209
:1046200001F048FEA8B9012220461146FFF7F2FA30
:1046300003460028CAD103AA20460092012211464F
:10464000FFF7DBFC0028C1D19DF80C30022BBFD056
:10465000BCE76FF00300BBE798280024A0280024E3
:104660000E4A0423C0E900230A68002302610222E3
:104670008360C0E905234A6842628A6803638262F4
:10468000CA68012AC0E9073312BF1A464FF0807387
:104690004FF08052C360C26201F00CBE0050005265
:1046A00010B598B90B4CA37861785BB901220A4820
:1046B000FFF715FB10B16FF0040010BD02230020BE
:1046C0002370FAE70448FFF777FBF3E76FF0010088
:1046D000F3E700BF98280024A028002410B550B9A3
:1046E000094C2378022B09D1084802F02EF840B972
:1046F0000123237010BD6FF00100FBE76FF01A007B
:10470000F8E76FF00300F5E798280024A0280024BC
:1047100010B5002856D12D4C2378022B4BD0002306
:104720004FF480612A482380A37000F08FFE04219B
:10473000284800F08BFE4021274800F087FE4FF408
:104740000061264800F082FE4FF48051234800F0BB
:104750007DFE0421224800F079FE4FF400511F48ED
:1047600000F074FE10211D4800F070FE20211B484F
:1047700000F06CFE4FF40071174800F067FE8021D6
:10478000164800F063FE174B1748DA6F42F4804278
:10479000DA67DA6F22F48042DA67D3F8D42022F4A1
:1047A0008042C3F8D42001F0F9FD002814BF6FF057
:1047B0000300002010BDFFF791FF0028AFD06FF07D
:1047C0000400F7E76FF00100F4E700BF9828002429
:1047D000001402580004025800180258000C025835
:1047E0000010025800440258A02800242DE9FF417F
:1047F0000D461646002856D12E4C2378022B55D054
:104800006378012B46D10129A27809D1964207D1BC
:104810000123002065702370A67004B0BDE8F0810C
:10482000254F01213846FFF716FB034678BB009061
:10483000ADF80C003846A2786178FFF785FB80461A
:1048400028BB282000F048FBA378012B06D138466E
:10485000C7F80C80C7F82C8001F02CFD0022164808
:104860001146FFF7D7F9034688B903AA014600921B
:1048700002461148FFF7C1FB48B99DF80C3033B927
:10488000012DC5D1A3784BB9FFF796FE08E06FF074
:104890000400C2E70129BBD1002AF5D1FFF744FE8D
:1048A0000028BAD1B4E76FF00100B6E76FF0190045
:1048B000B3E700BF98280024A028002400B54FF0DB
:1048C0000072AFB000236846CDE9002320235022B8
:1048D00013930523CDE9023204930223CDE9053376
:1048E0000023CDE90833079302F0C0FF2FB05DF835
:1048F00004FB00002DE9F0430D469BB0002840F07A
:104900006081B14E34781CB100201BB0BDE8F0834B
:10491000AE4B4FF002094FF00A0811A9D3F8D4208A
:104920000427AB4842F48042C3F8D420D3F8D42003
:1049300002F480420192019ADA6F42F48042DA670F
:10494000DA6F22F48042DA67D3F8E02042F02002E6
:10495000C3F8E020D3F8E02002F020020292029A8D
:10496000D3F8E02042F00202C3F8E020D3F8E020C0
:1049700002F002020392039AD3F8E02042F04002D0
:10498000C3F8E020D3F8E02002F040020492049A39
:10499000D3F8E02042F00802C3F8E020D3F8E0208A
:1049A00002F008020592059AD3F8E02042F00802CE
:1049B000C3F8E020D3F8E02002F008020692069A3D
:1049C000D3F8E02042F01002C3F8E020D3F8E02052
:1049D00002F010020792079AD3F8E02042F0080292
:1049E000C3F8E020D3F8E02002F008020892089A09
:1049F000D3F8E02042F00802C3F8E020D3F8E0202A
:104A000002F008020992099AD3F8E02042F0080265
:104A1000C3F8E020D3F8E02002F008020A920A9AD4
:104A2000D3F8E02042F04002C3F8E020D3F8E020C1
:104A300002F040020B920B9AD3F8E02042F00802F9
:104A4000C3F8E0200122D3F8E03003F008030C9310
:104A50000C9B4023CDE911390323CDF85480CDE9D7
:104A6000132300F011FC11A95A4811971394CDF8A3
:104A7000548000F009FC4FF480631394092411A9B9
:104A800055481193159400F0FFFB4FF4006311A9F2
:104A900052481193159400F0F7FB4FF4805311A97D
:104AA0004E481193159400F0EFFB11A94C48119753
:104AB0002027159400F0E8FB4FF4005311A9474854
:104AC0001193159400F0E0FB102311A943481193B2
:104AD000CDF8548000F0D8FB11A940481197CDF8CB
:104AE000548000F0D1FB4FF4007311A938481193A2
:104AF000159400F0C9FB802311A938481193CDF813
:104B0000548000F0C1FB11A8FFF76BF8119BCDF8A2
:104B1000389093FAA3F30BB1B3FA83F7002331482B
:104B20000D970F936B781093FFF7C8FE10B16FF0DD
:104B30000300EAE60DA92B48FFF792FD0246002884
:104B4000F5D101462748FFF7B8FA024610B16FF0D9
:104B50000400DAE601462348FFF7E1FA024600289E
:104B6000F5D101211F48FFF7A8FA02460028EED12F
:104B700001211C48FFF7D3FA0028E8D10122194887
:104B80001146FFF79AFA0028E1D101221548114693
:104B9000FFF7C5FA0028DAD10123B0706420338012
:104BA00000F09AF9B27871780E48FFF733F80028D0
:104BB000CDD16A782978FFF719FE00283FF4A4AE1A
:104BC000C5E76FF00100A0E69828002400440258D1
:104BD000001802580004025800140258000C025831
:104BE00000100258A02800242DE9F0410C4688B09E
:104BF000002863D10B685A1EB2F5F07F5ED24A6876
:104C0000511EB1F5887F59D2934228BF1346E268FE
:104C10009A4253D870232B4D019002A9ADF8103061
:104C20002846294B0293294B0393294B0693294B82
:104C30000593294B0793FEF73FFF28B14FF0FF354F
:104C4000284608B0BDE8F08101A92846FEF79BFE82
:104C50000028F3D1019B512BF0D1204B2846204F47
:104C6000DFF884803D60C8F800301B68984705462F
:104C70000028E3D1236802A91A4E386833606368BC
:104C80007360A368B360E368F360D8F80030DB6951
:104C9000984700280FDB039B22683361049B6168FF
:104CA0007361E3681A440B4401320133B2617362E9
:104CB000C6E90723C4E76FF00405C1E76FF00105FB
:104CC000BEE700BFFC2800241D4200088541000803
:104CD000F1440008BD440008254500080C000024EC
:104CE0004C29002424290024502900242DE9FF41C7
:104CF0000C46002850D12A4B01A92A4A1B6810688B
:104D00001B699847002844DB2749019E8D69086A82
:104D1000002E3AD0D1F808E0D1F810801EF0080F2C
:104D2000DDE902C719BF3B4662463A4663461EF0BC
:104D3000020F1CBF08F1FF33A3EB0C03D1F814C022
:104D40001EF0040F18BFACEB07020F687B434F68DF
:104D500026607A43CF68B3FBF8F3B2FBFCF2AB42B8
:104D60006360A2608CBFA3EB050CA5EB030C824231
:104D70008CBF161A861A674501D3B74206D28B61DB
:104D80000A62002004B0BDE8F0812660C4E9015049
:104D9000F7E76FF00400F5E76FF00100F2E700BFFE
:104DA000502900244C29002424290024224AD2F826
:104DB000883043F47003C2F88830204A136803F047
:104DC0000F03062B05D8136823F00F0343F00703E6
:104DD00013601B4B1A6842F001021A6000221A612C
:104DE000184A19680A4015491A600A68120705D559
:104DF0000A6822F00F0242F007020A6000221249FC
:104E00009A61DA611A6299621049D962104919638C
:104E10005A639963DA6319645A64196821F480212A
:104E200019601A6643F2D2020A4B1A604FF0006210
:104E3000014B9A60704700BF00ED00E00020005277
:104E4000004402587FEDF6EA000202020000FF0172
:104E5000800201010040005210B5032000F04EF81E
:104E600002F0DCF90F49104A8B69C3F30323D35CCA
:104E700003F01F03D8408B6903F00F03D35C0B4A88
:104E800003F01F0320FA03F31360094B186000209E
:104E9000FCF75AFA044618B9FBF762FF204610BD2A
:104EA0000124FBE700440258C0D302083C00002460
:104EB00040000024034A044B11681B780B44136024
:104EC000704700BF5429002444000024014B186897
:104ED000704700BF5429002438B50446FFF7F6FF99
:104EE0000546631C1EBF044B1B78E418FFF7EEFF5A
:104EF000431BA342FAD338BD4400002407490302F0
:104F0000CA6803F4E06322F4E0621204120C134353
:104F100043F0BF6343F40033CB60704700ED00E023
:104F2000164B30B5DC68C4F30224C4F10703251D19
:104F3000042B28BF0423062D4FF0FF358CBF033C04
:104F4000002405FA03F3002805FA04F521EA030317
:104F500022EA050203FA04F343EA02034FEA0313C9
:104F6000DBB206DB00F1604000F5614080F8003301
:104F700030BD00F00F00024A1354F9E700ED00E0E5
:104F800014ED00E0002807DB0123410900F01F00B9
:104F9000024A834042F82130704700BF00E100E040
:104FA000BFF35F8F044B5A6A22F480325A620022A8
:104FB000C3F89420704700BF00ED00E0064B40F0BE
:104FC0000100C3F894005A6A42F480325A62BFF377
:104FD0004F8FBFF36F8F704700ED00E04378144AA6
:104FE000C2F89830D2F8A03023F00103C2F8A03004
:104FF0004368C2F89C30C37A017B1B0643EA017305
:1050000001780B43817A43EAC143417B43EA814300
:10501000817B43EA4143C17B43EA0143417A43EA4E
:105020000123017A43EA4103C2F8A030704700BF70
:1050300000ED00E010B5044608B9012010BD437F23
:1050400003F0FF0213B90277FBF7A2FE0223637796
:105050002379E3B92368134A5A619A6822F0180247
:105060009A6062792368D2B94FF0FF321A6100204A
:105070009A68616922F060020A43A1699A609A689D
:1050800022F080020A439A6001236377D6E7D4E9CD
:105090000212204600F008F80028E2D0CDE722698D
:1050A000E4E700BFB71DC104CB0710B50DD51F2322
:1050B000013B1DD321FA03F4E407F9D5102A13D0DC
:1050C000102A04D83AB1082A10D001200BE0182A7F
:1050D000FBD1062BF9D800684161836823F01803DF
:1050E00013438360002010BD072BF3E70F2BF1E77C
:1050F000102AE5D1E9E710B50446002836D090F82B
:10510000613003F0FF021BB980F86020FBF758FE06
:105110000223E069626884F8613023680243A06971
:10512000196821F4E02121F040010A431A60596B0B
:10513000A26821F48371024321F001010A43E1686E
:105140005A631A6C120C12040A431A64596BD4E99C
:10515000040221F44011520542EA005200200A43A1
:105160005A630123606684F8613010BD0120FCE7BA
:1051700070477047036870B55E6804461D68F207A3
:1051800014D5E90512D51A6822F480721A60426EAD
:1051900042F00102426601229A60042380F86130E5
:1051A000002380F86030436A03B19847B20616D5F1
:1051B000AB0414D523681A6822F400521A60202226
:1051C0009A60636E43F002036366042384F86130DF
:1051D000002384F86030636A0BB12046984730079B
:1051E00016D5290514D523681A6822F400621A60BE
:1051F00008229A60636E43F004036366042384F814
:105200006130002384F86030636A0BB12046984710
:1052100072070BD56B0509D5236820461A6822F45E
:1052200080621A6004229A60FFF7A2FFB00714D5CB
:10523000A90512D523681A6822F400721A600222A6
:105240009A60636E6366012384F86130002384F8FA
:105250006030236A0BB120469847F20613D5EB0461
:1052600011D5236820461A6822F480521A60102251
:105270009A60636E6366012384F86130002384F8CA
:105280006030FFF776FF70BD2DE9F74F0023DFF8A0
:10529000B8914FF0B0440A6832FA03F502D103B076
:1052A000BDE8F08F012505FA03F818EA020200F0C4
:1052B000B7804E6803274FEA430E06F0030507FA4E
:1052C0000EFC6F1E6FEA0C0C012F34D8876807EABA
:1052D0000C0ACF6807FA0EF747EA0A0787604768A3
:1052E00027EA0808C6F300179F4047EA0807476007
:1052F000C768022D07EA0C088F6807FA0EF747EA1D
:105300000807C76019D14FEAD30803F0070A4FF026
:105310000F0B00EB88084FEA8A0AD8F820700BFAC6
:105320000AFB27EA0B0B0F6907FA0AF747EA0B0794
:10533000C8F8207001E0032DDAD1076805FA0EF5F0
:1053400016F4403F07EA0C0745EA0705056067D0F9
:10535000D9F8F45023F0030703F0030C4FF00F0EBD
:1053600045F0020507F1B0474FEA8C0CC9F8F4503C
:1053700007F58067D9F8F4500EFA0CFE05F0020527
:105380000195019DBD6825EA0E0E2E4DA84249D01B
:1053900005F58065A84247D005F58065A84245D04F
:1053A00005F58065A84243D005F58065A84241D047
:1053B00005F58065A8423FD005F58065A8423DD03F
:1053C00005F58065A8423BD005F50065A84214BFED
:1053D0000A25092505FA0CF516F4801F45EA0E0585
:1053E000BD606FEA020725680CBF3D40154316F407
:1053F000001F256065680CBF3D40154316F4003F53
:105400006560D4F884500CBF3D401543F603C4F8E2
:105410008450D4F8805054BF3D401543C4F88050A8
:10542000013338E70025D5E70125D3E70225D1E789
:105430000325CFE70425CDE70525CBE70625C9E7FA
:105440000725C7E700000258004402582DE9F04F35
:1054500000224FF0010A4FF00F084FF0030B4FF0FE
:10546000B04431FA02F301D1BDE8F08F0AFA02FC30
:105470001CEA01066CD022F0030502F0030705F1D7
:10548000B045BF00D5F8083408FA07F905F580657E
:1054900009EA030E374B98425CD003F580639842CB
:1054A0005AD003F58063984258D003F58063984240
:1054B00056D003F58063984254D003F58063984238
:1054C00052D003F58063984250D003F58063984230
:1054D0004ED003F5006398420CBF09230A23BB405A
:1054E000734517D1D4F8803023EA0603C4F880301E
:1054F000D4F8843023EA0603C4F88430636823EACE
:1055000006036360236823EA06032360AB6823EA8B
:105510000903AB6053000568D6080BFA03F300EBF0
:1055200086061D43056002F00705376AAD0008FADC
:1055300005F527EA05073762C56825EA0305C56052
:10554000456825EA0C054560856825EA0303836004
:10555000013286E70023C2E70123C0E70223BEE74A
:105560000323BCE70423BAE70523B8E70623B6E71D
:105570000723B4E7000002580369194214BF012051
:10558000002070470AB1816170470904FBE7436955
:1055900001EA030221EA030141EA02418161704705
:1055A00003689A69910701D500229A629A69D20725
:1055B00003D49A6942F001029A61704730B5039DA5
:1055C000C1F3090104682B43606843EA0243054ABA
:1055D0000B4342EA555223F0004320EA0200034302
:1055E000636030BDFF63FF0303682DE9F0419C69F0
:1055F00005460F46164614F010046FD00024102202
:10560000A046DA612B689A69900661D4B8F1000F60
:1056100035D044F0040401202E68B369D90505D5BE
:105620004FF4807244F001040120F2615A0505D55F
:105630004FF4806244F008040120F2619B054FD5CD
:105640004FF4007344F00204F3612846FFF7A8FF0B
:105650007368012023F0FF7323F48B3323F4FF736B
:1056600023F0010373606B6C23436B64202385F884
:105670004130002385F8423085F8403032E07A1C12
:10568000C1D0FFF723FC801BB84201D8002FB9D14D
:105690002B68596895F842209869D2B200040AD55F
:1056A000490408D4202A06D05A6842F480425A603D
:1056B000FFF70CFC06462B689B699B06A2D4FFF7FC
:1056C00005FC801B1928F6D920244FF0010899E722
:1056D000B8F1000F9DD12022DA619AE720469BE7BE
:1056E0000028B2D1BDE8F08170B504460D461646DB
:1056F00023689B699B0701D500201FE0324629469D
:105700002046FFF771FFC0B96A1CF1D0FFF7DEFB3E
:10571000801BA84201D8002DEAD123689B6913F0B1
:105720000203E5D1626C84F8403042F020026264EA
:10573000202284F8412084F84230012070BD2DE9F8
:10574000F041DDF8188004460F4616461D462368D2
:105750009B6937EA03030CBF01230023B34201D046
:10576000002025E0424629462046FFF73DFFF0B9DC
:105770006B1CECD0FFF7AAFBA0EB0800A84201D8F5
:10578000002DE4D123689B6937EA03030CBF012392
:105790000023B342DBD1636C43F020036364202316
:1057A00084F84130002384F8423084F840300120EE
:1057B000BDE8F08170B504460D46164623689B6926
:1057C0009B0601D500201DE0324629462046FFF702
:1057D0000BFFB0B9FFF77AFB801BA84201D8002D60
:1057E000ECD123689B6913F02003E7D1626C84F845
:1057F000403042F020026264202284F8412084F884
:105800004230012070BD704710B5044600284ED0CC
:1058100090F8413003F0FF021BB980F84020FFF7F9
:10582000F2FF242384F8413023681A6822F0010231
:105830001A60626822F070621A619A6822F400426B
:105840009A60D4E90221012906D142F400429A600B
:105850005A6822F4006207E042F4044202299A6086
:10586000F6D15A6842F400625A6000205A6842F049
:10587000007242F400425A60DA6822F40042DA60B0
:10588000D4E904210A43A16942EA0122DA60D4E999
:1058900007210A431A601A6842F001021A602023A5
:1058A000606484F84130206384F8420010BD012018
:1058B000FCE7704710B5044698B10268242380F8CD
:1058C0004130136823F001031360FFF7F2FF00205B
:1058D000606484F8400084F84100206384F842004A
:1058E00010BD0120FCE700002DE9F74F994690F824
:1058F000413004460F46202B1646BDF834A0DDF893
:10590000388040F0C6800C9B13B1BAF1000F06D16D
:105910004FF400736364012003B0BDE8F08F90F88A
:105920004030012B00F0B5804FF0010B80F840B003
:10593000FFF7CCFA1923054600905A464FF4004170
:105940002046FFF7FCFE0028E5D1212360635FFAC3
:1059500089F2394684F84130402384F842300C9B68
:105960006064204663624C4BA4F82AA000934FF079
:105970008073FFF723FE2A4641462046FFF7B4FE18
:1059800018BBB9F1010F236815D1F6B200228021AE
:1059900020469E6243460095FFF7D1FEA8B9638D6D
:1059A0009BB2FF2B15D8628D4FF0007392B2228507
:1059B000D2B2009012E0320A414620469A622A464C
:1059C000FFF792FE08B92368DFE7002384F8403030
:1059D000A1E7FF224FF080732285009039462046D0
:1059E000FFF7ECFD2A4641462046FFF77DFE0028E2
:1059F00091D1636A226813F8011B91626362638D1F
:105A0000228D013B013A9BB292B26385638D228560
:105A10009BB2B3B1AAB94346802120460095FFF757
:105A20008EFE00287FF477AF638D9BB2FF2B28D9C1
:105A3000FF224FF080732285009039462046FFF701
:105A4000BDFD638D9BB2002BCCD12A46414620463A
:105A5000FFF7B0FE00287FF45EAF23682021D961F4
:105A60005A6822F0FF7222F48B3222F4FF7222F085
:105A700001025A6084F8411084F8400084F8420022
:105A80004AE7628D4FF0007392B22285D2B2009045
:105A9000D3E7022040E700BF002000802DE9F74F48
:105AA000994690F8413004460F46202B1646BDF823
:105AB00034A0DDF8388040F0C9800C9B13B1BAF1F6
:105AC000000F06D14FF400736364012003B0BDE8FA
:105AD000F08F90F84030012B00F0B8804FF0010BB0
